{
  "contractName": "CfxMiner",
  "abi": [
    {
      "inputs": [
        {
          "internalType": "address",
          "name": "_iNft",
          "type": "address"
        },
        {
          "internalType": "address",
          "name": "_iConposeNft",
          "type": "address"
        }
      ],
      "stateMutability": "nonpayable",
      "type": "constructor"
    },
    {
      "anonymous": false,
      "inputs": [
        {
          "indexed": false,
          "internalType": "address",
          "name": "_sender",
          "type": "address"
        },
        {
          "indexed": false,
          "internalType": "uint256",
          "name": "_tokenId",
          "type": "uint256"
        }
      ],
      "name": "ExchangeRewardCard",
      "type": "event"
    },
    {
      "anonymous": false,
      "inputs": [
        {
          "indexed": false,
          "internalType": "address",
          "name": "_sender",
          "type": "address"
        },
        {
          "indexed": false,
          "internalType": "uint256",
          "name": "_tokenId",
          "type": "uint256"
        },
        {
          "indexed": false,
          "internalType": "uint256",
          "name": "_level",
          "type": "uint256"
        }
      ],
      "name": "ExchangeWithWord",
      "type": "event"
    },
    {
      "anonymous": false,
      "inputs": [
        {
          "indexed": true,
          "internalType": "address",
          "name": "previousOperator",
          "type": "address"
        },
        {
          "indexed": true,
          "internalType": "address",
          "name": "newOperator",
          "type": "address"
        }
      ],
      "name": "OperatorTransferred",
      "type": "event"
    },
    {
      "anonymous": false,
      "inputs": [
        {
          "indexed": true,
          "internalType": "address",
          "name": "previousOwner",
          "type": "address"
        },
        {
          "indexed": true,
          "internalType": "address",
          "name": "newOwner",
          "type": "address"
        }
      ],
      "name": "OwnershipTransferred",
      "type": "event"
    },
    {
      "inputs": [],
      "name": "SPONSOR",
      "outputs": [
        {
          "internalType": "contract SponsorWhitelistControl",
          "name": "",
          "type": "address"
        }
      ],
      "stateMutability": "view",
      "type": "function"
    },
    {
      "inputs": [
        {
          "internalType": "address",
          "name": "",
          "type": "address"
        }
      ],
      "name": "addressCount",
      "outputs": [
        {
          "internalType": "uint256",
          "name": "",
          "type": "uint256"
        }
      ],
      "stateMutability": "view",
      "type": "function"
    },
    {
      "inputs": [],
      "name": "balance",
      "outputs": [
        {
          "internalType": "uint256",
          "name": "",
          "type": "uint256"
        }
      ],
      "stateMutability": "view",
      "type": "function"
    },
    {
      "inputs": [],
      "name": "bool1",
      "outputs": [
        {
          "internalType": "bool",
          "name": "",
          "type": "bool"
        }
      ],
      "stateMutability": "view",
      "type": "function"
    },
    {
      "inputs": [],
      "name": "bool2",
      "outputs": [
        {
          "internalType": "bool",
          "name": "",
          "type": "bool"
        }
      ],
      "stateMutability": "view",
      "type": "function"
    },
    {
      "inputs": [],
      "name": "bool3",
      "outputs": [
        {
          "internalType": "bool",
          "name": "",
          "type": "bool"
        }
      ],
      "stateMutability": "view",
      "type": "function"
    },
    {
      "inputs": [],
      "name": "bool4",
      "outputs": [
        {
          "internalType": "bool",
          "name": "",
          "type": "bool"
        }
      ],
      "stateMutability": "view",
      "type": "function"
    },
    {
      "inputs": [],
      "name": "dayCount",
      "outputs": [
        {
          "internalType": "uint256",
          "name": "",
          "type": "uint256"
        }
      ],
      "stateMutability": "view",
      "type": "function"
    },
    {
      "inputs": [],
      "name": "dayCountRest",
      "outputs": [
        {
          "internalType": "uint256",
          "name": "",
          "type": "uint256"
        }
      ],
      "stateMutability": "view",
      "type": "function"
    },
    {
      "inputs": [],
      "name": "duration",
      "outputs": [
        {
          "internalType": "uint256",
          "name": "",
          "type": "uint256"
        }
      ],
      "stateMutability": "view",
      "type": "function"
    },
    {
      "inputs": [],
      "name": "endTime",
      "outputs": [
        {
          "internalType": "uint256",
          "name": "",
          "type": "uint256"
        }
      ],
      "stateMutability": "view",
      "type": "function"
    },
    {
      "inputs": [],
      "name": "isOperator",
      "outputs": [
        {
          "internalType": "bool",
          "name": "",
          "type": "bool"
        }
      ],
      "stateMutability": "view",
      "type": "function"
    },
    {
      "inputs": [
        {
          "internalType": "address",
          "name": "",
          "type": "address"
        },
        {
          "internalType": "uint256",
          "name": "",
          "type": "uint256"
        }
      ],
      "name": "isReset",
      "outputs": [
        {
          "internalType": "bool",
          "name": "",
          "type": "bool"
        }
      ],
      "stateMutability": "view",
      "type": "function"
    },
    {
      "inputs": [],
      "name": "lastExchangeTime",
      "outputs": [
        {
          "internalType": "uint256",
          "name": "",
          "type": "uint256"
        }
      ],
      "stateMutability": "view",
      "type": "function"
    },
    {
      "inputs": [
        {
          "internalType": "uint256",
          "name": "",
          "type": "uint256"
        }
      ],
      "name": "levels",
      "outputs": [
        {
          "internalType": "uint256",
          "name": "",
          "type": "uint256"
        }
      ],
      "stateMutability": "view",
      "type": "function"
    },
    {
      "inputs": [],
      "name": "limitCount",
      "outputs": [
        {
          "internalType": "uint256",
          "name": "",
          "type": "uint256"
        }
      ],
      "stateMutability": "view",
      "type": "function"
    },
    {
      "inputs": [],
      "name": "maxNum",
      "outputs": [
        {
          "internalType": "uint256",
          "name": "",
          "type": "uint256"
        }
      ],
      "stateMutability": "view",
      "type": "function"
    },
    {
      "inputs": [],
      "name": "minNum",
      "outputs": [
        {
          "internalType": "uint256",
          "name": "",
          "type": "uint256"
        }
      ],
      "stateMutability": "view",
      "type": "function"
    },
    {
      "inputs": [],
      "name": "operator",
      "outputs": [
        {
          "internalType": "address",
          "name": "",
          "type": "address"
        }
      ],
      "stateMutability": "view",
      "type": "function"
    },
    {
      "inputs": [],
      "name": "owner",
      "outputs": [
        {
          "internalType": "address",
          "name": "",
          "type": "address"
        }
      ],
      "stateMutability": "view",
      "type": "function"
    },
    {
      "inputs": [],
      "name": "period",
      "outputs": [
        {
          "internalType": "uint256",
          "name": "",
          "type": "uint256"
        }
      ],
      "stateMutability": "view",
      "type": "function"
    },
    {
      "inputs": [],
      "name": "renounceOwnership",
      "outputs": [],
      "stateMutability": "nonpayable",
      "type": "function"
    },
    {
      "inputs": [],
      "name": "rewardCfx",
      "outputs": [
        {
          "internalType": "uint256",
          "name": "",
          "type": "uint256"
        }
      ],
      "stateMutability": "view",
      "type": "function"
    },
    {
      "inputs": [],
      "name": "startTime",
      "outputs": [
        {
          "internalType": "uint256",
          "name": "",
          "type": "uint256"
        }
      ],
      "stateMutability": "view",
      "type": "function"
    },
    {
      "inputs": [
        {
          "internalType": "uint256",
          "name": "",
          "type": "uint256"
        }
      ],
      "name": "tokenHasExchange",
      "outputs": [
        {
          "internalType": "bool",
          "name": "",
          "type": "bool"
        }
      ],
      "stateMutability": "view",
      "type": "function"
    },
    {
      "inputs": [
        {
          "internalType": "uint256",
          "name": "",
          "type": "uint256"
        }
      ],
      "name": "tokenIds",
      "outputs": [
        {
          "internalType": "uint256",
          "name": "",
          "type": "uint256"
        }
      ],
      "stateMutability": "view",
      "type": "function"
    },
    {
      "inputs": [],
      "name": "totalCount",
      "outputs": [
        {
          "internalType": "uint256",
          "name": "",
          "type": "uint256"
        }
      ],
      "stateMutability": "view",
      "type": "function"
    },
    {
      "inputs": [],
      "name": "totalCountRest",
      "outputs": [
        {
          "internalType": "uint256",
          "name": "",
          "type": "uint256"
        }
      ],
      "stateMutability": "view",
      "type": "function"
    },
    {
      "inputs": [
        {
          "internalType": "address",
          "name": "newOperator_",
          "type": "address"
        }
      ],
      "name": "transferOperator",
      "outputs": [],
      "stateMutability": "nonpayable",
      "type": "function"
    },
    {
      "inputs": [
        {
          "internalType": "address",
          "name": "newOwner",
          "type": "address"
        }
      ],
      "name": "transferOwnership",
      "outputs": [],
      "stateMutability": "nonpayable",
      "type": "function"
    },
    {
      "stateMutability": "payable",
      "type": "receive"
    },
    {
      "inputs": [
        {
          "internalType": "uint256",
          "name": "_startTime",
          "type": "uint256"
        },
        {
          "internalType": "uint256",
          "name": "_endTime",
          "type": "uint256"
        }
      ],
      "name": "setStartTime",
      "outputs": [],
      "stateMutability": "nonpayable",
      "type": "function"
    },
    {
      "inputs": [
        {
          "internalType": "address",
          "name": "_sender",
          "type": "address"
        }
      ],
      "name": "getBaseInfo",
      "outputs": [
        {
          "internalType": "uint256",
          "name": "_minNum",
          "type": "uint256"
        },
        {
          "internalType": "uint256",
          "name": "_maxNum",
          "type": "uint256"
        },
        {
          "internalType": "uint256",
          "name": "_dayCountRest",
          "type": "uint256"
        },
        {
          "internalType": "uint256",
          "name": "_totalCountRest",
          "type": "uint256"
        },
        {
          "internalType": "uint256",
          "name": "_addressCount",
          "type": "uint256"
        }
      ],
      "stateMutability": "view",
      "type": "function"
    },
    {
      "inputs": [],
      "name": "initTotalCount1",
      "outputs": [],
      "stateMutability": "nonpayable",
      "type": "function"
    },
    {
      "inputs": [],
      "name": "initTotalCount2",
      "outputs": [],
      "stateMutability": "nonpayable",
      "type": "function"
    },
    {
      "inputs": [],
      "name": "initTotalCount3",
      "outputs": [],
      "stateMutability": "nonpayable",
      "type": "function"
    },
    {
      "inputs": [],
      "name": "initTotalCount4",
      "outputs": [],
      "stateMutability": "nonpayable",
      "type": "function"
    },
    {
      "inputs": [
        {
          "internalType": "uint256",
          "name": "_minNum",
          "type": "uint256"
        },
        {
          "internalType": "uint256",
          "name": "_maxNum",
          "type": "uint256"
        }
      ],
      "name": "setNumber",
      "outputs": [],
      "stateMutability": "nonpayable",
      "type": "function"
    },
    {
      "inputs": [],
      "name": "updateDayCount",
      "outputs": [],
      "stateMutability": "nonpayable",
      "type": "function"
    },
    {
      "inputs": [],
      "name": "getTokenIds",
      "outputs": [
        {
          "internalType": "uint256[]",
          "name": "_tokenIds",
          "type": "uint256[]"
        }
      ],
      "stateMutability": "view",
      "type": "function"
    },
    {
      "inputs": [
        {
          "internalType": "uint256",
          "name": "_duration",
          "type": "uint256"
        }
      ],
      "name": "setDuration",
      "outputs": [],
      "stateMutability": "nonpayable",
      "type": "function"
    },
    {
      "inputs": [
        {
          "internalType": "uint256",
          "name": "_word",
          "type": "uint256"
        }
      ],
      "name": "exchangeWithWord",
      "outputs": [
        {
          "internalType": "uint256",
          "name": "_tokenId",
          "type": "uint256"
        }
      ],
      "stateMutability": "nonpayable",
      "type": "function"
    },
    {
      "inputs": [
        {
          "internalType": "uint256[]",
          "name": "tokenIds",
          "type": "uint256[]"
        }
      ],
      "name": "exchangeRewardCard",
      "outputs": [
        {
          "internalType": "uint256",
          "name": "_tokenId",
          "type": "uint256"
        }
      ],
      "stateMutability": "nonpayable",
      "type": "function"
    },
    {
      "inputs": [],
      "name": "sendCfx",
      "outputs": [],
      "stateMutability": "payable",
      "type": "function"
    },
    {
      "inputs": [
        {
          "internalType": "uint256",
          "name": "_tokenId",
          "type": "uint256"
        }
      ],
      "name": "exchangeCfxReward",
      "outputs": [],
      "stateMutability": "nonpayable",
      "type": "function"
    },
    {
      "inputs": [
        {
          "internalType": "address",
          "name": "operator",
          "type": "address"
        },
        {
          "internalType": "address",
          "name": "from",
          "type": "address"
        },
        {
          "internalType": "uint256",
          "name": "id",
          "type": "uint256"
        },
        {
          "internalType": "uint256",
          "name": "value",
          "type": "uint256"
        },
        {
          "internalType": "bytes",
          "name": "data",
          "type": "bytes"
        }
      ],
      "name": "onERC1155Received",
      "outputs": [
        {
          "internalType": "bytes4",
          "name": "",
          "type": "bytes4"
        }
      ],
      "stateMutability": "nonpayable",
      "type": "function"
    },
    {
      "inputs": [
        {
          "internalType": "address",
          "name": "operator",
          "type": "address"
        },
        {
          "internalType": "address",
          "name": "from",
          "type": "address"
        },
        {
          "internalType": "uint256[]",
          "name": "ids",
          "type": "uint256[]"
        },
        {
          "internalType": "uint256[]",
          "name": "values",
          "type": "uint256[]"
        },
        {
          "internalType": "bytes",
          "name": "data",
          "type": "bytes"
        }
      ],
      "name": "onERC1155BatchReceived",
      "outputs": [
        {
          "internalType": "bytes4",
          "name": "",
          "type": "bytes4"
        }
      ],
      "stateMutability": "nonpayable",
      "type": "function"
    }
  ],
  "bytecode": "0x60806040526000600255600160035560966007556102ee600b556360251c40600f5563601f65c060105560056014556001601655620151806017553480156200004757600080fd5b50604051620040ac380380620040ac833981810160405260408110156200006d57600080fd5b81019080805190602001909291908051906020019092919050505060006200009a620003e460201b60201c565b9050806000806101000a81548173ffffffffffffffffffffffffffffffffffffffff021916908373ffffffffffffffffffffffffffffffffffffffff1602179055508073ffffffffffffffffffffffffffffffffffffffff16600073ffffffffffffffffffffffffffffffffffffffff167f8be0079c531659141344cd1fd0a4f28419497f9722a3daafe3b4186f6b6457e060405160405180910390a35062000148620003e460201b60201c565b600160006101000a81548173ffffffffffffffffffffffffffffffffffffffff021916908373ffffffffffffffffffffffffffffffffffffffff160217905550600160009054906101000a900473ffffffffffffffffffffffffffffffffffffffff1673ffffffffffffffffffffffffffffffffffffffff16600073ffffffffffffffffffffffffffffffffffffffff167f74da04524d50c64947f5dd5381ef1a4dca5cba8ed1d816243f9e48aa0b5617ed60405160405180910390a381600460006101000a81548173ffffffffffffffffffffffffffffffffffffffff021916908373ffffffffffffffffffffffffffffffffffffffff16021790555080600560006101000a81548173ffffffffffffffffffffffffffffffffffffffff021916908373ffffffffffffffffffffffffffffffffffffffff1602179055506001601181905550600a60128190555060606001604051908082528060200260200182016040528015620002ca5781602001602082028038833980820191505090505b509050600081600081518110620002dd57fe5b602002602001019073ffffffffffffffffffffffffffffffffffffffff16908173ffffffffffffffffffffffffffffffffffffffff168152505073088800000000000000000000000000000000000173ffffffffffffffffffffffffffffffffffffffff166310128d3e826040518263ffffffff1660e01b81526004018080602001828103825283818151815260200191508051906020019060200280838360005b838110156200039c5780820151818401526020810190506200037f565b5050505090500192505050600060405180830381600087803b158015620003c257600080fd5b505af1158015620003d7573d6000803e3d6000fd5b50505050505050620003ec565b600033905090565b613cb080620003fc6000396000f3fe6080604052600436106102815760003560e01c8063715018a61161014f578063bfd8fd17116100c1578063ef78d4fd1161007a578063ef78d4fd14610dd5578063f23a6e6114610e00578063f2fde38b14610f2c578063f6be71d114610f7d578063fa512ad614610fb8578063ff01043b14610fc257610288565b8063bfd8fd1714610cbb578063ca09505214610ce6578063caf76a9114610cfd578063d58778d614610d28578063e845ce8f14610d77578063ec630c7014610da657610288565b80639bdebca4116101135780639bdebca414610974578063ac2c3f75146109e7578063b2596a6714610a3a578063b69ef8a814610a89578063ba278e0814610ab4578063bc197c8114610af957610288565b8063715018a61461084b57806378e9792514610862578063864fda691461088d5780638811a0ae146108b85780638da5cb5b1461091d57610288565b80633f918cbb116101f357806355bccadb116101ac57806355bccadb146106d2578063570ca735146106fd5780635f6485711461075457806367f718a9146107835780636b19e8c7146107ef5780636de6737b1461083457610288565b80633f918cbb14610586578063432b0954146105b557806343bd4579146105e05780634456eda2146106615780634dfdc21f146106905780634eb815e9146106bb57610288565b8063266e2a5611610245578063266e2a561461038c57806329605e77146103b75780632fd08fd9146104085780633197cbb6146104e157806334eafb111461050c57806337c816a91461053757610288565b80630252138d1461028d5780630fb5a6b4146102c85780631c38f55f146102f35780631d073a7a1461030a578063230563901461036157610288565b3661028857005b600080fd5b34801561029957600080fd5b506102c6600480360360208110156102b057600080fd5b8101908080359060200190929190505050610fd9565b005b3480156102d457600080fd5b506102dd611337565b6040518082815260200191505060405180910390f35b3480156102ff57600080fd5b5061030861133d565b005b34801561031657600080fd5b5061031f6114e1565b604051808273ffffffffffffffffffffffffffffffffffffffff1673ffffffffffffffffffffffffffffffffffffffff16815260200191505060405180910390f35b34801561036d57600080fd5b506103766114f9565b6040518082815260200191505060405180910390f35b34801561039857600080fd5b506103a16114ff565b6040518082815260200191505060405180910390f35b3480156103c357600080fd5b50610406600480360360208110156103da57600080fd5b81019080803573ffffffffffffffffffffffffffffffffffffffff169060200190929190505050611504565b005b34801561041457600080fd5b506104cb6004803603602081101561042b57600080fd5b810190808035906020019064010000000081111561044857600080fd5b82018360208201111561045a57600080fd5b8035906020019184602083028401116401000000008311171561047c57600080fd5b919080806020026020016040519081016040528093929190818152602001838360200280828437600081840152601f19601f8201169050808301925050505050505091929192905050506115d9565b6040518082815260200191505060405180910390f35b3480156104ed57600080fd5b506104f6611a0e565b6040518082815260200191505060405180910390f35b34801561051857600080fd5b50610521611a14565b6040518082815260200191505060405180910390f35b34801561054357600080fd5b506105706004803603602081101561055a57600080fd5b8101908080359060200190929190505050611a1a565b6040518082815260200191505060405180910390f35b34801561059257600080fd5b5061059b611f35565b604051808215151515815260200191505060405180910390f35b3480156105c157600080fd5b506105ca611f48565b6040518082815260200191505060405180910390f35b3480156105ec57600080fd5b5061062f6004803603602081101561060357600080fd5b81019080803573ffffffffffffffffffffffffffffffffffffffff169060200190929190505050611f4e565b604051808681526020018581526020018481526020018381526020018281526020019550505050505060405180910390f35b34801561066d57600080fd5b50610676611fb5565b604051808215151515815260200191505060405180910390f35b34801561069c57600080fd5b506106a5612014565b6040518082815260200191505060405180910390f35b3480156106c757600080fd5b506106d061201a565b005b3480156106de57600080fd5b506106e7612242565b6040518082815260200191505060405180910390f35b34801561070957600080fd5b50610712612248565b604051808273ffffffffffffffffffffffffffffffffffffffff1673ffffffffffffffffffffffffffffffffffffffff16815260200191505060405180910390f35b34801561076057600080fd5b50610769612272565b604051808215151515815260200191505060405180910390f35b34801561078f57600080fd5b50610798612285565b6040518080602001828103825283818151815260200191508051906020019060200280838360005b838110156107db5780820151818401526020810190506107c0565b505050509050019250505060405180910390f35b3480156107fb57600080fd5b506108326004803603604081101561081257600080fd5b8101908080359060200190929190803590602001909291905050506122dd565b005b34801561084057600080fd5b506108496123a9565b005b34801561085757600080fd5b506108606125d2565b005b34801561086e57600080fd5b5061087761275a565b6040518082815260200191505060405180910390f35b34801561089957600080fd5b506108a2612760565b6040518082815260200191505060405180910390f35b3480156108c457600080fd5b50610907600480360360208110156108db57600080fd5b81019080803573ffffffffffffffffffffffffffffffffffffffff169060200190929190505050612766565b6040518082815260200191505060405180910390f35b34801561092957600080fd5b5061093261277e565b604051808273ffffffffffffffffffffffffffffffffffffffff1673ffffffffffffffffffffffffffffffffffffffff16815260200191505060405180910390f35b34801561098057600080fd5b506109cd6004803603604081101561099757600080fd5b81019080803573ffffffffffffffffffffffffffffffffffffffff169060200190929190803590602001909291905050506127a7565b604051808215151515815260200191505060405180910390f35b3480156109f357600080fd5b50610a2060048036036020811015610a0a57600080fd5b81019080803590602001909291905050506127d6565b604051808215151515815260200191505060405180910390f35b348015610a4657600080fd5b50610a7360048036036020811015610a5d57600080fd5b81019080803590602001909291905050506127f6565b6040518082815260200191505060405180910390f35b348015610a9557600080fd5b50610a9e61280e565b6040518082815260200191505060405180910390f35b348015610ac057600080fd5b50610af760048036036040811015610ad757600080fd5b810190808035906020019092919080359060200190929190505050612814565b005b348015610b0557600080fd5b50610c67600480360360a0811015610b1c57600080fd5b81019080803573ffffffffffffffffffffffffffffffffffffffff169060200190929190803573ffffffffffffffffffffffffffffffffffffffff16906020019092919080359060200190640100000000811115610b7957600080fd5b820183602082011115610b8b57600080fd5b80359060200191846020830284011164010000000083111715610bad57600080fd5b909192939192939080359060200190640100000000811115610bce57600080fd5b820183602082011115610be057600080fd5b80359060200191846020830284011164010000000083111715610c0257600080fd5b909192939192939080359060200190640100000000811115610c2357600080fd5b820183602082011115610c3557600080fd5b80359060200191846001830284011164010000000083111715610c5757600080fd5b90919293919293905050506128cc565b60405180827bffffffffffffffffffffffffffffffffffffffffffffffffffffffff19167bffffffffffffffffffffffffffffffffffffffffffffffffffffffff1916815260200191505060405180910390f35b348015610cc757600080fd5b50610cd06128f5565b6040518082815260200191505060405180910390f35b348015610cf257600080fd5b50610cfb6128fb565b005b348015610d0957600080fd5b50610d12612b24565b6040518082815260200191505060405180910390f35b348015610d3457600080fd5b50610d6160048036036020811015610d4b57600080fd5b8101908080359060200190929190505050612b2a565b6040518082815260200191505060405180910390f35b348015610d8357600080fd5b50610d8c612b4b565b604051808215151515815260200191505060405180910390f35b348015610db257600080fd5b50610dbb612b5e565b604051808215151515815260200191505060405180910390f35b348015610de157600080fd5b50610dea612b71565b6040518082815260200191505060405180910390f35b348015610e0c57600080fd5b50610ed8600480360360a0811015610e2357600080fd5b81019080803573ffffffffffffffffffffffffffffffffffffffff169060200190929190803573ffffffffffffffffffffffffffffffffffffffff169060200190929190803590602001909291908035906020019092919080359060200190640100000000811115610e9457600080fd5b820183602082011115610ea657600080fd5b80359060200191846001830284011164010000000083111715610ec857600080fd5b9091929391929390505050612b77565b60405180827bffffffffffffffffffffffffffffffffffffffffffffffffffffffff19167bffffffffffffffffffffffffffffffffffffffffffffffffffffffff1916815260200191505060405180910390f35b348015610f3857600080fd5b50610f7b60048036036020811015610f4f57600080fd5b81019080803573ffffffffffffffffffffffffffffffffffffffff169060200190929190505050612b9e565b005b348015610f8957600080fd5b50610fb660048036036020811015610fa057600080fd5b8101908080359060200190929190505050612dab565b005b610fc0612e5b565b005b348015610fce57600080fd5b50610fd7612f94565b005b600f54421015611051576040517f08c379a00000000000000000000000000000000000000000000000000000000081526004018080602001828103825260128152602001807f45786368616e6765206e6f74207374617274000000000000000000000000000081525060200191505060405180910390fd5b6060600560009054906101000a900473ffffffffffffffffffffffffffffffffffffffff1673ffffffffffffffffffffffffffffffffffffffff16636352211e836040518263ffffffff1660e01b81526004018082815260200191505060006040518083038186803b1580156110c657600080fd5b505afa1580156110da573d6000803e3d6000fd5b505050506040513d6000823e3d601f19601f82011682018060405250602081101561110457600080fd5b810190808051604051939291908464010000000082111561112457600080fd5b8382019150602082018581111561113a57600080fd5b825186602082028301116401000000008211171561115757600080fd5b8083526020830192505050908051906020019060200280838360005b8381101561118e578082015181840152602081019050611173565b505050509050016040525050509050600080905060008090505b825181101561120a573373ffffffffffffffffffffffffffffffffffffffff168382815181106111d457fe5b602002602001015173ffffffffffffffffffffffffffffffffffffffff1614156111fd57600191505b80806001019150506111a8565b508061127e576040517f08c379a00000000000000000000000000000000000000000000000000000000081526004018080602001828103825260098152602001807f4e6f74206f776e6572000000000000000000000000000000000000000000000081525060200191505060405180910390fd5b6018600084815260200190815260200160002060009054906101000a900460ff1615611312576040517f08c379a00000000000000000000000000000000000000000000000000000000081526004018080602001828103825260148152602001807f48617320616c72656164792065786368616e676500000000000000000000000081525060200191505060405180910390fd5b6113323361132d600954600a5461313490919063ffffffff16565b61317e565b505050565b60175481565b3373ffffffffffffffffffffffffffffffffffffffff16600160009054906101000a900473ffffffffffffffffffffffffffffffffffffffff1673ffffffffffffffffffffffffffffffffffffffff16146113e3576040517f08c379a0000000000000000000000000000000000000000000000000000000008152600401808060200182810382526024815260200180613bde6024913960400191505060405180910390fd5b601360009054906101000a900460ff1615611466576040517f08c379a000000000000000000000000000000000000000000000000000000000815260040180806020018281038252600e8152602001807f426f6f6c312068617320696e697400000000000000000000000000000000000081525060200191505060405180910390fd5b60008090505b60c88110156114c35780600d600083815260200190815260200160002081905550600c819080600181540180825580915050600190039060005260206000200160009091909190915055808060010191505061146c565b506001601360006101000a81548160ff021916908315150217905550565b73088800000000000000000000000000000000000181565b60075481565b609681565b61150c61325f565b73ffffffffffffffffffffffffffffffffffffffff166000809054906101000a900473ffffffffffffffffffffffffffffffffffffffff1673ffffffffffffffffffffffffffffffffffffffff16146115cd576040517f08c379a00000000000000000000000000000000000000000000000000000000081526004018080602001828103825260208152602001807f4f776e61626c653a2063616c6c6572206973206e6f7420746865206f776e657281525060200191505060405180910390fd5b6115d681613267565b50565b60006007825114611652576040517f08c379a000000000000000000000000000000000000000000000000000000000815260040180806020018281038252600b8152602001807f436f756e74206572726f7200000000000000000000000000000000000000000081525060200191505060405180910390fd5b600080600090505b83518110156116e3576116d46116c5600e600087858151811061167957fe5b6020026020010151815260200190815260200160002054600e60008886815181106116a057fe5b602002602001015181526020019081526020016000205461338c90919063ffffffff16565b8361341290919063ffffffff16565b9150808060010191505061165a565b50608c811461175a576040517f08c379a000000000000000000000000000000000000000000000000000000000815260040180806020018281038252600a8152602001807f43617264206572726f720000000000000000000000000000000000000000000081525060200191505060405180910390fd5b60008090505b835181101561189c57600460009054906101000a900473ffffffffffffffffffffffffffffffffffffffff1673ffffffffffffffffffffffffffffffffffffffff1663f242432a3360018785815181106117b657fe5b602002602001015160016040518563ffffffff1660e01b8152600401808573ffffffffffffffffffffffffffffffffffffffff1673ffffffffffffffffffffffffffffffffffffffff1681526020018473ffffffffffffffffffffffffffffffffffffffff1673ffffffffffffffffffffffffffffffffffffffff1681526020018381526020018281526020018060200182810382526000815260200160200195505050505050600060405180830381600087803b15801561187757600080fd5b505af115801561188b573d6000803e3d6000fd5b505050508080600101915050611760565b506000600560009054906101000a900473ffffffffffffffffffffffffffffffffffffffff1673ffffffffffffffffffffffffffffffffffffffff16636a627842336040518263ffffffff1660e01b8152600401808273ffffffffffffffffffffffffffffffffffffffff1673ffffffffffffffffffffffffffffffffffffffff168152602001915050602060405180830381600087803b15801561194057600080fd5b505af1158015611954573d6000803e3d6000fd5b505050506040513d602081101561196a57600080fd5b81019080805190602001909291905050509050611993600160095461341290919063ffffffff16565b6009819055507f1ff9662535bd663fdff16bc84ecad58c11f0736ad118eeb891218860c67a9e3d3382604051808373ffffffffffffffffffffffffffffffffffffffff1673ffffffffffffffffffffffffffffffffffffffff1681526020018281526020019250505060405180910390a18092505050919050565b600f5481565b6102ee81565b600080611a2561349a565b9050611a7a6001601560003373ffffffffffffffffffffffffffffffffffffffff1673ffffffffffffffffffffffffffffffffffffffff1681526020019081526020016000205461341290919063ffffffff16565b601560003373ffffffffffffffffffffffffffffffffffffffff1673ffffffffffffffffffffffffffffffffffffffff16815260200190815260200160002081905550828114611b6f577f92fbec513879243e8e4149b85782059b00dc85479386893aba9f38339a609cae33611afe6402540be4008461341290919063ffffffff16565b6000604051808473ffffffffffffffffffffffffffffffffffffffff1673ffffffffffffffffffffffffffffffffffffffff168152602001838152602001828152602001935050505060405180910390a1611b676402540be4008261341290919063ffffffff16565b915050611f30565b600f54421115611be7576040517f08c379a000000000000000000000000000000000000000000000000000000000815260040180806020018281038252600d8152602001807f45786368616e6765206f7665720000000000000000000000000000000000000081525060200191505060405180910390fd5b600060075411611c5f576040517f08c379a000000000000000000000000000000000000000000000000000000000815260040180806020018281038252600e8152602001807f546f6461792c73656c6c206f757400000000000000000000000000000000000081525060200191505060405180910390fd5b6000600b5411611cd7576040517f08c379a000000000000000000000000000000000000000000000000000000000815260040180806020018281038252600c8152602001807f416c6c2c73656c6c206f7574000000000000000000000000000000000000000081525060200191505060405180910390fd5b6000600b544233600254604051602001808481526020018373ffffffffffffffffffffffffffffffffffffffff1673ffffffffffffffffffffffffffffffffffffffff16815260200182815260200193505050506040516020818303038152906040528051906020012060001c81611d4b57fe5b0690506000600c8281548110611d5d57fe5b90600052602060002001549050600460009054906101000a900473ffffffffffffffffffffffffffffffffffffffff1673ffffffffffffffffffffffffffffffffffffffff166340c10f1933836040518363ffffffff1660e01b8152600401808373ffffffffffffffffffffffffffffffffffffffff1673ffffffffffffffffffffffffffffffffffffffff16815260200182815260200192505050602060405180830381600087803b158015611e1357600080fd5b505af1158015611e27573d6000803e3d6000fd5b505050506040513d6020811015611e3d57600080fd5b810190808051906020019092919050505050611e58816137e1565b6000611e6382613895565b905080600e600084815260200190815260200160002081905550611e93600160075461398090919063ffffffff16565b600781905550611eaf6001600b5461398090919063ffffffff16565b600b819055507f92fbec513879243e8e4149b85782059b00dc85479386893aba9f38339a609cae338383604051808473ffffffffffffffffffffffffffffffffffffffff1673ffffffffffffffffffffffffffffffffffffffff168152602001838152602001828152602001935050505060405180910390a1819450505050505b919050565b601360029054906101000a900460ff1681565b60145481565b6000806000806000601154601254600754600b54601560008b73ffffffffffffffffffffffffffffffffffffffff1673ffffffffffffffffffffffffffffffffffffffff168152602001908152602001600020549450945094509450945091939590929450565b6000600160009054906101000a900473ffffffffffffffffffffffffffffffffffffffff1673ffffffffffffffffffffffffffffffffffffffff16611ff861325f565b73ffffffffffffffffffffffffffffffffffffffff1614905090565b60125481565b3373ffffffffffffffffffffffffffffffffffffffff16600160009054906101000a900473ffffffffffffffffffffffffffffffffffffffff1673ffffffffffffffffffffffffffffffffffffffff16146120c0576040517f08c379a0000000000000000000000000000000000000000000000000000000008152600401808060200182810382526024815260200180613bde6024913960400191505060405180910390fd5b601360009054906101000a900460ff16612142576040517f08c379a00000000000000000000000000000000000000000000000000000000081526004018080602001828103825260128152602001807f426f6f6c3120686173206e6f7420696e6974000000000000000000000000000081525060200191505060405180910390fd5b601360019054906101000a900460ff16156121c5576040517f08c379a000000000000000000000000000000000000000000000000000000000815260040180806020018281038252600e8152602001807f426f6f6c322068617320696e697400000000000000000000000000000000000081525060200191505060405180910390fd5b600060c890505b6101908110156122245780600d600083815260200190815260200160002081905550600c81908060018154018082558091505060019003906000526020600020016000909190919091505580806001019150506121cc565b506001601360016101000a81548160ff021916908315150217905550565b60085481565b6000600160009054906101000a900473ffffffffffffffffffffffffffffffffffffffff16905090565b601360039054906101000a900460ff1681565b6060600c8054806020026020016040519081016040528092919081815260200182805480156122d357602002820191906000526020600020905b8154815260200190600101908083116122bf575b5050505050905090565b3373ffffffffffffffffffffffffffffffffffffffff16600160009054906101000a900473ffffffffffffffffffffffffffffffffffffffff1673ffffffffffffffffffffffffffffffffffffffff1614612383576040517f08c379a0000000000000000000000000000000000000000000000000000000008152600401808060200182810382526024815260200180613bde6024913960400191505060405180910390fd5b600082111561239457816011819055505b60008111156123a557806012819055505b5050565b3373ffffffffffffffffffffffffffffffffffffffff16600160009054906101000a900473ffffffffffffffffffffffffffffffffffffffff1673ffffffffffffffffffffffffffffffffffffffff161461244f576040517f08c379a0000000000000000000000000000000000000000000000000000000008152600401808060200182810382526024815260200180613bde6024913960400191505060405180910390fd5b601360019054906101000a900460ff166124d1576040517f08c379a00000000000000000000000000000000000000000000000000000000081526004018080602001828103825260128152602001807f426f6f6c3220686173206e6f7420696e6974000000000000000000000000000081525060200191505060405180910390fd5b601360029054906101000a900460ff1615612554576040517f08c379a000000000000000000000000000000000000000000000000000000000815260040180806020018281038252600e8152602001807f426f6f6c332068617320696e697400000000000000000000000000000000000081525060200191505060405180910390fd5b600061019090505b6102588110156125b45780600d600083815260200190815260200160002081905550600c819080600181540180825580915050600190039060005260206000200160009091909190915055808060010191505061255c565b506001601360026101000a81548160ff021916908315150217905550565b6125da61325f565b73ffffffffffffffffffffffffffffffffffffffff166000809054906101000a900473ffffffffffffffffffffffffffffffffffffffff1673ffffffffffffffffffffffffffffffffffffffff161461269b576040517f08c379a00000000000000000000000000000000000000000000000000000000081526004018080602001828103825260208152602001807f4f776e61626c653a2063616c6c6572206973206e6f7420746865206f776e657281525060200191505060405180910390fd5b600073ffffffffffffffffffffffffffffffffffffffff166000809054906101000a900473ffffffffffffffffffffffffffffffffffffffff1673ffffffffffffffffffffffffffffffffffffffff167f8be0079c531659141344cd1fd0a4f28419497f9722a3daafe3b4186f6b6457e060405160405180910390a360008060006101000a81548173ffffffffffffffffffffffffffffffffffffffff021916908373ffffffffffffffffffffffffffffffffffffffff160217905550565b60105481565b60115481565b60156020528060005260406000206000915090505481565b60008060009054906101000a900473ffffffffffffffffffffffffffffffffffffffff16905090565b60066020528160005260406000206020528060005260406000206000915091509054906101000a900460ff1681565b60186020528060005260406000206000915054906101000a900460ff1681565b600e6020528060005260406000206000915090505481565b60095481565b3373ffffffffffffffffffffffffffffffffffffffff16600160009054906101000a900473ffffffffffffffffffffffffffffffffffffffff1673ffffffffffffffffffffffffffffffffffffffff16146128ba576040517f08c379a0000000000000000000000000000000000000000000000000000000008152600401808060200182810382526024815260200180613bde6024913960400191505060405180910390fd5b8160108190555080600f819055505050565b60006040518080613c026041913960410190506040518091039020905098975050505050505050565b600b5481565b3373ffffffffffffffffffffffffffffffffffffffff16600160009054906101000a900473ffffffffffffffffffffffffffffffffffffffff1673ffffffffffffffffffffffffffffffffffffffff16146129a1576040517f08c379a0000000000000000000000000000000000000000000000000000000008152600401808060200182810382526024815260200180613bde6024913960400191505060405180910390fd5b601360029054906101000a900460ff16612a23576040517f08c379a00000000000000000000000000000000000000000000000000000000081526004018080602001828103825260128152602001807f426f6f6c3320686173206e6f7420696e6974000000000000000000000000000081525060200191505060405180910390fd5b601360039054906101000a900460ff1615612aa6576040517f08c379a000000000000000000000000000000000000000000000000000000000815260040180806020018281038252600e8152602001807f426f6f6c342068617320696e697400000000000000000000000000000000000081525060200191505060405180910390fd5b600061025890505b6102ee811015612b065780600d600083815260200190815260200160002081905550600c8190806001815401808255809150506001900390600052602060002001600090919091909150558080600101915050612aae565b506001601360036101000a81548160ff021916908315150217905550565b600a5481565b600c8181548110612b3757fe5b906000526020600020016000915090505481565b601360019054906101000a900460ff1681565b601360009054906101000a900460ff1681565b60165481565b60006040518080613c43603891396038019050604051809103902090509695505050505050565b612ba661325f565b73ffffffffffffffffffffffffffffffffffffffff166000809054906101000a900473ffffffffffffffffffffffffffffffffffffffff1673ffffffffffffffffffffffffffffffffffffffff1614612c67576040517f08c379a00000000000000000000000000000000000000000000000000000000081526004018080602001828103825260208152602001807f4f776e61626c653a2063616c6c6572206973206e6f7420746865206f776e657281525060200191505060405180910390fd5b600073ffffffffffffffffffffffffffffffffffffffff168173ffffffffffffffffffffffffffffffffffffffff161415612ced576040517f08c379a0000000000000000000000000000000000000000000000000000000008152600401808060200182810382526026815260200180613b6a6026913960400191505060405180910390fd5b8073ffffffffffffffffffffffffffffffffffffffff166000809054906101000a900473ffffffffffffffffffffffffffffffffffffffff1673ffffffffffffffffffffffffffffffffffffffff167f8be0079c531659141344cd1fd0a4f28419497f9722a3daafe3b4186f6b6457e060405160405180910390a3806000806101000a81548173ffffffffffffffffffffffffffffffffffffffff021916908373ffffffffffffffffffffffffffffffffffffffff16021790555050565b3373ffffffffffffffffffffffffffffffffffffffff16600160009054906101000a900473ffffffffffffffffffffffffffffffffffffffff1673ffffffffffffffffffffffffffffffffffffffff1614612e51576040517f08c379a0000000000000000000000000000000000000000000000000000000008152600401808060200182810382526024815260200180613bde6024913960400191505060405180910390fd5b8060178190555050565b3373ffffffffffffffffffffffffffffffffffffffff16600160009054906101000a900473ffffffffffffffffffffffffffffffffffffffff1673ffffffffffffffffffffffffffffffffffffffff1614612f01576040517f08c379a0000000000000000000000000000000000000000000000000000000008152600401808060200182810382526024815260200180613bde6024913960400191505060405180910390fd5b60003411612f77576040517f08c379a000000000000000000000000000000000000000000000000000000000815260040180806020018281038252600b8152602001807f56616c75652077726f6e6700000000000000000000000000000000000000000081525060200191505060405180910390fd5b612f8c34600a5461341290919063ffffffff16565b600a81905550565b3373ffffffffffffffffffffffffffffffffffffffff16600160009054906101000a900473ffffffffffffffffffffffffffffffffffffffff1673ffffffffffffffffffffffffffffffffffffffff161461303a576040517f08c379a0000000000000000000000000000000000000000000000000000000008152600401808060200182810382526024815260200180613bde6024913960400191505060405180910390fd5b60006130514260035461338c90919063ffffffff16565b905060966007819055508061308761307660175460165461338c90919063ffffffff16565b60105461341290919063ffffffff16565b11156130fb576040517f08c379a00000000000000000000000000000000000000000000000000000000081526004018080602001828103825260128152602001807f4e6f74206f6e206e65787420706572696f64000000000000000000000000000081525060200191505060405180910390fd5b613111600160165461341290919063ffffffff16565b60168190555061312b60018261341290919063ffffffff16565b60088190555050565b600061317683836040518060400160405280601a81526020017f536166654d6174683a206469766973696f6e206279207a65726f0000000000008152506139ca565b905092915050565b60008273ffffffffffffffffffffffffffffffffffffffff168260405180600001905060006040518083038185875af1925050503d80600081146131de576040519150601f19603f3d011682016040523d82523d6000602084013e6131e3565b606091505b505090508061325a576040517f08c379a00000000000000000000000000000000000000000000000000000000081526004018080602001828103825260128152602001807f5452414e5346455220455448204552524f52000000000000000000000000000081525060200191505060405180910390fd5b505050565b600033905090565b600073ffffffffffffffffffffffffffffffffffffffff168173ffffffffffffffffffffffffffffffffffffffff1614156132ed576040517f08c379a000000000000000000000000000000000000000000000000000000000815260040180806020018281038252602d815260200180613b90602d913960400191505060405180910390fd5b8073ffffffffffffffffffffffffffffffffffffffff16600073ffffffffffffffffffffffffffffffffffffffff167f74da04524d50c64947f5dd5381ef1a4dca5cba8ed1d816243f9e48aa0b5617ed60405160405180910390a380600160006101000a81548173ffffffffffffffffffffffffffffffffffffffff021916908373ffffffffffffffffffffffffffffffffffffffff16021790555050565b60008083141561339f576000905061340c565b60008284029050828482816133b057fe5b0414613407576040517f08c379a0000000000000000000000000000000000000000000000000000000008152600401808060200182810382526021815260200180613bbd6021913960400191505060405180910390fd5b809150505b92915050565b600080828401905083811015613490576040517f08c379a000000000000000000000000000000000000000000000000000000000815260040180806020018281038252601b8152602001807f536166654d6174683a206164646974696f6e206f766572666c6f77000000000081525060200191505060405180910390fd5b8091505092915050565b600080601560003373ffffffffffffffffffffffffffffffffffffffff1673ffffffffffffffffffffffffffffffffffffffff1681526020019081526020016000205490504261350b6134fa60175460165461338c90919063ffffffff16565b60105461341290919063ffffffff16565b111561363457600660003373ffffffffffffffffffffffffffffffffffffffff1673ffffffffffffffffffffffffffffffffffffffff1681526020019081526020016000206000600854815260200190815260200160002060009054906101000a900460ff1661362f57600081146135c3576000601560003373ffffffffffffffffffffffffffffffffffffffff1673ffffffffffffffffffffffffffffffffffffffff168152602001908152602001600020819055505b6001600660003373ffffffffffffffffffffffffffffffffffffffff1673ffffffffffffffffffffffffffffffffffffffff1681526020019081526020016000206000600854815260200190815260200160002060006101000a81548160ff0219169083151502179055505b6136ab565b600581106136aa576040517f08c379a00000000000000000000000000000000000000000000000000000000081526004018080602001828103825260088152602001807f4f6e206c696d697400000000000000000000000000000000000000000000000081525060200191505060405180910390fd5b5b60006012544233600254604051602001808481526020018373ffffffffffffffffffffffffffffffffffffffff1673ffffffffffffffffffffffffffffffffffffffff16815260200182815260200193505050506040516020818303038152906040528051906020012060001c8161371f57fe5b069050613738607860025461341290919063ffffffff16565b60028190555060006012544233600254604051602001808481526020018373ffffffffffffffffffffffffffffffffffffffff1673ffffffffffffffffffffffffffffffffffffffff16815260200182815260200193505050506040516020818303038152906040528051906020012060001c816137b257fe5b06905060006137c18383613a90565b90506137d86011548261341290919063ffffffff16565b94505050505090565b60006137fc6001600c8054905061398090919063ffffffff16565b90506000600d600084815260200190815260200160002054905081811461386f576000600c838154811061382c57fe5b9060005260206000200154905080600c838154811061384757fe5b906000526020600020018190555081600d600083815260200190815260200160002081905550505b600c80548061387a57fe5b60019003818190600052602060002001600090559055505050565b60008082101580156138a75750606482105b156138b5576001905061397b565b606482101580156138c7575061012c82105b156138d5576002905061397b565b61012c82101580156138e8575061019082105b156138f6576003905061397b565b610190821015801561390957506101f482105b15613917576004905061397b565b6101f4821015801561392a575061025882105b15613938576005905061397b565b610258821015801561394b575061028a82105b15613959576006905061397b565b61028a821015801561396c57506102ee82105b1561397a576007905061397b565b5b919050565b60006139c283836040518060400160405280601e81526020017f536166654d6174683a207375627472616374696f6e206f766572666c6f770000815250613aa9565b905092915050565b60008083118290613a76576040517f08c379a00000000000000000000000000000000000000000000000000000000081526004018080602001828103825283818151815260200191508051906020019080838360005b83811015613a3b578082015181840152602081019050613a20565b50505050905090810190601f168015613a685780820380516001836020036101000a031916815260200191505b509250505060405180910390fd5b506000838581613a8257fe5b049050809150509392505050565b6000818310613a9f5781613aa1565b825b905092915050565b6000838311158290613b56576040517f08c379a00000000000000000000000000000000000000000000000000000000081526004018080602001828103825283818151815260200191508051906020019080838360005b83811015613b1b578082015181840152602081019050613b00565b50505050905090810190601f168015613b485780820380516001836020036101000a031916815260200191505b509250505060405180910390fd5b506000838503905080915050939250505056fe4f776e61626c653a206e6577206f776e657220697320746865207a65726f20616464726573736f70657261746f723a207a65726f206164647265737320676976656e20666f72206e6577206f70657261746f72536166654d6174683a206d756c7469706c69636174696f6e206f766572666c6f776f70657261746f723a2063616c6c6572206973206e6f7420746865206f70657261746f726f6e455243313135354261746368526563656976656428616464726573732c616464726573732c75696e743235365b5d2c75696e743235365b5d2c6279746573296f6e45524331313535526563656976656428616464726573732c616464726573732c75696e743235362c75696e743235362c627974657329a26469706673582212206ddbcaa2f33d8123a15385b2ec05b6cfba882f66b31120176ddf9f356a185de564736f6c63430006020033",
  "source": "pragma solidity ^0.6.0;\n\nimport \"./owner/Operator.sol\";\nimport \"@openzeppelin/contracts/math/SafeMath.sol\";\nimport \"@openzeppelin/contracts/math/Math.sol\";\nimport \"./interfaces/INft.sol\";\nimport \"./interfaces/IRewardNft.sol\";\nimport \"./SponsorWhitelistControl.sol\";\n\n\ncontract CfxMiner is Operator{\n\n    event ExchangeWithWord(address _sender, uint256 _tokenId, uint256 _level);\n    event ExchangeRewardCard(address _sender, uint256 _tokenId);\n\n    using SafeMath for uint256;\n    //1. 5 150 \n    // 2. 1085  5*150=750\n    // 3. \n    //      a. C100O200N100F100L100U50X100\n    //      b. 150\n    // 4.  CONFLUX \n    // 5. \n\n    uint256 randNonce = 0;\n\n    uint256 one = 1;\n\n    INft iNft;\n    IRewardNft iConposeNft;\n\n    uint256 public constant dayCount = 150;\n    mapping(address => mapping(uint256 => bool)) public isReset;\n    uint256 public dayCountRest = 150;\n    uint256 public lastExchangeTime;\n    uint256 public balance;\n    uint256 public rewardCfx;\n\n    uint256 public constant totalCount = 750;\n    uint256 public totalCountRest = 750;\n    uint256[] public tokenIds;\n    mapping(uint256 => uint256) tokensIndex;\n\n    mapping (uint256 => uint) public levels;\n\n    //2021-02-11 20:00:00\n    uint256 public endTime = 1613044800;\n    //2021-02-7 12:00:00\n    uint256 public startTime = 1612670400;\n\n    uint256 public minNum;\n    uint256 public maxNum;\n\n    bool public bool1;\n    bool public bool2;\n    bool public bool3;\n    bool public bool4;\n\n    uint256 public limitCount = 5;\n    mapping(address => uint256) public addressCount;\n    uint256 public period=1;\n    uint256 public duration = 86400;\n\n    mapping(uint256 => bool) public tokenHasExchange;\n\n    // address public rewardToken;\n    SponsorWhitelistControl public constant SPONSOR = SponsorWhitelistControl(\n        address(0x0888000000000000000000000000000000000001)\n    );\n\n    constructor(address _iNft, address _iConposeNft) public {\n        iNft = INft(_iNft);\n        iConposeNft = IRewardNft(_iConposeNft);\n        // rewardToken = _fc;\n        minNum = 1;\n        maxNum = 10;\n        // register all users as sponsees\n        address[] memory users = new address[](1);\n        users[0] = address(0);\n        SPONSOR.addPrivilege(users);\n    }\n\n    function setStartTime(uint256 _startTime, uint256 _endTime) public onlyOperator(){\n        startTime = _startTime;\n        endTime = _endTime;\n    }\n\n    function getBaseInfo(address _sender) view public returns(\n        uint256 _minNum,\n        uint256 _maxNum,\n        uint256 _dayCountRest,\n        uint256 _totalCountRest,\n        uint256 _addressCount\n        ){\n        return (minNum,maxNum,dayCountRest,totalCountRest,addressCount[_sender]);\n    }\n\n    function initTotalCount1() public onlyOperator(){\n        require(!bool1,\"Bool1 has init\");\n        for (uint256 index = 0; index < 200; index++) {\n            tokensIndex[index] = index;\n            tokenIds.push(index);\n        }\n        bool1 = true;\n    }\n\n    function initTotalCount2() public onlyOperator(){\n        require(bool1,\"Bool1 has not init\");\n        require(!bool2,\"Bool2 has init\");\n        for (uint256 index = 200; index < 400; index++) {\n            tokensIndex[index] = index;\n            tokenIds.push(index);\n        }\n        bool2 = true;\n    }\n\n    function initTotalCount3() public onlyOperator(){\n        require(bool2,\"Bool2 has not init\");\n        require(!bool3,\"Bool3 has init\");\n        for (uint256 index = 400; index < 600; index++) {\n            tokensIndex[index] = index;\n            tokenIds.push(index);\n        }\n        bool3 = true;\n    }\n\n    function initTotalCount4() public onlyOperator(){\n        require(bool3,\"Bool3 has not init\");\n        require(!bool4,\"Bool4 has init\");\n        for (uint256 index = 600; index < 750; index++) {\n            tokensIndex[index] = index;\n            tokenIds.push(index);\n        }\n        bool4 = true ;\n    }\n\n    function setNumber(uint256 _minNum,uint256 _maxNum) public onlyOperator(){\n        if(_minNum > 0){\n            minNum = _minNum;\n        }\n        if(_maxNum > 0){\n            maxNum = _maxNum;\n        }\n    }\n\n    function updateDayCount() public onlyOperator(){\n        uint256 nowTime = one.mul(block.timestamp);\n        dayCountRest = dayCount;\n        require(startTime.add(period.mul(duration)) <= nowTime,\"Not on next period\");\n        period = period.add(1);\n        lastExchangeTime = nowTime.add(1);\n    }\n\n    function getTokenIds() view public returns(uint256[] memory _tokenIds){\n        return tokenIds;\n    }\n\n    function setDuration(uint _duration) public onlyOperator(){\n        duration = _duration;\n    }\n\n    function getWord() internal returns(uint256){\n        uint256 limitC = addressCount[msg.sender];\n        //\n        //1612526400 + 2 * 600\n        if(startTime.add(period.mul(duration)) > block.timestamp){\n            if(!isReset[msg.sender][lastExchangeTime]){\n                //\n                if(limitC!=0){\n                    addressCount[msg.sender] = 0;\n                }\n                isReset[msg.sender][lastExchangeTime] = true;\n            }\n        }else{\n            require(limitC < 5,\"On limit\");\n        }\n\n        // 110:\n        //uint256(keccak256(abi.encode(now, msg.sender, randomIndex))) \n        uint256 random1 = uint256(keccak256(abi.encode(block.timestamp, msg.sender, randNonce))) % maxNum;\n        randNonce = randNonce.add(120);\n        uint256 random2 = uint256(keccak256(abi.encode(block.timestamp, msg.sender, randNonce))) % maxNum;\n        uint256 guess= Math.min(random1,random2);\n        return guess.add(minNum);\n    }\n    \n    // function testExchange(uint256 tokenId) public returns(uint256 _tokenId){\n    //     require(block.timestamp <= endTime,\"Exchange over\");\n    //     require(dayCountRest > 0,\"Today,sell out\");\n    //     require(totalCountRest > 0,\"All,sell out\");\n    //     //\n    //     iNft.mint(msg.sender,tokenId);\n    //     _removeTokenFromRange(tokenId);\n    //     //add attribute\n    //     uint256 _level = checkAttribute(tokenId);\n    //     levels[tokenId] = _level;\n    //     dayCountRest = dayCountRest.sub(1);\n    //     totalCountRest = totalCountRest.sub(1);\n    //     return tokenId;\n    // }\n\n\n    function exchangeWithWord(uint256 _word) public returns(uint256 _tokenId){\n        uint256 word = getWord();\n        addressCount[msg.sender] = addressCount[msg.sender].add(1);\n        if(word!=_word){\n            emit ExchangeWithWord(msg.sender, word.add(10000000000),0);\n            return word.add(10000000000);\n        }\n        require(block.timestamp <= endTime,\"Exchange over\");\n        require(dayCountRest > 0,\"Today,sell out\");\n        require(totalCountRest > 0,\"All,sell out\");\n        //\n        uint256 index = uint256(keccak256(abi.encode(block.timestamp, \n                            msg.sender, randNonce))) % totalCountRest;\n        uint256 tokenId = tokenIds[index];\n        iNft.mint(msg.sender,tokenId);\n        _removeTokenFromRange(tokenId);\n        //add attribute\n        uint256 _level = checkAttribute(tokenId);\n        levels[tokenId] = _level;\n        dayCountRest = dayCountRest.sub(1);\n        totalCountRest = totalCountRest.sub(1);\n        emit ExchangeWithWord(msg.sender, tokenId,_level);\n        return tokenId;\n    }\n\n    function exchangeRewardCard(uint256[] memory tokenIds) public returns(uint256 _tokenId){\n        require(tokenIds.length==7,\"Count error\");\n        //verify\n        uint256 levelCount;\n        for (uint256 i = 0; i < tokenIds.length; i++) {\n            levelCount = levelCount.add(levels[tokenIds[i]].mul(levels[tokenIds[i]]));\n        }\n        require(levelCount==140,\"Card error\");\n        for (uint256 j = 0; j < tokenIds.length; j++) {\n            iNft.safeTransferFrom(msg.sender,address(1),tokenIds[j],1,\"\");\n        }\n        uint256 tokenId = iConposeNft.mint(msg.sender);\n        balance = balance.add(1);\n        emit ExchangeRewardCard(msg.sender, tokenId);\n        return tokenId;\n    }\n\n    // function testRewardCard(uint256[] memory tokenIds) public returns(uint256 _tokenId){\n    //     // for (uint256 j = 0; j < tokenIds.length; j++) {\n    //     //     iNft.safeTransferFrom(msg.sender,address(1),tokenIds[j],1,\"\");\n    //     // } \n    //     uint256 tokenId = iConposeNft.mint(msg.sender);\n    //     balance = balance.add(1);\n    //     emit ExchangeRewardCard(msg.sender, tokenId);\n    //     return tokenId;\n    // }\n\n    function sendCfx() payable public onlyOperator{\n        require(msg.value>0,\"Value wrong\");\n        rewardCfx = rewardCfx.add(msg.value);\n    }\n\n    // function exchangeReward(uint256 _tokenId) public{\n    //     iConposeNft.safeTransferFrom(msg.sender,address(0),_tokenId,1,\"\");\n    //     IERC777 iERC777 = IERC777(rewardToken);\n    //     uint256 rest777 = iERC777.balanceOf(address(this));\n    //     iERC777.send(msg.sender, rest777.div(balance), \"\");\n    // }\n\n    function exchangeCfxReward(uint256 _tokenId) public{\n        // iConposeNft.safeTransferFrom(msg.sender,address(1),_tokenId,1,\"\");\n        require(block.timestamp >= endTime,\"Exchange not start\");\n        address[] memory ow = iConposeNft.ownerOf(_tokenId);\n        bool isO = false;\n        for (uint256 index = 0; index < ow.length; index++) {\n            if(ow[index]==msg.sender){\n                isO = true;\n            }\n        }\n        require(isO,\"Not owner\");\n        require(!tokenHasExchange[_tokenId],\"Has already exchange\");\n        transferEth(msg.sender,rewardCfx.div(balance));\n    }\n\n    function checkAttribute(uint256 random1) internal returns(uint256){\n        //C100O200N100F100L100U50X100\n        //0~100,100~300,300~400,400~500,500~600,600~650,650~750\n        if(random1>=0 && random1<100){\n            return 1;\n        }else if (random1>=100 && random1<300){\n            return 2;\n        }else if (random1>=300 && random1<400){\n            return 3;\n        }else if (random1>=400 && random1<500){\n            return 4;\n        }else if (random1>=500 && random1<600){\n            return 5;\n        }else if (random1>=600 && random1<650){\n            return 6;\n        }else if (random1>=650 && random1<750){\n            return 7;\n        }\n    }\n\n    function _removeTokenFromRange(uint256 tokenId) private {\n        //\n        uint256 lastTokenIndex = tokenIds.length.sub(1);\n        //tokenId\n        uint256 tokenIndex = tokensIndex[tokenId];\n\n        if (tokenIndex != lastTokenIndex) {\n            //token\n            uint256 lastTokenId = tokenIds[lastTokenIndex];\n            tokenIds[tokenIndex] = lastTokenId; \n            tokensIndex[lastTokenId] = tokenIndex;\n        }\n\n        tokenIds.pop();\n    }\n\n    function transferEth(address _address, uint256 _value) internal{\n        (bool res, ) = address(uint160(_address)).call{value:_value}(\"\");\n        require(res,\"TRANSFER ETH ERROR\");\n    }\n\n     //-----------\n    function onERC1155Received(\n        address operator,\n        address from,\n        uint256 id,\n        uint256 value,\n        bytes calldata data\n    )external returns(bytes4){\n       return bytes4(keccak256(\"onERC1155Received(address,address,uint256,uint256,bytes)\"));\n    }\n\n    function onERC1155BatchReceived(\n        address operator,\n        address from,\n        uint256[] calldata ids,\n        uint256[] calldata values,\n        bytes calldata data\n    )external returns(bytes4){\n        return bytes4(keccak256(\"onERC1155BatchReceived(address,address,uint256[],uint256[],bytes)\"));\n    }\n\n    receive() external payable {}\n}",
  "sourcePath": "/Users/wangban/Downloads/money/coin/chk/chksol/contracts/CfxMiner.sol",
  "compiler": {
    "name": "solc",
    "version": "0.6.2+commit.bacdbe57.Emscripten.clang"
  },
  "schemaVersion": "3.2.0",
  "updatedAt": "2021-02-11T08:22:29.391Z",
  "devdoc": {
    "methods": {
      "owner()": {
        "details": "Returns the address of the current owner."
      },
      "renounceOwnership()": {
        "details": "Leaves the contract without owner. It will not be possible to call `onlyOwner` functions anymore. Can only be called by the current owner.     * NOTE: Renouncing ownership will leave the contract without an owner, thereby removing any functionality that is only available to the owner."
      },
      "transferOwnership(address)": {
        "details": "Transfers ownership of the contract to a new account (`newOwner`). Can only be called by the current owner."
      }
    }
  },
  "userdoc": {
    "methods": {}
  }
}