{
  "contractName": "CfxReward",
  "abi": [
    {
      "inputs": [
        {
          "internalType": "address",
          "name": "_iConposeNft",
          "type": "address"
        },
        {
          "internalType": "address",
          "name": "_cfxMiner",
          "type": "address"
        }
      ],
      "stateMutability": "nonpayable",
      "type": "constructor"
    },
    {
      "anonymous": false,
      "inputs": [
        {
          "indexed": false,
          "internalType": "uint256",
          "name": "_tokenId",
          "type": "uint256"
        },
        {
          "indexed": false,
          "internalType": "address",
          "name": "_sender",
          "type": "address"
        },
        {
          "indexed": false,
          "internalType": "uint256",
          "name": "_amount",
          "type": "uint256"
        }
      ],
      "name": "ExchangeCfxReward",
      "type": "event"
    },
    {
      "anonymous": false,
      "inputs": [
        {
          "indexed": true,
          "internalType": "address",
          "name": "previousOperator",
          "type": "address"
        },
        {
          "indexed": true,
          "internalType": "address",
          "name": "newOperator",
          "type": "address"
        }
      ],
      "name": "OperatorTransferred",
      "type": "event"
    },
    {
      "anonymous": false,
      "inputs": [
        {
          "indexed": true,
          "internalType": "address",
          "name": "previousOwner",
          "type": "address"
        },
        {
          "indexed": true,
          "internalType": "address",
          "name": "newOwner",
          "type": "address"
        }
      ],
      "name": "OwnershipTransferred",
      "type": "event"
    },
    {
      "inputs": [],
      "name": "SPONSOR",
      "outputs": [
        {
          "internalType": "contract SponsorWhitelistControl",
          "name": "",
          "type": "address"
        }
      ],
      "stateMutability": "view",
      "type": "function"
    },
    {
      "inputs": [],
      "name": "baseDecimal",
      "outputs": [
        {
          "internalType": "uint256",
          "name": "",
          "type": "uint256"
        }
      ],
      "stateMutability": "view",
      "type": "function"
    },
    {
      "inputs": [],
      "name": "isOperator",
      "outputs": [
        {
          "internalType": "bool",
          "name": "",
          "type": "bool"
        }
      ],
      "stateMutability": "view",
      "type": "function"
    },
    {
      "inputs": [],
      "name": "operator",
      "outputs": [
        {
          "internalType": "address",
          "name": "",
          "type": "address"
        }
      ],
      "stateMutability": "view",
      "type": "function"
    },
    {
      "inputs": [],
      "name": "owner",
      "outputs": [
        {
          "internalType": "address",
          "name": "",
          "type": "address"
        }
      ],
      "stateMutability": "view",
      "type": "function"
    },
    {
      "inputs": [],
      "name": "renounceOwnership",
      "outputs": [],
      "stateMutability": "nonpayable",
      "type": "function"
    },
    {
      "inputs": [],
      "name": "rewardCfx",
      "outputs": [
        {
          "internalType": "uint256",
          "name": "",
          "type": "uint256"
        }
      ],
      "stateMutability": "view",
      "type": "function"
    },
    {
      "inputs": [],
      "name": "rewardCount",
      "outputs": [
        {
          "internalType": "uint256",
          "name": "",
          "type": "uint256"
        }
      ],
      "stateMutability": "view",
      "type": "function"
    },
    {
      "inputs": [
        {
          "internalType": "uint256",
          "name": "",
          "type": "uint256"
        }
      ],
      "name": "tokenHasExchange",
      "outputs": [
        {
          "internalType": "bool",
          "name": "",
          "type": "bool"
        }
      ],
      "stateMutability": "view",
      "type": "function"
    },
    {
      "inputs": [
        {
          "internalType": "address",
          "name": "newOperator_",
          "type": "address"
        }
      ],
      "name": "transferOperator",
      "outputs": [],
      "stateMutability": "nonpayable",
      "type": "function"
    },
    {
      "inputs": [
        {
          "internalType": "address",
          "name": "newOwner",
          "type": "address"
        }
      ],
      "name": "transferOwnership",
      "outputs": [],
      "stateMutability": "nonpayable",
      "type": "function"
    },
    {
      "inputs": [],
      "name": "sendCfx",
      "outputs": [],
      "stateMutability": "payable",
      "type": "function"
    },
    {
      "inputs": [],
      "name": "sendCfx2",
      "outputs": [],
      "stateMutability": "payable",
      "type": "function"
    },
    {
      "inputs": [
        {
          "internalType": "uint256",
          "name": "_amount",
          "type": "uint256"
        }
      ],
      "name": "setCfxReward",
      "outputs": [],
      "stateMutability": "nonpayable",
      "type": "function"
    },
    {
      "inputs": [
        {
          "internalType": "uint256",
          "name": "_count",
          "type": "uint256"
        }
      ],
      "name": "setBalance",
      "outputs": [],
      "stateMutability": "nonpayable",
      "type": "function"
    },
    {
      "inputs": [
        {
          "internalType": "uint256",
          "name": "_tokenId",
          "type": "uint256"
        }
      ],
      "name": "exchangeCfxReward",
      "outputs": [],
      "stateMutability": "nonpayable",
      "type": "function"
    },
    {
      "inputs": [
        {
          "internalType": "uint256",
          "name": "_amount",
          "type": "uint256"
        }
      ],
      "name": "getCfx",
      "outputs": [],
      "stateMutability": "nonpayable",
      "type": "function"
    }
  ],
  "bytecode": "0x6080604052655af3107a40006004553480156200001b57600080fd5b5060405162001c3538038062001c35833981810160405260408110156200004157600080fd5b81019080805190602001909291908051906020019092919050505060006200006e620003a860201b60201c565b9050806000806101000a81548173ffffffffffffffffffffffffffffffffffffffff021916908373ffffffffffffffffffffffffffffffffffffffff1602179055508073ffffffffffffffffffffffffffffffffffffffff16600073ffffffffffffffffffffffffffffffffffffffff167f8be0079c531659141344cd1fd0a4f28419497f9722a3daafe3b4186f6b6457e060405160405180910390a3506200011c620003a860201b60201c565b600160006101000a81548173ffffffffffffffffffffffffffffffffffffffff021916908373ffffffffffffffffffffffffffffffffffffffff160217905550600160009054906101000a900473ffffffffffffffffffffffffffffffffffffffff1673ffffffffffffffffffffffffffffffffffffffff16600073ffffffffffffffffffffffffffffffffffffffff167f74da04524d50c64947f5dd5381ef1a4dca5cba8ed1d816243f9e48aa0b5617ed60405160405180910390a381600560006101000a81548173ffffffffffffffffffffffffffffffffffffffff021916908373ffffffffffffffffffffffffffffffffffffffff16021790555080600660006101000a81548173ffffffffffffffffffffffffffffffffffffffff021916908373ffffffffffffffffffffffffffffffffffffffff160217905550606060016040519080825280602002602001820160405280156200028e5781602001602082028038833980820191505090505b509050600081600081518110620002a157fe5b602002602001019073ffffffffffffffffffffffffffffffffffffffff16908173ffffffffffffffffffffffffffffffffffffffff168152505073088800000000000000000000000000000000000173ffffffffffffffffffffffffffffffffffffffff166310128d3e826040518263ffffffff1660e01b81526004018080602001828103825283818151815260200191508051906020019060200280838360005b838110156200036057808201518184015260208101905062000343565b5050505090500192505050600060405180830381600087803b1580156200038657600080fd5b505af11580156200039b573d6000803e3d6000fd5b50505050505050620003b0565b600033905090565b61187580620003c06000396000f3fe6080604052600436106100fe5760003560e01c80638da5cb5b11610095578063caf76a9111610064578063caf76a91146103d8578063db7b373e14610403578063f2fde38b1461042e578063fa512ad61461047f578063fb1669ca14610489576100fe565b80638da5cb5b146102e9578063975f271d14610340578063ac2c3f751461034a578063adbba92c1461039d576100fe565b8063570ca735116100d1578063570ca73514610215578063668a93071461026c578063715018a6146102a757806379085425146102be576100fe565b80630252138d146101035780631d073a7a1461013e57806329605e77146101955780634456eda2146101e6575b600080fd5b34801561010f57600080fd5b5061013c6004803603602081101561012657600080fd5b81019080803590602001909291905050506104c4565b005b34801561014a57600080fd5b5061015361098f565b604051808273ffffffffffffffffffffffffffffffffffffffff1673ffffffffffffffffffffffffffffffffffffffff16815260200191505060405180910390f35b3480156101a157600080fd5b506101e4600480360360208110156101b857600080fd5b81019080803573ffffffffffffffffffffffffffffffffffffffff1690602001909291905050506109a7565b005b3480156101f257600080fd5b506101fb610a7c565b604051808215151515815260200191505060405180910390f35b34801561022157600080fd5b5061022a610adb565b604051808273ffffffffffffffffffffffffffffffffffffffff1673ffffffffffffffffffffffffffffffffffffffff16815260200191505060405180910390f35b34801561027857600080fd5b506102a56004803603602081101561028f57600080fd5b8101908080359060200190929190505050610b05565b005b3480156102b357600080fd5b506102bc610bb8565b005b3480156102ca57600080fd5b506102d3610d40565b6040518082815260200191505060405180910390f35b3480156102f557600080fd5b506102fe610d46565b604051808273ffffffffffffffffffffffffffffffffffffffff1673ffffffffffffffffffffffffffffffffffffffff16815260200191505060405180910390f35b610348610d6f565b005b34801561035657600080fd5b506103836004803603602081101561036d57600080fd5b8101908080359060200190929190505050610e8d565b604051808215151515815260200191505060405180910390f35b3480156103a957600080fd5b506103d6600480360360208110156103c057600080fd5b8101908080359060200190929190505050610ead565b005b3480156103e457600080fd5b506103ed610f5d565b6040518082815260200191505060405180910390f35b34801561040f57600080fd5b50610418610f63565b6040518082815260200191505060405180910390f35b34801561043a57600080fd5b5061047d6004803603602081101561045157600080fd5b81019080803573ffffffffffffffffffffffffffffffffffffffff169060200190929190505050610f69565b005b610487611176565b005b34801561049557600080fd5b506104c2600480360360208110156104ac57600080fd5b810190808035906020019092919050505061129b565b005b600660009054906101000a900473ffffffffffffffffffffffffffffffffffffffff1673ffffffffffffffffffffffffffffffffffffffff16633197cbb66040518163ffffffff1660e01b815260040160206040518083038186803b15801561052c57600080fd5b505afa158015610540573d6000803e3d6000fd5b505050506040513d602081101561055657600080fd5b81019080805190602001909291905050504210156105dc576040517f08c379a00000000000000000000000000000000000000000000000000000000081526004018080602001828103825260128152602001807f45786368616e6765206e6f74207374617274000000000000000000000000000081525060200191505060405180910390fd5b6060600560009054906101000a900473ffffffffffffffffffffffffffffffffffffffff1673ffffffffffffffffffffffffffffffffffffffff16636352211e836040518263ffffffff1660e01b81526004018082815260200191505060006040518083038186803b15801561065157600080fd5b505afa158015610665573d6000803e3d6000fd5b505050506040513d6000823e3d601f19601f82011682018060405250602081101561068f57600080fd5b81019080805160405193929190846401000000008211156106af57600080fd5b838201915060208201858111156106c557600080fd5b82518660208202830111640100000000821117156106e257600080fd5b8083526020830192505050908051906020019060200280838360005b838110156107195780820151818401526020810190506106fe565b505050509050016040525050509050600080905060008090505b8251811015610795573373ffffffffffffffffffffffffffffffffffffffff1683828151811061075f57fe5b602002602001015173ffffffffffffffffffffffffffffffffffffffff16141561078857600191505b8080600101915050610733565b5080610809576040517f08c379a00000000000000000000000000000000000000000000000000000000081526004018080602001828103825260098152602001807f4e6f74206f776e6572000000000000000000000000000000000000000000000081525060200191505060405180910390fd5b6007600084815260200190815260200160002060009054906101000a900460ff161561089d576040517f08c379a00000000000000000000000000000000000000000000000000000000081526004018080602001828103825260148152602001807f48617320616c72656164792065786368616e676500000000000000000000000081525060200191505060405180910390fd5b60006108de6004546108d06004546108c260035460025461140390919063ffffffff16565b61140390919063ffffffff16565b61144d90919063ffffffff16565b90506108ea33826114d3565b60016007600086815260200190815260200160002060006101000a81548160ff0219169083151502179055507ffe70527bf3b57b8ee9b21ef2461182c00c5cc97879f535f5641a81364669c0d4843383604051808481526020018373ffffffffffffffffffffffffffffffffffffffff1673ffffffffffffffffffffffffffffffffffffffff168152602001828152602001935050505060405180910390a150505050565b73088800000000000000000000000000000000000181565b6109af6115b4565b73ffffffffffffffffffffffffffffffffffffffff166000809054906101000a900473ffffffffffffffffffffffffffffffffffffffff1673ffffffffffffffffffffffffffffffffffffffff1614610a70576040517f08c379a00000000000000000000000000000000000000000000000000000000081526004018080602001828103825260208152602001807f4f776e61626c653a2063616c6c6572206973206e6f7420746865206f776e657281525060200191505060405180910390fd5b610a79816115bc565b50565b6000600160009054906101000a900473ffffffffffffffffffffffffffffffffffffffff1673ffffffffffffffffffffffffffffffffffffffff16610abf6115b4565b73ffffffffffffffffffffffffffffffffffffffff1614905090565b6000600160009054906101000a900473ffffffffffffffffffffffffffffffffffffffff16905090565b3373ffffffffffffffffffffffffffffffffffffffff16600160009054906101000a900473ffffffffffffffffffffffffffffffffffffffff1673ffffffffffffffffffffffffffffffffffffffff1614610bab576040517f08c379a000000000000000000000000000000000000000000000000000000000815260040180806020018281038252602481526020018061181c6024913960400191505060405180910390fd5b610bb533826114d3565b50565b610bc06115b4565b73ffffffffffffffffffffffffffffffffffffffff166000809054906101000a900473ffffffffffffffffffffffffffffffffffffffff1673ffffffffffffffffffffffffffffffffffffffff1614610c81576040517f08c379a00000000000000000000000000000000000000000000000000000000081526004018080602001828103825260208152602001807f4f776e61626c653a2063616c6c6572206973206e6f7420746865206f776e657281525060200191505060405180910390fd5b600073ffffffffffffffffffffffffffffffffffffffff166000809054906101000a900473ffffffffffffffffffffffffffffffffffffffff1673ffffffffffffffffffffffffffffffffffffffff167f8be0079c531659141344cd1fd0a4f28419497f9722a3daafe3b4186f6b6457e060405160405180910390a360008060006101000a81548173ffffffffffffffffffffffffffffffffffffffff021916908373ffffffffffffffffffffffffffffffffffffffff160217905550565b60035481565b60008060009054906101000a900473ffffffffffffffffffffffffffffffffffffffff16905090565b3373ffffffffffffffffffffffffffffffffffffffff16600160009054906101000a900473ffffffffffffffffffffffffffffffffffffffff1673ffffffffffffffffffffffffffffffffffffffff1614610e15576040517f08c379a000000000000000000000000000000000000000000000000000000000815260040180806020018281038252602481526020018061181c6024913960400191505060405180910390fd5b60003411610e8b576040517f08c379a000000000000000000000000000000000000000000000000000000000815260040180806020018281038252600b8152602001807f56616c75652077726f6e6700000000000000000000000000000000000000000081525060200191505060405180910390fd5b565b60076020528060005260406000206000915054906101000a900460ff1681565b3373ffffffffffffffffffffffffffffffffffffffff16600160009054906101000a900473ffffffffffffffffffffffffffffffffffffffff1673ffffffffffffffffffffffffffffffffffffffff1614610f53576040517f08c379a000000000000000000000000000000000000000000000000000000000815260040180806020018281038252602481526020018061181c6024913960400191505060405180910390fd5b8060028190555050565b60025481565b60045481565b610f716115b4565b73ffffffffffffffffffffffffffffffffffffffff166000809054906101000a900473ffffffffffffffffffffffffffffffffffffffff1673ffffffffffffffffffffffffffffffffffffffff1614611032576040517f08c379a00000000000000000000000000000000000000000000000000000000081526004018080602001828103825260208152602001807f4f776e61626c653a2063616c6c6572206973206e6f7420746865206f776e657281525060200191505060405180910390fd5b600073ffffffffffffffffffffffffffffffffffffffff168173ffffffffffffffffffffffffffffffffffffffff1614156110b8576040517f08c379a00000000000000000000000000000000000000000000000000000000081526004018080602001828103825260268152602001806117a86026913960400191505060405180910390fd5b8073ffffffffffffffffffffffffffffffffffffffff166000809054906101000a900473ffffffffffffffffffffffffffffffffffffffff1673ffffffffffffffffffffffffffffffffffffffff167f8be0079c531659141344cd1fd0a4f28419497f9722a3daafe3b4186f6b6457e060405160405180910390a3806000806101000a81548173ffffffffffffffffffffffffffffffffffffffff021916908373ffffffffffffffffffffffffffffffffffffffff16021790555050565b3373ffffffffffffffffffffffffffffffffffffffff16600160009054906101000a900473ffffffffffffffffffffffffffffffffffffffff1673ffffffffffffffffffffffffffffffffffffffff161461121c576040517f08c379a000000000000000000000000000000000000000000000000000000000815260040180806020018281038252602481526020018061181c6024913960400191505060405180910390fd5b60003411611292576040517f08c379a000000000000000000000000000000000000000000000000000000000815260040180806020018281038252600b8152602001807f56616c75652077726f6e6700000000000000000000000000000000000000000081525060200191505060405180910390fd5b34600281905550565b3373ffffffffffffffffffffffffffffffffffffffff16600160009054906101000a900473ffffffffffffffffffffffffffffffffffffffff1673ffffffffffffffffffffffffffffffffffffffff1614611341576040517f08c379a000000000000000000000000000000000000000000000000000000000815260040180806020018281038252602481526020018061181c6024913960400191505060405180910390fd5b60008114156113f857600660009054906101000a900473ffffffffffffffffffffffffffffffffffffffff1673ffffffffffffffffffffffffffffffffffffffff1663b69ef8a86040518163ffffffff1660e01b815260040160206040518083038186803b1580156113b257600080fd5b505afa1580156113c6573d6000803e3d6000fd5b505050506040513d60208110156113dc57600080fd5b8101908080519060200190929190505050600381905550611400565b806003819055505b50565b600061144583836040518060400160405280601a81526020017f536166654d6174683a206469766973696f6e206279207a65726f0000000000008152506116e1565b905092915050565b60008083141561146057600090506114cd565b600082840290508284828161147157fe5b04146114c8576040517f08c379a00000000000000000000000000000000000000000000000000000000081526004018080602001828103825260218152602001806117fb6021913960400191505060405180910390fd5b809150505b92915050565b60008273ffffffffffffffffffffffffffffffffffffffff168260405180600001905060006040518083038185875af1925050503d8060008114611533576040519150601f19603f3d011682016040523d82523d6000602084013e611538565b606091505b50509050806115af576040517f08c379a00000000000000000000000000000000000000000000000000000000081526004018080602001828103825260128152602001807f5452414e5346455220434658204552524f52000000000000000000000000000081525060200191505060405180910390fd5b505050565b600033905090565b600073ffffffffffffffffffffffffffffffffffffffff168173ffffffffffffffffffffffffffffffffffffffff161415611642576040517f08c379a000000000000000000000000000000000000000000000000000000000815260040180806020018281038252602d8152602001806117ce602d913960400191505060405180910390fd5b8073ffffffffffffffffffffffffffffffffffffffff16600073ffffffffffffffffffffffffffffffffffffffff167f74da04524d50c64947f5dd5381ef1a4dca5cba8ed1d816243f9e48aa0b5617ed60405160405180910390a380600160006101000a81548173ffffffffffffffffffffffffffffffffffffffff021916908373ffffffffffffffffffffffffffffffffffffffff16021790555050565b6000808311829061178d576040517f08c379a00000000000000000000000000000000000000000000000000000000081526004018080602001828103825283818151815260200191508051906020019080838360005b83811015611752578082015181840152602081019050611737565b50505050905090810190601f16801561177f5780820380516001836020036101000a031916815260200191505b509250505060405180910390fd5b50600083858161179957fe5b04905080915050939250505056fe4f776e61626c653a206e6577206f776e657220697320746865207a65726f20616464726573736f70657261746f723a207a65726f206164647265737320676976656e20666f72206e6577206f70657261746f72536166654d6174683a206d756c7469706c69636174696f6e206f766572666c6f776f70657261746f723a2063616c6c6572206973206e6f7420746865206f70657261746f72a2646970667358221220b3bbc1b5c355173280db0030a6ec1cc16f9c0461e3007bb07cef355115b8c67c64736f6c63430006020033",
  "source": "pragma solidity ^0.6.0;\n\nimport \"./owner/Operator.sol\";\nimport \"@openzeppelin/contracts/math/SafeMath.sol\";\nimport \"@openzeppelin/contracts/math/Math.sol\";\nimport \"./interfaces/IRewardNft.sol\";\nimport \"./SponsorWhitelistControl.sol\";\n\ninterface CfxMiner{\n    function balance() view external returns(uint256);\n    function endTime() view external returns(uint256);\n}\n\ncontract CfxReward is Operator{\n    event ExchangeCfxReward(uint256 _tokenId, address _sender, uint256 _amount);\n\n    using SafeMath for uint256;\n    \n    uint256 public rewardCfx;\n\n    uint256 public rewardCount;\n\n    uint256 public baseDecimal = 1e14;\n\n    //2021-02-11 20:00:00\n    // uint256 public endTime = 1613044800;\n\n    IRewardNft iConposeNft;\n\n    CfxMiner cfxMiner;\n\n    mapping(uint256 => bool) public tokenHasExchange;\n\n    // address public rewardToken;\n    SponsorWhitelistControl public constant SPONSOR = SponsorWhitelistControl(\n        address(0x0888000000000000000000000000000000000001)\n    );\n\n    constructor(address _iConposeNft, address _cfxMiner) public {\n        iConposeNft = IRewardNft(_iConposeNft);\n        cfxMiner = CfxMiner(_cfxMiner);\n\n        // register all users as sponsees\n        address[] memory users = new address[](1);\n        users[0] = address(0);\n        SPONSOR.addPrivilege(users);\n    }\n\n    function sendCfx() payable public onlyOperator{\n        require(msg.value>0,\"Value wrong\");\n        rewardCfx = msg.value;\n    }\n\n    function sendCfx2() payable public onlyOperator{\n        require(msg.value>0,\"Value wrong\");\n    }\n\n    function setCfxReward(uint256 _amount) public onlyOperator{\n        rewardCfx = _amount;\n    }\n\n    function setBalance(uint256 _count) public onlyOperator{\n        if(_count==0){\n            rewardCount = cfxMiner.balance();\n        }else{\n            rewardCount = _count;\n        }\n    }\n\n\n    function exchangeCfxReward(uint256 _tokenId) public{\n        // iConposeNft.safeTransferFrom(msg.sender,address(1),_tokenId,1,\"\");\n        require(block.timestamp >= cfxMiner.endTime(),\"Exchange not start\");\n        address[] memory ow = iConposeNft.ownerOf(_tokenId);\n        bool isO = false;\n        for (uint256 index = 0; index < ow.length; index++) {\n            if(ow[index]==msg.sender){\n                isO = true;\n            }\n        }\n        require(isO,\"Not owner\");\n        require(!tokenHasExchange[_tokenId],\"Has already exchange\");\n        uint256 amount = rewardCfx.div(rewardCount).div(baseDecimal).mul(baseDecimal);\n        transferCfx(msg.sender,amount);\n        tokenHasExchange[_tokenId] = true;\n        emit ExchangeCfxReward(_tokenId, msg.sender, amount);\n    }\n\n    function getCfx(uint256 _amount) public onlyOperator{\n        transferCfx(msg.sender,_amount);\n    }\n\n    function transferCfx(address _address, uint256 _value) internal{\n        (bool res, ) = address(uint160(_address)).call{value:_value}(\"\");\n        require(res,\"TRANSFER CFX ERROR\");\n    }\n\n}",
  "sourcePath": "/Users/wangban/Downloads/money/coin/chk/chksol/contracts/CfxReward.sol",
  "compiler": {
    "name": "solc",
    "version": "0.6.2+commit.bacdbe57.Emscripten.clang"
  },
  "schemaVersion": "3.2.0",
  "updatedAt": "2021-02-11T08:06:36.142Z",
  "devdoc": {
    "methods": {
      "owner()": {
        "details": "Returns the address of the current owner."
      },
      "renounceOwnership()": {
        "details": "Leaves the contract without owner. It will not be possible to call `onlyOwner` functions anymore. Can only be called by the current owner.     * NOTE: Renouncing ownership will leave the contract without an owner, thereby removing any functionality that is only available to the owner."
      },
      "transferOwnership(address)": {
        "details": "Transfers ownership of the contract to a new account (`newOwner`). Can only be called by the current owner."
      }
    }
  },
  "userdoc": {
    "methods": {}
  }
}