{
  "contractName": "ConfluxCard",
  "abi": [
    {
      "inputs": [],
      "stateMutability": "nonpayable",
      "type": "constructor"
    },
    {
      "anonymous": false,
      "inputs": [
        {
          "indexed": true,
          "internalType": "address",
          "name": "account",
          "type": "address"
        },
        {
          "indexed": true,
          "internalType": "address",
          "name": "operator",
          "type": "address"
        },
        {
          "indexed": false,
          "internalType": "bool",
          "name": "approved",
          "type": "bool"
        }
      ],
      "name": "ApprovalForAll",
      "type": "event"
    },
    {
      "anonymous": false,
      "inputs": [
        {
          "indexed": true,
          "internalType": "address",
          "name": "operator",
          "type": "address"
        },
        {
          "indexed": true,
          "internalType": "address",
          "name": "from",
          "type": "address"
        },
        {
          "indexed": true,
          "internalType": "address",
          "name": "to",
          "type": "address"
        },
        {
          "indexed": false,
          "internalType": "uint256[]",
          "name": "ids",
          "type": "uint256[]"
        },
        {
          "indexed": false,
          "internalType": "uint256[]",
          "name": "values",
          "type": "uint256[]"
        }
      ],
      "name": "TransferBatch",
      "type": "event"
    },
    {
      "anonymous": false,
      "inputs": [
        {
          "indexed": true,
          "internalType": "address",
          "name": "operator",
          "type": "address"
        },
        {
          "indexed": true,
          "internalType": "address",
          "name": "from",
          "type": "address"
        },
        {
          "indexed": true,
          "internalType": "address",
          "name": "to",
          "type": "address"
        },
        {
          "indexed": false,
          "internalType": "uint256",
          "name": "id",
          "type": "uint256"
        },
        {
          "indexed": false,
          "internalType": "uint256",
          "name": "value",
          "type": "uint256"
        }
      ],
      "name": "TransferSingle",
      "type": "event"
    },
    {
      "anonymous": false,
      "inputs": [
        {
          "indexed": false,
          "internalType": "string",
          "name": "value",
          "type": "string"
        },
        {
          "indexed": true,
          "internalType": "uint256",
          "name": "id",
          "type": "uint256"
        }
      ],
      "name": "URI",
      "type": "event"
    },
    {
      "inputs": [],
      "name": "SPONSOR",
      "outputs": [
        {
          "internalType": "contract SponsorWhitelistControl",
          "name": "",
          "type": "address"
        }
      ],
      "stateMutability": "view",
      "type": "function"
    },
    {
      "inputs": [
        {
          "internalType": "address",
          "name": "account",
          "type": "address"
        },
        {
          "internalType": "uint256",
          "name": "id",
          "type": "uint256"
        }
      ],
      "name": "balanceOf",
      "outputs": [
        {
          "internalType": "uint256",
          "name": "",
          "type": "uint256"
        }
      ],
      "stateMutability": "view",
      "type": "function"
    },
    {
      "inputs": [
        {
          "internalType": "address[]",
          "name": "accounts",
          "type": "address[]"
        },
        {
          "internalType": "uint256[]",
          "name": "ids",
          "type": "uint256[]"
        }
      ],
      "name": "balanceOfBatch",
      "outputs": [
        {
          "internalType": "uint256[]",
          "name": "",
          "type": "uint256[]"
        }
      ],
      "stateMutability": "view",
      "type": "function"
    },
    {
      "inputs": [
        {
          "internalType": "address",
          "name": "account",
          "type": "address"
        },
        {
          "internalType": "address",
          "name": "operator",
          "type": "address"
        }
      ],
      "name": "isApprovedForAll",
      "outputs": [
        {
          "internalType": "bool",
          "name": "",
          "type": "bool"
        }
      ],
      "stateMutability": "view",
      "type": "function"
    },
    {
      "inputs": [
        {
          "internalType": "address",
          "name": "",
          "type": "address"
        }
      ],
      "name": "miners",
      "outputs": [
        {
          "internalType": "bool",
          "name": "",
          "type": "bool"
        }
      ],
      "stateMutability": "view",
      "type": "function"
    },
    {
      "inputs": [],
      "name": "name",
      "outputs": [
        {
          "internalType": "string",
          "name": "",
          "type": "string"
        }
      ],
      "stateMutability": "view",
      "type": "function"
    },
    {
      "inputs": [
        {
          "internalType": "uint256",
          "name": "",
          "type": "uint256"
        },
        {
          "internalType": "uint256",
          "name": "",
          "type": "uint256"
        }
      ],
      "name": "ownerOfAddress",
      "outputs": [
        {
          "internalType": "address",
          "name": "",
          "type": "address"
        }
      ],
      "stateMutability": "view",
      "type": "function"
    },
    {
      "inputs": [
        {
          "internalType": "address",
          "name": "operator",
          "type": "address"
        },
        {
          "internalType": "bool",
          "name": "approved",
          "type": "bool"
        }
      ],
      "name": "setApprovalForAll",
      "outputs": [],
      "stateMutability": "nonpayable",
      "type": "function"
    },
    {
      "inputs": [
        {
          "internalType": "bytes4",
          "name": "interfaceId",
          "type": "bytes4"
        }
      ],
      "name": "supportsInterface",
      "outputs": [
        {
          "internalType": "bool",
          "name": "",
          "type": "bool"
        }
      ],
      "stateMutability": "view",
      "type": "function"
    },
    {
      "inputs": [],
      "name": "symbol",
      "outputs": [
        {
          "internalType": "string",
          "name": "",
          "type": "string"
        }
      ],
      "stateMutability": "view",
      "type": "function"
    },
    {
      "inputs": [
        {
          "internalType": "address",
          "name": "_miner",
          "type": "address"
        }
      ],
      "name": "addMiner",
      "outputs": [],
      "stateMutability": "nonpayable",
      "type": "function"
    },
    {
      "inputs": [
        {
          "internalType": "address",
          "name": "_miner",
          "type": "address"
        }
      ],
      "name": "removeMiner",
      "outputs": [],
      "stateMutability": "nonpayable",
      "type": "function"
    },
    {
      "inputs": [
        {
          "internalType": "string",
          "name": "_baseUri",
          "type": "string"
        }
      ],
      "name": "setBaseUri",
      "outputs": [],
      "stateMutability": "nonpayable",
      "type": "function"
    },
    {
      "inputs": [
        {
          "internalType": "address",
          "name": "_owner",
          "type": "address"
        },
        {
          "internalType": "uint256",
          "name": "_id",
          "type": "uint256"
        }
      ],
      "name": "isTokenOwner",
      "outputs": [
        {
          "internalType": "bool",
          "name": "",
          "type": "bool"
        }
      ],
      "stateMutability": "view",
      "type": "function"
    },
    {
      "inputs": [
        {
          "internalType": "uint256",
          "name": "_id",
          "type": "uint256"
        }
      ],
      "name": "ownerOf",
      "outputs": [
        {
          "internalType": "address[]",
          "name": "",
          "type": "address[]"
        }
      ],
      "stateMutability": "view",
      "type": "function"
    },
    {
      "inputs": [
        {
          "internalType": "address",
          "name": "_owner",
          "type": "address"
        }
      ],
      "name": "tokensOf",
      "outputs": [
        {
          "internalType": "uint256[]",
          "name": "_tokens",
          "type": "uint256[]"
        }
      ],
      "stateMutability": "view",
      "type": "function"
    },
    {
      "inputs": [
        {
          "internalType": "uint256",
          "name": "_id",
          "type": "uint256"
        }
      ],
      "name": "uri",
      "outputs": [
        {
          "internalType": "string",
          "name": "",
          "type": "string"
        }
      ],
      "stateMutability": "view",
      "type": "function"
    },
    {
      "inputs": [],
      "name": "totalSupply",
      "outputs": [
        {
          "internalType": "uint256",
          "name": "",
          "type": "uint256"
        }
      ],
      "stateMutability": "view",
      "type": "function"
    },
    {
      "inputs": [
        {
          "internalType": "address",
          "name": "from",
          "type": "address"
        },
        {
          "internalType": "address",
          "name": "to",
          "type": "address"
        },
        {
          "internalType": "uint256",
          "name": "tokenId",
          "type": "uint256"
        },
        {
          "internalType": "uint256",
          "name": "amount",
          "type": "uint256"
        },
        {
          "internalType": "bytes",
          "name": "data",
          "type": "bytes"
        }
      ],
      "name": "safeTransferFrom",
      "outputs": [],
      "stateMutability": "nonpayable",
      "type": "function"
    },
    {
      "inputs": [
        {
          "internalType": "address",
          "name": "from",
          "type": "address"
        },
        {
          "internalType": "address",
          "name": "to",
          "type": "address"
        },
        {
          "internalType": "uint256[]",
          "name": "ids",
          "type": "uint256[]"
        },
        {
          "internalType": "uint256[]",
          "name": "amounts",
          "type": "uint256[]"
        },
        {
          "internalType": "bytes",
          "name": "data",
          "type": "bytes"
        }
      ],
      "name": "safeBatchTransferFrom",
      "outputs": [],
      "stateMutability": "nonpayable",
      "type": "function"
    },
    {
      "inputs": [
        {
          "internalType": "address",
          "name": "_to",
          "type": "address"
        },
        {
          "internalType": "uint256",
          "name": "tokenId",
          "type": "uint256"
        }
      ],
      "name": "mint",
      "outputs": [
        {
          "internalType": "uint256",
          "name": "",
          "type": "uint256"
        }
      ],
      "stateMutability": "nonpayable",
      "type": "function"
    },
    {
      "inputs": [
        {
          "internalType": "address",
          "name": "owner",
          "type": "address"
        },
        {
          "internalType": "uint256",
          "name": "tokenId",
          "type": "uint256"
        }
      ],
      "name": "burn",
      "outputs": [],
      "stateMutability": "nonpayable",
      "type": "function"
    }
  ],
  "bytecode": "0x60806040526040518060400160405280600c81526020017f436f6e666c757820436172640000000000000000000000000000000000000000815250600690805190602001906200005192919062000405565b506040518060400160405280600881526020017f4346582043415244000000000000000000000000000000000000000000000000815250600790805190602001906200009f92919062000405565b50348015620000ad57600080fd5b506040518060600160405280602e815260200162004670602e9139620000e06301ffc9a760e01b620002e060201b60201c565b620000f181620003e960201b60201c565b6200010963d9b67a2660e01b620002e060201b60201c565b62000121630e89341c60e01b620002e060201b60201c565b5033600560006101000a81548173ffffffffffffffffffffffffffffffffffffffff021916908373ffffffffffffffffffffffffffffffffffffffff1602179055506040518060600160405280602e815260200162004670602e9139600c90805190602001906200019492919062000405565b5060606001604051908082528060200260200182016040528015620001c85781602001602082028038833980820191505090505b509050600081600081518110620001db57fe5b602002602001019073ffffffffffffffffffffffffffffffffffffffff16908173ffffffffffffffffffffffffffffffffffffffff168152505073088800000000000000000000000000000000000173ffffffffffffffffffffffffffffffffffffffff166310128d3e826040518263ffffffff1660e01b81526004018080602001828103825283818151815260200191508051906020019060200280838360005b838110156200029a5780820151818401526020810190506200027d565b5050505090500192505050600060405180830381600087803b158015620002c057600080fd5b505af1158015620002d5573d6000803e3d6000fd5b5050505050620004b4565b63ffffffff60e01b817bffffffffffffffffffffffffffffffffffffffffffffffffffffffff191614156200037d576040517f08c379a000000000000000000000000000000000000000000000000000000000815260040180806020018281038252601c8152602001807f4552433136353a20696e76616c696420696e746572666163652069640000000081525060200191505060405180910390fd5b6001600080837bffffffffffffffffffffffffffffffffffffffffffffffffffffffff19167bffffffffffffffffffffffffffffffffffffffffffffffffffffffff1916815260200190815260200160002060006101000a81548160ff02191690831515021790555050565b80600390805190602001906200040192919062000405565b5050565b828054600181600116156101000203166002900490600052602060002090601f016020900481019282601f106200044857805160ff191683800117855562000479565b8280016001018555821562000479579182015b82811115620004785782518255916020019190600101906200045b565b5b5090506200048891906200048c565b5090565b620004b191905b80821115620004ad57600081600090555060010162000493565b5090565b90565b6141ac80620004c46000396000f3fe608060405234801561001057600080fd5b50600436106101415760003560e01c80635a7d188a116100b85780639dc29fac1161007c5780639dc29fac14610ae2578063a0bcfc7f14610b30578063a22cb46514610beb578063e985e9c514610c3b578063f242432a14610cb7578063f3982e5e14610dc657610141565b80635a7d188a146108a25780636352211e1461091a578063648ec7b91461099d57806395d89b41146109f957806398f7ceab14610a7c57610141565b806318160ddd1161010a57806318160ddd1461037b5780631d073a7a146103995780632eb2c2d6146103e357806340c10f19146106065780634e1273f4146106685780635a3f26721461080957610141565b8062fdd58e1461014657806301ffc9a7146101a857806306fdde031461020d5780630e89341c146102905780631024259014610337575b600080fd5b6101926004803603604081101561015c57600080fd5b81019080803573ffffffffffffffffffffffffffffffffffffffff16906020019092919080359060200190929190505050610e0a565b6040518082815260200191505060405180910390f35b6101f3600480360360208110156101be57600080fd5b8101908080357bffffffffffffffffffffffffffffffffffffffffffffffffffffffff19169060200190929190505050610eea565b604051808215151515815260200191505060405180910390f35b610215610f51565b6040518080602001828103825283818151815260200191508051906020019080838360005b8381101561025557808201518184015260208101905061023a565b50505050905090810190601f1680156102825780820380516001836020036101000a031916815260200191505b509250505060405180910390f35b6102bc600480360360208110156102a657600080fd5b8101908080359060200190929190505050610fef565b6040518080602001828103825283818151815260200191508051906020019080838360005b838110156102fc5780820151818401526020810190506102e1565b50505050905090810190601f1680156103295780820380516001836020036101000a031916815260200191505b509250505060405180910390f35b6103796004803603602081101561034d57600080fd5b81019080803573ffffffffffffffffffffffffffffffffffffffff1690602001909291905050506110da565b005b6103836111f8565b6040518082815260200191505060405180910390f35b6103a1611205565b604051808273ffffffffffffffffffffffffffffffffffffffff1673ffffffffffffffffffffffffffffffffffffffff16815260200191505060405180910390f35b610604600480360360a08110156103f957600080fd5b81019080803573ffffffffffffffffffffffffffffffffffffffff169060200190929190803573ffffffffffffffffffffffffffffffffffffffff1690602001909291908035906020019064010000000081111561045657600080fd5b82018360208201111561046857600080fd5b8035906020019184602083028401116401000000008311171561048a57600080fd5b919080806020026020016040519081016040528093929190818152602001838360200280828437600081840152601f19601f820116905080830192505050505050509192919290803590602001906401000000008111156104ea57600080fd5b8201836020820111156104fc57600080fd5b8035906020019184602083028401116401000000008311171561051e57600080fd5b919080806020026020016040519081016040528093929190818152602001838360200280828437600081840152601f19601f8201169050808301925050505050505091929192908035906020019064010000000081111561057e57600080fd5b82018360208201111561059057600080fd5b803590602001918460018302840111640100000000831117156105b257600080fd5b91908080601f016020809104026020016040519081016040528093929190818152602001838380828437600081840152601f19601f82011690508083019250505050505050919291929050505061121d565b005b6106526004803603604081101561061c57600080fd5b81019080803573ffffffffffffffffffffffffffffffffffffffff16906020019092919080359060200190929190505050611292565b6040518082815260200191505060405180910390f35b6107b26004803603604081101561067e57600080fd5b810190808035906020019064010000000081111561069b57600080fd5b8201836020820111156106ad57600080fd5b803590602001918460208302840111640100000000831117156106cf57600080fd5b919080806020026020016040519081016040528093929190818152602001838360200280828437600081840152601f19601f8201169050808301925050505050505091929192908035906020019064010000000081111561072f57600080fd5b82018360208201111561074157600080fd5b8035906020019184602083028401116401000000008311171561076357600080fd5b919080806020026020016040519081016040528093929190818152602001838360200280828437600081840152601f19601f82011690508083019250505050505050919291929050505061145d565b6040518080602001828103825283818151815260200191508051906020019060200280838360005b838110156107f55780820151818401526020810190506107da565b505050509050019250505060405180910390f35b61084b6004803603602081101561081f57600080fd5b81019080803573ffffffffffffffffffffffffffffffffffffffff16906020019092919050505061163b565b6040518080602001828103825283818151815260200191508051906020019060200280838360005b8381101561088e578082015181840152602081019050610873565b505050509050019250505060405180910390f35b6108d8600480360360408110156108b857600080fd5b8101908080359060200190929190803590602001909291905050506116d2565b604051808273ffffffffffffffffffffffffffffffffffffffff1673ffffffffffffffffffffffffffffffffffffffff16815260200191505060405180910390f35b6109466004803603602081101561093057600080fd5b810190808035906020019092919050505061171d565b6040518080602001828103825283818151815260200191508051906020019060200280838360005b8381101561098957808201518184015260208101905061096e565b505050509050019250505060405180910390f35b6109df600480360360208110156109b357600080fd5b81019080803573ffffffffffffffffffffffffffffffffffffffff1690602001909291905050506117be565b604051808215151515815260200191505060405180910390f35b610a016117de565b6040518080602001828103825283818151815260200191508051906020019080838360005b83811015610a41578082015181840152602081019050610a26565b50505050905090810190601f168015610a6e5780820380516001836020036101000a031916815260200191505b509250505060405180910390f35b610ac860048036036040811015610a9257600080fd5b81019080803573ffffffffffffffffffffffffffffffffffffffff1690602001909291908035906020019092919050505061187c565b604051808215151515815260200191505060405180910390f35b610b2e60048036036040811015610af857600080fd5b81019080803573ffffffffffffffffffffffffffffffffffffffff16906020019092919080359060200190929190505050611892565b005b610be960048036036020811015610b4657600080fd5b8101908080359060200190640100000000811115610b6357600080fd5b820183602082011115610b7557600080fd5b80359060200191846001830284011164010000000083111715610b9757600080fd5b91908080601f016020809104026020016040519081016040528093929190818152602001838380828437600081840152601f19601f8201169050808301925050505050505091929192905050506118ce565b005b610c3960048036036040811015610c0157600080fd5b81019080803573ffffffffffffffffffffffffffffffffffffffff1690602001909291908035151590602001909291905050506119b4565b005b610c9d60048036036040811015610c5157600080fd5b81019080803573ffffffffffffffffffffffffffffffffffffffff169060200190929190803573ffffffffffffffffffffffffffffffffffffffff169060200190929190505050611b4f565b604051808215151515815260200191505060405180910390f35b610dc4600480360360a0811015610ccd57600080fd5b81019080803573ffffffffffffffffffffffffffffffffffffffff169060200190929190803573ffffffffffffffffffffffffffffffffffffffff169060200190929190803590602001909291908035906020019092919080359060200190640100000000811115610d3e57600080fd5b820183602082011115610d5057600080fd5b80359060200191846001830284011164010000000083111715610d7257600080fd5b91908080601f016020809104026020016040519081016040528093929190818152602001838380828437600081840152601f19601f820116905080830192505050505050509192919290505050611be3565b005b610e0860048036036020811015610ddc57600080fd5b81019080803573ffffffffffffffffffffffffffffffffffffffff169060200190929190505050611c0b565b005b60008073ffffffffffffffffffffffffffffffffffffffff168373ffffffffffffffffffffffffffffffffffffffff161415610e91576040517f08c379a000000000000000000000000000000000000000000000000000000000815260040180806020018281038252602b815260200180613f8f602b913960400191505060405180910390fd5b6001600083815260200190815260200160002060008473ffffffffffffffffffffffffffffffffffffffff1673ffffffffffffffffffffffffffffffffffffffff16815260200190815260200160002054905092915050565b6000806000837bffffffffffffffffffffffffffffffffffffffffffffffffffffffff19167bffffffffffffffffffffffffffffffffffffffffffffffffffffffff1916815260200190815260200160002060009054906101000a900460ff169050919050565b60068054600181600116156101000203166002900480601f016020809104026020016040519081016040528092919081815260200182805460018160011615610100020316600290048015610fe75780601f10610fbc57610100808354040283529160200191610fe7565b820191906000526020600020905b815481529060010190602001808311610fca57829003601f168201915b505050505081565b60606110d3600c8054600181600116156101000203166002900480601f01602080910402602001604051908101604052809291908181526020018280546001816001161561010002031660029004801561108a5780601f1061105f5761010080835404028352916020019161108a565b820191906000526020600020905b81548152906001019060200180831161106d57829003601f168201915b505050505061109884611d29565b6040518060400160405280600581526020017f2e6a736f6e000000000000000000000000000000000000000000000000000000815250611e56565b9050919050565b3373ffffffffffffffffffffffffffffffffffffffff16600560009054906101000a900473ffffffffffffffffffffffffffffffffffffffff1673ffffffffffffffffffffffffffffffffffffffff161461119d576040517f08c379a00000000000000000000000000000000000000000000000000000000081526004018080602001828103825260098152602001807f4e6f74206f776e6572000000000000000000000000000000000000000000000081525060200191505060405180910390fd5b6000600d60008373ffffffffffffffffffffffffffffffffffffffff1673ffffffffffffffffffffffffffffffffffffffff16815260200190815260200160002060006101000a81548160ff02191690831515021790555050565b6000600a80549050905090565b73088800000000000000000000000000000000000181565b61122a8585858585611e8c565b60008090505b835181101561128a57600084828151811061124757fe5b60200260200101519050600084838151811061125f57fe5b60200260200101519050611273888361231a565b61127d87836124c3565b5050806001019050611230565b505050505050565b6000600d60003373ffffffffffffffffffffffffffffffffffffffff1673ffffffffffffffffffffffffffffffffffffffff16815260200190815260200160002060009054906101000a900460ff16611353576040517f08c379a00000000000000000000000000000000000000000000000000000000081526004018080602001828103825260098152602001807f4e6f74206d696e6572000000000000000000000000000000000000000000000081525060200191505060405180910390fd5b6114418383600161143c600c8054600181600116156101000203166002900480601f0160208091040260200160405190810160405280929190818152602001828054600181600116156101000203166002900480156113f35780601f106113c8576101008083540402835291602001916113f3565b820191906000526020600020905b8154815290600101906020018083116113d657829003601f168201915b50505050506114013061264e565b6040518060400160405280600181526020017f2f00000000000000000000000000000000000000000000000000000000000000815250611e56565b61288f565b61144a82612a92565b61145483836124c3565b81905092915050565b606081518351146114b9576040517f08c379a00000000000000000000000000000000000000000000000000000000081526004018080602001828103825260298152602001806141056029913960400191505060405180910390fd5b606083516040519080825280602002602001820160405280156114eb5781602001602082028038833980820191505090505b50905060008090505b845181101561163057600073ffffffffffffffffffffffffffffffffffffffff1685828151811061152157fe5b602002602001015173ffffffffffffffffffffffffffffffffffffffff161415611596576040517f08c379a0000000000000000000000000000000000000000000000000000000008152600401808060200182810382526031815260200180613fba6031913960400191505060405180910390fd5b600160008583815181106115a657fe5b6020026020010151815260200190815260200160002060008683815181106115ca57fe5b602002602001015173ffffffffffffffffffffffffffffffffffffffff1673ffffffffffffffffffffffffffffffffffffffff1681526020019081526020016000205482828151811061161957fe5b6020026020010181815250508060010190506114f4565b508091505092915050565b6060600860008373ffffffffffffffffffffffffffffffffffffffff1673ffffffffffffffffffffffffffffffffffffffff1681526020019081526020016000208054806020026020016040519081016040528092919081815260200182805480156116c657602002820191906000526020600020905b8154815260200190600101908083116116b2575b50505050509050919050565b600e60205281600052604060002081815481106116eb57fe5b906000526020600020016000915091509054906101000a900473ffffffffffffffffffffffffffffffffffffffff1681565b6060600e60008381526020019081526020016000208054806020026020016040519081016040528092919081815260200182805480156117b257602002820191906000526020600020905b8160009054906101000a900473ffffffffffffffffffffffffffffffffffffffff1673ffffffffffffffffffffffffffffffffffffffff1681526020019060010190808311611768575b50505050509050919050565b600d6020528060005260406000206000915054906101000a900460ff1681565b60078054600181600116156101000203166002900480601f0160208091040260200160405190810160405280929190818152602001828054600181600116156101000203166002900480156118745780601f1061184957610100808354040283529160200191611874565b820191906000526020600020905b81548152906001019060200180831161185757829003601f168201915b505050505081565b6000806118898484610e0a565b11905092915050565b61189e82826001612adb565b6118a8828261231a565b600060096000838152602001908152602001600020819055506118ca81612cf7565b5050565b3373ffffffffffffffffffffffffffffffffffffffff16600560009054906101000a900473ffffffffffffffffffffffffffffffffffffffff1673ffffffffffffffffffffffffffffffffffffffff1614611991576040517f08c379a00000000000000000000000000000000000000000000000000000000081526004018080602001828103825260098152602001807f4e6f74206f776e6572000000000000000000000000000000000000000000000081525060200191505060405180910390fd5b61199a81612dbc565b80600c90805190602001906119b0929190613e8d565b5050565b8173ffffffffffffffffffffffffffffffffffffffff166119d3612dd6565b73ffffffffffffffffffffffffffffffffffffffff161415611a40576040517f08c379a00000000000000000000000000000000000000000000000000000000081526004018080602001828103825260298152602001806140dc6029913960400191505060405180910390fd5b8060026000611a4d612dd6565b73ffffffffffffffffffffffffffffffffffffffff1673ffffffffffffffffffffffffffffffffffffffff16815260200190815260200160002060008473ffffffffffffffffffffffffffffffffffffffff1673ffffffffffffffffffffffffffffffffffffffff16815260200190815260200160002060006101000a81548160ff0219169083151502179055508173ffffffffffffffffffffffffffffffffffffffff16611afa612dd6565b73ffffffffffffffffffffffffffffffffffffffff167f17307eab39ab6107e8899845ad3d59bd9653f200f220920489ca2b5937696c3183604051808215151515815260200191505060405180910390a35050565b6000600260008473ffffffffffffffffffffffffffffffffffffffff1673ffffffffffffffffffffffffffffffffffffffff16815260200190815260200160002060008373ffffffffffffffffffffffffffffffffffffffff1673ffffffffffffffffffffffffffffffffffffffff16815260200190815260200160002060009054906101000a900460ff16905092915050565b611bf08585858585612dde565b611bfa858461231a565b611c0484846124c3565b5050505050565b3373ffffffffffffffffffffffffffffffffffffffff16600560009054906101000a900473ffffffffffffffffffffffffffffffffffffffff1673ffffffffffffffffffffffffffffffffffffffff1614611cce576040517f08c379a00000000000000000000000000000000000000000000000000000000081526004018080602001828103825260098152602001807f4e6f74206f776e6572000000000000000000000000000000000000000000000081525060200191505060405180910390fd5b6001600d60008373ffffffffffffffffffffffffffffffffffffffff1673ffffffffffffffffffffffffffffffffffffffff16815260200190815260200160002060006101000a81548160ff02191690831515021790555050565b60606000821415611d71576040518060400160405280600181526020017f30000000000000000000000000000000000000000000000000000000000000008152509050611e51565b600082905060005b60008214611d9b578080600101915050600a8281611d9357fe5b049150611d79565b6060816040519080825280601f01601f191660200182016040528015611dd05781602001600182028038833980820191505090505b50905060006001830390505b60008614611e4957600a8681611dee57fe5b0660300160f81b82828060019003935081518110611e0857fe5b60200101907effffffffffffffffffffffffffffffffffffffffffffffffffffffffffffff1916908160001a905350600a8681611e4157fe5b049550611ddc565b819450505050505b919050565b6060611e838484846040518060200160405280600081525060405180602001604052806000815250613153565b90509392505050565b8151835114611ee6576040517f08c379a000000000000000000000000000000000000000000000000000000000815260040180806020018281038252602881526020018061412e6028913960400191505060405180910390fd5b600073ffffffffffffffffffffffffffffffffffffffff168473ffffffffffffffffffffffffffffffffffffffff161415611f6c576040517f08c379a00000000000000000000000000000000000000000000000000000000081526004018080602001828103825260258152602001806140386025913960400191505060405180910390fd5b611f74612dd6565b73ffffffffffffffffffffffffffffffffffffffff168573ffffffffffffffffffffffffffffffffffffffff161480611fba5750611fb985611fb4612dd6565b611b4f565b5b61200f576040517f08c379a000000000000000000000000000000000000000000000000000000000815260040180806020018281038252603281526020018061405d6032913960400191505060405180910390fd5b6000612019612dd6565b9050612029818787878787613419565b60008090505b84518110156121fd57600085828151811061204657fe5b60200260200101519050600085838151811061205e57fe5b602002602001015190506120e5816040518060600160405280602a81526020016140b2602a91396001600086815260200190815260200160002060008d73ffffffffffffffffffffffffffffffffffffffff1673ffffffffffffffffffffffffffffffffffffffff168152602001908152602001600020546134219092919063ffffffff16565b6001600084815260200190815260200160002060008b73ffffffffffffffffffffffffffffffffffffffff1673ffffffffffffffffffffffffffffffffffffffff1681526020019081526020016000208190555061219c816001600085815260200190815260200160002060008b73ffffffffffffffffffffffffffffffffffffffff1673ffffffffffffffffffffffffffffffffffffffff168152602001908152602001600020546134e190919063ffffffff16565b6001600084815260200190815260200160002060008a73ffffffffffffffffffffffffffffffffffffffff1673ffffffffffffffffffffffffffffffffffffffff16815260200190815260200160002081905550505080600101905061202f565b508473ffffffffffffffffffffffffffffffffffffffff168673ffffffffffffffffffffffffffffffffffffffff168273ffffffffffffffffffffffffffffffffffffffff167f4a39dc06d4c0dbc64b70af90fd698a233a518aa5d07e595d983b8c0526c8f7fb8787604051808060200180602001838103835285818151815260200191508051906020019060200280838360005b838110156122ad578082015181840152602081019050612292565b50505050905001838103825284818151815260200191508051906020019060200280838360005b838110156122ef5780820151818401526020810190506122d4565b5050505090500194505050505060405180910390a4612312818787878787613569565b505050505050565b60006123726001600860008673ffffffffffffffffffffffffffffffffffffffff1673ffffffffffffffffffffffffffffffffffffffff168152602001908152602001600020805490506139e190919063ffffffff16565b905060006009600084815260200190815260200160002054905081811461245f576000600860008673ffffffffffffffffffffffffffffffffffffffff1673ffffffffffffffffffffffffffffffffffffffff16815260200190815260200160002083815481106123df57fe5b9060005260206000200154905080600860008773ffffffffffffffffffffffffffffffffffffffff1673ffffffffffffffffffffffffffffffffffffffff168152602001908152602001600020838154811061243757fe5b9060005260206000200181905550816009600083815260200190815260200160002081905550505b600860008573ffffffffffffffffffffffffffffffffffffffff1673ffffffffffffffffffffffffffffffffffffffff1681526020019081526020016000208054806124a757fe5b6001900381819060005260206000200160009055905550505050565b600860008373ffffffffffffffffffffffffffffffffffffffff1673ffffffffffffffffffffffffffffffffffffffff168152602001908152602001600020805490506009600083815260200190815260200160002081905550600860008373ffffffffffffffffffffffffffffffffffffffff1673ffffffffffffffffffffffffffffffffffffffff1681526020019081526020016000208190806001815401808255809150506001900390600052602060002001600090919091909150556000600e600083815260200190815260200160002090506000818054905011156125e757808054806125b157fe5b6001900381819060005260206000200160006101000a81549073ffffffffffffffffffffffffffffffffffffffff021916905590555b80839080600181540180825580915050600190039060005260206000200160009091909190916101000a81548173ffffffffffffffffffffffffffffffffffffffff021916908373ffffffffffffffffffffffffffffffffffffffff160217905550505050565b606060008260601b905060007f303132333435363738396162636465660000000000000000000000000000000090506060602a6040519080825280601f01601f1916602001820160405280156126b35781602001600182028038833980820191505090505b5090507f3000000000000000000000000000000000000000000000000000000000000000816000815181106126e457fe5b60200101907effffffffffffffffffffffffffffffffffffffffffffffffffffffffffffff1916908160001a9053507f78000000000000000000000000000000000000000000000000000000000000008160018151811061274157fe5b60200101907effffffffffffffffffffffffffffffffffffffffffffffffffffffffffffff1916908160001a90535060008090505b60148110156128835782600485836014811061278e57fe5b1a60f81b7effffffffffffffffffffffffffffffffffffffffffffffffffffffffffffff1916901c60f81c60ff16601081106127c657fe5b1a60f81b82600280840201815181106127db57fe5b60200101907effffffffffffffffffffffffffffffffffffffffffffffffffffffffffffff1916908160001a90535082600f60f81b85836014811061281c57fe5b1a60f81b1660f81c60ff166010811061283157fe5b1a60f81b82600360028402018151811061284757fe5b60200101907effffffffffffffffffffffffffffffffffffffffffffffffffffffffffffff1916908160001a9053508080600101915050612776565b50809350505050919050565b600073ffffffffffffffffffffffffffffffffffffffff168473ffffffffffffffffffffffffffffffffffffffff161415612915576040517f08c379a00000000000000000000000000000000000000000000000000000000081526004018080602001828103825260218152602001806141566021913960400191505060405180910390fd5b600061291f612dd6565b90506129408160008761293188613a2b565b61293a88613a2b565b87613419565b6129a3836001600087815260200190815260200160002060008873ffffffffffffffffffffffffffffffffffffffff1673ffffffffffffffffffffffffffffffffffffffff168152602001908152602001600020546134e190919063ffffffff16565b6001600086815260200190815260200160002060008773ffffffffffffffffffffffffffffffffffffffff1673ffffffffffffffffffffffffffffffffffffffff168152602001908152602001600020819055508473ffffffffffffffffffffffffffffffffffffffff16600073ffffffffffffffffffffffffffffffffffffffff168273ffffffffffffffffffffffffffffffffffffffff167fc3d58168c5ae7397731d063d5bbf3d657854427343f4c083240f7aacaa2d0f628787604051808381526020018281526020019250505060405180910390a4612a8b81600087878787613a84565b5050505050565b600a80549050600b600083815260200190815260200160002081905550600a81908060018154018082558091505060019003906000526020600020016000909190919091505550565b600073ffffffffffffffffffffffffffffffffffffffff168373ffffffffffffffffffffffffffffffffffffffff161415612b61576040517f08c379a000000000000000000000000000000000000000000000000000000000815260040180806020018281038252602381526020018061408f6023913960400191505060405180910390fd5b6000612b6b612dd6565b9050612b9b81856000612b7d87613a2b565b612b8687613a2b565b60405180602001604052806000815250613419565b612c1882604051806060016040528060248152602001613feb602491396001600087815260200190815260200160002060008873ffffffffffffffffffffffffffffffffffffffff1673ffffffffffffffffffffffffffffffffffffffff168152602001908152602001600020546134219092919063ffffffff16565b6001600085815260200190815260200160002060008673ffffffffffffffffffffffffffffffffffffffff1673ffffffffffffffffffffffffffffffffffffffff16815260200190815260200160002081905550600073ffffffffffffffffffffffffffffffffffffffff168473ffffffffffffffffffffffffffffffffffffffff168273ffffffffffffffffffffffffffffffffffffffff167fc3d58168c5ae7397731d063d5bbf3d657854427343f4c083240f7aacaa2d0f628686604051808381526020018281526020019250505060405180910390a450505050565b6000612d126001600a805490506139e190919063ffffffff16565b90506000600b60008481526020019081526020016000205490506000600a8381548110612d3b57fe5b9060005260206000200154905080600a8381548110612d5657fe5b906000526020600020018190555081600b600083815260200190815260200160002081905550600a805480612d8757fe5b600190038181906000526020600020016000905590556000600b60008681526020019081526020016000208190555050505050565b8060039080519060200190612dd2929190613e8d565b5050565b600033905090565b600073ffffffffffffffffffffffffffffffffffffffff168473ffffffffffffffffffffffffffffffffffffffff161415612e64576040517f08c379a00000000000000000000000000000000000000000000000000000000081526004018080602001828103825260258152602001806140386025913960400191505060405180910390fd5b612e6c612dd6565b73ffffffffffffffffffffffffffffffffffffffff168573ffffffffffffffffffffffffffffffffffffffff161480612eb25750612eb185612eac612dd6565b611b4f565b5b612f07576040517f08c379a000000000000000000000000000000000000000000000000000000000815260040180806020018281038252602981526020018061400f6029913960400191505060405180910390fd5b6000612f11612dd6565b9050612f31818787612f2288613a2b565b612f2b88613a2b565b87613419565b612fae836040518060600160405280602a81526020016140b2602a91396001600088815260200190815260200160002060008a73ffffffffffffffffffffffffffffffffffffffff1673ffffffffffffffffffffffffffffffffffffffff168152602001908152602001600020546134219092919063ffffffff16565b6001600086815260200190815260200160002060008873ffffffffffffffffffffffffffffffffffffffff1673ffffffffffffffffffffffffffffffffffffffff16815260200190815260200160002081905550613065836001600087815260200190815260200160002060008873ffffffffffffffffffffffffffffffffffffffff1673ffffffffffffffffffffffffffffffffffffffff168152602001908152602001600020546134e190919063ffffffff16565b6001600086815260200190815260200160002060008773ffffffffffffffffffffffffffffffffffffffff1673ffffffffffffffffffffffffffffffffffffffff168152602001908152602001600020819055508473ffffffffffffffffffffffffffffffffffffffff168673ffffffffffffffffffffffffffffffffffffffff168273ffffffffffffffffffffffffffffffffffffffff167fc3d58168c5ae7397731d063d5bbf3d657854427343f4c083240f7aacaa2d0f628787604051808381526020018281526020019250505060405180910390a461314b818787878787613a84565b505050505050565b6060808690506060869050606086905060608690506060869050606081518351855187518951010101016040519080825280601f01601f1916602001820160405280156131af5781602001600182028038833980820191505090505b5090506060819050600080905060008090505b8851811015613230578881815181106131d757fe5b602001015160f81c60f81b8383806001019450815181106131f457fe5b60200101907effffffffffffffffffffffffffffffffffffffffffffffffffffffffffffff1916908160001a90535080806001019150506131c2565b5060008090505b87518110156132a55787818151811061324c57fe5b602001015160f81c60f81b83838060010194508151811061326957fe5b60200101907effffffffffffffffffffffffffffffffffffffffffffffffffffffffffffff1916908160001a9053508080600101915050613237565b5060008090505b865181101561331a578681815181106132c157fe5b602001015160f81c60f81b8383806001019450815181106132de57fe5b60200101907effffffffffffffffffffffffffffffffffffffffffffffffffffffffffffff1916908160001a90535080806001019150506132ac565b5060008090505b855181101561338f5785818151811061333657fe5b602001015160f81c60f81b83838060010194508151811061335357fe5b60200101907effffffffffffffffffffffffffffffffffffffffffffffffffffffffffffff1916908160001a9053508080600101915050613321565b5060008090505b8451811015613404578481815181106133ab57fe5b602001015160f81c60f81b8383806001019450815181106133c857fe5b60200101907effffffffffffffffffffffffffffffffffffffffffffffffffffffffffffff1916908160001a9053508080600101915050613396565b50819850505050505050505095945050505050565b505050505050565b60008383111582906134ce576040517f08c379a00000000000000000000000000000000000000000000000000000000081526004018080602001828103825283818151815260200191508051906020019080838360005b83811015613493578082015181840152602081019050613478565b50505050905090810190601f1680156134c05780820380516001836020036101000a031916815260200191505b509250505060405180910390fd5b5060008385039050809150509392505050565b60008082840190508381101561355f576040517f08c379a000000000000000000000000000000000000000000000000000000000815260040180806020018281038252601b8152602001807f536166654d6174683a206164646974696f6e206f766572666c6f77000000000081525060200191505060405180910390fd5b8091505092915050565b6135888473ffffffffffffffffffffffffffffffffffffffff16613e7a565b156139d9578373ffffffffffffffffffffffffffffffffffffffff1663bc197c8187878686866040518663ffffffff1660e01b8152600401808673ffffffffffffffffffffffffffffffffffffffff1673ffffffffffffffffffffffffffffffffffffffff1681526020018573ffffffffffffffffffffffffffffffffffffffff1673ffffffffffffffffffffffffffffffffffffffff168152602001806020018060200180602001848103845287818151815260200191508051906020019060200280838360005b8381101561366c578082015181840152602081019050613651565b50505050905001848103835286818151815260200191508051906020019060200280838360005b838110156136ae578082015181840152602081019050613693565b50505050905001848103825285818151815260200191508051906020019080838360005b838110156136ed5780820151818401526020810190506136d2565b50505050905090810190601f16801561371a5780820380516001836020036101000a031916815260200191505b5098505050505050505050602060405180830381600087803b15801561373f57600080fd5b505af192505050801561377357506040513d602081101561375f57600080fd5b810190808051906020019092919050505060015b61393a57600060405190506000815260011561383c5760443d101561379b576000905061383c565b60046000803e60005160e01c6308c379a081146137bc57600091505061383c565b60043d036004833e81513d602482011167ffffffffffffffff821117156137e85760009250505061383c565b808301805167ffffffffffffffff81111561380a57600094505050505061383c565b8060208301013d86018111156138285760009550505050505061383c565b601f19601f82011660405282955050505050505b8061384757506138e9565b806040517f08c379a00000000000000000000000000000000000000000000000000000000081526004018080602001828103825283818151815260200191508051906020019080838360005b838110156138ae578082015181840152602081019050613893565b50505050905090810190601f1680156138db5780820380516001836020036101000a031916815260200191505b509250505060405180910390fd5b6040517f08c379a0000000000000000000000000000000000000000000000000000000008152600401808060200182810382526034815260200180613f336034913960400191505060405180910390fd5b63bc197c8160e01b7bffffffffffffffffffffffffffffffffffffffffffffffffffffffff1916817bffffffffffffffffffffffffffffffffffffffffffffffffffffffff1916146139d7576040517f08c379a0000000000000000000000000000000000000000000000000000000008152600401808060200182810382526028815260200180613f676028913960400191505060405180910390fd5b505b505050505050565b6000613a2383836040518060400160405280601e81526020017f536166654d6174683a207375627472616374696f6e206f766572666c6f770000815250613421565b905092915050565b6060806001604051908082528060200260200182016040528015613a5e5781602001602082028038833980820191505090505b5090508281600081518110613a6f57fe5b60200260200101818152505080915050919050565b613aa38473ffffffffffffffffffffffffffffffffffffffff16613e7a565b15613e72578373ffffffffffffffffffffffffffffffffffffffff1663f23a6e6187878686866040518663ffffffff1660e01b8152600401808673ffffffffffffffffffffffffffffffffffffffff1673ffffffffffffffffffffffffffffffffffffffff1681526020018573ffffffffffffffffffffffffffffffffffffffff1673ffffffffffffffffffffffffffffffffffffffff16815260200184815260200183815260200180602001828103825283818151815260200191508051906020019080838360005b83811015613b88578082015181840152602081019050613b6d565b50505050905090810190601f168015613bb55780820380516001836020036101000a031916815260200191505b509650505050505050602060405180830381600087803b158015613bd857600080fd5b505af1925050508015613c0c57506040513d6020811015613bf857600080fd5b810190808051906020019092919050505060015b613dd3576000604051905060008152600115613cd55760443d1015613c345760009050613cd5565b60046000803e60005160e01c6308c379a08114613c55576000915050613cd5565b60043d036004833e81513d602482011167ffffffffffffffff82111715613c8157600092505050613cd5565b808301805167ffffffffffffffff811115613ca3576000945050505050613cd5565b8060208301013d8601811115613cc157600095505050505050613cd5565b601f19601f82011660405282955050505050505b80613ce05750613d82565b806040517f08c379a00000000000000000000000000000000000000000000000000000000081526004018080602001828103825283818151815260200191508051906020019080838360005b83811015613d47578082015181840152602081019050613d2c565b50505050905090810190601f168015613d745780820380516001836020036101000a031916815260200191505b509250505060405180910390fd5b6040517f08c379a0000000000000000000000000000000000000000000000000000000008152600401808060200182810382526034815260200180613f336034913960400191505060405180910390fd5b63f23a6e6160e01b7bffffffffffffffffffffffffffffffffffffffffffffffffffffffff1916817bffffffffffffffffffffffffffffffffffffffffffffffffffffffff191614613e70576040517f08c379a0000000000000000000000000000000000000000000000000000000008152600401808060200182810382526028815260200180613f676028913960400191505060405180910390fd5b505b505050505050565b600080823b905060008111915050919050565b828054600181600116156101000203166002900490600052602060002090601f016020900481019282601f10613ece57805160ff1916838001178555613efc565b82800160010185558215613efc579182015b82811115613efb578251825591602001919060010190613ee0565b5b509050613f099190613f0d565b5090565b613f2f91905b80821115613f2b576000816000905550600101613f13565b5090565b9056fe455243313135353a207472616e7366657220746f206e6f6e2045524331313535526563656976657220696d706c656d656e746572455243313135353a204552433131353552656365697665722072656a656374656420746f6b656e73455243313135353a2062616c616e636520717565727920666f7220746865207a65726f2061646472657373455243313135353a2062617463682062616c616e636520717565727920666f7220746865207a65726f2061646472657373455243313135353a206275726e20616d6f756e7420657863656564732062616c616e6365455243313135353a2063616c6c6572206973206e6f74206f776e6572206e6f7220617070726f766564455243313135353a207472616e7366657220746f20746865207a65726f2061646472657373455243313135353a207472616e736665722063616c6c6572206973206e6f74206f776e6572206e6f7220617070726f766564455243313135353a206275726e2066726f6d20746865207a65726f2061646472657373455243313135353a20696e73756666696369656e742062616c616e636520666f72207472616e73666572455243313135353a2073657474696e6720617070726f76616c2073746174757320666f722073656c66455243313135353a206163636f756e747320616e6420696473206c656e677468206d69736d61746368455243313135353a2069647320616e6420616d6f756e7473206c656e677468206d69736d61746368455243313135353a206d696e7420746f20746865207a65726f2061646472657373a26469706673582212203d7798dbee1e092740d4b359bce790e54cfeadb20ee87e075623742734f6f30364736f6c63430006020033687474703a2f2f6e66742e797a6262616e62616e2e636f6d3a31383735362f76312f6e66742f636f6e666c75782f",
  "source": "\npragma solidity ^0.6.2;\n\nimport \"@openzeppelin/contracts/token/ERC1155/ERC1155.sol\";\nimport \"@openzeppelin/contracts/utils/Counters.sol\";\nimport \"./SponsorWhitelistControl.sol\";\n\nlibrary Strings {\n  // via https://github.com/oraclize/ethereum-api/blob/master/oraclizeAPI_0.5.sol\n  function strConcat(string memory _a, string memory _b, string memory _c, string memory _d, string memory _e) internal pure returns (string memory) {\n    bytes memory _ba = bytes(_a);\n    bytes memory _bb = bytes(_b);\n    bytes memory _bc = bytes(_c);\n    bytes memory _bd = bytes(_d);\n    bytes memory _be = bytes(_e);\n    string memory abcde = new string(_ba.length + _bb.length + _bc.length + _bd.length + _be.length);\n    bytes memory babcde = bytes(abcde);\n    uint k = 0;\n    for (uint i = 0; i < _ba.length; i++) babcde[k++] = _ba[i];\n    for (uint i = 0; i < _bb.length; i++) babcde[k++] = _bb[i];\n    for (uint i = 0; i < _bc.length; i++) babcde[k++] = _bc[i];\n    for (uint i = 0; i < _bd.length; i++) babcde[k++] = _bd[i];\n    for (uint i = 0; i < _be.length; i++) babcde[k++] = _be[i];\n    return string(babcde);\n  }\n\n//   function strConcat(string memory _a, string memory _b, string memory _c, string memory _d) internal pure returns (string memory) {\n//     return strConcat(_a, _b, _c, _d, \"\");\n//   }\n\n  function strConcat(string memory _a, string memory _b, string memory _c) internal pure returns (string memory) {\n    return strConcat(_a, _b, _c, \"\", \"\");\n  }\n\n  function strConcat(string memory _a, string memory _b) internal pure returns (string memory) {\n    return strConcat(_a, _b, \"\", \"\", \"\");\n  }\n\n  function uint2str(uint _i) internal pure returns (string memory _uintAsString) {\n    if (_i == 0) {\n      return \"0\";\n    }\n    uint j = _i;\n    uint len;\n    while (j != 0) {\n      len++;\n      j /= 10;\n    }\n    bytes memory bstr = new bytes(len);\n    uint k = len - 1;\n    while (_i != 0) {\n      bstr[k--] = byte(uint8(48 + _i % 10));\n      _i /= 10;\n    }\n    return string(bstr);\n  }\n\n  function fromAddress(address addr) internal pure returns(string memory) {\n    bytes20 addrBytes = bytes20(addr);\n    bytes16 hexAlphabet = \"0123456789abcdef\";\n    bytes memory result = new bytes(42);\n    result[0] = '0';\n    result[1] = 'x';\n    for (uint i = 0; i < 20; i++) {\n      result[i * 2 + 2] = hexAlphabet[uint8(addrBytes[i] >> 4)];\n      result[i * 2 + 3] = hexAlphabet[uint8(addrBytes[i] & 0x0f)];\n    }\n    return string(result);\n  }\n}\n\ncontract ConfluxCard is ERC1155 {\n\n    using Counters for Counters.Counter;\n    Counters.Counter private _tokenIds;\n\n    address owner;\n    // Contract name\n    string public name=\"Conflux Card\";\n    // Contract symbol\n    string public symbol=\"CFX CARD\";\n\n    // Mapping from owner to list of owned token IDs\n    mapping(address => uint256[]) private _ownedTokens;\n\n    // Mapping from token ID to index of the owner tokens list\n    mapping(uint256 => uint256) private _ownedTokensIndex;\n\n    // Array with all token ids, used for enumeration\n    uint256[] private _allTokens;\n\n    // Mapping from token id to position in the allTokens array\n    mapping(uint256 => uint256) private _allTokensIndex;\n\n    string baseUri;\n\n    mapping(address => bool) public miners;\n\n    mapping(uint256 => address[]) public ownerOfAddress;\n\n    modifier onlyOwner(){\n        require(owner==msg.sender,\"Not owner\");\n        _;\n    }\n\n    modifier onlyMiner(){\n        require(miners[msg.sender],\"Not miner\");\n        _;\n    }\n\n    SponsorWhitelistControl public constant SPONSOR = SponsorWhitelistControl(\n        address(0x0888000000000000000000000000000000000001)\n    );\n\n    constructor() public ERC1155(\"http://nft.yzbbanban.com:18756/v1/nft/conflux/\") {\n        owner=msg.sender;\n        baseUri = \"http://nft.yzbbanban.com:18756/v1/nft/conflux/\";\n\n        // register all users as sponsees\n        address[] memory users = new address[](1);\n        users[0] = address(0);\n        SPONSOR.addPrivilege(users);\n    }\n\n    function addMiner(address _miner) public onlyOwner(){\n        miners[_miner] = true;\n    }\n\n    function removeMiner(address _miner) public onlyOwner(){\n        miners[_miner] = false;\n    }\n\n    function setBaseUri(string memory _baseUri) public onlyOwner(){\n        super._setURI(_baseUri);\n        baseUri = _baseUri;\n    }\n\n    function isTokenOwner(address _owner,uint256 _id) view public returns(bool){\n        return balanceOf(_owner,_id)>0;\n    }\n\n    function ownerOf(uint256 _id) view public returns(address[] memory){\n        return ownerOfAddress[_id];\n    }\n\n    function tokensOf(address _owner) view public returns(uint256[] memory _tokens){\n        return _ownedTokens[_owner];\n    }\n\n    function uri(uint256 _id) external view override returns (string memory) {\n        return Strings.strConcat(baseUri, Strings.uint2str(_id), \".json\");\n    }\n\n    /**\n     * @dev Gets the total amount of tokens stored by the contract.\n     * @return uint256 representing the total amount of tokens\n     */\n    function totalSupply() public view returns (uint256) {\n        return _allTokens.length;\n    }\n\n    function safeTransferFrom(\n        address from,\n        address to,\n        uint256 tokenId,\n        uint256 amount,\n        bytes memory data\n    ) public override{\n        super.safeTransferFrom(from,to,tokenId,amount,data);\n         _removeTokenFromOwnerEnumeration(from, tokenId);\n        _addTokenToOwnerEnumeration(to, tokenId);\n    }\n\n    function safeBatchTransferFrom(\n        address from,\n        address to,\n        uint256[] memory ids,\n        uint256[] memory amounts,\n        bytes memory data\n    )\n        public\n        virtual\n        override\n    {\n        super.safeBatchTransferFrom(from,to,ids,amounts,data);\n        for (uint256 i = 0; i < ids.length; ++i) {\n            uint256 tokenId = ids[i];\n            uint256 amount = amounts[i];\n\n            _removeTokenFromOwnerEnumeration(from, tokenId);\n            _addTokenToOwnerEnumeration(to, tokenId);\n        }\n        \n    }\n\n    /**\n     * @dev Private function to add a token to this extension's ownership-tracking data structures.\n     * @param to address representing the new owner of the given token ID\n     * @param tokenId uint256 ID of the token to be added to the tokens list of the given address\n     */\n    function _addTokenToOwnerEnumeration(address to, uint256 tokenId) private {\n        _ownedTokensIndex[tokenId] = _ownedTokens[to].length;\n        _ownedTokens[to].push(tokenId);\n        address[] storage addr = ownerOfAddress[tokenId];\n        if(addr.length>0){\n            addr.pop();\n        }\n        addr.push(to);\n    }\n\n    /**\n     * @dev Private function to add a token to this extension's token tracking data structures.\n     * @param tokenId uint256 ID of the token to be added to the tokens list\n     */\n    function _addTokenToAllTokensEnumeration(uint256 tokenId) private {\n        _allTokensIndex[tokenId] = _allTokens.length;\n        _allTokens.push(tokenId);\n    }\n\n    function mint(address _to,uint256 tokenId) public onlyMiner() returns(uint256){\n        // _tokenIds.increment();\n        // uint256 newItemId = _tokenIds.current();\n        _mint(_to, tokenId, 1, bytes(Strings.strConcat(baseUri, Strings.fromAddress(address(this)), \"/\"))); \n        _addTokenToAllTokensEnumeration(tokenId);\n        _addTokenToOwnerEnumeration(_to, tokenId);\n        return tokenId;\n    }\n\n     /**\n     * @dev Internal function to burn a specific token.\n     * Reverts if the token does not exist.\n     * Deprecated, use {ERC721-_burn} instead.\n     * @param owner owner of the token to burn\n     * @param tokenId uint256 ID of the token being burned\n     */\n    function burn(address owner, uint256 tokenId) public {\n        super._burn(owner, tokenId,1);\n\n        _removeTokenFromOwnerEnumeration(owner, tokenId);\n        // Since tokenId will be deleted, we can clear its slot in _ownedTokensIndex to trigger a gas refund\n        _ownedTokensIndex[tokenId] = 0;\n\n        _removeTokenFromAllTokensEnumeration(tokenId);\n    }\n\n    /**\n     * @dev Private function to remove a token from this extension's ownership-tracking data structures. Note that\n     * while the token is not assigned a new owner, the `_ownedTokensIndex` mapping is _not_ updated: this allows for\n     * gas optimizations e.g. when performing a transfer operation (avoiding double writes).\n     * This has O(1) time complexity, but alters the order of the _ownedTokens array.\n     * @param from address representing the previous owner of the given token ID\n     * @param tokenId uint256 ID of the token to be removed from the tokens list of the given address\n     */\n    function _removeTokenFromOwnerEnumeration(address from, uint256 tokenId) private {\n        // To prevent a gap in from's tokens array, we store the last token in the index of the token to delete, and\n        // then delete the last slot (swap and pop).\n\n        uint256 lastTokenIndex = _ownedTokens[from].length.sub(1);\n        uint256 tokenIndex = _ownedTokensIndex[tokenId];\n\n        // When the token to delete is the last token, the swap operation is unnecessary\n        if (tokenIndex != lastTokenIndex) {\n            uint256 lastTokenId = _ownedTokens[from][lastTokenIndex];\n\n            _ownedTokens[from][tokenIndex] = lastTokenId; // Move the last token to the slot of the to-delete token\n            _ownedTokensIndex[lastTokenId] = tokenIndex; // Update the moved token's index\n        }\n\n        // This also deletes the contents at the last position of the array\n        _ownedTokens[from].pop();\n\n        // Note that _ownedTokensIndex[tokenId] hasn't been cleared: it still points to the old slot (now occupied by\n        // lastTokenId, or just over the end of the array if the token was the last one).\n    }\n\n     /**\n     * @dev Private function to remove a token from this extension's token tracking data structures.\n     * This has O(1) time complexity, but alters the order of the _allTokens array.\n     * @param tokenId uint256 ID of the token to be removed from the tokens list\n     */\n    function _removeTokenFromAllTokensEnumeration(uint256 tokenId) private {\n        // To prevent a gap in the tokens array, we store the last token in the index of the token to delete, and\n        // then delete the last slot (swap and pop).\n\n        uint256 lastTokenIndex = _allTokens.length.sub(1);\n        uint256 tokenIndex = _allTokensIndex[tokenId];\n\n        // When the token to delete is the last token, the swap operation is unnecessary. However, since this occurs so\n        // rarely (when the last minted token is burnt) that we still do the swap here to avoid the gas cost of adding\n        // an 'if' statement (like in _removeTokenFromOwnerEnumeration)\n        uint256 lastTokenId = _allTokens[lastTokenIndex];\n\n        _allTokens[tokenIndex] = lastTokenId; // Move the last token to the slot of the to-delete token\n        _allTokensIndex[lastTokenId] = tokenIndex; // Update the moved token's index\n\n        // This also deletes the contents at the last position of the array\n        _allTokens.pop();\n        _allTokensIndex[tokenId] = 0;\n    }\n}",
  "sourcePath": "/Users/wangban/Downloads/money/coin/chk/chksol/contracts/ConfluxCard.sol",
  "compiler": {
    "name": "solc",
    "version": "0.6.2+commit.bacdbe57.Emscripten.clang"
  },
  "schemaVersion": "3.2.0",
  "updatedAt": "2021-02-03T14:33:00.873Z",
  "devdoc": {
    "methods": {
      "balanceOf(address,uint256)": {
        "details": "See {IERC1155-balanceOf}.     * Requirements:     * - `account` cannot be the zero address."
      },
      "balanceOfBatch(address[],uint256[])": {
        "details": "See {IERC1155-balanceOfBatch}.     * Requirements:     * - `accounts` and `ids` must have the same length."
      },
      "burn(address,uint256)": {
        "details": "Internal function to burn a specific token. Reverts if the token does not exist. Deprecated, use {ERC721-_burn} instead.",
        "params": {
          "owner": "owner of the token to burn",
          "tokenId": "uint256 ID of the token being burned"
        }
      },
      "isApprovedForAll(address,address)": {
        "details": "See {IERC1155-isApprovedForAll}."
      },
      "setApprovalForAll(address,bool)": {
        "details": "See {IERC1155-setApprovalForAll}."
      },
      "supportsInterface(bytes4)": {
        "details": "See {IERC165-supportsInterface}.     * Time complexity O(1), guaranteed to always use less than 30 000 gas."
      },
      "totalSupply()": {
        "details": "Gets the total amount of tokens stored by the contract.",
        "returns": {
          "_0": "uint256 representing the total amount of tokens"
        }
      }
    }
  },
  "userdoc": {
    "methods": {}
  }
}