{
  "contractName": "ConfluxShop",
  "abi": [
    {
      "inputs": [
        {
          "internalType": "address",
          "name": "_ticketNft",
          "type": "address"
        }
      ],
      "stateMutability": "nonpayable",
      "type": "constructor"
    },
    {
      "anonymous": false,
      "inputs": [
        {
          "indexed": false,
          "internalType": "uint256",
          "name": "count",
          "type": "uint256"
        }
      ],
      "name": "AddTicketCount",
      "type": "event"
    },
    {
      "anonymous": false,
      "inputs": [
        {
          "indexed": false,
          "internalType": "address",
          "name": "seller",
          "type": "address"
        },
        {
          "indexed": false,
          "internalType": "address",
          "name": "buyer",
          "type": "address"
        },
        {
          "indexed": false,
          "internalType": "uint256",
          "name": "tokenId",
          "type": "uint256"
        },
        {
          "indexed": false,
          "internalType": "uint256",
          "name": "price",
          "type": "uint256"
        }
      ],
      "name": "BuySellerTicket",
      "type": "event"
    },
    {
      "anonymous": false,
      "inputs": [
        {
          "indexed": false,
          "internalType": "address",
          "name": "buyer",
          "type": "address"
        },
        {
          "indexed": false,
          "internalType": "uint256",
          "name": "tokenId",
          "type": "uint256"
        }
      ],
      "name": "BuyTicket",
      "type": "event"
    },
    {
      "anonymous": false,
      "inputs": [
        {
          "indexed": false,
          "internalType": "address",
          "name": "seller",
          "type": "address"
        },
        {
          "indexed": false,
          "internalType": "uint256",
          "name": "tokenId",
          "type": "uint256"
        },
        {
          "indexed": false,
          "internalType": "uint256",
          "name": "price",
          "type": "uint256"
        }
      ],
      "name": "CancelShell",
      "type": "event"
    },
    {
      "anonymous": false,
      "inputs": [
        {
          "indexed": false,
          "internalType": "address",
          "name": "seller",
          "type": "address"
        },
        {
          "indexed": false,
          "internalType": "uint256",
          "name": "tokenId",
          "type": "uint256"
        },
        {
          "indexed": false,
          "internalType": "uint256",
          "name": "price",
          "type": "uint256"
        }
      ],
      "name": "SellTicker",
      "type": "event"
    },
    {
      "inputs": [],
      "name": "SPONSOR",
      "outputs": [
        {
          "internalType": "contract SponsorWhitelistControl",
          "name": "",
          "type": "address"
        }
      ],
      "stateMutability": "view",
      "type": "function"
    },
    {
      "inputs": [
        {
          "internalType": "uint256",
          "name": "",
          "type": "uint256"
        }
      ],
      "name": "_allTokensIndex",
      "outputs": [
        {
          "internalType": "uint256",
          "name": "",
          "type": "uint256"
        }
      ],
      "stateMutability": "view",
      "type": "function"
    },
    {
      "inputs": [],
      "name": "platform",
      "outputs": [
        {
          "internalType": "address",
          "name": "",
          "type": "address"
        }
      ],
      "stateMutability": "view",
      "type": "function"
    },
    {
      "inputs": [
        {
          "internalType": "address",
          "name": "",
          "type": "address"
        },
        {
          "internalType": "uint256",
          "name": "",
          "type": "uint256"
        }
      ],
      "name": "sellerIndex",
      "outputs": [
        {
          "internalType": "uint256",
          "name": "",
          "type": "uint256"
        }
      ],
      "stateMutability": "view",
      "type": "function"
    },
    {
      "inputs": [
        {
          "internalType": "address",
          "name": "",
          "type": "address"
        },
        {
          "internalType": "uint256",
          "name": "",
          "type": "uint256"
        }
      ],
      "name": "sellerShops",
      "outputs": [
        {
          "internalType": "uint256",
          "name": "",
          "type": "uint256"
        }
      ],
      "stateMutability": "view",
      "type": "function"
    },
    {
      "inputs": [
        {
          "internalType": "uint256",
          "name": "",
          "type": "uint256"
        }
      ],
      "name": "shopIds",
      "outputs": [
        {
          "internalType": "uint256",
          "name": "",
          "type": "uint256"
        }
      ],
      "stateMutability": "view",
      "type": "function"
    },
    {
      "inputs": [
        {
          "internalType": "uint256",
          "name": "",
          "type": "uint256"
        }
      ],
      "name": "shopMap",
      "outputs": [
        {
          "internalType": "address",
          "name": "seller",
          "type": "address"
        },
        {
          "internalType": "uint256",
          "name": "price",
          "type": "uint256"
        },
        {
          "internalType": "address",
          "name": "buyer",
          "type": "address"
        }
      ],
      "stateMutability": "view",
      "type": "function"
    },
    {
      "inputs": [],
      "name": "totalTicket",
      "outputs": [
        {
          "internalType": "uint256",
          "name": "",
          "type": "uint256"
        }
      ],
      "stateMutability": "view",
      "type": "function"
    },
    {
      "inputs": [
        {
          "internalType": "address",
          "name": "_seller",
          "type": "address"
        }
      ],
      "name": "getSellerShop",
      "outputs": [
        {
          "internalType": "uint256[]",
          "name": "_ids",
          "type": "uint256[]"
        }
      ],
      "stateMutability": "view",
      "type": "function"
    },
    {
      "inputs": [],
      "name": "getShopItems",
      "outputs": [
        {
          "internalType": "uint256[]",
          "name": "_shopIds",
          "type": "uint256[]"
        }
      ],
      "stateMutability": "view",
      "type": "function"
    },
    {
      "inputs": [
        {
          "internalType": "contract TicketNft",
          "name": "_ticketNft",
          "type": "address"
        }
      ],
      "name": "setTokenParam",
      "outputs": [],
      "stateMutability": "nonpayable",
      "type": "function"
    },
    {
      "inputs": [
        {
          "internalType": "address",
          "name": "_platform",
          "type": "address"
        }
      ],
      "name": "setPlatForm",
      "outputs": [],
      "stateMutability": "nonpayable",
      "type": "function"
    },
    {
      "inputs": [
        {
          "internalType": "uint256",
          "name": "_rate",
          "type": "uint256"
        }
      ],
      "name": "setPlatFormRate",
      "outputs": [],
      "stateMutability": "nonpayable",
      "type": "function"
    },
    {
      "inputs": [
        {
          "internalType": "uint256",
          "name": "_tokenId",
          "type": "uint256"
        },
        {
          "internalType": "uint256",
          "name": "_price",
          "type": "uint256"
        }
      ],
      "name": "sellTicker",
      "outputs": [],
      "stateMutability": "nonpayable",
      "type": "function"
    },
    {
      "inputs": [
        {
          "internalType": "uint256",
          "name": "_tokenId",
          "type": "uint256"
        }
      ],
      "name": "buySellerTicket",
      "outputs": [],
      "stateMutability": "payable",
      "type": "function"
    },
    {
      "inputs": [
        {
          "internalType": "uint256",
          "name": "_tokenId",
          "type": "uint256"
        }
      ],
      "name": "cancelShell",
      "outputs": [],
      "stateMutability": "nonpayable",
      "type": "function"
    },
    {
      "inputs": [
        {
          "internalType": "address",
          "name": "operator",
          "type": "address"
        },
        {
          "internalType": "address",
          "name": "from",
          "type": "address"
        },
        {
          "internalType": "uint256",
          "name": "id",
          "type": "uint256"
        },
        {
          "internalType": "uint256",
          "name": "value",
          "type": "uint256"
        },
        {
          "internalType": "bytes",
          "name": "data",
          "type": "bytes"
        }
      ],
      "name": "onERC1155Received",
      "outputs": [
        {
          "internalType": "bytes4",
          "name": "",
          "type": "bytes4"
        }
      ],
      "stateMutability": "nonpayable",
      "type": "function"
    },
    {
      "inputs": [
        {
          "internalType": "address",
          "name": "operator",
          "type": "address"
        },
        {
          "internalType": "address",
          "name": "from",
          "type": "address"
        },
        {
          "internalType": "uint256[]",
          "name": "ids",
          "type": "uint256[]"
        },
        {
          "internalType": "uint256[]",
          "name": "values",
          "type": "uint256[]"
        },
        {
          "internalType": "bytes",
          "name": "data",
          "type": "bytes"
        }
      ],
      "name": "onERC1155BatchReceived",
      "outputs": [
        {
          "internalType": "bytes4",
          "name": "",
          "type": "bytes4"
        }
      ],
      "stateMutability": "nonpayable",
      "type": "function"
    }
  ],
  "bytecode": "0x60806040526103e860025560196009553480156200001c57600080fd5b506040516200211e3803806200211e833981810160405260208110156200004257600080fd5b8101908080519060200190929190505050336000806101000a81548173ffffffffffffffffffffffffffffffffffffffff021916908373ffffffffffffffffffffffffffffffffffffffff16021790555080600160006101000a81548173ffffffffffffffffffffffffffffffffffffffff021916908373ffffffffffffffffffffffffffffffffffffffff16021790555033600860006101000a81548173ffffffffffffffffffffffffffffffffffffffff021916908373ffffffffffffffffffffffffffffffffffffffff16021790555060606001604051908082528060200260200182016040528015620001485781602001602082028038833980820191505090505b5090506000816000815181106200015b57fe5b602002602001019073ffffffffffffffffffffffffffffffffffffffff16908173ffffffffffffffffffffffffffffffffffffffff168152505073088800000000000000000000000000000000000173ffffffffffffffffffffffffffffffffffffffff166310128d3e826040518263ffffffff1660e01b81526004018080602001828103825283818151815260200191508051906020019060200280838360005b838110156200021a578082015181840152602081019050620001fd565b5050505090500192505050600060405180830381600087803b1580156200024057600080fd5b505af115801562000255573d6000803e3d6000fd5b505050505050611eb3806200026b6000396000f3fe6080604052600436106101095760003560e01c8063980a0f2a11610095578063b8a2833611610064578063b8a2833614610621578063bc197c811461064c578063e0ca908f1461080e578063e65387fc1461083c578063f23a6e611461087757610109565b8063980a0f2a146104c35780639a80ea3914610514578063a726366514610583578063ac5941d9146105d257610109565b806357f86e4b116100dc57806357f86e4b146102705780635adf51191461032557806365594e8e1461036057806365e17540146103b15780638862b0df1461041d57610109565b80631d073a7a1461010e5780632282f4da146101655780633ffbd917146101aa5780634bde38c814610219575b600080fd5b34801561011a57600080fd5b506101236109a3565b604051808273ffffffffffffffffffffffffffffffffffffffff1673ffffffffffffffffffffffffffffffffffffffff16815260200191505060405180910390f35b34801561017157600080fd5b506101a86004803603604081101561018857600080fd5b8101908080359060200190929190803590602001909291905050506109bb565b005b3480156101b657600080fd5b50610203600480360360408110156101cd57600080fd5b81019080803573ffffffffffffffffffffffffffffffffffffffff16906020019092919080359060200190929190505050610c28565b6040518082815260200191505060405180910390f35b34801561022557600080fd5b5061022e610c4d565b604051808273ffffffffffffffffffffffffffffffffffffffff1673ffffffffffffffffffffffffffffffffffffffff16815260200191505060405180910390f35b34801561027c57600080fd5b506102a96004803603602081101561029357600080fd5b8101908080359060200190929190505050610c73565b604051808473ffffffffffffffffffffffffffffffffffffffff1673ffffffffffffffffffffffffffffffffffffffff1681526020018381526020018273ffffffffffffffffffffffffffffffffffffffff1673ffffffffffffffffffffffffffffffffffffffff168152602001935050505060405180910390f35b34801561033157600080fd5b5061035e6004803603602081101561034857600080fd5b8101908080359060200190929190505050610cdd565b005b34801561036c57600080fd5b506103af6004803603602081101561038357600080fd5b81019080803573ffffffffffffffffffffffffffffffffffffffff169060200190929190505050610e9a565b005b3480156103bd57600080fd5b506103c6610fa0565b6040518080602001828103825283818151815260200191508051906020019060200280838360005b838110156104095780820151818401526020810190506103ee565b505050509050019250505060405180910390f35b34801561042957600080fd5b5061046c6004803603602081101561044057600080fd5b81019080803573ffffffffffffffffffffffffffffffffffffffff169060200190929190505050610ff8565b6040518080602001828103825283818151815260200191508051906020019060200280838360005b838110156104af578082015181840152602081019050610494565b505050509050019250505060405180910390f35b3480156104cf57600080fd5b50610512600480360360208110156104e657600080fd5b81019080803573ffffffffffffffffffffffffffffffffffffffff16906020019092919050505061108f565b005b34801561052057600080fd5b5061056d6004803603604081101561053757600080fd5b81019080803573ffffffffffffffffffffffffffffffffffffffff16906020019092919080359060200190929190505050611195565b6040518082815260200191505060405180910390f35b34801561058f57600080fd5b506105bc600480360360208110156105a657600080fd5b81019080803590602001909291905050506111c3565b6040518082815260200191505060405180910390f35b3480156105de57600080fd5b5061060b600480360360208110156105f557600080fd5b81019080803590602001909291905050506111db565b6040518082815260200191505060405180910390f35b34801561062d57600080fd5b506106366111fc565b6040518082815260200191505060405180910390f35b34801561065857600080fd5b506107ba600480360360a081101561066f57600080fd5b81019080803573ffffffffffffffffffffffffffffffffffffffff169060200190929190803573ffffffffffffffffffffffffffffffffffffffff169060200190929190803590602001906401000000008111156106cc57600080fd5b8201836020820111156106de57600080fd5b8035906020019184602083028401116401000000008311171561070057600080fd5b90919293919293908035906020019064010000000081111561072157600080fd5b82018360208201111561073357600080fd5b8035906020019184602083028401116401000000008311171561075557600080fd5b90919293919293908035906020019064010000000081111561077657600080fd5b82018360208201111561078857600080fd5b803590602001918460018302840111640100000000831117156107aa57600080fd5b9091929391929390505050611202565b60405180827bffffffffffffffffffffffffffffffffffffffffffffffffffffffff19167bffffffffffffffffffffffffffffffffffffffffffffffffffffffff1916815260200191505060405180910390f35b61083a6004803603602081101561082457600080fd5b810190808035906020019092919050505061122b565b005b34801561084857600080fd5b506108756004803603602081101561085f57600080fd5b8101908080359060200190929190505050611603565b005b34801561088357600080fd5b5061094f600480360360a081101561089a57600080fd5b81019080803573ffffffffffffffffffffffffffffffffffffffff169060200190929190803573ffffffffffffffffffffffffffffffffffffffff16906020019092919080359060200190929190803590602001909291908035906020019064010000000081111561090b57600080fd5b82018360208201111561091d57600080fd5b8035906020019184600183028401116401000000008311171561093f57600080fd5b90919293919293905050506116cf565b60405180827bffffffffffffffffffffffffffffffffffffffffffffffffffffffff19167bffffffffffffffffffffffffffffffffffffffffffffffffffffffff1916815260200191505060405180910390f35b73088800000000000000000000000000000000000181565b6000600460008481526020019081526020016000209050338160000160006101000a81548173ffffffffffffffffffffffffffffffffffffffff021916908373ffffffffffffffffffffffffffffffffffffffff16021790555060008160020160006101000a81548173ffffffffffffffffffffffffffffffffffffffff021916908373ffffffffffffffffffffffffffffffffffffffff16021790555081816001018190555060038054905060056000858152602001908152602001600020819055506003839080600181540180825580915050600190039060005260206000200160009091909190915055610ab33330856116f6565b600760003373ffffffffffffffffffffffffffffffffffffffff1673ffffffffffffffffffffffffffffffffffffffff16815260200190815260200160002080549050600660003373ffffffffffffffffffffffffffffffffffffffff1673ffffffffffffffffffffffffffffffffffffffff168152602001908152602001600020600085815260200190815260200160002081905550600760003373ffffffffffffffffffffffffffffffffffffffff1673ffffffffffffffffffffffffffffffffffffffff1681526020019081526020016000208390806001815401808255809150506001900390600052602060002001600090919091909150557fa4ded55a220657ad8f98e413fb82d16439b38daa30959f3fbd310e04e604bffe338484604051808473ffffffffffffffffffffffffffffffffffffffff1673ffffffffffffffffffffffffffffffffffffffff168152602001838152602001828152602001935050505060405180910390a1505050565b6006602052816000526040600020602052806000526040600020600091509150505481565b600860009054906101000a900473ffffffffffffffffffffffffffffffffffffffff1681565b60046020528060005260406000206000915090508060000160009054906101000a900473ffffffffffffffffffffffffffffffffffffffff16908060010154908060020160009054906101000a900473ffffffffffffffffffffffffffffffffffffffff16905083565b60006004600083815260200190815260200160002090503373ffffffffffffffffffffffffffffffffffffffff168160000160009054906101000a900473ffffffffffffffffffffffffffffffffffffffff1673ffffffffffffffffffffffffffffffffffffffff1614610db9576040517f08c379a000000000000000000000000000000000000000000000000000000000815260040180806020018281038252600b8152602001807f4f6e6c792073656c6c657200000000000000000000000000000000000000000081525060200191505060405180910390fd5b610dc43033846116f6565b7fb4b6149c5d2229d797c190c1fea7a8af2d8f5ae3e0f5b0506a185896fc8eb4de8160000160009054906101000a900473ffffffffffffffffffffffffffffffffffffffff16838360010154604051808473ffffffffffffffffffffffffffffffffffffffff1673ffffffffffffffffffffffffffffffffffffffff168152602001838152602001828152602001935050505060405180910390a1610e688261180d565b610e968160000160009054906101000a900473ffffffffffffffffffffffffffffffffffffffff16836118d2565b5050565b6000809054906101000a900473ffffffffffffffffffffffffffffffffffffffff1673ffffffffffffffffffffffffffffffffffffffff163373ffffffffffffffffffffffffffffffffffffffff1614610f5c576040517f08c379a00000000000000000000000000000000000000000000000000000000081526004018080602001828103825260098152602001807f4e6f74206f776e6572000000000000000000000000000000000000000000000081525060200191505060405180910390fd5b80600160006101000a81548173ffffffffffffffffffffffffffffffffffffffff021916908373ffffffffffffffffffffffffffffffffffffffff16021790555050565b60606003805480602002602001604051908101604052809291908181526020018280548015610fee57602002820191906000526020600020905b815481526020019060010190808311610fda575b5050505050905090565b6060600760008373ffffffffffffffffffffffffffffffffffffffff1673ffffffffffffffffffffffffffffffffffffffff16815260200190815260200160002080548060200260200160405190810160405280929190818152602001828054801561108357602002820191906000526020600020905b81548152602001906001019080831161106f575b50505050509050919050565b6000809054906101000a900473ffffffffffffffffffffffffffffffffffffffff1673ffffffffffffffffffffffffffffffffffffffff163373ffffffffffffffffffffffffffffffffffffffff1614611151576040517f08c379a00000000000000000000000000000000000000000000000000000000081526004018080602001828103825260098152602001807f4e6f74206f776e6572000000000000000000000000000000000000000000000081525060200191505060405180910390fd5b80600860006101000a81548173ffffffffffffffffffffffffffffffffffffffff021916908373ffffffffffffffffffffffffffffffffffffffff16021790555050565b600760205281600052604060002081815481106111ae57fe5b90600052602060002001600091509150505481565b60056020528060005260406000206000915090505481565b600381815481106111e857fe5b906000526020600020016000915090505481565b60025481565b60006040518080611e056041913960410190506040518091039020905098975050505050505050565b600060046000838152602001908152602001600020905060003490503373ffffffffffffffffffffffffffffffffffffffff168260000160009054906101000a900473ffffffffffffffffffffffffffffffffffffffff1673ffffffffffffffffffffffffffffffffffffffff16141561130d576040517f08c379a00000000000000000000000000000000000000000000000000000000081526004018080602001828103825260108152602001807f43616e206e6f74206275792073656c660000000000000000000000000000000081525060200191505060405180910390fd5b81600101548114611386576040517f08c379a000000000000000000000000000000000000000000000000000000000815260040180806020018281038252600b8152602001807f50726963652077726f6e6700000000000000000000000000000000000000000081525060200191505060405180910390fd5b600860009054906101000a900473ffffffffffffffffffffffffffffffffffffffff1673ffffffffffffffffffffffffffffffffffffffff166108fc6113eb6103e86113dd60095486611b4390919063ffffffff16565b611bc990919063ffffffff16565b9081150290604051600060405180830381858888f19350505050158015611416573d6000803e3d6000fd5b508160000160009054906101000a900473ffffffffffffffffffffffffffffffffffffffff1673ffffffffffffffffffffffffffffffffffffffff166108fc6114826103e86114746009546103e80386611b4390919063ffffffff16565b611bc990919063ffffffff16565b9081150290604051600060405180830381858888f193505050501580156114ad573d6000803e3d6000fd5b506114b93033856116f6565b7fd45c773652144cb1eb58e95e7dee7b2f8a115622f3ea23fd488856cda28e2a6b8260000160009054906101000a900473ffffffffffffffffffffffffffffffffffffffff16338584604051808573ffffffffffffffffffffffffffffffffffffffff1673ffffffffffffffffffffffffffffffffffffffff1681526020018473ffffffffffffffffffffffffffffffffffffffff1673ffffffffffffffffffffffffffffffffffffffff16815260200183815260200182815260200194505050505060405180910390a1338260020160006101000a81548173ffffffffffffffffffffffffffffffffffffffff021916908373ffffffffffffffffffffffffffffffffffffffff1602179055506115d08361180d565b6115fe8260000160009054906101000a900473ffffffffffffffffffffffffffffffffffffffff16846118d2565b505050565b6000809054906101000a900473ffffffffffffffffffffffffffffffffffffffff1673ffffffffffffffffffffffffffffffffffffffff163373ffffffffffffffffffffffffffffffffffffffff16146116c5576040517f08c379a00000000000000000000000000000000000000000000000000000000081526004018080602001828103825260098152602001807f4e6f74206f776e6572000000000000000000000000000000000000000000000081525060200191505060405180910390fd5b8060098190555050565b60006040518080611e46603891396038019050604051809103902090509695505050505050565b600160009054906101000a900473ffffffffffffffffffffffffffffffffffffffff1673ffffffffffffffffffffffffffffffffffffffff1663f242432a84848460016040518563ffffffff1660e01b8152600401808573ffffffffffffffffffffffffffffffffffffffff1673ffffffffffffffffffffffffffffffffffffffff1681526020018473ffffffffffffffffffffffffffffffffffffffff1673ffffffffffffffffffffffffffffffffffffffff1681526020018381526020018281526020018060200182810382526000815260200160200195505050505050600060405180830381600087803b1580156117f057600080fd5b505af1158015611804573d6000803e3d6000fd5b50505050505050565b60006118286001600380549050611c1390919063ffffffff16565b905060006005600084815260200190815260200160002054905060006003838154811061185157fe5b90600052602060002001549050806003838154811061186c57fe5b9060005260206000200181905550816005600083815260200190815260200160002081905550600380548061189d57fe5b600190038181906000526020600020016000905590556000600560008681526020019081526020016000208190555050505050565b600061192a6001600760008673ffffffffffffffffffffffffffffffffffffffff1673ffffffffffffffffffffffffffffffffffffffff16815260200190815260200160002080549050611c1390919063ffffffff16565b90506000600660008573ffffffffffffffffffffffffffffffffffffffff1673ffffffffffffffffffffffffffffffffffffffff16815260200190815260200160002060008481526020019081526020016000205490506000600760008673ffffffffffffffffffffffffffffffffffffffff1673ffffffffffffffffffffffffffffffffffffffff16815260200190815260200160002083815481106119cd57fe5b9060005260206000200154905080600760008773ffffffffffffffffffffffffffffffffffffffff1673ffffffffffffffffffffffffffffffffffffffff1681526020019081526020016000208381548110611a2557fe5b906000526020600020018190555081600660008773ffffffffffffffffffffffffffffffffffffffff1673ffffffffffffffffffffffffffffffffffffffff168152602001908152602001600020600083815260200190815260200160002081905550600760008673ffffffffffffffffffffffffffffffffffffffff1673ffffffffffffffffffffffffffffffffffffffff168152602001908152602001600020805480611ad057fe5b600190038181906000526020600020016000905590556000600660008773ffffffffffffffffffffffffffffffffffffffff1673ffffffffffffffffffffffffffffffffffffffff1681526020019081526020016000206000868152602001908152602001600020819055505050505050565b600080831415611b565760009050611bc3565b6000828402905082848281611b6757fe5b0414611bbe576040517f08c379a0000000000000000000000000000000000000000000000000000000008152600401808060200182810382526021815260200180611de46021913960400191505060405180910390fd5b809150505b92915050565b6000611c0b83836040518060400160405280601a81526020017f536166654d6174683a206469766973696f6e206279207a65726f000000000000815250611c5d565b905092915050565b6000611c5583836040518060400160405280601e81526020017f536166654d6174683a207375627472616374696f6e206f766572666c6f770000815250611d23565b905092915050565b60008083118290611d09576040517f08c379a00000000000000000000000000000000000000000000000000000000081526004018080602001828103825283818151815260200191508051906020019080838360005b83811015611cce578082015181840152602081019050611cb3565b50505050905090810190601f168015611cfb5780820380516001836020036101000a031916815260200191505b509250505060405180910390fd5b506000838581611d1557fe5b049050809150509392505050565b6000838311158290611dd0576040517f08c379a00000000000000000000000000000000000000000000000000000000081526004018080602001828103825283818151815260200191508051906020019080838360005b83811015611d95578082015181840152602081019050611d7a565b50505050905090810190601f168015611dc25780820380516001836020036101000a031916815260200191505b509250505060405180910390fd5b506000838503905080915050939250505056fe536166654d6174683a206d756c7469706c69636174696f6e206f766572666c6f776f6e455243313135354261746368526563656976656428616464726573732c616464726573732c75696e743235365b5d2c75696e743235365b5d2c6279746573296f6e45524331313535526563656976656428616464726573732c616464726573732c75696e743235362c75696e743235362c627974657329a2646970667358221220a840f0afc478037eb4219e67c288b63d37a4c9c48cdb84ce85434444f6e0469864736f6c63430006020033",
  "source": "pragma solidity 0.6.2;\n\nimport \"@openzeppelin/contracts/math/SafeMath.sol\";\n\nimport \"@openzeppelin/contracts/introspection/IERC1820Registry.sol\";\nimport \"./SponsorWhitelistControl.sol\";\n\n\ninterface TicketNft{\n    function mint(address player) external returns (uint256);\n    function safeTransferFrom(\n        address from,\n        address to,\n        uint256 tokenId,\n        uint256 amount,\n        bytes calldata data\n    ) external;\n}\n\ninterface Invite{\n    function getUserSimpleInfo(address _address) view external returns(address referrer);\n}\n\ncontract ConfluxShop{\n\n    event BuyTicket(address buyer, uint256 tokenId);\n    event CancelShell(address seller, uint256 tokenId, uint256 price);\n    event AddTicketCount(uint256 count);\n    event BuySellerTicket(address seller,address buyer,uint256 tokenId,uint256 price);\n    event SellTicker(address seller,uint256 tokenId,uint256 price);\n\n    using SafeMath for uint256;\n\n    address ticketShopOwner;\n\n    TicketNft ticketNft;\n\n    uint256 public totalTicket = 1000;\n\n    uint256[] public shopIds;\n\n    mapping(uint256 => Shop) public shopMap;\n    mapping(uint256 => uint256) public _allTokensIndex;\n\n    mapping(address => mapping(uint256 => uint256)) public sellerIndex;\n    mapping(address => uint256[]) public sellerShops;\n\n    address public platform;\n    //2.5  -> 25/1000\n    uint256 rate = 25;\n\n    struct Shop{\n        address seller;\n        uint256 price;\n        address buyer;\n    }\n\n    modifier onlyOwner(){\n        require(msg.sender == ticketShopOwner,\"Not owner\");\n        _;\n    }\n\n    SponsorWhitelistControl public constant SPONSOR = SponsorWhitelistControl(\n        address(0x0888000000000000000000000000000000000001)\n    );\n\n    constructor(address _ticketNft) public{\n        ticketShopOwner = msg.sender;\n        ticketNft = TicketNft(_ticketNft);\n        platform = msg.sender;\n\n        // register all users as sponsees\n        address[] memory users = new address[](1);\n        users[0] = address(0);\n        SPONSOR.addPrivilege(users);\n    }\n\n    function getSellerShop(address _seller) view public returns(uint256[] memory _ids){\n        return sellerShops[_seller];\n    }\n\n    function getShopItems() view public returns(uint256[] memory _shopIds){\n        return shopIds;\n    }\n\n    function setTokenParam(TicketNft _ticketNft) public onlyOwner(){\n        ticketNft = TicketNft(_ticketNft);\n    }\n\n    function setPlatForm(address _platform) public onlyOwner(){\n        platform = _platform;\n    }\n\n    function setPlatFormRate(uint256 _rate) public onlyOwner(){\n        rate = _rate;\n    }\n\n    function sellTicker(uint256 _tokenId,uint256 _price) public{\n        Shop storage shop = shopMap[_tokenId];\n        shop.seller = msg.sender;\n        shop.buyer = address(0);\n        shop.price = _price;\n        _allTokensIndex[_tokenId] = shopIds.length;\n        shopIds.push(_tokenId);\n        transfer1155(msg.sender,address(this),_tokenId);\n        //add to seller\n        sellerIndex[msg.sender][_tokenId] = sellerShops[msg.sender].length;\n        sellerShops[msg.sender].push(_tokenId);\n        emit SellTicker(msg.sender, _tokenId, _price);\n    }\n\n    function buySellerTicket(uint256 _tokenId) payable public{\n        Shop storage shop=shopMap[_tokenId];\n        uint256 _price = msg.value;\n        require(shop.seller!=msg.sender,\"Can not buy self\");\n        require(_price==shop.price,\"Price wrong\");\n        address(uint160(platform)).transfer(_price.mul(rate).div(1000));\n        address(uint160(shop.seller)).transfer(_price.mul(1000-rate).div(1000));\n        //1155\n        transfer1155(address(this),msg.sender,_tokenId);\n        emit BuySellerTicket(shop.seller, msg.sender, _tokenId, _price);\n        shop.buyer = msg.sender;\n        _removeTokenFromShop(_tokenId);\n        //remove seller\n        _removeTokenFromSellerShop(shop.seller,_tokenId);\n    }\n\n    function cancelShell(uint256 _tokenId) public{\n        Shop storage shop=shopMap[_tokenId];\n        require(shop.seller == msg.sender,\"Only seller\");\n        transfer1155(address(this),msg.sender,_tokenId);\n        emit CancelShell(shop.seller,_tokenId,shop.price);\n        _removeTokenFromShop(_tokenId);\n        _removeTokenFromSellerShop(shop.seller,_tokenId);\n    }\n\n    function _removeTokenFromSellerShop(address _seller, uint256 _tokenId) private {\n        // sellerIndex[_seller][_tokenId] = sellerShops[_seller].length;\n        // sellerShops[_seller].push(_tokenId);\n        uint256 lastTokenIndex = sellerShops[_seller].length.sub(1);\n        uint256 tokenIndex = sellerIndex[_seller][_tokenId];\n\n        uint256 lastTokenId = sellerShops[_seller][lastTokenIndex];\n\n        sellerShops[_seller][tokenIndex] = lastTokenId;\n        sellerIndex[_seller][lastTokenId] = tokenIndex;\n\n        sellerShops[_seller].pop();\n        sellerIndex[_seller][_tokenId] = 0;\n    }\n\n    function _removeTokenFromShop(uint256 _tokenId) private {\n        uint256 lastTokenIndex = shopIds.length.sub(1);\n        uint256 tokenIndex = _allTokensIndex[_tokenId];\n\n        uint256 lastTokenId = shopIds[lastTokenIndex];\n\n        shopIds[tokenIndex] = lastTokenId;\n        _allTokensIndex[lastTokenId] = tokenIndex;\n\n        shopIds.pop();\n        _allTokensIndex[_tokenId] = 0;\n    }\n\n    function transferEth(address _address, uint256 _value) internal{\n        (bool res, ) = address(uint160(_address)).call{value:_value}(\"\");\n        require(res,\"TRANSFER ETH ERROR\");\n    }\n\n    function transfer1155(address _from,address _to,uint256 _tokenId) internal{\n        ticketNft.safeTransferFrom(_from,_to,_tokenId,1,\"\");\n    }\n\n     //-----------\n    function onERC1155Received(\n        address operator,\n        address from,\n        uint256 id,\n        uint256 value,\n        bytes calldata data\n    )external returns(bytes4){\n       return bytes4(keccak256(\"onERC1155Received(address,address,uint256,uint256,bytes)\"));\n    }\n\n    function onERC1155BatchReceived(\n        address operator,\n        address from,\n        uint256[] calldata ids,\n        uint256[] calldata values,\n        bytes calldata data\n    )external returns(bytes4){\n        return bytes4(keccak256(\"onERC1155BatchReceived(address,address,uint256[],uint256[],bytes)\"));\n    }\n}\n",
  "sourcePath": "/Users/wangban/Downloads/money/coin/chk/chksol/contracts/ConfluxShop.sol",
  "compiler": {
    "name": "solc",
    "version": "0.6.2+commit.bacdbe57.Emscripten.clang"
  },
  "schemaVersion": "3.2.0",
  "updatedAt": "2021-02-06T15:54:48.780Z",
  "devdoc": {
    "methods": {}
  },
  "userdoc": {
    "methods": {}
  }
}