{
  "contractName": "Snatch",
  "abi": [
    {
      "inputs": [
        {
          "internalType": "contract InviteInterface",
          "name": "_invite",
          "type": "address"
        },
        {
          "internalType": "address",
          "name": "_ierc777",
          "type": "address"
        }
      ],
      "stateMutability": "nonpayable",
      "type": "constructor"
    },
    {
      "anonymous": false,
      "inputs": [
        {
          "indexed": false,
          "internalType": "address",
          "name": "_addr",
          "type": "address"
        },
        {
          "indexed": false,
          "internalType": "uint256",
          "name": "_amount",
          "type": "uint256"
        }
      ],
      "name": "SnatchPool",
      "type": "event"
    },
    {
      "anonymous": false,
      "inputs": [
        {
          "indexed": false,
          "internalType": "address",
          "name": "_owner",
          "type": "address"
        },
        {
          "indexed": false,
          "internalType": "address",
          "name": "_addr",
          "type": "address"
        },
        {
          "indexed": false,
          "internalType": "uint256",
          "name": "_amount",
          "type": "uint256"
        }
      ],
      "name": "WithdrawPool",
      "type": "event"
    },
    {
      "inputs": [],
      "name": "SPONSOR",
      "outputs": [
        {
          "internalType": "contract SponsorWhitelistControl",
          "name": "",
          "type": "address"
        }
      ],
      "stateMutability": "view",
      "type": "function"
    },
    {
      "inputs": [],
      "name": "durationEndTime",
      "outputs": [
        {
          "internalType": "uint256",
          "name": "",
          "type": "uint256"
        }
      ],
      "stateMutability": "view",
      "type": "function"
    },
    {
      "inputs": [],
      "name": "durationTime",
      "outputs": [
        {
          "internalType": "uint256",
          "name": "",
          "type": "uint256"
        }
      ],
      "stateMutability": "view",
      "type": "function"
    },
    {
      "inputs": [
        {
          "internalType": "address",
          "name": "",
          "type": "address"
        }
      ],
      "name": "givers",
      "outputs": [
        {
          "internalType": "uint256",
          "name": "",
          "type": "uint256"
        }
      ],
      "stateMutability": "view",
      "type": "function"
    },
    {
      "inputs": [],
      "name": "helperRate",
      "outputs": [
        {
          "internalType": "uint256",
          "name": "",
          "type": "uint256"
        }
      ],
      "stateMutability": "view",
      "type": "function"
    },
    {
      "inputs": [],
      "name": "iERC777",
      "outputs": [
        {
          "internalType": "address",
          "name": "",
          "type": "address"
        }
      ],
      "stateMutability": "view",
      "type": "function"
    },
    {
      "inputs": [],
      "name": "increaseRange",
      "outputs": [
        {
          "internalType": "uint256",
          "name": "",
          "type": "uint256"
        }
      ],
      "stateMutability": "view",
      "type": "function"
    },
    {
      "inputs": [],
      "name": "invitePercent",
      "outputs": [
        {
          "internalType": "uint256",
          "name": "",
          "type": "uint256"
        }
      ],
      "stateMutability": "view",
      "type": "function"
    },
    {
      "inputs": [],
      "name": "platformAddress",
      "outputs": [
        {
          "internalType": "address",
          "name": "",
          "type": "address"
        }
      ],
      "stateMutability": "view",
      "type": "function"
    },
    {
      "inputs": [],
      "name": "platformRate",
      "outputs": [
        {
          "internalType": "uint256",
          "name": "",
          "type": "uint256"
        }
      ],
      "stateMutability": "view",
      "type": "function"
    },
    {
      "inputs": [],
      "name": "snatchCount",
      "outputs": [
        {
          "internalType": "uint256",
          "name": "",
          "type": "uint256"
        }
      ],
      "stateMutability": "view",
      "type": "function"
    },
    {
      "inputs": [],
      "name": "submitAmount",
      "outputs": [
        {
          "internalType": "uint256",
          "name": "",
          "type": "uint256"
        }
      ],
      "stateMutability": "view",
      "type": "function"
    },
    {
      "inputs": [],
      "name": "surprise",
      "outputs": [
        {
          "internalType": "uint256",
          "name": "",
          "type": "uint256"
        }
      ],
      "stateMutability": "view",
      "type": "function"
    },
    {
      "inputs": [],
      "name": "totalAmount",
      "outputs": [
        {
          "internalType": "uint256",
          "name": "",
          "type": "uint256"
        }
      ],
      "stateMutability": "view",
      "type": "function"
    },
    {
      "inputs": [],
      "name": "totalSnatchCount",
      "outputs": [
        {
          "internalType": "uint256",
          "name": "",
          "type": "uint256"
        }
      ],
      "stateMutability": "view",
      "type": "function"
    },
    {
      "inputs": [
        {
          "internalType": "uint256",
          "name": "",
          "type": "uint256"
        }
      ],
      "name": "winnerAddresses",
      "outputs": [
        {
          "internalType": "address",
          "name": "",
          "type": "address"
        }
      ],
      "stateMutability": "view",
      "type": "function"
    },
    {
      "inputs": [
        {
          "internalType": "address",
          "name": "",
          "type": "address"
        },
        {
          "internalType": "uint256",
          "name": "",
          "type": "uint256"
        }
      ],
      "name": "winnerMap",
      "outputs": [
        {
          "internalType": "address",
          "name": "winner",
          "type": "address"
        },
        {
          "internalType": "uint256",
          "name": "count",
          "type": "uint256"
        },
        {
          "internalType": "uint256",
          "name": "scount",
          "type": "uint256"
        },
        {
          "internalType": "uint256",
          "name": "amount",
          "type": "uint256"
        },
        {
          "internalType": "uint256",
          "name": "winTime",
          "type": "uint256"
        }
      ],
      "stateMutability": "view",
      "type": "function"
    },
    {
      "inputs": [
        {
          "internalType": "uint256",
          "name": "",
          "type": "uint256"
        }
      ],
      "name": "winners",
      "outputs": [
        {
          "internalType": "address",
          "name": "winner",
          "type": "address"
        },
        {
          "internalType": "uint256",
          "name": "count",
          "type": "uint256"
        },
        {
          "internalType": "uint256",
          "name": "scount",
          "type": "uint256"
        },
        {
          "internalType": "uint256",
          "name": "amount",
          "type": "uint256"
        },
        {
          "internalType": "uint256",
          "name": "winTime",
          "type": "uint256"
        }
      ],
      "stateMutability": "view",
      "type": "function"
    },
    {
      "stateMutability": "payable",
      "type": "receive"
    },
    {
      "inputs": [],
      "name": "getCurrentSnatchInfo",
      "outputs": [
        {
          "internalType": "address",
          "name": "lastOwner",
          "type": "address"
        },
        {
          "internalType": "address",
          "name": "tempOwner",
          "type": "address"
        },
        {
          "internalType": "uint256",
          "name": "amount",
          "type": "uint256"
        },
        {
          "internalType": "uint256",
          "name": "_submitAmount",
          "type": "uint256"
        },
        {
          "internalType": "uint256",
          "name": "lastAmount",
          "type": "uint256"
        },
        {
          "internalType": "uint256",
          "name": "lastTime",
          "type": "uint256"
        },
        {
          "internalType": "uint256",
          "name": "startTime",
          "type": "uint256"
        },
        {
          "internalType": "uint256",
          "name": "_durationEndTime",
          "type": "uint256"
        },
        {
          "internalType": "uint256",
          "name": "_durationTime",
          "type": "uint256"
        },
        {
          "internalType": "uint256",
          "name": "_increaseRange",
          "type": "uint256"
        },
        {
          "internalType": "uint256",
          "name": "_totalAmount",
          "type": "uint256"
        },
        {
          "internalType": "uint256",
          "name": "_snatchCount",
          "type": "uint256"
        },
        {
          "internalType": "uint256",
          "name": "_totalSnatchCount",
          "type": "uint256"
        }
      ],
      "stateMutability": "view",
      "type": "function"
    },
    {
      "inputs": [],
      "name": "getWinnerAddresses",
      "outputs": [
        {
          "internalType": "address[]",
          "name": "_winners",
          "type": "address[]"
        }
      ],
      "stateMutability": "view",
      "type": "function"
    },
    {
      "inputs": [
        {
          "internalType": "uint256",
          "name": "_amount",
          "type": "uint256"
        }
      ],
      "name": "setSubmitM",
      "outputs": [],
      "stateMutability": "nonpayable",
      "type": "function"
    },
    {
      "inputs": [
        {
          "internalType": "uint256",
          "name": "_invitePercent",
          "type": "uint256"
        }
      ],
      "name": "setInvitePercent",
      "outputs": [],
      "stateMutability": "nonpayable",
      "type": "function"
    },
    {
      "inputs": [
        {
          "internalType": "contract InviteInterface",
          "name": "_invite",
          "type": "address"
        }
      ],
      "name": "setInviteInterface",
      "outputs": [],
      "stateMutability": "nonpayable",
      "type": "function"
    },
    {
      "inputs": [
        {
          "internalType": "address",
          "name": "_platform",
          "type": "address"
        }
      ],
      "name": "setPlatform",
      "outputs": [],
      "stateMutability": "nonpayable",
      "type": "function"
    },
    {
      "inputs": [
        {
          "internalType": "uint256",
          "name": "_surprise",
          "type": "uint256"
        }
      ],
      "name": "setSurprise",
      "outputs": [],
      "stateMutability": "nonpayable",
      "type": "function"
    },
    {
      "inputs": [
        {
          "internalType": "uint256",
          "name": "_durationTime",
          "type": "uint256"
        },
        {
          "internalType": "uint256",
          "name": "_durationEndTime",
          "type": "uint256"
        }
      ],
      "name": "setDuration",
      "outputs": [],
      "stateMutability": "nonpayable",
      "type": "function"
    },
    {
      "inputs": [
        {
          "internalType": "uint256",
          "name": "_rate",
          "type": "uint256"
        },
        {
          "internalType": "uint256",
          "name": "_increaseRange",
          "type": "uint256"
        }
      ],
      "name": "setPlatformRate",
      "outputs": [],
      "stateMutability": "nonpayable",
      "type": "function"
    },
    {
      "inputs": [],
      "name": "getNow",
      "outputs": [
        {
          "internalType": "uint256",
          "name": "",
          "type": "uint256"
        }
      ],
      "stateMutability": "view",
      "type": "function"
    },
    {
      "inputs": [
        {
          "internalType": "address",
          "name": "_owner",
          "type": "address"
        }
      ],
      "name": "getRewards",
      "outputs": [
        {
          "internalType": "uint256",
          "name": "_inviteReward",
          "type": "uint256"
        },
        {
          "internalType": "uint256",
          "name": "_surprise",
          "type": "uint256"
        }
      ],
      "stateMutability": "view",
      "type": "function"
    },
    {
      "inputs": [],
      "name": "snatchPool",
      "outputs": [],
      "stateMutability": "payable",
      "type": "function"
    },
    {
      "inputs": [],
      "name": "withdrawPool",
      "outputs": [],
      "stateMutability": "nonpayable",
      "type": "function"
    },
    {
      "inputs": [],
      "name": "otherWithdraw",
      "outputs": [],
      "stateMutability": "nonpayable",
      "type": "function"
    },
    {
      "inputs": [
        {
          "internalType": "address",
          "name": "_owner",
          "type": "address"
        }
      ],
      "name": "withdrawReward",
      "outputs": [],
      "stateMutability": "nonpayable",
      "type": "function"
    },
    {
      "inputs": [
        {
          "internalType": "uint256",
          "name": "_amount",
          "type": "uint256"
        }
      ],
      "name": "exchangeRest",
      "outputs": [],
      "stateMutability": "nonpayable",
      "type": "function"
    },
    {
      "inputs": [
        {
          "internalType": "uint256",
          "name": "_amount",
          "type": "uint256"
        }
      ],
      "name": "getPlatformCoin",
      "outputs": [],
      "stateMutability": "nonpayable",
      "type": "function"
    },
    {
      "inputs": [
        {
          "internalType": "uint256",
          "name": "_amount",
          "type": "uint256"
        },
        {
          "internalType": "uint256",
          "name": "_rate",
          "type": "uint256"
        },
        {
          "internalType": "uint256",
          "name": "_count",
          "type": "uint256"
        },
        {
          "internalType": "uint256",
          "name": "_sCount",
          "type": "uint256"
        }
      ],
      "name": "calcRangeAmount",
      "outputs": [
        {
          "internalType": "uint256",
          "name": "",
          "type": "uint256"
        }
      ],
      "stateMutability": "pure",
      "type": "function"
    },
    {
      "inputs": [
        {
          "internalType": "address",
          "name": "operator",
          "type": "address"
        },
        {
          "internalType": "address",
          "name": "from",
          "type": "address"
        },
        {
          "internalType": "address",
          "name": "to",
          "type": "address"
        },
        {
          "internalType": "uint256",
          "name": "amount",
          "type": "uint256"
        },
        {
          "internalType": "bytes",
          "name": "userData",
          "type": "bytes"
        },
        {
          "internalType": "bytes",
          "name": "operatorData",
          "type": "bytes"
        }
      ],
      "name": "tokensReceived",
      "outputs": [],
      "stateMutability": "nonpayable",
      "type": "function"
    }
  ],
  "bytecode": "0x608060405262069780600355610e106004556064600555600a6009556014600a55678ac7230489e80000600c556014600d556005600e557388887ed889e776bcbe2f0f9932ecfabcdfcd1820601a60006101000a81548173ffffffffffffffffffffffffffffffffffffffff021916908373ffffffffffffffffffffffffffffffffffffffff1602179055503480156200009857600080fd5b5060405162003df938038062003df983398181016040526040811015620000be57600080fd5b810190808051906020019092919080519060200190929190505050601a60009054906101000a900473ffffffffffffffffffffffffffffffffffffffff1673ffffffffffffffffffffffffffffffffffffffff166329965a1d307fb281fc8c12954d22544db45de3159a39272895b169a852b314f9cc762e44c53b60001b306040518463ffffffff1660e01b8152600401808473ffffffffffffffffffffffffffffffffffffffff1673ffffffffffffffffffffffffffffffffffffffff1681526020018381526020018273ffffffffffffffffffffffffffffffffffffffff1673ffffffffffffffffffffffffffffffffffffffff1681526020019350505050600060405180830381600087803b158015620001da57600080fd5b505af1158015620001ef573d6000803e3d6000fd5b5050505033600260006101000a81548173ffffffffffffffffffffffffffffffffffffffff021916908373ffffffffffffffffffffffffffffffffffffffff16021790555033600b60006101000a81548173ffffffffffffffffffffffffffffffffffffffff021916908373ffffffffffffffffffffffffffffffffffffffff1602179055506040518060c00160405280600073ffffffffffffffffffffffffffffffffffffffff168152602001600073ffffffffffffffffffffffffffffffffffffffff16815260200160008152602001600c548152602001600081526020016000815250601460008201518160000160006101000a81548173ffffffffffffffffffffffffffffffffffffffff021916908373ffffffffffffffffffffffffffffffffffffffff16021790555060208201518160010160006101000a81548173ffffffffffffffffffffffffffffffffffffffff021916908373ffffffffffffffffffffffffffffffffffffffff16021790555060408201518160020155606082015181600301556080820151816004015560a0820151816005015590505081601060006101000a81548173ffffffffffffffffffffffffffffffffffffffff021916908373ffffffffffffffffffffffffffffffffffffffff16021790555080601160006101000a81548173ffffffffffffffffffffffffffffffffffffffff021916908373ffffffffffffffffffffffffffffffffffffffff16021790555060606001604051908082528060200260200182016040528015620004455781602001602082028038833980820191505090505b5090506000816000815181106200045857fe5b602002602001019073ffffffffffffffffffffffffffffffffffffffff16908173ffffffffffffffffffffffffffffffffffffffff168152505073088800000000000000000000000000000000000173ffffffffffffffffffffffffffffffffffffffff166310128d3e826040518263ffffffff1660e01b81526004018080602001828103825283818151815260200191508051906020019060200280838360005b8381101562000517578082015181840152602081019050620004fa565b5050505090500192505050600060405180830381600087803b1580156200053d57600080fd5b505af115801562000552573d6000803e3d6000fd5b5050505050505061389080620005696000396000f3fe60806040526004361061021d5760003560e01c806379ee54f711610123578063cd7ea095116100ab578063e280b8b21161006f578063e280b8b214610c4a578063e82d2cdb14610c75578063e89081f814610ce2578063f0902b2014610d47578063f8b75fb514610d7257610224565b8063cd7ea09514610b28578063d07cae9d14610b6d578063d2a4a44014610b77578063d5d5a90314610ba2578063dbe55e5614610bf357610224565b8063a2fb1175116100f2578063a2fb1175146109d3578063af42242d14610a6a578063b86e321c14610a81578063bbe4fd5014610ad2578063bd3edb5e14610afd57610224565b806379ee54f7146108ac5780638069d3b31461091857806390f9001314610953578063a1672bbe1461098e57610224565b806336e0cac6116101a65780635c1648c1116101755780635c1648c1146107b35780635c42c733146107ee57806361a04cb4146108055780636945c5ea146108305780637541bf941461088157610224565b806336e0cac61461061f5780634679689c1461064a5780634b94e235146107215780634f000a7d1461075c57610224565b80630fdfc0c8116101ed5780630fdfc0c81461044f5780631a39d8ef1461047a5780631d073a7a146104a55780631ef9c56f146104fc5780632a5913f51461056857610224565b806223de29146102295780630212448a1461036e578063045f9c971461039957806305e059e31461041457610224565b3661022457005b600080fd5b34801561023557600080fd5b5061036c600480360360c081101561024c57600080fd5b81019080803573ffffffffffffffffffffffffffffffffffffffff169060200190929190803573ffffffffffffffffffffffffffffffffffffffff169060200190929190803573ffffffffffffffffffffffffffffffffffffffff16906020019092919080359060200190929190803590602001906401000000008111156102d357600080fd5b8201836020820111156102e557600080fd5b8035906020019184600183028401116401000000008311171561030757600080fd5b90919293919293908035906020019064010000000081111561032857600080fd5b82018360208201111561033a57600080fd5b8035906020019184600183028401116401000000008311171561035c57600080fd5b9091929391929390505050610d9d565b005b34801561037a57600080fd5b50610383610df4565b6040518082815260200191505060405180910390f35b3480156103a557600080fd5b506103d2600480360360208110156103bc57600080fd5b8101908080359060200190929190505050610dfa565b604051808273ffffffffffffffffffffffffffffffffffffffff1673ffffffffffffffffffffffffffffffffffffffff16815260200191505060405180910390f35b34801561042057600080fd5b5061044d6004803603602081101561043757600080fd5b8101908080359060200190929190505050610e36565b005b34801561045b57600080fd5b50610464610f03565b6040518082815260200191505060405180910390f35b34801561048657600080fd5b5061048f610f09565b6040518082815260200191505060405180910390f35b3480156104b157600080fd5b506104ba610f0f565b604051808273ffffffffffffffffffffffffffffffffffffffff1673ffffffffffffffffffffffffffffffffffffffff16815260200191505060405180910390f35b34801561050857600080fd5b50610511610f27565b6040518080602001828103825283818151815260200191508051906020019060200280838360005b83811015610554578082015181840152602081019050610539565b505050509050019250505060405180910390f35b34801561057457600080fd5b506105c16004803603604081101561058b57600080fd5b81019080803573ffffffffffffffffffffffffffffffffffffffff16906020019092919080359060200190929190505050610fb5565b604051808673ffffffffffffffffffffffffffffffffffffffff1673ffffffffffffffffffffffffffffffffffffffff1681526020018581526020018481526020018381526020018281526020019550505050505060405180910390f35b34801561062b57600080fd5b50610634611025565b6040518082815260200191505060405180910390f35b34801561065657600080fd5b5061065f61102b565b604051808e73ffffffffffffffffffffffffffffffffffffffff1673ffffffffffffffffffffffffffffffffffffffff1681526020018d73ffffffffffffffffffffffffffffffffffffffff1673ffffffffffffffffffffffffffffffffffffffff1681526020018c81526020018b81526020018a81526020018981526020018881526020018781526020018681526020018581526020018481526020018381526020018281526020019d505050505050505050505050505060405180910390f35b34801561072d57600080fd5b5061075a6004803603602081101561074457600080fd5b81019080803590602001909291905050506110e1565b005b34801561076857600080fd5b50610771611282565b604051808273ffffffffffffffffffffffffffffffffffffffff1673ffffffffffffffffffffffffffffffffffffffff16815260200191505060405180910390f35b3480156107bf57600080fd5b506107ec600480360360208110156107d657600080fd5b81019080803590602001909291905050506112a8565b005b3480156107fa57600080fd5b50610803611375565b005b34801561081157600080fd5b5061081a61182f565b6040518082815260200191505060405180910390f35b34801561083c57600080fd5b5061087f6004803603602081101561085357600080fd5b81019080803573ffffffffffffffffffffffffffffffffffffffff169060200190929190505050611835565b005b34801561088d57600080fd5b5061089661193c565b6040518082815260200191505060405180910390f35b3480156108b857600080fd5b506108fb600480360360208110156108cf57600080fd5b81019080803573ffffffffffffffffffffffffffffffffffffffff169060200190929190505050611942565b604051808381526020018281526020019250505060405180910390f35b34801561092457600080fd5b506109516004803603602081101561093b57600080fd5b8101908080359060200190929190505050611a17565b005b34801561095f57600080fd5b5061098c6004803603602081101561097657600080fd5b8101908080359060200190929190505050611ae4565b005b34801561099a57600080fd5b506109d1600480360360408110156109b157600080fd5b810190808035906020019092919080359060200190929190505050611c6c565b005b3480156109df57600080fd5b50610a0c600480360360208110156109f657600080fd5b8101908080359060200190929190505050611d41565b604051808673ffffffffffffffffffffffffffffffffffffffff1673ffffffffffffffffffffffffffffffffffffffff1681526020018581526020018481526020018381526020018281526020019550505050505060405180910390f35b348015610a7657600080fd5b50610a7f611da4565b005b348015610a8d57600080fd5b50610ad060048036036020811015610aa457600080fd5b81019080803573ffffffffffffffffffffffffffffffffffffffff16906020019092919050505061225d565b005b348015610ade57600080fd5b50610ae761238e565b6040518082815260200191505060405180910390f35b348015610b0957600080fd5b50610b12612396565b6040518082815260200191505060405180910390f35b348015610b3457600080fd5b50610b6b60048036036040811015610b4b57600080fd5b81019080803590602001909291908035906020019092919050505061239c565b005b610b75612483565b005b348015610b8357600080fd5b50610b8c612a4d565b6040518082815260200191505060405180910390f35b348015610bae57600080fd5b50610bf160048036036020811015610bc557600080fd5b81019080803573ffffffffffffffffffffffffffffffffffffffff169060200190929190505050612a53565b005b348015610bff57600080fd5b50610c08612b5a565b604051808273ffffffffffffffffffffffffffffffffffffffff1673ffffffffffffffffffffffffffffffffffffffff16815260200191505060405180910390f35b348015610c5657600080fd5b50610c5f612b80565b6040518082815260200191505060405180910390f35b348015610c8157600080fd5b50610ccc60048036036080811015610c9857600080fd5b8101908080359060200190929190803590602001909291908035906020019092919080359060200190929190505050612b86565b6040518082815260200191505060405180910390f35b348015610cee57600080fd5b50610d3160048036036020811015610d0557600080fd5b81019080803573ffffffffffffffffffffffffffffffffffffffff169060200190929190505050612bee565b6040518082815260200191505060405180910390f35b348015610d5357600080fd5b50610d5c612c06565b6040518082815260200191505060405180910390f35b348015610d7e57600080fd5b50610d87612c0c565b6040518082815260200191505060405180910390f35b84600160008973ffffffffffffffffffffffffffffffffffffffff1673ffffffffffffffffffffffffffffffffffffffff168152602001908152602001600020600082825401925050819055505050505050505050565b60095481565b60008181548110610e0757fe5b906000526020600020016000915054906101000a900473ffffffffffffffffffffffffffffffffffffffff1681565b600260009054906101000a900473ffffffffffffffffffffffffffffffffffffffff1673ffffffffffffffffffffffffffffffffffffffff163373ffffffffffffffffffffffffffffffffffffffff1614610ef9576040517f08c379a00000000000000000000000000000000000000000000000000000000081526004018080602001828103825260098152602001807f6e6f74206f776e6572000000000000000000000000000000000000000000000081525060200191505060405180910390fd5b8060058190555050565b60085481565b60065481565b73088800000000000000000000000000000000000181565b60606000805480602002602001604051908101604052809291908181526020018280548015610fab57602002820191906000526020600020905b8160009054906101000a900473ffffffffffffffffffffffffffffffffffffffff1673ffffffffffffffffffffffffffffffffffffffff1681526020019060010190808311610f61575b5050505050905090565b60136020528160005260406000208181548110610fce57fe5b9060005260206000209060050201600091509150508060000160009054906101000a900473ffffffffffffffffffffffffffffffffffffffff16908060010154908060020154908060030154908060040154905085565b600d5481565b6000806000806000806000806000806000806000601460000160009054906101000a900473ffffffffffffffffffffffffffffffffffffffff16601460010160009054906101000a900473ffffffffffffffffffffffffffffffffffffffff16601460020154600c54601460030154601460040154601460050154600354600454600a546006546007546008549c509c509c509c509c509c509c509c509c509c509c509c509c50909192939495969798999a9b9c565b600260009054906101000a900473ffffffffffffffffffffffffffffffffffffffff1673ffffffffffffffffffffffffffffffffffffffff163373ffffffffffffffffffffffffffffffffffffffff16146111a4576040517f08c379a00000000000000000000000000000000000000000000000000000000081526004018080602001828103825260098152602001807f6e6f74206f776e6572000000000000000000000000000000000000000000000081525060200191505060405180910390fd5b6000601160009054906101000a900473ffffffffffffffffffffffffffffffffffffffff1690508073ffffffffffffffffffffffffffffffffffffffff16639bd9bbc630846040518363ffffffff1660e01b8152600401808373ffffffffffffffffffffffffffffffffffffffff1673ffffffffffffffffffffffffffffffffffffffff168152602001828152602001806020018281038252600081526020016020019350505050600060405180830381600087803b15801561126657600080fd5b505af115801561127a573d6000803e3d6000fd5b505050505050565b601160009054906101000a900473ffffffffffffffffffffffffffffffffffffffff1681565b600260009054906101000a900473ffffffffffffffffffffffffffffffffffffffff1673ffffffffffffffffffffffffffffffffffffffff163373ffffffffffffffffffffffffffffffffffffffff161461136b576040517f08c379a00000000000000000000000000000000000000000000000000000000081526004018080602001828103825260098152602001807f6e6f74206f776e6572000000000000000000000000000000000000000000000081525060200191505060405180910390fd5b80600c8190555050565b3373ffffffffffffffffffffffffffffffffffffffff16601460010160009054906101000a900473ffffffffffffffffffffffffffffffffffffffff1673ffffffffffffffffffffffffffffffffffffffff161461143b576040517f08c379a000000000000000000000000000000000000000000000000000000000815260040180806020018281038252600a8152602001807f4e6f742077696e6e65720000000000000000000000000000000000000000000081525060200191505060405180910390fd5b42611456600454601460040154612c1290919063ffffffff16565b108061147a575042611478600354601460050154612c1290919063ffffffff16565b105b6114ec576040517f08c379a00000000000000000000000000000000000000000000000000000000081526004018080602001828103825260108152602001807f47616d65206973206e6f74206f7665720000000000000000000000000000000081525060200191505060405180910390fd5b600073ffffffffffffffffffffffffffffffffffffffff16601460010160009054906101000a900473ffffffffffffffffffffffffffffffffffffffff1673ffffffffffffffffffffffffffffffffffffffff1614156115b4576040517f08c379a00000000000000000000000000000000000000000000000000000000081526004018080602001828103825260108152602001807f416c72656164792077697468647261770000000000000000000000000000000081525060200191505060405180910390fd5b60006014600201549050611647600b60009054906101000a900473ffffffffffffffffffffffffffffffffffffffff1661160c60646115fe600d5486612c9a90919063ffffffff16565b612d2090919063ffffffff16565b6040518060400160405280601781526020017f5472616e7366657220706c6174666f726d206572726f72000000000000000000815250612d6a565b6116d2601460010160009054906101000a900473ffffffffffffffffffffffffffffffffffffffff166116976064611689603286612c9a90919063ffffffff16565b612d2090919063ffffffff16565b6040518060400160405280601581526020017f5472616e736665722077696e6e6572206572726f720000000000000000000000815250612d6a565b6117446116fc60646116ee603285612c9a90919063ffffffff16565b612d2090919063ffffffff16565b6117366117276064611719600d5487612c9a90919063ffffffff16565b612d2090919063ffffffff16565b84612e8290919063ffffffff16565b612e8290919063ffffffff16565b6014600201819055507f1993aa2090edc0bad979d5f16efd6e3c23b084dc8356e9b2fe900406c7ba038933336117a961179a606461178c603288612c9a90919063ffffffff16565b612d2090919063ffffffff16565b85612e8290919063ffffffff16565b604051808473ffffffffffffffffffffffffffffffffffffffff1673ffffffffffffffffffffffffffffffffffffffff1681526020018373ffffffffffffffffffffffffffffffffffffffff1673ffffffffffffffffffffffffffffffffffffffff168152602001828152602001935050505060405180910390a161182c612ecc565b50565b600c5481565b600260009054906101000a900473ffffffffffffffffffffffffffffffffffffffff1673ffffffffffffffffffffffffffffffffffffffff163373ffffffffffffffffffffffffffffffffffffffff16146118f8576040517f08c379a00000000000000000000000000000000000000000000000000000000081526004018080602001828103825260098152602001807f6e6f74206f776e6572000000000000000000000000000000000000000000000081525060200191505060405180910390fd5b80600b60006101000a81548173ffffffffffffffffffffffffffffffffffffffff021916908373ffffffffffffffffffffffffffffffffffffffff16021790555050565b600e5481565b60008061194d6137bd565b600f60008573ffffffffffffffffffffffffffffffffffffffff1673ffffffffffffffffffffffffffffffffffffffff1681526020019081526020016000206040518060600160405290816000820160009054906101000a900473ffffffffffffffffffffffffffffffffffffffff1673ffffffffffffffffffffffffffffffffffffffff1673ffffffffffffffffffffffffffffffffffffffff168152602001600182015481526020016002820154815250509050806020015181604001519250925050915091565b600260009054906101000a900473ffffffffffffffffffffffffffffffffffffffff1673ffffffffffffffffffffffffffffffffffffffff163373ffffffffffffffffffffffffffffffffffffffff1614611ada576040517f08c379a00000000000000000000000000000000000000000000000000000000081526004018080602001828103825260098152602001807f6e6f74206f776e6572000000000000000000000000000000000000000000000081525060200191505060405180910390fd5b8060098190555050565b600060146005015414611b5f576040517f08c379a00000000000000000000000000000000000000000000000000000000081526004018080602001828103825260088152602001807f4e6f74206f76657200000000000000000000000000000000000000000000000081525060200191505060405180910390fd5b600060146002015411611bda576040517f08c379a00000000000000000000000000000000000000000000000000000000081526004018080602001828103825260098152602001807f4e6f20616d6f756e74000000000000000000000000000000000000000000000081525060200191505060405180910390fd5b611c08601160009054906101000a900473ffffffffffffffffffffffffffffffffffffffff1633308461321c565b611c4833826040518060400160405280601c81526020017f45786368616e67652072657374207472616e73666572206572726f7200000000815250612d6a565b611c6081601460020154612e8290919063ffffffff16565b60146002018190555050565b600260009054906101000a900473ffffffffffffffffffffffffffffffffffffffff1673ffffffffffffffffffffffffffffffffffffffff163373ffffffffffffffffffffffffffffffffffffffff1614611d2f576040517f08c379a00000000000000000000000000000000000000000000000000000000081526004018080602001828103825260098152602001807f6e6f74206f776e6572000000000000000000000000000000000000000000000081525060200191505060405180910390fd5b81600d8190555080600a819055505050565b60128181548110611d4e57fe5b90600052602060002090600502016000915090508060000160009054906101000a900473ffffffffffffffffffffffffffffffffffffffff16908060010154908060020154908060030154908060040154905085565b42611dbf600454601460040154612c1290919063ffffffff16565b1080611de3575042611de1600354601460050154612c1290919063ffffffff16565b105b611e55576040517f08c379a00000000000000000000000000000000000000000000000000000000081526004018080602001828103825260108152602001807f47616d65206973206e6f74206f7665720000000000000000000000000000000081525060200191505060405180910390fd5b600073ffffffffffffffffffffffffffffffffffffffff16601460010160009054906101000a900473ffffffffffffffffffffffffffffffffffffffff1673ffffffffffffffffffffffffffffffffffffffff161415611f1d576040517f08c379a00000000000000000000000000000000000000000000000000000000081526004018080602001828103825260168152602001807f4f7468657220616c72656164792077697468647261770000000000000000000081525060200191505060405180910390fd5b60006014600201549050611fb0600b60009054906101000a900473ffffffffffffffffffffffffffffffffffffffff16611f756064611f67600d5486612c9a90919063ffffffff16565b612d2090919063ffffffff16565b6040518060400160405280601d81526020017f4f74686572207472616e7366657220706c6174666f726d206572726f72000000815250612d6a565b61203b601460010160009054906101000a900473ffffffffffffffffffffffffffffffffffffffff166120006064611ff2602d86612c9a90919063ffffffff16565b612d2090919063ffffffff16565b6040518060400160405280601b81526020017f4f74686572207472616e736665722077696e6e6572206572726f720000000000815250612d6a565b6120a2336120676064612059600e5486612c9a90919063ffffffff16565b612d2090919063ffffffff16565b6040518060400160405280601b81526020017f4f74686572207472616e736665722068656c706572206572726f720000000000815250612d6a565b61214d6120cd60646120bf600e5485612c9a90919063ffffffff16565b612d2090919063ffffffff16565b61213f6120f760646120e9602d87612c9a90919063ffffffff16565b612d2090919063ffffffff16565b6121316121226064612114600d5489612c9a90919063ffffffff16565b612d2090919063ffffffff16565b86612e8290919063ffffffff16565b612e8290919063ffffffff16565b612e8290919063ffffffff16565b6014600201819055507f1993aa2090edc0bad979d5f16efd6e3c23b084dc8356e9b2fe900406c7ba0389601460010160009054906101000a900473ffffffffffffffffffffffffffffffffffffffff16336121d76121c860646121ba602d88612c9a90919063ffffffff16565b612d2090919063ffffffff16565b85612e8290919063ffffffff16565b604051808473ffffffffffffffffffffffffffffffffffffffff1673ffffffffffffffffffffffffffffffffffffffff1681526020018373ffffffffffffffffffffffffffffffffffffffff1673ffffffffffffffffffffffffffffffffffffffff168152602001828152602001935050505060405180910390a161225a612ecc565b50565b6000600f60008373ffffffffffffffffffffffffffffffffffffffff1673ffffffffffffffffffffffffffffffffffffffff168152602001908152602001600020905060006122bd82600201548360010154612c1290919063ffffffff16565b905060008111612335576040517f08c379a00000000000000000000000000000000000000000000000000000000081526004018080602001828103825260098152602001807f4e6f20726577617264000000000000000000000000000000000000000000000081525060200191505060405180910390fd5b600082600101819055506000826002018190555061238983826040518060400160405280601581526020017f7472616e7366657220726577617264206572726f720000000000000000000000815250612d6a565b505050565b600042905090565b60055481565b600260009054906101000a900473ffffffffffffffffffffffffffffffffffffffff1673ffffffffffffffffffffffffffffffffffffffff163373ffffffffffffffffffffffffffffffffffffffff161461245f576040517f08c379a00000000000000000000000000000000000000000000000000000000081526004018080602001828103825260098152602001807f6e6f74206f776e6572000000000000000000000000000000000000000000000081525060200191505060405180910390fd5b6000821461246f57816004819055505b6000811461247f57806003819055505b5050565b60004290506000601460050154146125b857806124b0600454601460040154612c1290919063ffffffff16565b1015612524576040517f08c379a00000000000000000000000000000000000000000000000000000000081526004018080602001828103825260178152602001807f4f766572206475726174696f6e2c67616d65206f76657200000000000000000081525060200191505060405180910390fd5b8061253f600354601460050154612c1290919063ffffffff16565b10156125b3576040517f08c379a00000000000000000000000000000000000000000000000000000000081526004018080602001828103825260188152602001807f47616d6520697320657870656e64206f7665722074696d65000000000000000081525060200191505060405180910390fd5b6125c3565b806014600501819055505b678ac7230489e80000341015612641576040517f08c379a000000000000000000000000000000000000000000000000000000000815260040180806020018281038252601e8152602001807f4d696e20616d6f756e74206d75737420677265617465207468616e203130000081525060200191505060405180910390fd5b600061267d3461266f606461266134600a54612c9a90919063ffffffff16565b612d2090919063ffffffff16565b612c1290919063ffffffff16565b9050803411156126f5576040517f08c379a000000000000000000000000000000000000000000000000000000000815260040180806020018281038252601e8152602001807f416d6f756e742063616e206e6f74206f766572206d617820616d6f756e74000081525060200191505060405180910390fd5b61270b6001600754612c1290919063ffffffff16565b6007819055506000612727600c54600a54600754600554612b86565b90508034101561279f576040517f08c379a000000000000000000000000000000000000000000000000000000000815260040180806020018281038252600c8152602001807f416d6f756e74206572726f72000000000000000000000000000000000000000081525060200191505060405180910390fd5b60006127ab333461344a565b9050600080905060016127cb600554600754612d2090919063ffffffff16565b106128c4576000612808655af3107a40006127fa655af3107a4000601460020154612d2090919063ffffffff16565b612c9a90919063ffffffff16565b90506128316064612823600584612c9a90919063ffffffff16565b612d2090919063ffffffff16565b915061285d8261284f83601460020154612e8290919063ffffffff16565b612c1290919063ffffffff16565b91506000600f60003373ffffffffffffffffffffffffffffffffffffffff1673ffffffffffffffffffffffffffffffffffffffff16815260200190815260200160002090506128b9838260020154612c1290919063ffffffff16565b816002018190555050505b6128cc6135fb565b6128d534613619565b61291182612903836128f534601460020154612c1290919063ffffffff16565b612e8290919063ffffffff16565b612e8290919063ffffffff16565b601460020181905550601460010160009054906101000a900473ffffffffffffffffffffffffffffffffffffffff16601460000160006101000a81548173ffffffffffffffffffffffffffffffffffffffff021916908373ffffffffffffffffffffffffffffffffffffffff16021790555033601460010160006101000a81548173ffffffffffffffffffffffffffffffffffffffff021916908373ffffffffffffffffffffffffffffffffffffffff16021790555034601460030181905550846014600401819055507f6afd9d1c30fce85d2b7bb21441c679ed5a43bba76809e463ff25788f59cf9a193334604051808373ffffffffffffffffffffffffffffffffffffffff1673ffffffffffffffffffffffffffffffffffffffff1681526020018281526020019250505060405180910390a15050505050565b60075481565b600260009054906101000a900473ffffffffffffffffffffffffffffffffffffffff1673ffffffffffffffffffffffffffffffffffffffff163373ffffffffffffffffffffffffffffffffffffffff1614612b16576040517f08c379a00000000000000000000000000000000000000000000000000000000081526004018080602001828103825260098152602001807f6e6f74206f776e6572000000000000000000000000000000000000000000000081525060200191505060405180910390fd5b80601060006101000a81548173ffffffffffffffffffffffffffffffffffffffff021916908373ffffffffffffffffffffffffffffffffffffffff16021790555050565b600b60009054906101000a900473ffffffffffffffffffffffffffffffffffffffff1681565b600a5481565b6000612be4612bd56064612bc7612bb8612ba98789612d2090919063ffffffff16565b89612c9a90919063ffffffff16565b89612c9a90919063ffffffff16565b612d2090919063ffffffff16565b86612c1290919063ffffffff16565b9050949350505050565b60016020528060005260406000206000915090505481565b60035481565b60045481565b600080828401905083811015612c90576040517f08c379a000000000000000000000000000000000000000000000000000000000815260040180806020018281038252601b8152602001807f536166654d6174683a206164646974696f6e206f766572666c6f77000000000081525060200191505060405180910390fd5b8091505092915050565b600080831415612cad5760009050612d1a565b6000828402905082848281612cbe57fe5b0414612d15576040517f08c379a000000000000000000000000000000000000000000000000000000000815260040180806020018281038252602181526020018061383a6021913960400191505060405180910390fd5b809150505b92915050565b6000612d6283836040518060400160405280601a81526020017f536166654d6174683a206469766973696f6e206279207a65726f000000000000815250613637565b905092915050565b60008373ffffffffffffffffffffffffffffffffffffffff168360405180600001905060006040518083038185875af1925050503d8060008114612dca576040519150601f19603f3d011682016040523d82523d6000602084013e612dcf565b606091505b50509050808290612e7b576040517f08c379a00000000000000000000000000000000000000000000000000000000081526004018080602001828103825283818151815260200191508051906020019080838360005b83811015612e40578082015181840152602081019050612e25565b50505050905090810190601f168015612e6d5780820380516001836020036101000a031916815260200191505b509250505060405180910390fd5b5050505050565b6000612ec483836040518060400160405280601e81526020017f536166654d6174683a207375627472616374696f6e206f766572666c6f7700008152506136fd565b905092915050565b612ed46137f4565b6040518060a00160405280601460010160009054906101000a900473ffffffffffffffffffffffffffffffffffffffff1673ffffffffffffffffffffffffffffffffffffffff1681526020016007548152602001600854815260200160146002015481526020014281525090506000601460010160009054906101000a900473ffffffffffffffffffffffffffffffffffffffff169080600181540180825580915050600190039060005260206000200160009091909190916101000a81548173ffffffffffffffffffffffffffffffffffffffff021916908373ffffffffffffffffffffffffffffffffffffffff160217905550601281908060018154018082558091505060019003906000526020600020906005020160009091909190915060008201518160000160006101000a81548173ffffffffffffffffffffffffffffffffffffffff021916908373ffffffffffffffffffffffffffffffffffffffff16021790555060208201518160010155604082015181600201556060820151816003015560808201518160040155505060136000601460010160009054906101000a900473ffffffffffffffffffffffffffffffffffffffff1673ffffffffffffffffffffffffffffffffffffffff1673ffffffffffffffffffffffffffffffffffffffff16815260200190815260200160002081908060018154018082558091505060019003906000526020600020906005020160009091909190915060008201518160000160006101000a81548173ffffffffffffffffffffffffffffffffffffffff021916908373ffffffffffffffffffffffffffffffffffffffff1602179055506020820151816001015560408201518160020155606082015181600301556080820151816004015550506000601460000160006101000a81548173ffffffffffffffffffffffffffffffffffffffff021916908373ffffffffffffffffffffffffffffffffffffffff1602179055506000601460010160006101000a81548173ffffffffffffffffffffffffffffffffffffffff021916908373ffffffffffffffffffffffffffffffffffffffff160217905550600c5460146003018190555060006014600401819055506000601460050181905550600060078190555050565b600060608573ffffffffffffffffffffffffffffffffffffffff166323b872dd868686604051602401808473ffffffffffffffffffffffffffffffffffffffff1673ffffffffffffffffffffffffffffffffffffffff1681526020018373ffffffffffffffffffffffffffffffffffffffff1673ffffffffffffffffffffffffffffffffffffffff16815260200182815260200193505050506040516020818303038152906040529060e01b6020820180517bffffffffffffffffffffffffffffffffffffffffffffffffffffffff83818316178352505050506040518082805190602001908083835b602083106133295780518252602082019150602081019050602083039250613306565b6001836020036101000a0380198251168184511680821785525050505050509050019150506000604051808303816000865af19150503d806000811461338b576040519150601f19603f3d011682016040523d82523d6000602084013e613390565b606091505b50915091508180156133d057506000815114806133cf57508080602001905160208110156133bd57600080fd5b81019080805190602001909291905050505b5b613442576040517f08c379a00000000000000000000000000000000000000000000000000000000081526004018080602001828103825260148152602001807f5452414e534645525f46524f4d5f4641494c454400000000000000000000000081525060200191505060405180910390fd5b505050505050565b600080601060009054906101000a900473ffffffffffffffffffffffffffffffffffffffff1673ffffffffffffffffffffffffffffffffffffffff1663732cfca0856040518263ffffffff1660e01b8152600401808273ffffffffffffffffffffffffffffffffffffffff1673ffffffffffffffffffffffffffffffffffffffff16815260200191505060206040518083038186803b1580156134ec57600080fd5b505afa158015613500573d6000803e3d6000fd5b505050506040513d602081101561351657600080fd5b810190808051906020019092919050505090506000809050600073ffffffffffffffffffffffffffffffffffffffff168273ffffffffffffffffffffffffffffffffffffffff16146135f05761358a606461357c86600954612c9a90919063ffffffff16565b612d2090919063ffffffff16565b90506000600f60008473ffffffffffffffffffffffffffffffffffffffff1673ffffffffffffffffffffffffffffffffffffffff16815260200190815260200160002090506135e6828260010154612c1290919063ffffffff16565b8160010181905550505b809250505092915050565b6136116001600854612c1290919063ffffffff16565b600881905550565b61362e81600654612c1290919063ffffffff16565b60068190555050565b600080831182906136e3576040517f08c379a00000000000000000000000000000000000000000000000000000000081526004018080602001828103825283818151815260200191508051906020019080838360005b838110156136a857808201518184015260208101905061368d565b50505050905090810190601f1680156136d55780820380516001836020036101000a031916815260200191505b509250505060405180910390fd5b5060008385816136ef57fe5b049050809150509392505050565b60008383111582906137aa576040517f08c379a00000000000000000000000000000000000000000000000000000000081526004018080602001828103825283818151815260200191508051906020019080838360005b8381101561376f578082015181840152602081019050613754565b50505050905090810190601f16801561379c5780820380516001836020036101000a031916815260200191505b509250505060405180910390fd5b5060008385039050809150509392505050565b6040518060600160405280600073ffffffffffffffffffffffffffffffffffffffff16815260200160008152602001600081525090565b6040518060a00160405280600073ffffffffffffffffffffffffffffffffffffffff16815260200160008152602001600081526020016000815260200160008152509056fe536166654d6174683a206d756c7469706c69636174696f6e206f766572666c6f77a264697066735822122005019d106f9fce9c722438d8ef0daf9dd7876f5de986e0b1b6d6b890e810b1e764736f6c63430006020033",
  "source": "pragma solidity >=0.6.0 <0.8.0;\nimport \"@openzeppelin/contracts/math/SafeMath.sol\";\nimport \"./SponsorWhitelistControl.sol\";\nimport \"./InviteInterface.sol\";\n\nimport \"@openzeppelin/contracts/token/ERC777/IERC777Recipient.sol\";\nimport \"@openzeppelin/contracts/token/ERC777/IERC777.sol\";\nimport \"@openzeppelin/contracts/introspection/IERC1820Registry.sol\";\n\ncontract Snatch is IERC777Recipient{\n\n    event SnatchPool(address _addr,uint256 _amount);\n    event WithdrawPool(address _owner, address _addr,uint256 _amount);\n\n    address[] public winnerAddresses;\n\n    mapping(address => uint256) public givers;\n\n    using SafeMath for uint256;\n\n    address snatchOwner;\n\n    uint256 public durationEndTime = 5*86400;\n\n    uint256 public durationTime = 1*3600;\n\n    uint256 public surprise = 100;\n\n    uint256 public totalAmount;\n\n    uint256 public snatchCount;\n\n    uint256 public totalSnatchCount;\n\n    uint256 public invitePercent = 10;\n\n    uint256 public increaseRange = 20;\n\n    address public platformAddress;\n\n    uint256 public submitAmount = 10e18;\n\n    uint256 public platformRate = 20;\n    uint256 public helperRate = 5;\n\n    mapping(address => Reward) rewards;\n\n    InviteInterface invite;\n\n    address public iERC777;\n\n    Winner[] public winners;\n\n    mapping(address => Winner[]) public winnerMap;\n\n    SnatchInfo snatchInfo;\n\n    struct Reward{\n        address owner;\n        uint256 inviteReward;\n        uint256 surprise;\n    }\n\n    struct SnatchInfo{\n        address lastOwner;\n        address tempOwner;\n        uint256 amount;\n        uint256 lastAmount;\n        uint256 lastTime;\n        uint256 startTime;\n    }\n\n    struct Winner{\n        address winner;\n        uint256 count;\n        uint256 scount;\n        uint256 amount;\n        uint256 winTime;\n    }\n\n    IERC1820Registry private _erc1820 = IERC1820Registry(0x88887eD889e776bCBe2f0f9932EcFaBcDfCd1820);\n\n    // keccak256(\"ERC777TokensRecipient\")\n    bytes32 constant private TOKENS_RECIPIENT_INTERFACE_HASH =\n        0xb281fc8c12954d22544db45de3159a39272895b169a852b314f9cc762e44c53b;\n\n\n    SponsorWhitelistControl public constant SPONSOR = SponsorWhitelistControl(\n        address(0x0888000000000000000000000000000000000001)\n    );\n\n    constructor(InviteInterface _invite,address _ierc777) public{\n        _erc1820.setInterfaceImplementer(address(this), TOKENS_RECIPIENT_INTERFACE_HASH, address(this));\n        \n        snatchOwner = msg.sender;\n        platformAddress = msg.sender;\n        snatchInfo = SnatchInfo(address(0),address(0),0,submitAmount,0,0);\n        invite = _invite;\n        iERC777 = _ierc777;\n        // register all users as sponsees\n        address[] memory users = new address[](1);\n        users[0] = address(0);\n        SPONSOR.addPrivilege(users);\n    }\n\n    modifier onlyOwner(){\n        require(msg.sender==snatchOwner,\"not owner\");\n        _;\n    }\n\n    function getCurrentSnatchInfo() view public returns(\n        address lastOwner,\n        address tempOwner,\n        uint256 amount,\n        uint256 _submitAmount,\n        uint256 lastAmount,\n        uint256 lastTime,\n        uint256 startTime,\n        uint256 _durationEndTime,\n        uint256 _durationTime,\n        uint256 _increaseRange,\n        uint256 _totalAmount,\n        uint256 _snatchCount,\n        uint256 _totalSnatchCount\n        ){\n            return (snatchInfo.lastOwner,snatchInfo.tempOwner,\n            snatchInfo.amount,submitAmount,snatchInfo.lastAmount,\n            snatchInfo.lastTime,snatchInfo.startTime,\n            durationEndTime,durationTime,increaseRange,totalAmount,snatchCount,totalSnatchCount\n            );\n    }\n\n    function getWinnerAddresses() view public returns(address[] memory _winners){\n        return winnerAddresses;\n    }\n\n    function setSubmitM(uint256 _amount) public onlyOwner(){\n        submitAmount = _amount;\n    }\n\n    function setInvitePercent(uint256 _invitePercent) public onlyOwner(){\n        invitePercent = _invitePercent;\n    }\n    function setInviteInterface(InviteInterface _invite) public onlyOwner(){\n        invite = _invite;\n    }\n\n    function setPlatform(address _platform) public onlyOwner(){\n        platformAddress = _platform;\n    }\n\n    function setSurprise(uint256 _surprise) public onlyOwner(){\n        surprise = _surprise;\n    }\n    \n    function setDuration(uint256 _durationTime,uint256 _durationEndTime) public onlyOwner(){\n        if(_durationTime!=0){\n            durationTime = _durationTime;\n        }\n        if(_durationEndTime!=0){\n            durationEndTime = _durationEndTime;\n        }\n    }\n\n    function setPlatformRate(uint256 _rate,uint256 _increaseRange) public onlyOwner(){\n        platformRate = _rate;\n        increaseRange = _increaseRange;\n    }\n\n    function getNow() view public returns(uint256){\n        return block.timestamp;\n    }\n\n    function getRewards(address _owner) view public returns(uint256 _inviteReward,uint256 _surprise){\n        Reward memory re = rewards[_owner];\n        return (re.inviteReward,re.surprise);\n    }\n\n    function snatchPool() payable public{\n        //get now\n        uint256 t = block.timestamp;\n        if(snatchInfo.startTime!=0){\n            require(snatchInfo.lastTime.add(durationTime) >= t, \"Over duration,game over\");\n            require(snatchInfo.startTime.add(durationEndTime) >= t, \"Game is expend over time\");\n        }else{\n            //set time like\n            snatchInfo.startTime = t;\n        }\n        // require(snatchInfo.tempOwner!=msg.sender,\"Can not repeat snatch\");\n        //cal amounnt\n        require(msg.value >= 10 ether,\"Min amount must greate than 10\");\n        uint256 rangeAmount = increaseRange.mul(msg.value).div(100).add(msg.value);\n        require(msg.value <= rangeAmount, \"Amount can not over max amount\");\n        // add count\n        snatchCount = snatchCount.add(1);\n        //check amount\n        uint256 nowAmount = calcRangeAmount(submitAmount,increaseRange,snatchCount,surprise);\n        require(msg.value >= nowAmount,\"Amount error\");\n        //\n        uint256 rest = checkInvite(msg.sender,msg.value);\n        uint256 reward = 0;\n        //\n        if(snatchCount.div(surprise)>=1){\n            //send 5%\n            //4\n            uint256 rem = snatchInfo.amount.div(1e14).mul(1e14);\n            reward = rem.mul(5).div(100);\n            reward = snatchInfo.amount.sub(rem).add(reward);\n            //\n            // transferEth(msg.sender, reward,\"Transfer snatch error\");\n            Reward storage senderReward = rewards[msg.sender];\n            senderReward.surprise = senderReward.surprise.add(reward);\n        }\n        addSnatchTotalCount();\n        addSnatchTotalAmount(msg.value);\n        //add amount\n        snatchInfo.amount = snatchInfo.amount.add(msg.value).sub(reward).sub(rest);\n        snatchInfo.lastOwner = snatchInfo.tempOwner;\n        snatchInfo.tempOwner = msg.sender;\n        snatchInfo.lastAmount = msg.value;\n        snatchInfo.lastTime = t;\n        emit SnatchPool(msg.sender,msg.value);\n    }\n\n    function checkInvite(address _sender,uint256 _value) internal returns(uint256 _restAmount){\n        address parent = invite.getUserSimpleInfo(_sender);\n        uint256 am = 0;\n        if(parent != address(0)){\n            am = invitePercent.mul(_value).div(100);\n            Reward storage rewardP = rewards[parent];\n            rewardP.inviteReward = rewardP.inviteReward.add(am);\n            // transferEth(parent, \n            //     am,\n            //     \"Transfer invite error\");\n        }\n        //\n        return am;\n    }\n\n    function withdrawPool() public{\n        require(snatchInfo.tempOwner == msg.sender,\"Not winner\");\n        require(snatchInfo.lastTime.add(durationTime) < block.timestamp\n            || snatchInfo.startTime.add(durationEndTime) < block.timestamp,\"Game is not over\");\n        require(snatchInfo.tempOwner!=address(0),\"Already withdraw\");\n        uint256 reward = snatchInfo.amount;\n        //r*10%\n        transferEth(platformAddress, reward.mul(platformRate).div(100),\"Transfer platform error\");\n        // r-r*10%\n        //50% to winner\n        transferEth(snatchInfo.tempOwner,reward.mul(50).div(100),\"Transfer winner error\");\n        //decimals\n        snatchInfo.amount = reward.sub(reward.mul(platformRate).div(100))\n                                        .sub(reward.mul(50).div(100));\n        emit WithdrawPool(msg.sender,msg.sender,reward.sub(reward.mul(50).div(100)));\n        initStatus();\n    }\n\n    function otherWithdraw() public {\n        require(snatchInfo.lastTime.add(durationTime) < block.timestamp\n            || snatchInfo.startTime.add(durationEndTime) < block.timestamp,\"Game is not over\");\n        require(snatchInfo.tempOwner!=address(0),\"Other already withdraw\");\n        uint256 reward = snatchInfo.amount;\n        //platform 10%\n        transferEth(platformAddress, reward.mul(platformRate).div(100),\"Other transfer platform error\");\n        //win 45%\n        transferEth(snatchInfo.tempOwner,reward.mul(45).div(100),\"Other transfer winner error\");\n        //win 5%\n        transferEth(msg.sender,reward.mul(helperRate).div(100),\"Other transfer helper error\");\n        //40% decimals\n        snatchInfo.amount = reward.sub(reward.mul(platformRate).div(100))\n                                    .sub(reward.mul(45).div(100))\n                                    .sub(reward.mul(helperRate).div(100));\n        emit WithdrawPool(snatchInfo.tempOwner,\n                            msg.sender,\n                            reward.sub(reward.mul(45).div(100)));\n        initStatus();\n    }\n\n    function withdrawReward(address _owner) public{\n        Reward storage reward = rewards[_owner];\n        uint256 r = reward.inviteReward.add(reward.surprise);\n        require(r > 0,\"No reward\");\n        reward.inviteReward = 0;\n        reward.surprise = 0;\n        transferEth(_owner, r, \"transfer reward error\");\n    }\n\n    function addSnatchTotalAmount(uint256 _amount) internal{\n        totalAmount = totalAmount.add(_amount);\n    }\n\n    function addSnatchTotalCount() internal{\n        totalSnatchCount = totalSnatchCount.add(1);\n    }\n\n    function initStatus() internal{\n        Winner memory winner = Winner(snatchInfo.tempOwner,\n                        snatchCount,totalSnatchCount,\n                        snatchInfo.amount,block.timestamp);\n        winnerAddresses.push(snatchInfo.tempOwner);\n        winners.push(winner);\n        winnerMap[snatchInfo.tempOwner].push(winner);\n        snatchInfo.lastOwner = address(0);\n        snatchInfo.tempOwner = address(0);\n        snatchInfo.lastAmount = submitAmount;\n        snatchInfo.lastTime = 0;\n        snatchInfo.startTime = 0;\n        snatchCount = 0;\n    }\n   \n    function exchangeRest(uint256 _amount) public{\n        require(snatchInfo.startTime == 0,\"Not over\");\n        require(snatchInfo.amount > 0,\"No amount\");\n        //\n        safeTransferFrom(iERC777,msg.sender,address(this), _amount);\n        //cfx\n        transferEth(msg.sender,_amount,\"Exchange rest transfer error\");\n        snatchInfo.amount = snatchInfo.amount.sub(_amount);\n    }\n\n    function getPlatformCoin(uint256 _amount) public onlyOwner(){\n        IERC777 it = IERC777(iERC777);\n        it.send(address(this), _amount, \"\");\n    }\n\n    function transferEth(address _address, uint256 _value,string memory message) internal{\n        (bool res, ) = address(uint160(_address)).call{value:_value}(\"\");\n        require(res,message);\n    }\n\n    function safeTransferFrom(address token, address from, address to, uint value) internal {\n        // bytes4(keccak256(bytes('transferFrom(address,address,uint256)')));\n        //transfer ERC20 Token\n        (bool success, bytes memory data) = token.call(abi.encodeWithSelector(0x23b872dd, from, to, value));\n        require(success && (data.length == 0 || abi.decode(data, (bool))), 'TRANSFER_FROM_FAILED');\n    }\n\n    function calcRangeAmount(uint256 _amount,uint256 _rate,uint256 _count,uint256 _sCount) pure public returns(uint256){\n        return _amount.add(_amount.mul(_rate.mul(_count.div(_sCount))).div(100));\n    }\n\n    function tokensReceived(\n      address operator,\n      address from,\n      address to,\n      uint amount,\n      bytes calldata userData,\n      bytes calldata operatorData\n    ) external override{\n        givers[from] += amount;\n    }\n\n    receive() external payable {}\n\n}",
  "sourcePath": "/Users/wangban/Downloads/money/coin/chk/chksol/contracts/Snatch.sol",
  "compiler": {
    "name": "solc",
    "version": "0.6.2+commit.bacdbe57.Emscripten.clang"
  },
  "schemaVersion": "3.2.0",
  "updatedAt": "2021-01-19T04:51:24.211Z",
  "devdoc": {
    "methods": {}
  },
  "userdoc": {
    "methods": {}
  }
}