{
  "contractName": "Snatch",
  "abi": [
    {
      "inputs": [],
      "stateMutability": "nonpayable",
      "type": "constructor"
    },
    {
      "anonymous": false,
      "inputs": [
        {
          "indexed": false,
          "internalType": "address",
          "name": "_addr",
          "type": "address"
        },
        {
          "indexed": false,
          "internalType": "uint256",
          "name": "_amount",
          "type": "uint256"
        }
      ],
      "name": "SnatchPool",
      "type": "event"
    },
    {
      "anonymous": false,
      "inputs": [
        {
          "indexed": false,
          "internalType": "address",
          "name": "_owner",
          "type": "address"
        },
        {
          "indexed": false,
          "internalType": "address",
          "name": "_addr",
          "type": "address"
        },
        {
          "indexed": false,
          "internalType": "uint256",
          "name": "_amount",
          "type": "uint256"
        }
      ],
      "name": "WithdrawPool",
      "type": "event"
    },
    {
      "inputs": [],
      "name": "durationEndTime",
      "outputs": [
        {
          "internalType": "uint256",
          "name": "",
          "type": "uint256"
        }
      ],
      "stateMutability": "view",
      "type": "function"
    },
    {
      "inputs": [],
      "name": "durationTime",
      "outputs": [
        {
          "internalType": "uint256",
          "name": "",
          "type": "uint256"
        }
      ],
      "stateMutability": "view",
      "type": "function"
    },
    {
      "inputs": [],
      "name": "increaseRange",
      "outputs": [
        {
          "internalType": "uint256",
          "name": "",
          "type": "uint256"
        }
      ],
      "stateMutability": "view",
      "type": "function"
    },
    {
      "inputs": [],
      "name": "platformAddress",
      "outputs": [
        {
          "internalType": "address",
          "name": "",
          "type": "address"
        }
      ],
      "stateMutability": "view",
      "type": "function"
    },
    {
      "inputs": [],
      "name": "snatchCount",
      "outputs": [
        {
          "internalType": "uint256",
          "name": "",
          "type": "uint256"
        }
      ],
      "stateMutability": "view",
      "type": "function"
    },
    {
      "inputs": [],
      "name": "totalAmount",
      "outputs": [
        {
          "internalType": "uint256",
          "name": "",
          "type": "uint256"
        }
      ],
      "stateMutability": "view",
      "type": "function"
    },
    {
      "inputs": [],
      "name": "totalSnatchCount",
      "outputs": [
        {
          "internalType": "uint256",
          "name": "",
          "type": "uint256"
        }
      ],
      "stateMutability": "view",
      "type": "function"
    },
    {
      "inputs": [
        {
          "internalType": "uint256",
          "name": "",
          "type": "uint256"
        }
      ],
      "name": "winnerAddresses",
      "outputs": [
        {
          "internalType": "address",
          "name": "",
          "type": "address"
        }
      ],
      "stateMutability": "view",
      "type": "function"
    },
    {
      "inputs": [
        {
          "internalType": "address",
          "name": "",
          "type": "address"
        },
        {
          "internalType": "uint256",
          "name": "",
          "type": "uint256"
        }
      ],
      "name": "winnerMap",
      "outputs": [
        {
          "internalType": "address",
          "name": "winner",
          "type": "address"
        },
        {
          "internalType": "uint256",
          "name": "count",
          "type": "uint256"
        },
        {
          "internalType": "uint256",
          "name": "scount",
          "type": "uint256"
        },
        {
          "internalType": "uint256",
          "name": "amount",
          "type": "uint256"
        },
        {
          "internalType": "uint256",
          "name": "winTime",
          "type": "uint256"
        }
      ],
      "stateMutability": "view",
      "type": "function"
    },
    {
      "inputs": [
        {
          "internalType": "uint256",
          "name": "",
          "type": "uint256"
        }
      ],
      "name": "winners",
      "outputs": [
        {
          "internalType": "address",
          "name": "winner",
          "type": "address"
        },
        {
          "internalType": "uint256",
          "name": "count",
          "type": "uint256"
        },
        {
          "internalType": "uint256",
          "name": "scount",
          "type": "uint256"
        },
        {
          "internalType": "uint256",
          "name": "amount",
          "type": "uint256"
        },
        {
          "internalType": "uint256",
          "name": "winTime",
          "type": "uint256"
        }
      ],
      "stateMutability": "view",
      "type": "function"
    },
    {
      "inputs": [],
      "name": "getCurrentSnatchInfo",
      "outputs": [
        {
          "internalType": "address",
          "name": "lastOwner",
          "type": "address"
        },
        {
          "internalType": "address",
          "name": "tempOwner",
          "type": "address"
        },
        {
          "internalType": "uint256",
          "name": "amount",
          "type": "uint256"
        },
        {
          "internalType": "uint256",
          "name": "submitAmount",
          "type": "uint256"
        },
        {
          "internalType": "uint256",
          "name": "lastAmount",
          "type": "uint256"
        },
        {
          "internalType": "uint256",
          "name": "lastTime",
          "type": "uint256"
        },
        {
          "internalType": "uint256",
          "name": "startTime",
          "type": "uint256"
        },
        {
          "internalType": "uint256",
          "name": "_durationEndTime",
          "type": "uint256"
        },
        {
          "internalType": "uint256",
          "name": "_durationTime",
          "type": "uint256"
        },
        {
          "internalType": "uint256",
          "name": "_increaseRange",
          "type": "uint256"
        },
        {
          "internalType": "uint256",
          "name": "_totalAmount",
          "type": "uint256"
        },
        {
          "internalType": "uint256",
          "name": "_snatchCount",
          "type": "uint256"
        },
        {
          "internalType": "uint256",
          "name": "_totalSnatchCount",
          "type": "uint256"
        }
      ],
      "stateMutability": "view",
      "type": "function"
    },
    {
      "inputs": [],
      "name": "getWinnerAddresses",
      "outputs": [
        {
          "internalType": "address[]",
          "name": "_winners",
          "type": "address[]"
        }
      ],
      "stateMutability": "view",
      "type": "function"
    },
    {
      "inputs": [
        {
          "internalType": "address",
          "name": "_platform",
          "type": "address"
        }
      ],
      "name": "setPlatform",
      "outputs": [],
      "stateMutability": "nonpayable",
      "type": "function"
    },
    {
      "inputs": [
        {
          "internalType": "uint256",
          "name": "_durationTime",
          "type": "uint256"
        },
        {
          "internalType": "uint256",
          "name": "_durationEndTime",
          "type": "uint256"
        }
      ],
      "name": "setDuration",
      "outputs": [],
      "stateMutability": "nonpayable",
      "type": "function"
    },
    {
      "inputs": [
        {
          "internalType": "uint256",
          "name": "_rate",
          "type": "uint256"
        },
        {
          "internalType": "uint256",
          "name": "_increaseRange",
          "type": "uint256"
        }
      ],
      "name": "setPlatformRate",
      "outputs": [],
      "stateMutability": "nonpayable",
      "type": "function"
    },
    {
      "inputs": [],
      "name": "getNow",
      "outputs": [
        {
          "internalType": "uint256",
          "name": "",
          "type": "uint256"
        }
      ],
      "stateMutability": "view",
      "type": "function"
    },
    {
      "inputs": [],
      "name": "snatchPool",
      "outputs": [],
      "stateMutability": "payable",
      "type": "function"
    },
    {
      "inputs": [],
      "name": "withdrawPool",
      "outputs": [],
      "stateMutability": "nonpayable",
      "type": "function"
    },
    {
      "inputs": [],
      "name": "otherWithdraw",
      "outputs": [],
      "stateMutability": "nonpayable",
      "type": "function"
    }
  ],
  "bytecode": "0x608060405262093a806002556146506003556014600755600a6009556002600a5534801561002c57600080fd5b5033600160006101000a81548173ffffffffffffffffffffffffffffffffffffffff021916908373ffffffffffffffffffffffffffffffffffffffff16021790555033600860006101000a81548173ffffffffffffffffffffffffffffffffffffffff021916908373ffffffffffffffffffffffffffffffffffffffff1602179055506040518060e00160405280600073ffffffffffffffffffffffffffffffffffffffff168152602001600073ffffffffffffffffffffffffffffffffffffffff168152602001670de0b6b3a76400008152602001670de0b6b3a7640000815260200160008152602001600081526020016000815250600d60008201518160000160006101000a81548173ffffffffffffffffffffffffffffffffffffffff021916908373ffffffffffffffffffffffffffffffffffffffff16021790555060208201518160010160006101000a81548173ffffffffffffffffffffffffffffffffffffffff021916908373ffffffffffffffffffffffffffffffffffffffff16021790555060408201518160020155606082015181600301556080820151816004015560a0820151816005015560c08201518160060155905050611fa6806101f76000396000f3fe6080604052600436106101145760003560e01c8063a2fb1175116100a0578063d2a4a44011610064578063d2a4a440146105b9578063dbe55e56146105e4578063e280b8b21461063b578063f0902b2014610666578063f8b75fb51461069157610114565b8063a2fb117514610491578063af42242d14610528578063bbe4fd501461053f578063cd7ea0951461056a578063d07cae9d146105af57610114565b80632a5913f5116100e75780632a5913f5146102565780634679689c1461030d5780635c42c733146103e45780636945c5ea146103fb578063a1672bbe1461044c57610114565b8063045f9c97146101195780630fdfc0c8146101945780631a39d8ef146101bf5780631ef9c56f146101ea575b600080fd5b34801561012557600080fd5b506101526004803603602081101561013c57600080fd5b81019080803590602001909291905050506106bc565b604051808273ffffffffffffffffffffffffffffffffffffffff1673ffffffffffffffffffffffffffffffffffffffff16815260200191505060405180910390f35b3480156101a057600080fd5b506101a96106f8565b6040518082815260200191505060405180910390f35b3480156101cb57600080fd5b506101d46106fe565b6040518082815260200191505060405180910390f35b3480156101f657600080fd5b506101ff610704565b6040518080602001828103825283818151815260200191508051906020019060200280838360005b83811015610242578082015181840152602081019050610227565b505050509050019250505060405180910390f35b34801561026257600080fd5b506102af6004803603604081101561027957600080fd5b81019080803573ffffffffffffffffffffffffffffffffffffffff16906020019092919080359060200190929190505050610792565b604051808673ffffffffffffffffffffffffffffffffffffffff1673ffffffffffffffffffffffffffffffffffffffff1681526020018581526020018481526020018381526020018281526020019550505050505060405180910390f35b34801561031957600080fd5b50610322610802565b604051808e73ffffffffffffffffffffffffffffffffffffffff1673ffffffffffffffffffffffffffffffffffffffff1681526020018d73ffffffffffffffffffffffffffffffffffffffff1673ffffffffffffffffffffffffffffffffffffffff1681526020018c81526020018b81526020018a81526020018981526020018881526020018781526020018681526020018581526020018481526020018381526020018281526020019d505050505050505050505050505060405180910390f35b3480156103f057600080fd5b506103f96108bb565b005b34801561040757600080fd5b5061044a6004803603602081101561041e57600080fd5b81019080803573ffffffffffffffffffffffffffffffffffffffff169060200190929190505050610bda565b005b34801561045857600080fd5b5061048f6004803603604081101561046f57600080fd5b810190808035906020019092919080359060200190929190505050610ce1565b005b34801561049d57600080fd5b506104ca600480360360208110156104b457600080fd5b8101908080359060200190929190505050610db6565b604051808673ffffffffffffffffffffffffffffffffffffffff1673ffffffffffffffffffffffffffffffffffffffff1681526020018581526020018481526020018381526020018281526020019550505050505060405180910390f35b34801561053457600080fd5b5061053d610e19565b005b34801561054b57600080fd5b50610554611102565b6040518082815260200191505060405180910390f35b34801561057657600080fd5b506105ad6004803603604081101561058d57600080fd5b81019080803590602001909291908035906020019092919050505061110a565b005b6105b76111f1565b005b3480156105c557600080fd5b506105ce61170f565b6040518082815260200191505060405180910390f35b3480156105f057600080fd5b506105f9611715565b604051808273ffffffffffffffffffffffffffffffffffffffff1673ffffffffffffffffffffffffffffffffffffffff16815260200191505060405180910390f35b34801561064757600080fd5b5061065061173b565b6040518082815260200191505060405180910390f35b34801561067257600080fd5b5061067b611741565b6040518082815260200191505060405180910390f35b34801561069d57600080fd5b506106a6611747565b6040518082815260200191505060405180910390f35b600081815481106106c957fe5b906000526020600020016000915054906101000a900473ffffffffffffffffffffffffffffffffffffffff1681565b60065481565b60045481565b6060600080548060200260200160405190810160405280929190818152602001828054801561078857602002820191906000526020600020905b8160009054906101000a900473ffffffffffffffffffffffffffffffffffffffff1673ffffffffffffffffffffffffffffffffffffffff168152602001906001019080831161073e575b5050505050905090565b600c60205281600052604060002081815481106107ab57fe5b9060005260206000209060050201600091509150508060000160009054906101000a900473ffffffffffffffffffffffffffffffffffffffff16908060010154908060020154908060030154908060040154905085565b6000806000806000806000806000806000806000600d60000160009054906101000a900473ffffffffffffffffffffffffffffffffffffffff16600d60010160009054906101000a900473ffffffffffffffffffffffffffffffffffffffff16600d60020154600d60030154600d60040154600d60050154600d600601546002546003546007546004546005546006549c509c509c509c509c509c509c509c509c509c509c509c509c50909192939495969798999a9b9c565b3373ffffffffffffffffffffffffffffffffffffffff16600d60010160009054906101000a900473ffffffffffffffffffffffffffffffffffffffff1673ffffffffffffffffffffffffffffffffffffffff1614610981576040517f08c379a000000000000000000000000000000000000000000000000000000000815260040180806020018281038252600a8152602001807f4e6f742077696e6e65720000000000000000000000000000000000000000000081525060200191505060405180910390fd5b4261099c600354600d6005015461174d90919063ffffffff16565b10806109c05750426109be600254600d6006015461174d90919063ffffffff16565b105b610a32576040517f08c379a00000000000000000000000000000000000000000000000000000000081526004018080602001828103825260108152602001807f47616d65206973206e6f74206f7665720000000000000000000000000000000081525060200191505060405180910390fd5b6000600d600201549050610a8f600860009054906101000a900473ffffffffffffffffffffffffffffffffffffffff16610a8a6064610a7c600954866117d590919063ffffffff16565b61185b90919063ffffffff16565b6118a5565b610af7600d60010160009054906101000a900473ffffffffffffffffffffffffffffffffffffffff16610af2610ae36064610ad5600954876117d590919063ffffffff16565b61185b90919063ffffffff16565b8461198690919063ffffffff16565b6118a5565b7f1993aa2090edc0bad979d5f16efd6e3c23b084dc8356e9b2fe900406c7ba03893333610b54610b456064610b37600954886117d590919063ffffffff16565b61185b90919063ffffffff16565b8561198690919063ffffffff16565b604051808473ffffffffffffffffffffffffffffffffffffffff1673ffffffffffffffffffffffffffffffffffffffff1681526020018373ffffffffffffffffffffffffffffffffffffffff1673ffffffffffffffffffffffffffffffffffffffff168152602001828152602001935050505060405180910390a1610bd76119d0565b50565b600160009054906101000a900473ffffffffffffffffffffffffffffffffffffffff1673ffffffffffffffffffffffffffffffffffffffff163373ffffffffffffffffffffffffffffffffffffffff1614610c9d576040517f08c379a00000000000000000000000000000000000000000000000000000000081526004018080602001828103825260098152602001807f6e6f74206f776e6572000000000000000000000000000000000000000000000081525060200191505060405180910390fd5b80600860006101000a81548173ffffffffffffffffffffffffffffffffffffffff021916908373ffffffffffffffffffffffffffffffffffffffff16021790555050565b600160009054906101000a900473ffffffffffffffffffffffffffffffffffffffff1673ffffffffffffffffffffffffffffffffffffffff163373ffffffffffffffffffffffffffffffffffffffff1614610da4576040517f08c379a00000000000000000000000000000000000000000000000000000000081526004018080602001828103825260098152602001807f6e6f74206f776e6572000000000000000000000000000000000000000000000081525060200191505060405180910390fd5b81600981905550806007819055505050565b600b8181548110610dc357fe5b90600052602060002090600502016000915090508060000160009054906101000a900473ffffffffffffffffffffffffffffffffffffffff16908060010154908060020154908060030154908060040154905085565b42610e34600354600d6005015461174d90919063ffffffff16565b1080610e58575042610e56600254600d6006015461174d90919063ffffffff16565b105b610eca576040517f08c379a00000000000000000000000000000000000000000000000000000000081526004018080602001828103825260108152602001807f47616d65206973206e6f74206f7665720000000000000000000000000000000081525060200191505060405180910390fd5b6000600d600201549050610f27600860009054906101000a900473ffffffffffffffffffffffffffffffffffffffff16610f226064610f14600954866117d590919063ffffffff16565b61185b90919063ffffffff16565b6118a5565b610fa3600d60010160009054906101000a900473ffffffffffffffffffffffffffffffffffffffff16610f9e610f8f6064610f81610f72600a5460095461174d90919063ffffffff16565b876117d590919063ffffffff16565b61185b90919063ffffffff16565b8461198690919063ffffffff16565b6118a5565b610fe633610fe1610fd26064610fc4600a54876117d590919063ffffffff16565b61185b90919063ffffffff16565b8461198690919063ffffffff16565b6118a5565b7f1993aa2090edc0bad979d5f16efd6e3c23b084dc8356e9b2fe900406c7ba0389600d60010160009054906101000a900473ffffffffffffffffffffffffffffffffffffffff163361107c61106d606461105f611050600a5460095461174d90919063ffffffff16565b886117d590919063ffffffff16565b61185b90919063ffffffff16565b8561198690919063ffffffff16565b604051808473ffffffffffffffffffffffffffffffffffffffff1673ffffffffffffffffffffffffffffffffffffffff1681526020018373ffffffffffffffffffffffffffffffffffffffff1673ffffffffffffffffffffffffffffffffffffffff168152602001828152602001935050505060405180910390a16110ff6119d0565b50565b600042905090565b600160009054906101000a900473ffffffffffffffffffffffffffffffffffffffff1673ffffffffffffffffffffffffffffffffffffffff163373ffffffffffffffffffffffffffffffffffffffff16146111cd576040517f08c379a00000000000000000000000000000000000000000000000000000000081526004018080602001828103825260098152602001807f6e6f74206f776e6572000000000000000000000000000000000000000000000081525060200191505060405180910390fd5b600082146111dd57816003819055505b600081146111ed57806002819055505b5050565b670de0b6b3a764000034101561126f576040517f08c379a000000000000000000000000000000000000000000000000000000000815260040180806020018281038252601d8152602001807f4d696e20616d6f756e74206d75737420677265617465207468616e203100000081525060200191505060405180910390fd5b60004290506000600d60060154146113a4578061129c600354600d6005015461174d90919063ffffffff16565b1015611310576040517f08c379a00000000000000000000000000000000000000000000000000000000081526004018080602001828103825260178152602001807f4f766572206475726174696f6e2c67616d65206f76657200000000000000000081525060200191505060405180910390fd5b8061132b600254600d6006015461174d90919063ffffffff16565b101561139f576040517f08c379a00000000000000000000000000000000000000000000000000000000081526004018080602001828103825260188152602001807f47616d6520697320657870656e64206f7665722074696d65000000000000000081525060200191505060405180910390fd5b6113af565b80600d600601819055505b3373ffffffffffffffffffffffffffffffffffffffff16600d60000160009054906101000a900473ffffffffffffffffffffffffffffffffffffffff1673ffffffffffffffffffffffffffffffffffffffff161415611476576040517f08c379a00000000000000000000000000000000000000000000000000000000081526004018080602001828103825260158152602001807f43616e206e6f742072657065617420736e61746368000000000000000000000081525060200191505060405180910390fd5b600d600401543410156114f1576040517f08c379a000000000000000000000000000000000000000000000000000000000815260040180806020018281038252600c8152602001807f416d6f756e74206572726f72000000000000000000000000000000000000000081525060200191505060405180910390fd5b600061152d3461151f6064611511346007546117d590919063ffffffff16565b61185b90919063ffffffff16565b61174d90919063ffffffff16565b9050803411156115a5576040517f08c379a000000000000000000000000000000000000000000000000000000000815260040180806020018281038252601e8152602001807f416d6f756e742063616e206e6f74206f766572206d617820616d6f756e74000081525060200191505060405180910390fd5b6115bd34600d6002015461174d90919063ffffffff16565b600d60020181905550600d60010160009054906101000a900473ffffffffffffffffffffffffffffffffffffffff16600d60000160006101000a81548173ffffffffffffffffffffffffffffffffffffffff021916908373ffffffffffffffffffffffffffffffffffffffff16021790555033600d60010160006101000a81548173ffffffffffffffffffffffffffffffffffffffff021916908373ffffffffffffffffffffffffffffffffffffffff16021790555034600d6004018190555081600d6005018190555061168f611d2a565b61169834611d48565b6116a0611d66565b7f6afd9d1c30fce85d2b7bb21441c679ed5a43bba76809e463ff25788f59cf9a193334604051808373ffffffffffffffffffffffffffffffffffffffff1673ffffffffffffffffffffffffffffffffffffffff1681526020018281526020019250505060405180910390a15050565b60055481565b600860009054906101000a900473ffffffffffffffffffffffffffffffffffffffff1681565b60075481565b60025481565b60035481565b6000808284019050838110156117cb576040517f08c379a000000000000000000000000000000000000000000000000000000000815260040180806020018281038252601b8152602001807f536166654d6174683a206164646974696f6e206f766572666c6f77000000000081525060200191505060405180910390fd5b8091505092915050565b6000808314156117e85760009050611855565b60008284029050828482816117f957fe5b0414611850576040517f08c379a0000000000000000000000000000000000000000000000000000000008152600401808060200182810382526021815260200180611f506021913960400191505060405180910390fd5b809150505b92915050565b600061189d83836040518060400160405280601a81526020017f536166654d6174683a206469766973696f6e206279207a65726f000000000000815250611d84565b905092915050565b60008273ffffffffffffffffffffffffffffffffffffffff168260405180600001905060006040518083038185875af1925050503d8060008114611905576040519150601f19603f3d011682016040523d82523d6000602084013e61190a565b606091505b5050905080611981576040517f08c379a00000000000000000000000000000000000000000000000000000000081526004018080602001828103825260128152602001807f5452414e5346455220455448204552524f52000000000000000000000000000081525060200191505060405180910390fd5b505050565b60006119c883836040518060400160405280601e81526020017f536166654d6174683a207375627472616374696f6e206f766572666c6f770000815250611e4a565b905092915050565b6119d8611f0a565b6040518060a00160405280600d60010160009054906101000a900473ffffffffffffffffffffffffffffffffffffffff1673ffffffffffffffffffffffffffffffffffffffff16815260200160055481526020016006548152602001600d6002015481526020014281525090506000600d60010160009054906101000a900473ffffffffffffffffffffffffffffffffffffffff169080600181540180825580915050600190039060005260206000200160009091909190916101000a81548173ffffffffffffffffffffffffffffffffffffffff021916908373ffffffffffffffffffffffffffffffffffffffff160217905550600b81908060018154018082558091505060019003906000526020600020906005020160009091909190915060008201518160000160006101000a81548173ffffffffffffffffffffffffffffffffffffffff021916908373ffffffffffffffffffffffffffffffffffffffff160217905550602082015181600101556040820151816002015560608201518160030155608082015181600401555050600c6000600d60010160009054906101000a900473ffffffffffffffffffffffffffffffffffffffff1673ffffffffffffffffffffffffffffffffffffffff1673ffffffffffffffffffffffffffffffffffffffff16815260200190815260200160002081908060018154018082558091505060019003906000526020600020906005020160009091909190915060008201518160000160006101000a81548173ffffffffffffffffffffffffffffffffffffffff021916908373ffffffffffffffffffffffffffffffffffffffff1602179055506020820151816001015560408201518160020155606082015181600301556080820151816004015550506000600d60000160006101000a81548173ffffffffffffffffffffffffffffffffffffffff021916908373ffffffffffffffffffffffffffffffffffffffff1602179055506000600d60010160006101000a81548173ffffffffffffffffffffffffffffffffffffffff021916908373ffffffffffffffffffffffffffffffffffffffff1602179055506000600d600201819055506000600d600401819055506000600d600501819055506000600d60060181905550600060058190555050565b611d40600160065461174d90919063ffffffff16565b600681905550565b611d5d8160045461174d90919063ffffffff16565b60048190555050565b611d7c600160055461174d90919063ffffffff16565b600581905550565b60008083118290611e30576040517f08c379a00000000000000000000000000000000000000000000000000000000081526004018080602001828103825283818151815260200191508051906020019080838360005b83811015611df5578082015181840152602081019050611dda565b50505050905090810190601f168015611e225780820380516001836020036101000a031916815260200191505b509250505060405180910390fd5b506000838581611e3c57fe5b049050809150509392505050565b6000838311158290611ef7576040517f08c379a00000000000000000000000000000000000000000000000000000000081526004018080602001828103825283818151815260200191508051906020019080838360005b83811015611ebc578082015181840152602081019050611ea1565b50505050905090810190601f168015611ee95780820380516001836020036101000a031916815260200191505b509250505060405180910390fd5b5060008385039050809150509392505050565b6040518060a00160405280600073ffffffffffffffffffffffffffffffffffffffff16815260200160008152602001600081526020016000815260200160008152509056fe536166654d6174683a206d756c7469706c69636174696f6e206f766572666c6f77a26469706673582212205880f5e1fe1fd8c56a1968603b2308f310bb2cf07b4d08ad4bc67f862f0b19c364736f6c63430006020033",
  "source": "pragma solidity >=0.6.0 <0.8.0;\nimport \"@openzeppelin/contracts/math/SafeMath.sol\";\n\ncontract Snatch{\n\n    event SnatchPool(address _addr,uint256 _amount);\n    event WithdrawPool(address _owner, address _addr,uint256 _amount);\n\n    address[] public winnerAddresses;\n\n    using SafeMath for uint256;\n\n    address snatchOwner;\n\n    uint256 public durationEndTime = 7*86400;\n\n    uint256 public durationTime = 5*3600;\n\n    uint256 public totalAmount;\n\n    uint256 public snatchCount;\n\n    uint256 public totalSnatchCount;\n\n    uint256 public increaseRange = 20;\n\n    address public platformAddress;\n\n    uint256 platformRate=10;\n    uint256 helperRate=2;\n\n    Winner[] public winners;\n\n    mapping(address => Winner[]) public winnerMap;\n\n    SnatchInfo snatchInfo;\n\n    struct SnatchInfo{\n        address lastOwner;\n        address tempOwner;\n        uint256 amount;\n        uint256 submitAmount;\n        uint256 lastAmount;\n        uint256 lastTime;\n        uint256 startTime;\n    }\n\n    struct Winner{\n        address winner;\n        uint256 count;\n        uint256 scount;\n        uint256 amount;\n        uint256 winTime;\n    }\n\n    constructor() public{\n        snatchOwner = msg.sender;\n        platformAddress = msg.sender;\n        snatchInfo = SnatchInfo(address(0),address(0),1e18,1e18,0,0,0);\n    }\n\n    modifier onlyOwner(){\n        require(msg.sender==snatchOwner,\"not owner\");\n        _;\n    }\n\n    function getCurrentSnatchInfo() view public returns(address lastOwner,\n        address tempOwner,\n        uint256 amount,\n        uint256 submitAmount,\n        uint256 lastAmount,\n        uint256 lastTime,\n        uint256 startTime,\n        uint256 _durationEndTime,\n        uint256 _durationTime,\n        uint256 _increaseRange,\n        uint256 _totalAmount,\n        uint256 _snatchCount,\n        uint256 _totalSnatchCount\n        ){\n            return (snatchInfo.lastOwner,snatchInfo.tempOwner,\n            snatchInfo.amount,snatchInfo.submitAmount,snatchInfo.lastAmount,\n            snatchInfo.lastTime,snatchInfo.startTime,\n            durationEndTime,durationTime,increaseRange,totalAmount,snatchCount,totalSnatchCount\n            );\n    }\n\n    function getWinnerAddresses() view public returns(address[] memory _winners){\n        return winnerAddresses;\n    }\n\n    function setPlatform(address _platform) public onlyOwner(){\n        platformAddress = _platform;\n    }\n    \n    function setDuration(uint256 _durationTime,uint256 _durationEndTime) public onlyOwner(){\n        if(_durationTime!=0){\n            durationTime = _durationTime;\n        }\n        if(_durationEndTime!=0){\n            durationEndTime = _durationEndTime;\n        }\n    }\n\n    function setPlatformRate(uint256 _rate,uint256 _increaseRange) public onlyOwner(){\n        platformRate = _rate;\n        increaseRange = _increaseRange;\n    }\n\n    function getNow() view public returns(uint256){\n        return block.timestamp;\n    }\n\n    function snatchPool() payable public{\n        require(msg.value >= 1 ether,\"Min amount must greate than 1\");\n        //get now\n        uint256 t = block.timestamp;\n        if(snatchInfo.startTime!=0){\n            require(snatchInfo.lastTime.add(durationTime) >= t, \"Over duration,game over\");\n            require(snatchInfo.startTime.add(durationEndTime) >= t, \"Game is expend over time\");\n        }else{\n            //set time like\n            snatchInfo.startTime = t;\n        }\n        require(snatchInfo.lastOwner!=msg.sender,\"Can not repeat snatch\");\n        require(msg.value >= snatchInfo.lastAmount, \"Amount error\");\n        uint256 rangeAmount = increaseRange.mul(msg.value).div(100).add(msg.value);\n        require(msg.value <= rangeAmount, \"Amount can not over max amount\");\n        //add amount\n        snatchInfo.amount = snatchInfo.amount.add(msg.value);\n        snatchInfo.lastOwner = snatchInfo.tempOwner;\n        snatchInfo.tempOwner = msg.sender;\n        snatchInfo.lastAmount = msg.value;\n        snatchInfo.lastTime = t;\n        // add count\n        addSnatchTotalCount();\n        addSnatchTotalAmount(msg.value);\n        addSnatchCount();\n        emit SnatchPool(msg.sender,msg.value);\n    }\n\n    function withdrawPool() public{\n        require(snatchInfo.tempOwner == msg.sender,\"Not winner\");\n        require(snatchInfo.lastTime.add(durationTime) < block.timestamp\n            || snatchInfo.startTime.add(durationEndTime) < block.timestamp,\"Game is not over\");\n        //10%\n        uint256 reward = snatchInfo.amount;\n        transferEth(platformAddress, reward.mul(platformRate).div(100));\n        transferEth(snatchInfo.tempOwner,reward.sub(reward.mul(platformRate).div(100)));\n        emit WithdrawPool(msg.sender,msg.sender,reward.sub(reward.mul(platformRate).div(100)));\n        initStatus();\n    }\n\n    function otherWithdraw() public {\n        require(snatchInfo.lastTime.add(durationTime) < block.timestamp\n            || snatchInfo.startTime.add(durationEndTime) < block.timestamp,\"Game is not over\");\n        //platform 10%\n        uint256 reward = snatchInfo.amount;\n        transferEth(platformAddress, reward.mul(platformRate).div(100));\n        //win 88%\n        transferEth(snatchInfo.tempOwner,reward.sub(reward.mul(platformRate.add(helperRate)).div(100)));\n        //win 2%\n        transferEth(msg.sender,reward.sub(reward.mul(helperRate).div(100)));\n        emit WithdrawPool(snatchInfo.tempOwner,\n                            msg.sender,\n                            reward.sub(reward.mul(platformRate.add(helperRate)).div(100)));\n        initStatus();\n    }\n\n    function addSnatchCount() internal{\n        snatchCount = snatchCount.add(1);\n    }\n\n    function addSnatchTotalAmount(uint256 _amount) internal{\n        totalAmount = totalAmount.add(_amount);\n    }\n\n    function addSnatchTotalCount() internal{\n        totalSnatchCount = totalSnatchCount.add(1);\n    }\n\n    function initStatus() internal{\n        Winner memory winner = Winner(snatchInfo.tempOwner,\n                        snatchCount,totalSnatchCount,\n                        snatchInfo.amount,block.timestamp);\n        winnerAddresses.push(snatchInfo.tempOwner);\n        winners.push(winner);\n        winnerMap[snatchInfo.tempOwner].push(winner);\n        snatchInfo.lastOwner = address(0);\n        snatchInfo.tempOwner = address(0);\n        snatchInfo.amount = 0;\n        snatchInfo.lastAmount = 0;\n        snatchInfo.lastTime = 0;\n        snatchInfo.startTime = 0;\n        snatchCount = 0;\n    }\n   \n\n    function transferEth(address _address, uint256 _value) internal{\n        (bool res, ) = address(uint160(_address)).call{value:_value}(\"\");\n        require(res,\"TRANSFER ETH ERROR\");\n    }\n\n}",
  "sourcePath": "/Users/wangban/Downloads/money/coin/chk/chksol/contracts/Snatch.sol",
  "compiler": {
    "name": "solc",
    "version": "0.6.2+commit.bacdbe57.Emscripten.clang"
  },
  "schemaVersion": "3.2.0",
  "updatedAt": "2021-01-06T04:08:07.190Z",
  "devdoc": {
    "methods": {}
  },
  "userdoc": {
    "methods": {}
  }
}