{
  "contractName": "Snatch",
  "abi": [
    {
      "inputs": [],
      "stateMutability": "nonpayable",
      "type": "constructor"
    },
    {
      "anonymous": false,
      "inputs": [
        {
          "indexed": false,
          "internalType": "address",
          "name": "_addr",
          "type": "address"
        },
        {
          "indexed": false,
          "internalType": "uint256",
          "name": "_amount",
          "type": "uint256"
        }
      ],
      "name": "SnatchPool",
      "type": "event"
    },
    {
      "anonymous": false,
      "inputs": [
        {
          "indexed": false,
          "internalType": "address",
          "name": "_owner",
          "type": "address"
        },
        {
          "indexed": false,
          "internalType": "address",
          "name": "_addr",
          "type": "address"
        },
        {
          "indexed": false,
          "internalType": "uint256",
          "name": "_amount",
          "type": "uint256"
        }
      ],
      "name": "WithdrawPool",
      "type": "event"
    },
    {
      "inputs": [],
      "name": "durationEndTime",
      "outputs": [
        {
          "internalType": "uint256",
          "name": "",
          "type": "uint256"
        }
      ],
      "stateMutability": "view",
      "type": "function"
    },
    {
      "inputs": [],
      "name": "durationTime",
      "outputs": [
        {
          "internalType": "uint256",
          "name": "",
          "type": "uint256"
        }
      ],
      "stateMutability": "view",
      "type": "function"
    },
    {
      "inputs": [],
      "name": "helperRate",
      "outputs": [
        {
          "internalType": "uint256",
          "name": "",
          "type": "uint256"
        }
      ],
      "stateMutability": "view",
      "type": "function"
    },
    {
      "inputs": [],
      "name": "increaseRange",
      "outputs": [
        {
          "internalType": "uint256",
          "name": "",
          "type": "uint256"
        }
      ],
      "stateMutability": "view",
      "type": "function"
    },
    {
      "inputs": [],
      "name": "platformAddress",
      "outputs": [
        {
          "internalType": "address",
          "name": "",
          "type": "address"
        }
      ],
      "stateMutability": "view",
      "type": "function"
    },
    {
      "inputs": [],
      "name": "platformRate",
      "outputs": [
        {
          "internalType": "uint256",
          "name": "",
          "type": "uint256"
        }
      ],
      "stateMutability": "view",
      "type": "function"
    },
    {
      "inputs": [],
      "name": "snatchCount",
      "outputs": [
        {
          "internalType": "uint256",
          "name": "",
          "type": "uint256"
        }
      ],
      "stateMutability": "view",
      "type": "function"
    },
    {
      "inputs": [],
      "name": "totalAmount",
      "outputs": [
        {
          "internalType": "uint256",
          "name": "",
          "type": "uint256"
        }
      ],
      "stateMutability": "view",
      "type": "function"
    },
    {
      "inputs": [],
      "name": "totalSnatchCount",
      "outputs": [
        {
          "internalType": "uint256",
          "name": "",
          "type": "uint256"
        }
      ],
      "stateMutability": "view",
      "type": "function"
    },
    {
      "inputs": [
        {
          "internalType": "uint256",
          "name": "",
          "type": "uint256"
        }
      ],
      "name": "winnerAddresses",
      "outputs": [
        {
          "internalType": "address",
          "name": "",
          "type": "address"
        }
      ],
      "stateMutability": "view",
      "type": "function"
    },
    {
      "inputs": [
        {
          "internalType": "address",
          "name": "",
          "type": "address"
        },
        {
          "internalType": "uint256",
          "name": "",
          "type": "uint256"
        }
      ],
      "name": "winnerMap",
      "outputs": [
        {
          "internalType": "address",
          "name": "winner",
          "type": "address"
        },
        {
          "internalType": "uint256",
          "name": "count",
          "type": "uint256"
        },
        {
          "internalType": "uint256",
          "name": "scount",
          "type": "uint256"
        },
        {
          "internalType": "uint256",
          "name": "amount",
          "type": "uint256"
        },
        {
          "internalType": "uint256",
          "name": "winTime",
          "type": "uint256"
        }
      ],
      "stateMutability": "view",
      "type": "function"
    },
    {
      "inputs": [
        {
          "internalType": "uint256",
          "name": "",
          "type": "uint256"
        }
      ],
      "name": "winners",
      "outputs": [
        {
          "internalType": "address",
          "name": "winner",
          "type": "address"
        },
        {
          "internalType": "uint256",
          "name": "count",
          "type": "uint256"
        },
        {
          "internalType": "uint256",
          "name": "scount",
          "type": "uint256"
        },
        {
          "internalType": "uint256",
          "name": "amount",
          "type": "uint256"
        },
        {
          "internalType": "uint256",
          "name": "winTime",
          "type": "uint256"
        }
      ],
      "stateMutability": "view",
      "type": "function"
    },
    {
      "inputs": [],
      "name": "getCurrentSnatchInfo",
      "outputs": [
        {
          "internalType": "address",
          "name": "lastOwner",
          "type": "address"
        },
        {
          "internalType": "address",
          "name": "tempOwner",
          "type": "address"
        },
        {
          "internalType": "uint256",
          "name": "amount",
          "type": "uint256"
        },
        {
          "internalType": "uint256",
          "name": "submitAmount",
          "type": "uint256"
        },
        {
          "internalType": "uint256",
          "name": "lastAmount",
          "type": "uint256"
        },
        {
          "internalType": "uint256",
          "name": "lastTime",
          "type": "uint256"
        },
        {
          "internalType": "uint256",
          "name": "startTime",
          "type": "uint256"
        },
        {
          "internalType": "uint256",
          "name": "_durationEndTime",
          "type": "uint256"
        },
        {
          "internalType": "uint256",
          "name": "_durationTime",
          "type": "uint256"
        },
        {
          "internalType": "uint256",
          "name": "_increaseRange",
          "type": "uint256"
        },
        {
          "internalType": "uint256",
          "name": "_totalAmount",
          "type": "uint256"
        },
        {
          "internalType": "uint256",
          "name": "_snatchCount",
          "type": "uint256"
        },
        {
          "internalType": "uint256",
          "name": "_totalSnatchCount",
          "type": "uint256"
        }
      ],
      "stateMutability": "view",
      "type": "function"
    },
    {
      "inputs": [],
      "name": "getWinnerAddresses",
      "outputs": [
        {
          "internalType": "address[]",
          "name": "_winners",
          "type": "address[]"
        }
      ],
      "stateMutability": "view",
      "type": "function"
    },
    {
      "inputs": [
        {
          "internalType": "address",
          "name": "_platform",
          "type": "address"
        }
      ],
      "name": "setPlatform",
      "outputs": [],
      "stateMutability": "nonpayable",
      "type": "function"
    },
    {
      "inputs": [
        {
          "internalType": "uint256",
          "name": "_durationTime",
          "type": "uint256"
        },
        {
          "internalType": "uint256",
          "name": "_durationEndTime",
          "type": "uint256"
        }
      ],
      "name": "setDuration",
      "outputs": [],
      "stateMutability": "nonpayable",
      "type": "function"
    },
    {
      "inputs": [
        {
          "internalType": "uint256",
          "name": "_rate",
          "type": "uint256"
        },
        {
          "internalType": "uint256",
          "name": "_increaseRange",
          "type": "uint256"
        }
      ],
      "name": "setPlatformRate",
      "outputs": [],
      "stateMutability": "nonpayable",
      "type": "function"
    },
    {
      "inputs": [],
      "name": "getNow",
      "outputs": [
        {
          "internalType": "uint256",
          "name": "",
          "type": "uint256"
        }
      ],
      "stateMutability": "view",
      "type": "function"
    },
    {
      "inputs": [],
      "name": "snatchPool",
      "outputs": [],
      "stateMutability": "payable",
      "type": "function"
    },
    {
      "inputs": [],
      "name": "withdrawPool",
      "outputs": [],
      "stateMutability": "nonpayable",
      "type": "function"
    },
    {
      "inputs": [],
      "name": "otherWithdraw",
      "outputs": [],
      "stateMutability": "nonpayable",
      "type": "function"
    }
  ],
  "bytecode": "0x608060405262093a806002556146506003556014600755600a6009556005600a5534801561002c57600080fd5b5033600160006101000a81548173ffffffffffffffffffffffffffffffffffffffff021916908373ffffffffffffffffffffffffffffffffffffffff16021790555033600860006101000a81548173ffffffffffffffffffffffffffffffffffffffff021916908373ffffffffffffffffffffffffffffffffffffffff1602179055506040518060e00160405280600073ffffffffffffffffffffffffffffffffffffffff168152602001600073ffffffffffffffffffffffffffffffffffffffff16815260200160008152602001670de0b6b3a7640000815260200160008152602001600081526020016000815250600d60008201518160000160006101000a81548173ffffffffffffffffffffffffffffffffffffffff021916908373ffffffffffffffffffffffffffffffffffffffff16021790555060208201518160010160006101000a81548173ffffffffffffffffffffffffffffffffffffffff021916908373ffffffffffffffffffffffffffffffffffffffff16021790555060408201518160020155606082015181600301556080820151816004015560a0820151816005015560c082015181600601559050506122d5806101f06000396000f3fe60806040526004361061012a5760003560e01c8063a1672bbe116100ab578063d07cae9d1161006f578063d07cae9d1461061b578063d2a4a44014610625578063dbe55e5614610650578063e280b8b2146106a7578063f0902b20146106d2578063f8b75fb5146106fd5761012a565b8063a1672bbe146104b8578063a2fb1175146104fd578063af42242d14610594578063bbe4fd50146105ab578063cd7ea095146105d65761012a565b806336e0cac6116100f257806336e0cac6146103235780634679689c1461034e5780635c42c733146104255780636945c5ea1461043c5780637541bf941461048d5761012a565b8063045f9c971461012f5780630fdfc0c8146101aa5780631a39d8ef146101d55780631ef9c56f146102005780632a5913f51461026c575b600080fd5b34801561013b57600080fd5b506101686004803603602081101561015257600080fd5b8101908080359060200190929190505050610728565b604051808273ffffffffffffffffffffffffffffffffffffffff1673ffffffffffffffffffffffffffffffffffffffff16815260200191505060405180910390f35b3480156101b657600080fd5b506101bf610764565b6040518082815260200191505060405180910390f35b3480156101e157600080fd5b506101ea61076a565b6040518082815260200191505060405180910390f35b34801561020c57600080fd5b50610215610770565b6040518080602001828103825283818151815260200191508051906020019060200280838360005b8381101561025857808201518184015260208101905061023d565b505050509050019250505060405180910390f35b34801561027857600080fd5b506102c56004803603604081101561028f57600080fd5b81019080803573ffffffffffffffffffffffffffffffffffffffff169060200190929190803590602001909291905050506107fe565b604051808673ffffffffffffffffffffffffffffffffffffffff1673ffffffffffffffffffffffffffffffffffffffff1681526020018581526020018481526020018381526020018281526020019550505050505060405180910390f35b34801561032f57600080fd5b5061033861086e565b6040518082815260200191505060405180910390f35b34801561035a57600080fd5b50610363610874565b604051808e73ffffffffffffffffffffffffffffffffffffffff1673ffffffffffffffffffffffffffffffffffffffff1681526020018d73ffffffffffffffffffffffffffffffffffffffff1673ffffffffffffffffffffffffffffffffffffffff1681526020018c81526020018b81526020018a81526020018981526020018881526020018781526020018681526020018581526020018481526020018381526020018281526020019d505050505050505050505050505060405180910390f35b34801561043157600080fd5b5061043a61092d565b005b34801561044857600080fd5b5061048b6004803603602081101561045f57600080fd5b81019080803573ffffffffffffffffffffffffffffffffffffffff169060200190929190505050610d1f565b005b34801561049957600080fd5b506104a2610e26565b6040518082815260200191505060405180910390f35b3480156104c457600080fd5b506104fb600480360360408110156104db57600080fd5b810190808035906020019092919080359060200190929190505050610e2c565b005b34801561050957600080fd5b506105366004803603602081101561052057600080fd5b8101908080359060200190929190505050610f01565b604051808673ffffffffffffffffffffffffffffffffffffffff1673ffffffffffffffffffffffffffffffffffffffff1681526020018581526020018481526020018381526020018281526020019550505050505060405180910390f35b3480156105a057600080fd5b506105a9610f64565b005b3480156105b757600080fd5b506105c0611355565b6040518082815260200191505060405180910390f35b3480156105e257600080fd5b50610619600480360360408110156105f957600080fd5b81019080803590602001909291908035906020019092919050505061135d565b005b610623611444565b005b34801561063157600080fd5b5061063a611a29565b6040518082815260200191505060405180910390f35b34801561065c57600080fd5b50610665611a2f565b604051808273ffffffffffffffffffffffffffffffffffffffff1673ffffffffffffffffffffffffffffffffffffffff16815260200191505060405180910390f35b3480156106b357600080fd5b506106bc611a55565b6040518082815260200191505060405180910390f35b3480156106de57600080fd5b506106e7611a5b565b6040518082815260200191505060405180910390f35b34801561070957600080fd5b50610712611a61565b6040518082815260200191505060405180910390f35b6000818154811061073557fe5b906000526020600020016000915054906101000a900473ffffffffffffffffffffffffffffffffffffffff1681565b60065481565b60045481565b606060008054806020026020016040519081016040528092919081815260200182805480156107f457602002820191906000526020600020905b8160009054906101000a900473ffffffffffffffffffffffffffffffffffffffff1673ffffffffffffffffffffffffffffffffffffffff16815260200190600101908083116107aa575b5050505050905090565b600c602052816000526040600020818154811061081757fe5b9060005260206000209060050201600091509150508060000160009054906101000a900473ffffffffffffffffffffffffffffffffffffffff16908060010154908060020154908060030154908060040154905085565b60095481565b6000806000806000806000806000806000806000600d60000160009054906101000a900473ffffffffffffffffffffffffffffffffffffffff16600d60010160009054906101000a900473ffffffffffffffffffffffffffffffffffffffff16600d60020154600d60030154600d60040154600d60050154600d600601546002546003546007546004546005546006549c509c509c509c509c509c509c509c509c509c509c509c509c50909192939495969798999a9b9c565b3373ffffffffffffffffffffffffffffffffffffffff16600d60010160009054906101000a900473ffffffffffffffffffffffffffffffffffffffff1673ffffffffffffffffffffffffffffffffffffffff16146109f3576040517f08c379a000000000000000000000000000000000000000000000000000000000815260040180806020018281038252600a8152602001807f4e6f742077696e6e65720000000000000000000000000000000000000000000081525060200191505060405180910390fd5b42610a0e600354600d60050154611a6790919063ffffffff16565b1080610a32575042610a30600254600d60060154611a6790919063ffffffff16565b105b610aa4576040517f08c379a00000000000000000000000000000000000000000000000000000000081526004018080602001828103825260108152602001807f47616d65206973206e6f74206f7665720000000000000000000000000000000081525060200191505060405180910390fd5b6000600d600201549050610b37600860009054906101000a900473ffffffffffffffffffffffffffffffffffffffff16610afc6064610aee60095486611aef90919063ffffffff16565b611b7590919063ffffffff16565b6040518060400160405280601781526020017f5472616e7366657220706c6174666f726d206572726f72000000000000000000815250611bbf565b610bc2600d60010160009054906101000a900473ffffffffffffffffffffffffffffffffffffffff16610b876064610b79603286611aef90919063ffffffff16565b611b7590919063ffffffff16565b6040518060400160405280601581526020017f5472616e736665722077696e6e6572206572726f720000000000000000000000815250611bbf565b610c34610bec6064610bde603285611aef90919063ffffffff16565b611b7590919063ffffffff16565b610c26610c176064610c0960095487611aef90919063ffffffff16565b611b7590919063ffffffff16565b84611cd790919063ffffffff16565b611cd790919063ffffffff16565b600d600201819055507f1993aa2090edc0bad979d5f16efd6e3c23b084dc8356e9b2fe900406c7ba03893333610c99610c8a6064610c7c603288611aef90919063ffffffff16565b611b7590919063ffffffff16565b85611cd790919063ffffffff16565b604051808473ffffffffffffffffffffffffffffffffffffffff1673ffffffffffffffffffffffffffffffffffffffff1681526020018373ffffffffffffffffffffffffffffffffffffffff1673ffffffffffffffffffffffffffffffffffffffff168152602001828152602001935050505060405180910390a1610d1c611d21565b50565b600160009054906101000a900473ffffffffffffffffffffffffffffffffffffffff1673ffffffffffffffffffffffffffffffffffffffff163373ffffffffffffffffffffffffffffffffffffffff1614610de2576040517f08c379a00000000000000000000000000000000000000000000000000000000081526004018080602001828103825260098152602001807f6e6f74206f776e6572000000000000000000000000000000000000000000000081525060200191505060405180910390fd5b80600860006101000a81548173ffffffffffffffffffffffffffffffffffffffff021916908373ffffffffffffffffffffffffffffffffffffffff16021790555050565b600a5481565b600160009054906101000a900473ffffffffffffffffffffffffffffffffffffffff1673ffffffffffffffffffffffffffffffffffffffff163373ffffffffffffffffffffffffffffffffffffffff1614610eef576040517f08c379a00000000000000000000000000000000000000000000000000000000081526004018080602001828103825260098152602001807f6e6f74206f776e6572000000000000000000000000000000000000000000000081525060200191505060405180910390fd5b81600981905550806007819055505050565b600b8181548110610f0e57fe5b90600052602060002090600502016000915090508060000160009054906101000a900473ffffffffffffffffffffffffffffffffffffffff16908060010154908060020154908060030154908060040154905085565b42610f7f600354600d60050154611a6790919063ffffffff16565b1080610fa3575042610fa1600254600d60060154611a6790919063ffffffff16565b105b611015576040517f08c379a00000000000000000000000000000000000000000000000000000000081526004018080602001828103825260108152602001807f47616d65206973206e6f74206f7665720000000000000000000000000000000081525060200191505060405180910390fd5b6000600d6002015490506110a8600860009054906101000a900473ffffffffffffffffffffffffffffffffffffffff1661106d606461105f60095486611aef90919063ffffffff16565b611b7590919063ffffffff16565b6040518060400160405280601d81526020017f4f74686572207472616e7366657220706c6174666f726d206572726f72000000815250611bbf565b611133600d60010160009054906101000a900473ffffffffffffffffffffffffffffffffffffffff166110f860646110ea602d86611aef90919063ffffffff16565b611b7590919063ffffffff16565b6040518060400160405280601b81526020017f4f74686572207472616e736665722077696e6e6572206572726f720000000000815250611bbf565b61119a3361115f6064611151600a5486611aef90919063ffffffff16565b611b7590919063ffffffff16565b6040518060400160405280601b81526020017f4f74686572207472616e736665722068656c706572206572726f720000000000815250611bbf565b6112456111c560646111b7600a5485611aef90919063ffffffff16565b611b7590919063ffffffff16565b6112376111ef60646111e1602d87611aef90919063ffffffff16565b611b7590919063ffffffff16565b61122961121a606461120c60095489611aef90919063ffffffff16565b611b7590919063ffffffff16565b86611cd790919063ffffffff16565b611cd790919063ffffffff16565b611cd790919063ffffffff16565b600d600201819055507f1993aa2090edc0bad979d5f16efd6e3c23b084dc8356e9b2fe900406c7ba0389600d60010160009054906101000a900473ffffffffffffffffffffffffffffffffffffffff16336112cf6112c060646112b2603088611aef90919063ffffffff16565b611b7590919063ffffffff16565b85611cd790919063ffffffff16565b604051808473ffffffffffffffffffffffffffffffffffffffff1673ffffffffffffffffffffffffffffffffffffffff1681526020018373ffffffffffffffffffffffffffffffffffffffff1673ffffffffffffffffffffffffffffffffffffffff168152602001828152602001935050505060405180910390a1611352611d21565b50565b600042905090565b600160009054906101000a900473ffffffffffffffffffffffffffffffffffffffff1673ffffffffffffffffffffffffffffffffffffffff163373ffffffffffffffffffffffffffffffffffffffff1614611420576040517f08c379a00000000000000000000000000000000000000000000000000000000081526004018080602001828103825260098152602001807f6e6f74206f776e6572000000000000000000000000000000000000000000000081525060200191505060405180910390fd5b6000821461143057816003819055505b6000811461144057806002819055505b5050565b670de0b6b3a76400003410156114c2576040517f08c379a000000000000000000000000000000000000000000000000000000000815260040180806020018281038252601d8152602001807f4d696e20616d6f756e74206d75737420677265617465207468616e203100000081525060200191505060405180910390fd5b60004290506000600d60060154146115f757806114ef600354600d60050154611a6790919063ffffffff16565b1015611563576040517f08c379a00000000000000000000000000000000000000000000000000000000081526004018080602001828103825260178152602001807f4f766572206475726174696f6e2c67616d65206f76657200000000000000000081525060200191505060405180910390fd5b8061157e600254600d60060154611a6790919063ffffffff16565b10156115f2576040517f08c379a00000000000000000000000000000000000000000000000000000000081526004018080602001828103825260188152602001807f47616d6520697320657870656e64206f7665722074696d65000000000000000081525060200191505060405180910390fd5b611602565b80600d600601819055505b3373ffffffffffffffffffffffffffffffffffffffff16600d60010160009054906101000a900473ffffffffffffffffffffffffffffffffffffffff1673ffffffffffffffffffffffffffffffffffffffff1614156116c9576040517f08c379a00000000000000000000000000000000000000000000000000000000081526004018080602001828103825260158152602001807f43616e206e6f742072657065617420736e61746368000000000000000000000081525060200191505060405180910390fd5b600d60040154341015611744576040517f08c379a000000000000000000000000000000000000000000000000000000000815260040180806020018281038252600c8152602001807f416d6f756e74206572726f72000000000000000000000000000000000000000081525060200191505060405180910390fd5b600061178034611772606461176434600754611aef90919063ffffffff16565b611b7590919063ffffffff16565b611a6790919063ffffffff16565b9050803411156117f8576040517f08c379a000000000000000000000000000000000000000000000000000000000815260040180806020018281038252601e8152602001807f416d6f756e742063616e206e6f74206f766572206d617820616d6f756e74000081525060200191505060405180910390fd5b61180e6001600554611a6790919063ffffffff16565b60058190555060008090506005805414156118b457600d6002015490506118b3600860009054906101000a900473ffffffffffffffffffffffffffffffffffffffff16611878606461186a600586611aef90919063ffffffff16565b611b7590919063ffffffff16565b6040518060400160405280601581526020017f5472616e7366657220736e61746368206572726f720000000000000000000000815250611bbf565b5b6118bc612077565b6118c534612095565b6118ef816118e134600d60020154611a6790919063ffffffff16565b611cd790919063ffffffff16565b600d60020181905550600d60010160009054906101000a900473ffffffffffffffffffffffffffffffffffffffff16600d60000160006101000a81548173ffffffffffffffffffffffffffffffffffffffff021916908373ffffffffffffffffffffffffffffffffffffffff16021790555033600d60010160006101000a81548173ffffffffffffffffffffffffffffffffffffffff021916908373ffffffffffffffffffffffffffffffffffffffff16021790555034600d6004018190555082600d600501819055507f6afd9d1c30fce85d2b7bb21441c679ed5a43bba76809e463ff25788f59cf9a193334604051808373ffffffffffffffffffffffffffffffffffffffff1673ffffffffffffffffffffffffffffffffffffffff1681526020018281526020019250505060405180910390a1505050565b60055481565b600860009054906101000a900473ffffffffffffffffffffffffffffffffffffffff1681565b60075481565b60025481565b60035481565b600080828401905083811015611ae5576040517f08c379a000000000000000000000000000000000000000000000000000000000815260040180806020018281038252601b8152602001807f536166654d6174683a206164646974696f6e206f766572666c6f77000000000081525060200191505060405180910390fd5b8091505092915050565b600080831415611b025760009050611b6f565b6000828402905082848281611b1357fe5b0414611b6a576040517f08c379a000000000000000000000000000000000000000000000000000000000815260040180806020018281038252602181526020018061227f6021913960400191505060405180910390fd5b809150505b92915050565b6000611bb783836040518060400160405280601a81526020017f536166654d6174683a206469766973696f6e206279207a65726f0000000000008152506120b3565b905092915050565b60008373ffffffffffffffffffffffffffffffffffffffff168360405180600001905060006040518083038185875af1925050503d8060008114611c1f576040519150601f19603f3d011682016040523d82523d6000602084013e611c24565b606091505b50509050808290611cd0576040517f08c379a00000000000000000000000000000000000000000000000000000000081526004018080602001828103825283818151815260200191508051906020019080838360005b83811015611c95578082015181840152602081019050611c7a565b50505050905090810190601f168015611cc25780820380516001836020036101000a031916815260200191505b509250505060405180910390fd5b5050505050565b6000611d1983836040518060400160405280601e81526020017f536166654d6174683a207375627472616374696f6e206f766572666c6f770000815250612179565b905092915050565b611d29612239565b6040518060a00160405280600d60010160009054906101000a900473ffffffffffffffffffffffffffffffffffffffff1673ffffffffffffffffffffffffffffffffffffffff16815260200160055481526020016006548152602001600d6002015481526020014281525090506000600d60010160009054906101000a900473ffffffffffffffffffffffffffffffffffffffff169080600181540180825580915050600190039060005260206000200160009091909190916101000a81548173ffffffffffffffffffffffffffffffffffffffff021916908373ffffffffffffffffffffffffffffffffffffffff160217905550600b81908060018154018082558091505060019003906000526020600020906005020160009091909190915060008201518160000160006101000a81548173ffffffffffffffffffffffffffffffffffffffff021916908373ffffffffffffffffffffffffffffffffffffffff160217905550602082015181600101556040820151816002015560608201518160030155608082015181600401555050600c6000600d60010160009054906101000a900473ffffffffffffffffffffffffffffffffffffffff1673ffffffffffffffffffffffffffffffffffffffff1673ffffffffffffffffffffffffffffffffffffffff16815260200190815260200160002081908060018154018082558091505060019003906000526020600020906005020160009091909190915060008201518160000160006101000a81548173ffffffffffffffffffffffffffffffffffffffff021916908373ffffffffffffffffffffffffffffffffffffffff1602179055506020820151816001015560408201518160020155606082015181600301556080820151816004015550506000600d60000160006101000a81548173ffffffffffffffffffffffffffffffffffffffff021916908373ffffffffffffffffffffffffffffffffffffffff1602179055506000600d60010160006101000a81548173ffffffffffffffffffffffffffffffffffffffff021916908373ffffffffffffffffffffffffffffffffffffffff160217905550670de0b6b3a7640000600d600401819055506000600d600501819055506000600d60060181905550600060058190555050565b61208d6001600654611a6790919063ffffffff16565b600681905550565b6120aa81600454611a6790919063ffffffff16565b60048190555050565b6000808311829061215f576040517f08c379a00000000000000000000000000000000000000000000000000000000081526004018080602001828103825283818151815260200191508051906020019080838360005b83811015612124578082015181840152602081019050612109565b50505050905090810190601f1680156121515780820380516001836020036101000a031916815260200191505b509250505060405180910390fd5b50600083858161216b57fe5b049050809150509392505050565b6000838311158290612226576040517f08c379a00000000000000000000000000000000000000000000000000000000081526004018080602001828103825283818151815260200191508051906020019080838360005b838110156121eb5780820151818401526020810190506121d0565b50505050905090810190601f1680156122185780820380516001836020036101000a031916815260200191505b509250505060405180910390fd5b5060008385039050809150509392505050565b6040518060a00160405280600073ffffffffffffffffffffffffffffffffffffffff16815260200160008152602001600081526020016000815260200160008152509056fe536166654d6174683a206d756c7469706c69636174696f6e206f766572666c6f77a26469706673582212202f187964b95d7be4f9bfcfa4880c7d2f87bb1a818c5d648f42018513715ddae664736f6c63430006020033",
  "source": "pragma solidity >=0.6.0 <0.8.0;\nimport \"@openzeppelin/contracts/math/SafeMath.sol\";\n\ncontract Snatch{\n\n    event SnatchPool(address _addr,uint256 _amount);\n    event WithdrawPool(address _owner, address _addr,uint256 _amount);\n\n    address[] public winnerAddresses;\n\n    using SafeMath for uint256;\n\n    address snatchOwner;\n\n    uint256 public durationEndTime = 7*86400;\n\n    uint256 public durationTime = 5*3600;\n\n    uint256 public totalAmount;\n\n    uint256 public snatchCount;\n\n    uint256 public totalSnatchCount;\n\n    uint256 public increaseRange = 20;\n\n    address public platformAddress;\n\n    uint256 public platformRate=10;\n    uint256 public helperRate=5;\n\n    Winner[] public winners;\n\n    mapping(address => Winner[]) public winnerMap;\n\n    SnatchInfo snatchInfo;\n\n    struct SnatchInfo{\n        address lastOwner;\n        address tempOwner;\n        uint256 amount;\n        uint256 submitAmount;\n        uint256 lastAmount;\n        uint256 lastTime;\n        uint256 startTime;\n    }\n\n    struct Winner{\n        address winner;\n        uint256 count;\n        uint256 scount;\n        uint256 amount;\n        uint256 winTime;\n    }\n\n    constructor() public{\n        snatchOwner = msg.sender;\n        platformAddress = msg.sender;\n        snatchInfo = SnatchInfo(address(0),address(0),0,1e18,0,0,0);\n    }\n\n    modifier onlyOwner(){\n        require(msg.sender==snatchOwner,\"not owner\");\n        _;\n    }\n\n    function getCurrentSnatchInfo() view public returns(address lastOwner,\n        address tempOwner,\n        uint256 amount,\n        uint256 submitAmount,\n        uint256 lastAmount,\n        uint256 lastTime,\n        uint256 startTime,\n        uint256 _durationEndTime,\n        uint256 _durationTime,\n        uint256 _increaseRange,\n        uint256 _totalAmount,\n        uint256 _snatchCount,\n        uint256 _totalSnatchCount\n        ){\n            return (snatchInfo.lastOwner,snatchInfo.tempOwner,\n            snatchInfo.amount,snatchInfo.submitAmount,snatchInfo.lastAmount,\n            snatchInfo.lastTime,snatchInfo.startTime,\n            durationEndTime,durationTime,increaseRange,totalAmount,snatchCount,totalSnatchCount\n            );\n    }\n\n    function getWinnerAddresses() view public returns(address[] memory _winners){\n        return winnerAddresses;\n    }\n\n    function setPlatform(address _platform) public onlyOwner(){\n        platformAddress = _platform;\n    }\n    \n    function setDuration(uint256 _durationTime,uint256 _durationEndTime) public onlyOwner(){\n        if(_durationTime!=0){\n            durationTime = _durationTime;\n        }\n        if(_durationEndTime!=0){\n            durationEndTime = _durationEndTime;\n        }\n    }\n\n    function setPlatformRate(uint256 _rate,uint256 _increaseRange) public onlyOwner(){\n        platformRate = _rate;\n        increaseRange = _increaseRange;\n    }\n\n    function getNow() view public returns(uint256){\n        return block.timestamp;\n    }\n\n    function snatchPool() payable public{\n        require(msg.value >= 1 ether,\"Min amount must greate than 1\");\n        //get now\n        uint256 t = block.timestamp;\n        if(snatchInfo.startTime!=0){\n            require(snatchInfo.lastTime.add(durationTime) >= t, \"Over duration,game over\");\n            require(snatchInfo.startTime.add(durationEndTime) >= t, \"Game is expend over time\");\n        }else{\n            //set time like\n            snatchInfo.startTime = t;\n        }\n        require(snatchInfo.tempOwner!=msg.sender,\"Can not repeat snatch\");\n        require(msg.value >= snatchInfo.lastAmount, \"Amount error\");\n        uint256 rangeAmount = increaseRange.mul(msg.value).div(100).add(msg.value);\n        require(msg.value <= rangeAmount, \"Amount can not over max amount\");\n        // add count\n        snatchCount = snatchCount.add(1);\n        uint256 reward = 0;\n        //todo\n        if(snatchCount == 5){\n            //send 5%\n            reward = snatchInfo.amount;\n            transferEth(platformAddress, reward.mul(5).div(100),\"Transfer snatch error\");\n        }\n        addSnatchTotalCount();\n        addSnatchTotalAmount(msg.value);\n        //add amount\n        snatchInfo.amount = snatchInfo.amount.add(msg.value).sub(reward);\n        snatchInfo.lastOwner = snatchInfo.tempOwner;\n        snatchInfo.tempOwner = msg.sender;\n        snatchInfo.lastAmount = msg.value;\n        snatchInfo.lastTime = t;\n        emit SnatchPool(msg.sender,msg.value);\n    }\n\n    function withdrawPool() public{\n        require(snatchInfo.tempOwner == msg.sender,\"Not winner\");\n        require(snatchInfo.lastTime.add(durationTime) < block.timestamp\n            || snatchInfo.startTime.add(durationEndTime) < block.timestamp,\"Game is not over\");\n        uint256 reward = snatchInfo.amount;\n        //r*10%\n        transferEth(platformAddress, reward.mul(platformRate).div(100),\"Transfer platform error\");\n        // r-r*10%\n        //50% to winner\n        transferEth(snatchInfo.tempOwner,reward.mul(50).div(100),\"Transfer winner error\");\n        //decimals\n        snatchInfo.amount = reward.sub(reward.mul(platformRate).div(100))\n                                        .sub(reward.mul(50).div(100));\n        emit WithdrawPool(msg.sender,msg.sender,reward.sub(reward.mul(50).div(100)));\n        initStatus();\n    }\n\n    function otherWithdraw() public {\n        require(snatchInfo.lastTime.add(durationTime) < block.timestamp\n            || snatchInfo.startTime.add(durationEndTime) < block.timestamp,\"Game is not over\");\n        uint256 reward = snatchInfo.amount;\n        //platform 10%\n        transferEth(platformAddress, reward.mul(platformRate).div(100),\"Other transfer platform error\");\n        //win 45%\n        transferEth(snatchInfo.tempOwner,reward.mul(45).div(100),\"Other transfer winner error\");\n        //win 5%\n        transferEth(msg.sender,reward.mul(helperRate).div(100),\"Other transfer helper error\");\n        //40% decimals\n        snatchInfo.amount = reward.sub(reward.mul(platformRate).div(100))\n                                    .sub(reward.mul(45).div(100))\n                                    .sub(reward.mul(helperRate).div(100));\n        emit WithdrawPool(snatchInfo.tempOwner,\n                            msg.sender,\n                            reward.sub(reward.mul(48).div(100)));\n        initStatus();\n    }\n\n\n    function addSnatchTotalAmount(uint256 _amount) internal{\n        totalAmount = totalAmount.add(_amount);\n    }\n\n    function addSnatchTotalCount() internal{\n        totalSnatchCount = totalSnatchCount.add(1);\n    }\n\n    function initStatus() internal{\n        Winner memory winner = Winner(snatchInfo.tempOwner,\n                        snatchCount,totalSnatchCount,\n                        snatchInfo.amount,block.timestamp);\n        winnerAddresses.push(snatchInfo.tempOwner);\n        winners.push(winner);\n        winnerMap[snatchInfo.tempOwner].push(winner);\n        snatchInfo.lastOwner = address(0);\n        snatchInfo.tempOwner = address(0);\n        snatchInfo.lastAmount = 1e18;\n        snatchInfo.lastTime = 0;\n        snatchInfo.startTime = 0;\n        snatchCount = 0;\n    }\n   \n\n    function transferEth(address _address, uint256 _value,string memory message) internal{\n        (bool res, ) = address(uint160(_address)).call{value:_value}(\"\");\n        require(res,message);\n    }\n\n}",
  "sourcePath": "/Users/wangban/Downloads/money/coin/chk/chksol/contracts/Snatch.sol",
  "compiler": {
    "name": "solc",
    "version": "0.6.2+commit.bacdbe57.Emscripten.clang"
  },
  "schemaVersion": "3.2.0",
  "updatedAt": "2021-01-08T16:01:28.192Z",
  "devdoc": {
    "methods": {}
  },
  "userdoc": {
    "methods": {}
  }
}