{
  "contractName": "SnatchNormal",
  "abi": [
    {
      "inputs": [
        {
          "internalType": "address",
          "name": "_nftToken",
          "type": "address"
        }
      ],
      "stateMutability": "nonpayable",
      "type": "constructor"
    },
    {
      "anonymous": false,
      "inputs": [
        {
          "indexed": false,
          "internalType": "address",
          "name": "owner",
          "type": "address"
        },
        {
          "indexed": false,
          "internalType": "uint256",
          "name": "_id",
          "type": "uint256"
        }
      ],
      "name": "AddSnatch",
      "type": "event"
    },
    {
      "anonymous": false,
      "inputs": [
        {
          "indexed": false,
          "internalType": "address",
          "name": "_addr",
          "type": "address"
        },
        {
          "indexed": false,
          "internalType": "uint256",
          "name": "_amount",
          "type": "uint256"
        }
      ],
      "name": "SnatchTokenPool",
      "type": "event"
    },
    {
      "anonymous": false,
      "inputs": [
        {
          "indexed": false,
          "internalType": "address",
          "name": "_owner",
          "type": "address"
        },
        {
          "indexed": false,
          "internalType": "address",
          "name": "_addr",
          "type": "address"
        },
        {
          "indexed": false,
          "internalType": "uint256",
          "name": "_amount",
          "type": "uint256"
        }
      ],
      "name": "WithdrawTokenPool",
      "type": "event"
    },
    {
      "inputs": [
        {
          "internalType": "address",
          "name": "",
          "type": "address"
        }
      ],
      "name": "givers",
      "outputs": [
        {
          "internalType": "uint256",
          "name": "",
          "type": "uint256"
        }
      ],
      "stateMutability": "view",
      "type": "function"
    },
    {
      "inputs": [
        {
          "internalType": "address",
          "name": "",
          "type": "address"
        },
        {
          "internalType": "uint256",
          "name": "",
          "type": "uint256"
        }
      ],
      "name": "selfSnatchInfoMap",
      "outputs": [
        {
          "internalType": "uint256",
          "name": "",
          "type": "uint256"
        }
      ],
      "stateMutability": "view",
      "type": "function"
    },
    {
      "inputs": [
        {
          "internalType": "uint256",
          "name": "",
          "type": "uint256"
        }
      ],
      "name": "snatchInfoMap",
      "outputs": [
        {
          "internalType": "address",
          "name": "token",
          "type": "address"
        },
        {
          "internalType": "address",
          "name": "owner",
          "type": "address"
        },
        {
          "internalType": "address",
          "name": "lastOwner",
          "type": "address"
        },
        {
          "internalType": "address",
          "name": "tempOwner",
          "type": "address"
        },
        {
          "internalType": "uint256",
          "name": "amount",
          "type": "uint256"
        },
        {
          "internalType": "uint256",
          "name": "lastAmount",
          "type": "uint256"
        },
        {
          "internalType": "uint256",
          "name": "increaseRange",
          "type": "uint256"
        },
        {
          "internalType": "uint256",
          "name": "count",
          "type": "uint256"
        },
        {
          "internalType": "uint256",
          "name": "snatchCount",
          "type": "uint256"
        },
        {
          "internalType": "uint256",
          "name": "totalSnatchCount",
          "type": "uint256"
        },
        {
          "internalType": "uint256",
          "name": "totalAmount",
          "type": "uint256"
        }
      ],
      "stateMutability": "view",
      "type": "function"
    },
    {
      "inputs": [
        {
          "internalType": "address",
          "name": "",
          "type": "address"
        }
      ],
      "name": "snatchOwnerRole",
      "outputs": [
        {
          "internalType": "bool",
          "name": "",
          "type": "bool"
        }
      ],
      "stateMutability": "view",
      "type": "function"
    },
    {
      "inputs": [
        {
          "internalType": "uint256",
          "name": "",
          "type": "uint256"
        }
      ],
      "name": "snatchlist",
      "outputs": [
        {
          "internalType": "uint256",
          "name": "",
          "type": "uint256"
        }
      ],
      "stateMutability": "view",
      "type": "function"
    },
    {
      "inputs": [
        {
          "internalType": "uint256",
          "name": "",
          "type": "uint256"
        },
        {
          "internalType": "uint256",
          "name": "",
          "type": "uint256"
        }
      ],
      "name": "winners",
      "outputs": [
        {
          "internalType": "address",
          "name": "winner",
          "type": "address"
        },
        {
          "internalType": "uint256",
          "name": "count",
          "type": "uint256"
        },
        {
          "internalType": "uint256",
          "name": "snatchCount",
          "type": "uint256"
        },
        {
          "internalType": "uint256",
          "name": "amount",
          "type": "uint256"
        },
        {
          "internalType": "uint256",
          "name": "winTime",
          "type": "uint256"
        }
      ],
      "stateMutability": "view",
      "type": "function"
    },
    {
      "inputs": [
        {
          "internalType": "address",
          "name": "_nftToken",
          "type": "address"
        }
      ],
      "name": "addNft",
      "outputs": [],
      "stateMutability": "nonpayable",
      "type": "function"
    },
    {
      "inputs": [
        {
          "internalType": "uint256",
          "name": "_id",
          "type": "uint256"
        },
        {
          "internalType": "address",
          "name": "nftToken",
          "type": "address"
        },
        {
          "internalType": "address",
          "name": "token",
          "type": "address"
        },
        {
          "internalType": "uint256",
          "name": "lastAmount",
          "type": "uint256"
        },
        {
          "internalType": "uint256",
          "name": "durationTime",
          "type": "uint256"
        },
        {
          "internalType": "uint256",
          "name": "durationEndTime",
          "type": "uint256"
        },
        {
          "internalType": "uint256",
          "name": "increaseRange",
          "type": "uint256"
        }
      ],
      "name": "addSnatch",
      "outputs": [],
      "stateMutability": "nonpayable",
      "type": "function"
    },
    {
      "inputs": [
        {
          "internalType": "uint256",
          "name": "_id",
          "type": "uint256"
        },
        {
          "internalType": "uint256",
          "name": "_amount",
          "type": "uint256"
        }
      ],
      "name": "snatchTokenPool",
      "outputs": [],
      "stateMutability": "nonpayable",
      "type": "function"
    },
    {
      "inputs": [
        {
          "internalType": "uint256",
          "name": "_id",
          "type": "uint256"
        }
      ],
      "name": "withdrawPool",
      "outputs": [],
      "stateMutability": "nonpayable",
      "type": "function"
    },
    {
      "inputs": [
        {
          "internalType": "uint256",
          "name": "_id",
          "type": "uint256"
        }
      ],
      "name": "otherWithdrawToken",
      "outputs": [],
      "stateMutability": "nonpayable",
      "type": "function"
    },
    {
      "inputs": [
        {
          "internalType": "address",
          "name": "operator",
          "type": "address"
        },
        {
          "internalType": "address",
          "name": "from",
          "type": "address"
        },
        {
          "internalType": "address",
          "name": "to",
          "type": "address"
        },
        {
          "internalType": "uint256",
          "name": "amount",
          "type": "uint256"
        },
        {
          "internalType": "bytes",
          "name": "userData",
          "type": "bytes"
        },
        {
          "internalType": "bytes",
          "name": "operatorData",
          "type": "bytes"
        }
      ],
      "name": "tokensReceived",
      "outputs": [],
      "stateMutability": "nonpayable",
      "type": "function"
    }
  ],
  "bytecode": "0x608060405260056006557388887ed889e776bcbe2f0f9932ecfabcdfcd1820600a60006101000a81548173ffffffffffffffffffffffffffffffffffffffff021916908373ffffffffffffffffffffffffffffffffffffffff16021790555034801561006a57600080fd5b50604051612a4f380380612a4f8339818101604052602081101561008d57600080fd5b8101908080519060200190929190505050600a60009054906101000a900473ffffffffffffffffffffffffffffffffffffffff1673ffffffffffffffffffffffffffffffffffffffff166329965a1d307fb281fc8c12954d22544db45de3159a39272895b169a852b314f9cc762e44c53b60001b306040518463ffffffff1660e01b8152600401808473ffffffffffffffffffffffffffffffffffffffff1673ffffffffffffffffffffffffffffffffffffffff1681526020018381526020018273ffffffffffffffffffffffffffffffffffffffff1673ffffffffffffffffffffffffffffffffffffffff1681526020019350505050600060405180830381600087803b15801561019e57600080fd5b505af11580156101b2573d6000803e3d6000fd5b5050505033600560006101000a81548173ffffffffffffffffffffffffffffffffffffffff021916908373ffffffffffffffffffffffffffffffffffffffff160217905550806000808373ffffffffffffffffffffffffffffffffffffffff1673ffffffffffffffffffffffffffffffffffffffff16815260200190815260200160002060006101000a81548173ffffffffffffffffffffffffffffffffffffffff021916908373ffffffffffffffffffffffffffffffffffffffff160217905550506127cb806102846000396000f3fe608060405234801561001057600080fd5b50600436106100b35760003560e01c80636b86d844116100715780636b86d8441461039a57806375456c30146103c857806387cafbba14610424578063a40f1d701461055c578063cf7b6036146105f2578063e89081f81461062a576100b3565b806223de29146100b85780630efc8865146101f0578063447a91fd14610284578063485fa99e146102c85780634c034ea91461030a578063631b175814610338575b600080fd5b6101ee600480360360c08110156100ce57600080fd5b81019080803573ffffffffffffffffffffffffffffffffffffffff169060200190929190803573ffffffffffffffffffffffffffffffffffffffff169060200190929190803573ffffffffffffffffffffffffffffffffffffffff169060200190929190803590602001909291908035906020019064010000000081111561015557600080fd5b82018360208201111561016757600080fd5b8035906020019184600183028401116401000000008311171561018957600080fd5b9091929391929390803590602001906401000000008111156101aa57600080fd5b8201836020820111156101bc57600080fd5b803590602001918460018302840111640100000000831117156101de57600080fd5b9091929391929390505050610682565b005b6102266004803603604081101561020657600080fd5b8101908080359060200190929190803590602001909291905050506106d9565b604051808673ffffffffffffffffffffffffffffffffffffffff1673ffffffffffffffffffffffffffffffffffffffff1681526020018581526020018481526020018381526020018281526020019550505050505060405180910390f35b6102c66004803603602081101561029a57600080fd5b81019080803573ffffffffffffffffffffffffffffffffffffffff169060200190929190505050610749565b005b6102f4600480360360208110156102de57600080fd5b810190808035906020019092919050505061088c565b6040518082815260200191505060405180910390f35b6103366004803603602081101561032057600080fd5b81019080803590602001909291905050506108ad565b005b6103846004803603604081101561034e57600080fd5b81019080803573ffffffffffffffffffffffffffffffffffffffff16906020019092919080359060200190929190505050610d91565b6040518082815260200191505060405180910390f35b6103c6600480360360208110156103b057600080fd5b8101908080359060200190929190505050610dbf565b005b61040a600480360360208110156103de57600080fd5b81019080803573ffffffffffffffffffffffffffffffffffffffff1690602001909291905050506112ed565b604051808215151515815260200191505060405180910390f35b6104506004803603602081101561043a57600080fd5b810190808035906020019092919050505061130d565b604051808c73ffffffffffffffffffffffffffffffffffffffff1673ffffffffffffffffffffffffffffffffffffffff1681526020018b73ffffffffffffffffffffffffffffffffffffffff1673ffffffffffffffffffffffffffffffffffffffff1681526020018a73ffffffffffffffffffffffffffffffffffffffff1673ffffffffffffffffffffffffffffffffffffffff1681526020018973ffffffffffffffffffffffffffffffffffffffff1673ffffffffffffffffffffffffffffffffffffffff1681526020018881526020018781526020018681526020018581526020018481526020018381526020018281526020019b50505050505050505050505060405180910390f35b6105f0600480360360e081101561057257600080fd5b8101908080359060200190929190803573ffffffffffffffffffffffffffffffffffffffff169060200190929190803573ffffffffffffffffffffffffffffffffffffffff169060200190929190803590602001909291908035906020019092919080359060200190929190803590602001909291905050506113e7565b005b6106286004803603604081101561060857600080fd5b810190808035906020019092919080359060200190929190505050611a25565b005b61066c6004803603602081101561064057600080fd5b81019080803573ffffffffffffffffffffffffffffffffffffffff169060200190929190505050611e41565b6040518082815260200191505060405180910390f35b84600360008973ffffffffffffffffffffffffffffffffffffffff1673ffffffffffffffffffffffffffffffffffffffff168152602001908152602001600020600082825401925050819055505050505050505050565b600260205281600052604060002081815481106106f257fe5b9060005260206000209060050201600091509150508060000160009054906101000a900473ffffffffffffffffffffffffffffffffffffffff16908060010154908060020154908060030154908060040154905085565b600560009054906101000a900473ffffffffffffffffffffffffffffffffffffffff1673ffffffffffffffffffffffffffffffffffffffff163373ffffffffffffffffffffffffffffffffffffffff161461080c576040517f08c379a00000000000000000000000000000000000000000000000000000000081526004018080602001828103825260098152602001807f6e6f74206f776e6572000000000000000000000000000000000000000000000081525060200191505060405180910390fd5b806000808373ffffffffffffffffffffffffffffffffffffffff1673ffffffffffffffffffffffffffffffffffffffff16815260200190815260200160002060006101000a81548173ffffffffffffffffffffffffffffffffffffffff021916908373ffffffffffffffffffffffffffffffffffffffff16021790555050565b6007818154811061089957fe5b906000526020600020016000915090505481565b60006008600083815260200190815260200160002090503373ffffffffffffffffffffffffffffffffffffffff168160030160009054906101000a900473ffffffffffffffffffffffffffffffffffffffff1673ffffffffffffffffffffffffffffffffffffffff1614610989576040517f08c379a000000000000000000000000000000000000000000000000000000000815260040180806020018281038252600a8152602001807f4e6f742077696e6e65720000000000000000000000000000000000000000000081525060200191505060405180910390fd5b6000816006019050426109c1826002600481106109a257fe5b0154836001600481106109b157fe5b0154611e5990919063ffffffff16565b10806109fa5750426109f8826003600481106109d957fe5b0154836000600481106109e857fe5b0154611e5990919063ffffffff16565b105b610a6c576040517f08c379a00000000000000000000000000000000000000000000000000000000081526004018080602001828103825260108152602001807f47616d65206973206e6f74206f7665720000000000000000000000000000000081525060200191505060405180910390fd5b60008260040154905060008360000160009054906101000a900473ffffffffffffffffffffffffffffffffffffffff1690508073ffffffffffffffffffffffffffffffffffffffff16639bd9bbc68560010160009054906101000a900473ffffffffffffffffffffffffffffffffffffffff16610b066064610af8600a88611ee190919063ffffffff16565b611f6790919063ffffffff16565b6040518363ffffffff1660e01b8152600401808373ffffffffffffffffffffffffffffffffffffffff1673ffffffffffffffffffffffffffffffffffffffff168152602001828152602001806020018281038252600081526020016020019350505050600060405180830381600087803b158015610b8357600080fd5b505af1158015610b97573d6000803e3d6000fd5b505050508073ffffffffffffffffffffffffffffffffffffffff16639bd9bbc68560030160009054906101000a900473ffffffffffffffffffffffffffffffffffffffff16610c15610c066064610bf8600a89611ee190919063ffffffff16565b611f6790919063ffffffff16565b86611fb190919063ffffffff16565b6040518363ffffffff1660e01b8152600401808373ffffffffffffffffffffffffffffffffffffffff1673ffffffffffffffffffffffffffffffffffffffff168152602001828152602001806020018281038252600081526020016020019350505050600060405180830381600087803b158015610c9257600080fd5b505af1158015610ca6573d6000803e3d6000fd5b505050507fe39c37ed96c9cf01c6ee0a3a59853c39372094160aeb431bead7292f9fd6402d3333610d06610cf76064610ce9600a89611ee190919063ffffffff16565b611f6790919063ffffffff16565b86611fb190919063ffffffff16565b604051808473ffffffffffffffffffffffffffffffffffffffff1673ffffffffffffffffffffffffffffffffffffffff1681526020018373ffffffffffffffffffffffffffffffffffffffff1673ffffffffffffffffffffffffffffffffffffffff168152602001828152602001935050505060405180910390a1610d8a85611ffb565b5050505050565b60096020528160005260406000208181548110610daa57fe5b90600052602060002001600091509150505481565b6000600860008381526020019081526020016000209050600081600601905042610e0e82600260048110610def57fe5b015483600160048110610dfe57fe5b0154611e5990919063ffffffff16565b1080610e47575042610e4582600360048110610e2657fe5b015483600060048110610e3557fe5b0154611e5990919063ffffffff16565b105b610eb9576040517f08c379a00000000000000000000000000000000000000000000000000000000081526004018080602001828103825260108152602001807f47616d65206973206e6f74206f7665720000000000000000000000000000000081525060200191505060405180910390fd5b60008260040154905060008360000160009054906101000a900473ffffffffffffffffffffffffffffffffffffffff1690508073ffffffffffffffffffffffffffffffffffffffff16639bd9bbc68560010160009054906101000a900473ffffffffffffffffffffffffffffffffffffffff16610f536064610f45605888611ee190919063ffffffff16565b611f6790919063ffffffff16565b6040518363ffffffff1660e01b8152600401808373ffffffffffffffffffffffffffffffffffffffff1673ffffffffffffffffffffffffffffffffffffffff168152602001828152602001806020018281038252600081526020016020019350505050600060405180830381600087803b158015610fd057600080fd5b505af1158015610fe4573d6000803e3d6000fd5b505050508073ffffffffffffffffffffffffffffffffffffffff16639bd9bbc68560030160009054906101000a900473ffffffffffffffffffffffffffffffffffffffff166110626110536064611045600c89611ee190919063ffffffff16565b611f6790919063ffffffff16565b86611fb190919063ffffffff16565b6040518363ffffffff1660e01b8152600401808373ffffffffffffffffffffffffffffffffffffffff1673ffffffffffffffffffffffffffffffffffffffff168152602001828152602001806020018281038252600081526020016020019350505050600060405180830381600087803b1580156110df57600080fd5b505af11580156110f3573d6000803e3d6000fd5b505050508073ffffffffffffffffffffffffffffffffffffffff16639bd9bbc63361114d61113e6064611130600289611ee190919063ffffffff16565b611f6790919063ffffffff16565b86611fb190919063ffffffff16565b6040518363ffffffff1660e01b8152600401808373ffffffffffffffffffffffffffffffffffffffff1673ffffffffffffffffffffffffffffffffffffffff168152602001828152602001806020018281038252600081526020016020019350505050600060405180830381600087803b1580156111ca57600080fd5b505af11580156111de573d6000803e3d6000fd5b505050507fe39c37ed96c9cf01c6ee0a3a59853c39372094160aeb431bead7292f9fd6402d8460030160009054906101000a900473ffffffffffffffffffffffffffffffffffffffff16336112626112536064611245600c89611ee190919063ffffffff16565b611f6790919063ffffffff16565b86611fb190919063ffffffff16565b604051808473ffffffffffffffffffffffffffffffffffffffff1673ffffffffffffffffffffffffffffffffffffffff1681526020018373ffffffffffffffffffffffffffffffffffffffff1673ffffffffffffffffffffffffffffffffffffffff168152602001828152602001935050505060405180910390a16112e685611ffb565b5050505050565b60046020528060005260406000206000915054906101000a900460ff1681565b60086020528060005260406000206000915090508060000160009054906101000a900473ffffffffffffffffffffffffffffffffffffffff16908060010160009054906101000a900473ffffffffffffffffffffffffffffffffffffffff16908060020160009054906101000a900473ffffffffffffffffffffffffffffffffffffffff16908060030160009054906101000a900473ffffffffffffffffffffffffffffffffffffffff169080600401549080600501549080600a01549080600b01549080600c01549080600d01549080600e015490508b565b600460003373ffffffffffffffffffffffffffffffffffffffff1673ffffffffffffffffffffffffffffffffffffffff16815260200190815260200160002060009054906101000a900460ff16156114a7576040517f08c379a000000000000000000000000000000000000000000000000000000000815260040180806020018281038252600c8152602001807f486173206120736e61746368000000000000000000000000000000000000000081525060200191505060405180910390fd5b60008060008873ffffffffffffffffffffffffffffffffffffffff1673ffffffffffffffffffffffffffffffffffffffff16815260200190815260200160002060009054906101000a900473ffffffffffffffffffffffffffffffffffffffff1673ffffffffffffffffffffffffffffffffffffffff1662fdd58e338a6040518363ffffffff1660e01b8152600401808373ffffffffffffffffffffffffffffffffffffffff1673ffffffffffffffffffffffffffffffffffffffff1681526020018281526020019250505060206040518083038186803b15801561158b57600080fd5b505afa15801561159f573d6000803e3d6000fd5b505050506040513d60208110156115b557600080fd5b810190808051906020019092919050505011611639576040517f08c379a000000000000000000000000000000000000000000000000000000000815260040180806020018281038252600d8152602001807f6e6f74206e6674206f776e65720000000000000000000000000000000000000081525060200191505060405180910390fd5b6000600460003373ffffffffffffffffffffffffffffffffffffffff1673ffffffffffffffffffffffffffffffffffffffff16815260200190815260200160002060006101000a81548160ff021916908315150217905550600060078054905090506007819080600181540180825580915050600190039060005260206000200160009091909190915055600060065490506116d36125c7565b604051806080016040528060008152602001600081526020018781526020018681525090506117006125e9565b6040518061018001604052808a73ffffffffffffffffffffffffffffffffffffffff1681526020013373ffffffffffffffffffffffffffffffffffffffff168152602001600073ffffffffffffffffffffffffffffffffffffffff168152602001600073ffffffffffffffffffffffffffffffffffffffff16815260200160008152602001898152602001838152602001868152602001848152602001600081526020016000815260200160008152509050806008600086815260200190815260200160002060008201518160000160006101000a81548173ffffffffffffffffffffffffffffffffffffffff021916908373ffffffffffffffffffffffffffffffffffffffff16021790555060208201518160010160006101000a81548173ffffffffffffffffffffffffffffffffffffffff021916908373ffffffffffffffffffffffffffffffffffffffff16021790555060408201518160020160006101000a81548173ffffffffffffffffffffffffffffffffffffffff021916908373ffffffffffffffffffffffffffffffffffffffff16021790555060608201518160030160006101000a81548173ffffffffffffffffffffffffffffffffffffffff021916908373ffffffffffffffffffffffffffffffffffffffff1602179055506080820151816004015560a0820151816005015560c08201518160060190600461190d9291906126a8565b5060e082015181600a015561010082015181600b015561012082015181600c015561014082015181600d015561016082015181600e0155905050600960003373ffffffffffffffffffffffffffffffffffffffff1673ffffffffffffffffffffffffffffffffffffffff1681526020019081526020016000208490806001815401808255809150506001900390600052602060002001600090919091909150557fc928b6f079b8fe663931bb45ebf484679c3a03553e83769e75d8c1ec977479f43385604051808373ffffffffffffffffffffffffffffffffffffffff1673ffffffffffffffffffffffffffffffffffffffff1681526020018281526020019250505060405180910390a15050505050505050505050565b60006008600084815260200190815260200160002090508060050154821015611ab6576040517f08c379a00000000000000000000000000000000000000000000000000000000081526004018080602001828103825260208152602001807f4d696e20616d6f756e74206d75737420677265617465207468616e20302e303181525060200191505060405180910390fd5b60004290506000826006019050600081600060048110611ad257fe5b015414611c265781611b0982600260048110611aea57fe5b015483600160048110611af957fe5b0154611e5990919063ffffffff16565b1015611b7d576040517f08c379a00000000000000000000000000000000000000000000000000000000081526004018080602001828103825260178152602001807f4f766572206475726174696f6e2c67616d65206f76657200000000000000000081525060200191505060405180910390fd5b81611bad82600360048110611b8e57fe5b015483600060048110611b9d57fe5b0154611e5990919063ffffffff16565b1015611c21576040517f08c379a00000000000000000000000000000000000000000000000000000000081526004018080602001828103825260188152602001807f47616d6520697320657870656e64206f7665722074696d65000000000000000081525060200191505060405180910390fd5b611c3a565b8181600060048110611c3457fe5b01819055505b611c51848460040154611e5990919063ffffffff16565b83600401819055508260030160009054906101000a900473ffffffffffffffffffffffffffffffffffffffff168360020160006101000a81548173ffffffffffffffffffffffffffffffffffffffff021916908373ffffffffffffffffffffffffffffffffffffffff160217905550338360030160006101000a81548173ffffffffffffffffffffffffffffffffffffffff021916908373ffffffffffffffffffffffffffffffffffffffff1602179055508383600501819055508181600260048110611d1a57fe5b0181905550611d37600184600b0154611fb190919063ffffffff16565b83600b0181905550611d57600184600c0154611e5990919063ffffffff16565b83600c0181905550611d77600184600d0154611e5990919063ffffffff16565b83600d0181905550611d97600184600e0154611e5990919063ffffffff16565b83600e0181905550611dcf8360000160009054906101000a900473ffffffffffffffffffffffffffffffffffffffff16333087612213565b7ffd107d8fb07d2a49fcce797c9e7915c733ad34daa8f39604822bd9950a3c43f33385604051808373ffffffffffffffffffffffffffffffffffffffff1673ffffffffffffffffffffffffffffffffffffffff1681526020018281526020019250505060405180910390a15050505050565b60036020528060005260406000206000915090505481565b600080828401905083811015611ed7576040517f08c379a000000000000000000000000000000000000000000000000000000000815260040180806020018281038252601b8152602001807f536166654d6174683a206164646974696f6e206f766572666c6f77000000000081525060200191505060405180910390fd5b8091505092915050565b600080831415611ef45760009050611f61565b6000828402905082848281611f0557fe5b0414611f5c576040517f08c379a00000000000000000000000000000000000000000000000000000000081526004018080602001828103825260218152602001806127756021913960400191505060405180910390fd5b809150505b92915050565b6000611fa983836040518060400160405280601a81526020017f536166654d6174683a206469766973696f6e206279207a65726f000000000000815250612441565b905092915050565b6000611ff383836040518060400160405280601e81526020017f536166654d6174683a207375627472616374696f6e206f766572666c6f770000815250612507565b905092915050565b600060086000838152602001908152602001600020905061201a6126e8565b6040518060a001604052808360030160009054906101000a900473ffffffffffffffffffffffffffffffffffffffff1673ffffffffffffffffffffffffffffffffffffffff16815260200183600c0154815260200183600d01548152602001836004015481526020014281525090506002600084815260200190815260200160002081908060018154018082558091505060019003906000526020600020906005020160009091909190915060008201518160000160006101000a81548173ffffffffffffffffffffffffffffffffffffffff021916908373ffffffffffffffffffffffffffffffffffffffff16021790555060208201518160010155604082015181600201556060820151816003015560808201518160040155505060008260020160006101000a81548173ffffffffffffffffffffffffffffffffffffffff021916908373ffffffffffffffffffffffffffffffffffffffff16021790555060008260030160006101000a81548173ffffffffffffffffffffffffffffffffffffffff021916908373ffffffffffffffffffffffffffffffffffffffff160217905550600082600401819055506000826005018190555060008260060190506000816000600481106121ea57fe5b01819055506000816001600481106121fe57fe5b0181905550600083600c018190555050505050565b600060608573ffffffffffffffffffffffffffffffffffffffff166323b872dd868686604051602401808473ffffffffffffffffffffffffffffffffffffffff1673ffffffffffffffffffffffffffffffffffffffff1681526020018373ffffffffffffffffffffffffffffffffffffffff1673ffffffffffffffffffffffffffffffffffffffff16815260200182815260200193505050506040516020818303038152906040529060e01b6020820180517bffffffffffffffffffffffffffffffffffffffffffffffffffffffff83818316178352505050506040518082805190602001908083835b6020831061232057805182526020820191506020810190506020830392506122fd565b6001836020036101000a0380198251168184511680821785525050505050509050019150506000604051808303816000865af19150503d8060008114612382576040519150601f19603f3d011682016040523d82523d6000602084013e612387565b606091505b50915091508180156123c757506000815114806123c657508080602001905160208110156123b457600080fd5b81019080805190602001909291905050505b5b612439576040517f08c379a00000000000000000000000000000000000000000000000000000000081526004018080602001828103825260148152602001807f5452414e534645525f46524f4d5f4641494c454400000000000000000000000081525060200191505060405180910390fd5b505050505050565b600080831182906124ed576040517f08c379a00000000000000000000000000000000000000000000000000000000081526004018080602001828103825283818151815260200191508051906020019080838360005b838110156124b2578082015181840152602081019050612497565b50505050905090810190601f1680156124df5780820380516001836020036101000a031916815260200191505b509250505060405180910390fd5b5060008385816124f957fe5b049050809150509392505050565b60008383111582906125b4576040517f08c379a00000000000000000000000000000000000000000000000000000000081526004018080602001828103825283818151815260200191508051906020019080838360005b8381101561257957808201518184015260208101905061255e565b50505050905090810190601f1680156125a65780820380516001836020036101000a031916815260200191505b509250505060405180910390fd5b5060008385039050809150509392505050565b6040518060800160405280600490602082028038833980820191505090505090565b604051806101800160405280600073ffffffffffffffffffffffffffffffffffffffff168152602001600073ffffffffffffffffffffffffffffffffffffffff168152602001600073ffffffffffffffffffffffffffffffffffffffff168152602001600073ffffffffffffffffffffffffffffffffffffffff168152602001600081526020016000815260200161267f61272d565b815260200160008152602001600081526020016000815260200160008152602001600081525090565b82600481019282156126d7579160200282015b828111156126d65782518255916020019190600101906126bb565b5b5090506126e4919061274f565b5090565b6040518060a00160405280600073ffffffffffffffffffffffffffffffffffffffff168152602001600081526020016000815260200160008152602001600081525090565b6040518060800160405280600490602082028038833980820191505090505090565b61277191905b8082111561276d576000816000905550600101612755565b5090565b9056fe536166654d6174683a206d756c7469706c69636174696f6e206f766572666c6f77a26469706673582212202694fd93642f720216a0d3cff8cb8a7c4a0c0ed2eecd31be029dda384a13c29064736f6c63430006020033",
  "source": "pragma solidity >=0.6.0 <0.8.0;\nimport \"@openzeppelin/contracts/math/SafeMath.sol\";\nimport './Ticket1155Nft.sol';\n\nimport \"@openzeppelin/contracts/token/ERC777/IERC777Recipient.sol\";\nimport \"@openzeppelin/contracts/token/ERC777/IERC777.sol\";\nimport \"@openzeppelin/contracts/introspection/IERC1820Registry.sol\";\n\n\ncontract SnatchNormal is IERC777Recipient{\n\n    event AddSnatch(address owner,uint256 _id);\n    event SnatchTokenPool(address _addr,uint256 _amount);\n    event WithdrawTokenPool(address _owner, address _addr,uint256 _amount);\n\n    mapping(address => Ticket1155Nft) ticketMap;\n\n    mapping (address=>uint256[]) snatchPools;\n\n    mapping (uint256=>Winner[]) public winners;\n\n    mapping(address => uint256) public givers;\n\n    mapping(address => bool) public snatchOwnerRole;\n\n    using SafeMath for uint256;\n\n    address snatchNormalOwner;\n\n    uint256 ticketCount=5;\n\n    uint256[] public snatchlist;\n\n    mapping(uint256=>SnatchInfo) public snatchInfoMap;\n\n    mapping (address=>uint256[]) public selfSnatchInfoMap;\n\n    struct SnatchInfo{\n        address token;//\n        address owner;//msg.sender\n        address lastOwner;//0\n        address tempOwner;//0\n        uint256 amount;//0\n        uint256 lastAmount;//-\n        //startTime lastTime durationTime durationEndTime\n        uint256[4] time;//-,-,0,-\n        uint256 increaseRange;//-\n        uint256 count;//5\n        uint256 snatchCount;//0\n        uint256 totalSnatchCount;//0\n        uint256 totalAmount;//0\n    }\n\n    struct Winner{\n        address winner;\n        uint256 count;\n        uint256 snatchCount;\n        uint256 amount;\n        uint256 winTime;\n    }\n\n    IERC1820Registry private _erc1820 = IERC1820Registry(0x88887eD889e776bCBe2f0f9932EcFaBcDfCd1820);\n\n    // keccak256(\"ERC777TokensRecipient\")\n    bytes32 constant private TOKENS_RECIPIENT_INTERFACE_HASH =\n        0xb281fc8c12954d22544db45de3159a39272895b169a852b314f9cc762e44c53b;\n\n    constructor(address _nftToken) public {\n        _erc1820.setInterfaceImplementer(address(this), TOKENS_RECIPIENT_INTERFACE_HASH, address(this));\n        snatchNormalOwner = msg.sender;\n        ticketMap[_nftToken] = Ticket1155Nft(_nftToken);\n    }\n\n    modifier onlySnatchNormalOwner(){\n        require(msg.sender==snatchNormalOwner,\"not owner\");\n        _;\n    }\n\n    function addNft(address _nftToken) public onlySnatchNormalOwner(){\n        ticketMap[_nftToken] = Ticket1155Nft(_nftToken);\n    }\n\n    function addSnatch(\n        uint256 _id,\n        address nftToken,\n        address token,\n        uint256 lastAmount,\n        uint256 durationTime,\n        uint256 durationEndTime,\n        uint256 increaseRange\n    ) public{\n        // 1155\n        require(!snatchOwnerRole[msg.sender],\"Has a snatch\");\n        require(ticketMap[nftToken].balanceOf(msg.sender,_id) > 0,\"not nft owner\");\n        snatchOwnerRole[msg.sender] = false;\n        uint256 id = snatchlist.length;\n        snatchlist.push(id);\n        uint256 count = ticketCount;\n        uint256[4] memory time = [0,0,durationTime,durationEndTime];\n        SnatchInfo memory snatchInfo = SnatchInfo(\n            token,\n            msg.sender,\n            address(0),\n            address(0),\n            0,\n            lastAmount,\n            time,\n            increaseRange,\n            count,\n            0,\n            0,\n            0\n        );\n        snatchInfoMap[id] = snatchInfo;\n        selfSnatchInfoMap[msg.sender].push(id);\n        emit AddSnatch(msg.sender,id);\n    }\n\n    function snatchTokenPool(uint256 _id,uint256 _amount) public{\n        SnatchInfo storage snatchInfo = snatchInfoMap[_id];\n        require(_amount >= snatchInfo.lastAmount,\"Min amount must greate than 0.01\");\n        uint256 t = block.timestamp;\n        uint256[4] storage time = snatchInfo.time;\n        if(time[0]!=0){\n            //startTime,0,durationTime,durationEndTime\n            require(time[1].add(time[2]) >= t, \"Over duration,game over\");\n            require(time[0].add(time[3]) >= t, \"Game is expend over time\");\n        }else{\n            time[0] = t;\n        }\n        //add amount\n        snatchInfo.amount = snatchInfo.amount.add(_amount);\n        snatchInfo.lastOwner = snatchInfo.tempOwner;\n        snatchInfo.tempOwner = msg.sender;\n        snatchInfo.lastAmount = _amount;\n        time[2] = t;\n        snatchInfo.count = snatchInfo.count.sub(1);\n        snatchInfo.snatchCount = snatchInfo.snatchCount.add(1);\n        snatchInfo.totalSnatchCount = snatchInfo.totalSnatchCount.add(1);\n        snatchInfo.totalAmount = snatchInfo.totalAmount.add(1);\n        safeTransferFrom(snatchInfo.token,msg.sender,address(this), _amount);\n        emit SnatchTokenPool(msg.sender,_amount);\n    }\n\n    function withdrawPool(uint256 _id) public{\n        SnatchInfo storage snatchInfo =snatchInfoMap[_id];\n        require(snatchInfo.tempOwner == msg.sender,\"Not winner\");\n        uint256[4] storage time = snatchInfo.time;\n        require(time[1].add(time[2]) < block.timestamp\n            || time[0].add(time[3]) < block.timestamp, \"Game is not over\");\n        //10%\n        uint256 reward = snatchInfo.amount;\n\n        IERC777 iERC777 = IERC777(snatchInfo.token);\n        iERC777.send(snatchInfo.owner, reward.mul(10).div(100), \"\");\n        iERC777.send(snatchInfo.tempOwner,reward.sub(reward.mul(10).div(100)), \"\");\n        emit WithdrawTokenPool(msg.sender,msg.sender,reward.sub(reward.mul(10).div(100)));\n        initStatus(_id);\n    }\n\n    function otherWithdrawToken(uint256 _id) public {\n        SnatchInfo storage snatchInfo = snatchInfoMap[_id];\n        uint256[4] storage time = snatchInfo.time;\n        require(time[1].add(time[2]) < block.timestamp\n            || time[0].add(time[3]) < block.timestamp,\"Game is not over\");\n        //platform 10%\n        uint256 reward = snatchInfo.amount;\n        IERC777 iERC777 = IERC777(snatchInfo.token);\n        //win 88%\n        iERC777.send(snatchInfo.owner, reward.mul(88).div(100), \"\");\n        //win 2%\n        iERC777.send(snatchInfo.tempOwner,reward.sub(reward.mul(12).div(100)), \"\");\n        iERC777.send(msg.sender,reward.sub(reward.mul(2).div(100)), \"\");\n        emit WithdrawTokenPool(snatchInfo.tempOwner,msg.sender,reward.sub(reward.mul(12).div(100)));\n        initStatus(_id);\n    }\n\n    function initStatus(uint256 _id) internal{\n        SnatchInfo storage snatchInfo = snatchInfoMap[_id];\n        Winner memory winner = Winner(snatchInfo.tempOwner,\n                        snatchInfo.snatchCount,snatchInfo.totalSnatchCount,\n                        snatchInfo.amount,block.timestamp);\n        winners[_id].push(winner);\n        snatchInfo.lastOwner = address(0);\n        snatchInfo.tempOwner = address(0);\n        snatchInfo.amount = 0;\n        snatchInfo.lastAmount = 0;\n        uint256[4] storage time = snatchInfo.time;\n        time[0] = 0;\n        time[1] = 0;\n        snatchInfo.snatchCount = 0;\n    }\n   \n    function safeTransferFrom(address token, address from, address to, uint value) internal {\n        // bytes4(keccak256(bytes('transferFrom(address,address,uint256)')));\n        //transfer ERC20 Token\n        (bool success, bytes memory data) = token.call(abi.encodeWithSelector(0x23b872dd, from, to, value));\n        require(success && (data.length == 0 || abi.decode(data, (bool))), 'TRANSFER_FROM_FAILED');\n    }\n\n    function tokensReceived(\n      address operator,\n      address from,\n      address to,\n      uint amount,\n      bytes calldata userData,\n      bytes calldata operatorData\n    ) external override{\n        givers[from] += amount;\n    }\n\n}",
  "sourcePath": "/Users/wangban/Downloads/money/coin/chk/chksol/contracts/SnatchNormal.sol",
  "compiler": {
    "name": "solc",
    "version": "0.6.2+commit.bacdbe57.Emscripten.clang"
  },
  "schemaVersion": "3.2.0",
  "updatedAt": "2021-01-05T04:01:37.234Z",
  "devdoc": {
    "methods": {}
  },
  "userdoc": {
    "methods": {}
  }
}