{
  "contractName": "Snatch",
  "abi": [
    {
      "inputs": [],
      "stateMutability": "nonpayable",
      "type": "constructor"
    },
    {
      "anonymous": false,
      "inputs": [
        {
          "indexed": false,
          "internalType": "address",
          "name": "_addr",
          "type": "address"
        },
        {
          "indexed": false,
          "internalType": "uint256",
          "name": "_amount",
          "type": "uint256"
        }
      ],
      "name": "SnatchPool",
      "type": "event"
    },
    {
      "anonymous": false,
      "inputs": [
        {
          "indexed": false,
          "internalType": "address",
          "name": "_owner",
          "type": "address"
        },
        {
          "indexed": false,
          "internalType": "address",
          "name": "_addr",
          "type": "address"
        },
        {
          "indexed": false,
          "internalType": "uint256",
          "name": "_amount",
          "type": "uint256"
        }
      ],
      "name": "WithdrawPool",
      "type": "event"
    },
    {
      "inputs": [],
      "name": "SPONSOR",
      "outputs": [
        {
          "internalType": "contract SponsorWhitelistControl",
          "name": "",
          "type": "address"
        }
      ],
      "stateMutability": "view",
      "type": "function"
    },
    {
      "inputs": [],
      "name": "durationEndTime",
      "outputs": [
        {
          "internalType": "uint256",
          "name": "",
          "type": "uint256"
        }
      ],
      "stateMutability": "view",
      "type": "function"
    },
    {
      "inputs": [],
      "name": "durationTime",
      "outputs": [
        {
          "internalType": "uint256",
          "name": "",
          "type": "uint256"
        }
      ],
      "stateMutability": "view",
      "type": "function"
    },
    {
      "inputs": [],
      "name": "helperRate",
      "outputs": [
        {
          "internalType": "uint256",
          "name": "",
          "type": "uint256"
        }
      ],
      "stateMutability": "view",
      "type": "function"
    },
    {
      "inputs": [],
      "name": "increaseRange",
      "outputs": [
        {
          "internalType": "uint256",
          "name": "",
          "type": "uint256"
        }
      ],
      "stateMutability": "view",
      "type": "function"
    },
    {
      "inputs": [],
      "name": "platformAddress",
      "outputs": [
        {
          "internalType": "address",
          "name": "",
          "type": "address"
        }
      ],
      "stateMutability": "view",
      "type": "function"
    },
    {
      "inputs": [],
      "name": "platformRate",
      "outputs": [
        {
          "internalType": "uint256",
          "name": "",
          "type": "uint256"
        }
      ],
      "stateMutability": "view",
      "type": "function"
    },
    {
      "inputs": [],
      "name": "snatchCount",
      "outputs": [
        {
          "internalType": "uint256",
          "name": "",
          "type": "uint256"
        }
      ],
      "stateMutability": "view",
      "type": "function"
    },
    {
      "inputs": [],
      "name": "submitAmount",
      "outputs": [
        {
          "internalType": "uint256",
          "name": "",
          "type": "uint256"
        }
      ],
      "stateMutability": "view",
      "type": "function"
    },
    {
      "inputs": [],
      "name": "suprise",
      "outputs": [
        {
          "internalType": "uint256",
          "name": "",
          "type": "uint256"
        }
      ],
      "stateMutability": "view",
      "type": "function"
    },
    {
      "inputs": [],
      "name": "totalAmount",
      "outputs": [
        {
          "internalType": "uint256",
          "name": "",
          "type": "uint256"
        }
      ],
      "stateMutability": "view",
      "type": "function"
    },
    {
      "inputs": [],
      "name": "totalSnatchCount",
      "outputs": [
        {
          "internalType": "uint256",
          "name": "",
          "type": "uint256"
        }
      ],
      "stateMutability": "view",
      "type": "function"
    },
    {
      "inputs": [
        {
          "internalType": "uint256",
          "name": "",
          "type": "uint256"
        }
      ],
      "name": "winnerAddresses",
      "outputs": [
        {
          "internalType": "address",
          "name": "",
          "type": "address"
        }
      ],
      "stateMutability": "view",
      "type": "function"
    },
    {
      "inputs": [
        {
          "internalType": "address",
          "name": "",
          "type": "address"
        },
        {
          "internalType": "uint256",
          "name": "",
          "type": "uint256"
        }
      ],
      "name": "winnerMap",
      "outputs": [
        {
          "internalType": "address",
          "name": "winner",
          "type": "address"
        },
        {
          "internalType": "uint256",
          "name": "count",
          "type": "uint256"
        },
        {
          "internalType": "uint256",
          "name": "scount",
          "type": "uint256"
        },
        {
          "internalType": "uint256",
          "name": "amount",
          "type": "uint256"
        },
        {
          "internalType": "uint256",
          "name": "winTime",
          "type": "uint256"
        }
      ],
      "stateMutability": "view",
      "type": "function"
    },
    {
      "inputs": [
        {
          "internalType": "uint256",
          "name": "",
          "type": "uint256"
        }
      ],
      "name": "winners",
      "outputs": [
        {
          "internalType": "address",
          "name": "winner",
          "type": "address"
        },
        {
          "internalType": "uint256",
          "name": "count",
          "type": "uint256"
        },
        {
          "internalType": "uint256",
          "name": "scount",
          "type": "uint256"
        },
        {
          "internalType": "uint256",
          "name": "amount",
          "type": "uint256"
        },
        {
          "internalType": "uint256",
          "name": "winTime",
          "type": "uint256"
        }
      ],
      "stateMutability": "view",
      "type": "function"
    },
    {
      "stateMutability": "payable",
      "type": "receive"
    },
    {
      "inputs": [],
      "name": "getCurrentSnatchInfo",
      "outputs": [
        {
          "internalType": "address",
          "name": "lastOwner",
          "type": "address"
        },
        {
          "internalType": "address",
          "name": "tempOwner",
          "type": "address"
        },
        {
          "internalType": "uint256",
          "name": "amount",
          "type": "uint256"
        },
        {
          "internalType": "uint256",
          "name": "submitAmount",
          "type": "uint256"
        },
        {
          "internalType": "uint256",
          "name": "lastAmount",
          "type": "uint256"
        },
        {
          "internalType": "uint256",
          "name": "lastTime",
          "type": "uint256"
        },
        {
          "internalType": "uint256",
          "name": "startTime",
          "type": "uint256"
        },
        {
          "internalType": "uint256",
          "name": "_durationEndTime",
          "type": "uint256"
        },
        {
          "internalType": "uint256",
          "name": "_durationTime",
          "type": "uint256"
        },
        {
          "internalType": "uint256",
          "name": "_increaseRange",
          "type": "uint256"
        },
        {
          "internalType": "uint256",
          "name": "_totalAmount",
          "type": "uint256"
        },
        {
          "internalType": "uint256",
          "name": "_snatchCount",
          "type": "uint256"
        },
        {
          "internalType": "uint256",
          "name": "_totalSnatchCount",
          "type": "uint256"
        }
      ],
      "stateMutability": "view",
      "type": "function"
    },
    {
      "inputs": [],
      "name": "getWinnerAddresses",
      "outputs": [
        {
          "internalType": "address[]",
          "name": "_winners",
          "type": "address[]"
        }
      ],
      "stateMutability": "view",
      "type": "function"
    },
    {
      "inputs": [
        {
          "internalType": "uint256",
          "name": "_amount",
          "type": "uint256"
        }
      ],
      "name": "setSubmitM",
      "outputs": [],
      "stateMutability": "nonpayable",
      "type": "function"
    },
    {
      "inputs": [
        {
          "internalType": "address",
          "name": "_platform",
          "type": "address"
        }
      ],
      "name": "setPlatform",
      "outputs": [],
      "stateMutability": "nonpayable",
      "type": "function"
    },
    {
      "inputs": [
        {
          "internalType": "uint256",
          "name": "_suprise",
          "type": "uint256"
        }
      ],
      "name": "setSuprise",
      "outputs": [],
      "stateMutability": "nonpayable",
      "type": "function"
    },
    {
      "inputs": [
        {
          "internalType": "uint256",
          "name": "_durationTime",
          "type": "uint256"
        },
        {
          "internalType": "uint256",
          "name": "_durationEndTime",
          "type": "uint256"
        }
      ],
      "name": "setDuration",
      "outputs": [],
      "stateMutability": "nonpayable",
      "type": "function"
    },
    {
      "inputs": [
        {
          "internalType": "uint256",
          "name": "_rate",
          "type": "uint256"
        },
        {
          "internalType": "uint256",
          "name": "_increaseRange",
          "type": "uint256"
        }
      ],
      "name": "setPlatformRate",
      "outputs": [],
      "stateMutability": "nonpayable",
      "type": "function"
    },
    {
      "inputs": [],
      "name": "getNow",
      "outputs": [
        {
          "internalType": "uint256",
          "name": "",
          "type": "uint256"
        }
      ],
      "stateMutability": "view",
      "type": "function"
    },
    {
      "inputs": [],
      "name": "snatchPool",
      "outputs": [],
      "stateMutability": "payable",
      "type": "function"
    },
    {
      "inputs": [],
      "name": "withdrawPool",
      "outputs": [],
      "stateMutability": "nonpayable",
      "type": "function"
    },
    {
      "inputs": [],
      "name": "otherWithdraw",
      "outputs": [],
      "stateMutability": "nonpayable",
      "type": "function"
    },
    {
      "inputs": [
        {
          "internalType": "uint256",
          "name": "_amount",
          "type": "uint256"
        },
        {
          "internalType": "uint256",
          "name": "_rate",
          "type": "uint256"
        },
        {
          "internalType": "uint256",
          "name": "_count",
          "type": "uint256"
        }
      ],
      "name": "calcRangeAmount",
      "outputs": [
        {
          "internalType": "uint256",
          "name": "",
          "type": "uint256"
        }
      ],
      "stateMutability": "pure",
      "type": "function"
    }
  ],
  "bytecode": "0x608060405262069780600255610e1060035560646004556014600855678ac7230489e80000600a556014600b556005600c553480156200003e57600080fd5b5033600160006101000a81548173ffffffffffffffffffffffffffffffffffffffff021916908373ffffffffffffffffffffffffffffffffffffffff16021790555033600960006101000a81548173ffffffffffffffffffffffffffffffffffffffff021916908373ffffffffffffffffffffffffffffffffffffffff1602179055506040518060c00160405280600073ffffffffffffffffffffffffffffffffffffffff168152602001600073ffffffffffffffffffffffffffffffffffffffff16815260200160008152602001600a548152602001600081526020016000815250600f60008201518160000160006101000a81548173ffffffffffffffffffffffffffffffffffffffff021916908373ffffffffffffffffffffffffffffffffffffffff16021790555060208201518160010160006101000a81548173ffffffffffffffffffffffffffffffffffffffff021916908373ffffffffffffffffffffffffffffffffffffffff16021790555060408201518160020155606082015181600301556080820151816004015560a08201518160050155905050606060016040519080825280602002602001820160405280156200020f5781602001602082028038833980820191505090505b5090506000816000815181106200022257fe5b602002602001019073ffffffffffffffffffffffffffffffffffffffff16908173ffffffffffffffffffffffffffffffffffffffff168152505073088800000000000000000000000000000000000173ffffffffffffffffffffffffffffffffffffffff166310128d3e826040518263ffffffff1660e01b81526004018080602001828103825283818151815260200191508051906020019060200280838360005b83811015620002e1578082015181840152602081019050620002c4565b5050505090500192505050600060405180830381600087803b1580156200030757600080fd5b505af11580156200031c573d6000803e3d6000fd5b505050505061264280620003316000396000f3fe6080604052600436106101a05760003560e01c80637541bf94116100ec578063cd7ea0951161008a578063dbe55e5611610064578063dbe55e5614610853578063e280b8b2146108aa578063f0902b20146108d5578063f8b75fb514610900576101a7565b8063cd7ea095146107d9578063d07cae9d1461081e578063d2a4a44014610828576101a7565b8063a2fb1175116100c6578063a2fb1175146106d5578063a4e865fb1461076c578063af42242d14610797578063bbe4fd50146107ae576101a7565b80637541bf941461062a57806377207c2a14610655578063a1672bbe14610690576101a7565b80632a5913f5116101595780635c1648c1116101335780635c1648c11461055c5780635c42c7331461059757806361a04cb4146105ae5780636945c5ea146105d9576101a7565b80632a5913f5146103a357806336e0cac61461045a5780634679689c14610485576101a7565b8063045f9c97146101ac5780630ae1955d146102275780630fdfc0c81461028a5780631a39d8ef146102b55780631d073a7a146102e05780631ef9c56f14610337576101a7565b366101a757005b600080fd5b3480156101b857600080fd5b506101e5600480360360208110156101cf57600080fd5b810190808035906020019092919050505061092b565b604051808273ffffffffffffffffffffffffffffffffffffffff1673ffffffffffffffffffffffffffffffffffffffff16815260200191505060405180910390f35b34801561023357600080fd5b506102746004803603606081101561024a57600080fd5b81019080803590602001909291908035906020019092919080359060200190929190505050610967565b6040518082815260200191505060405180910390f35b34801561029657600080fd5b5061029f6109cf565b6040518082815260200191505060405180910390f35b3480156102c157600080fd5b506102ca6109d5565b6040518082815260200191505060405180910390f35b3480156102ec57600080fd5b506102f56109db565b604051808273ffffffffffffffffffffffffffffffffffffffff1673ffffffffffffffffffffffffffffffffffffffff16815260200191505060405180910390f35b34801561034357600080fd5b5061034c6109f3565b6040518080602001828103825283818151815260200191508051906020019060200280838360005b8381101561038f578082015181840152602081019050610374565b505050509050019250505060405180910390f35b3480156103af57600080fd5b506103fc600480360360408110156103c657600080fd5b81019080803573ffffffffffffffffffffffffffffffffffffffff16906020019092919080359060200190929190505050610a81565b604051808673ffffffffffffffffffffffffffffffffffffffff1673ffffffffffffffffffffffffffffffffffffffff1681526020018581526020018481526020018381526020018281526020019550505050505060405180910390f35b34801561046657600080fd5b5061046f610af1565b6040518082815260200191505060405180910390f35b34801561049157600080fd5b5061049a610af7565b604051808e73ffffffffffffffffffffffffffffffffffffffff1673ffffffffffffffffffffffffffffffffffffffff1681526020018d73ffffffffffffffffffffffffffffffffffffffff1673ffffffffffffffffffffffffffffffffffffffff1681526020018c81526020018b81526020018a81526020018981526020018881526020018781526020018681526020018581526020018481526020018381526020018281526020019d505050505050505050505050505060405180910390f35b34801561056857600080fd5b506105956004803603602081101561057f57600080fd5b8101908080359060200190929190505050610bab565b005b3480156105a357600080fd5b506105ac610c78565b005b3480156105ba57600080fd5b506105c361106a565b6040518082815260200191505060405180910390f35b3480156105e557600080fd5b50610628600480360360208110156105fc57600080fd5b81019080803573ffffffffffffffffffffffffffffffffffffffff169060200190929190505050611070565b005b34801561063657600080fd5b5061063f611177565b6040518082815260200191505060405180910390f35b34801561066157600080fd5b5061068e6004803603602081101561067857600080fd5b810190808035906020019092919050505061117d565b005b34801561069c57600080fd5b506106d3600480360360408110156106b357600080fd5b81019080803590602001909291908035906020019092919050505061124a565b005b3480156106e157600080fd5b5061070e600480360360208110156106f857600080fd5b810190808035906020019092919050505061131f565b604051808673ffffffffffffffffffffffffffffffffffffffff1673ffffffffffffffffffffffffffffffffffffffff1681526020018581526020018481526020018381526020018281526020019550505050505060405180910390f35b34801561077857600080fd5b50610781611382565b6040518082815260200191505060405180910390f35b3480156107a357600080fd5b506107ac611388565b005b3480156107ba57600080fd5b506107c3611779565b6040518082815260200191505060405180910390f35b3480156107e557600080fd5b5061081c600480360360408110156107fc57600080fd5b810190808035906020019092919080359060200190929190505050611781565b005b610826611868565b005b34801561083457600080fd5b5061083d611d9c565b6040518082815260200191505060405180910390f35b34801561085f57600080fd5b50610868611da2565b604051808273ffffffffffffffffffffffffffffffffffffffff1673ffffffffffffffffffffffffffffffffffffffff16815260200191505060405180910390f35b3480156108b657600080fd5b506108bf611dc8565b6040518082815260200191505060405180910390f35b3480156108e157600080fd5b506108ea611dce565b6040518082815260200191505060405180910390f35b34801561090c57600080fd5b50610915611dd4565b6040518082815260200191505060405180910390f35b6000818154811061093857fe5b906000526020600020016000915054906101000a900473ffffffffffffffffffffffffffffffffffffffff1681565b60006109c66109b76109a8606461099a61098b606488611dda90919063ffffffff16565b88611e2490919063ffffffff16565b611dda90919063ffffffff16565b86611e2490919063ffffffff16565b85611eaa90919063ffffffff16565b90509392505050565b60075481565b60055481565b73088800000000000000000000000000000000000181565b60606000805480602002602001604051908101604052809291908181526020018280548015610a7757602002820191906000526020600020905b8160009054906101000a900473ffffffffffffffffffffffffffffffffffffffff1673ffffffffffffffffffffffffffffffffffffffff1681526020019060010190808311610a2d575b5050505050905090565b600e6020528160005260406000208181548110610a9a57fe5b9060005260206000209060050201600091509150508060000160009054906101000a900473ffffffffffffffffffffffffffffffffffffffff16908060010154908060020154908060030154908060040154905085565b600b5481565b6000806000806000806000806000806000806000600f60000160009054906101000a900473ffffffffffffffffffffffffffffffffffffffff16600f60010160009054906101000a900473ffffffffffffffffffffffffffffffffffffffff16600f600201548c600f60030154600f60040154600f600501546002546003546008546005546006546007549c509c509c509c509c509c509c509c509c509c509c509c509c50909192939495969798999a9b9c565b600160009054906101000a900473ffffffffffffffffffffffffffffffffffffffff1673ffffffffffffffffffffffffffffffffffffffff163373ffffffffffffffffffffffffffffffffffffffff1614610c6e576040517f08c379a00000000000000000000000000000000000000000000000000000000081526004018080602001828103825260098152602001807f6e6f74206f776e6572000000000000000000000000000000000000000000000081525060200191505060405180910390fd5b80600a8190555050565b3373ffffffffffffffffffffffffffffffffffffffff16600f60010160009054906101000a900473ffffffffffffffffffffffffffffffffffffffff1673ffffffffffffffffffffffffffffffffffffffff1614610d3e576040517f08c379a000000000000000000000000000000000000000000000000000000000815260040180806020018281038252600a8152602001807f4e6f742077696e6e65720000000000000000000000000000000000000000000081525060200191505060405180910390fd5b42610d59600354600f60040154611eaa90919063ffffffff16565b1080610d7d575042610d7b600254600f60050154611eaa90919063ffffffff16565b105b610def576040517f08c379a00000000000000000000000000000000000000000000000000000000081526004018080602001828103825260108152602001807f47616d65206973206e6f74206f7665720000000000000000000000000000000081525060200191505060405180910390fd5b6000600f600201549050610e82600960009054906101000a900473ffffffffffffffffffffffffffffffffffffffff16610e476064610e39600b5486611e2490919063ffffffff16565b611dda90919063ffffffff16565b6040518060400160405280601781526020017f5472616e7366657220706c6174666f726d206572726f72000000000000000000815250611f32565b610f0d600f60010160009054906101000a900473ffffffffffffffffffffffffffffffffffffffff16610ed26064610ec4603286611e2490919063ffffffff16565b611dda90919063ffffffff16565b6040518060400160405280601581526020017f5472616e736665722077696e6e6572206572726f720000000000000000000000815250611f32565b610f7f610f376064610f29603285611e2490919063ffffffff16565b611dda90919063ffffffff16565b610f71610f626064610f54600b5487611e2490919063ffffffff16565b611dda90919063ffffffff16565b8461204a90919063ffffffff16565b61204a90919063ffffffff16565b600f600201819055507f1993aa2090edc0bad979d5f16efd6e3c23b084dc8356e9b2fe900406c7ba03893333610fe4610fd56064610fc7603288611e2490919063ffffffff16565b611dda90919063ffffffff16565b8561204a90919063ffffffff16565b604051808473ffffffffffffffffffffffffffffffffffffffff1673ffffffffffffffffffffffffffffffffffffffff1681526020018373ffffffffffffffffffffffffffffffffffffffff1673ffffffffffffffffffffffffffffffffffffffff168152602001828152602001935050505060405180910390a1611067612094565b50565b600a5481565b600160009054906101000a900473ffffffffffffffffffffffffffffffffffffffff1673ffffffffffffffffffffffffffffffffffffffff163373ffffffffffffffffffffffffffffffffffffffff1614611133576040517f08c379a00000000000000000000000000000000000000000000000000000000081526004018080602001828103825260098152602001807f6e6f74206f776e6572000000000000000000000000000000000000000000000081525060200191505060405180910390fd5b80600960006101000a81548173ffffffffffffffffffffffffffffffffffffffff021916908373ffffffffffffffffffffffffffffffffffffffff16021790555050565b600c5481565b600160009054906101000a900473ffffffffffffffffffffffffffffffffffffffff1673ffffffffffffffffffffffffffffffffffffffff163373ffffffffffffffffffffffffffffffffffffffff1614611240576040517f08c379a00000000000000000000000000000000000000000000000000000000081526004018080602001828103825260098152602001807f6e6f74206f776e6572000000000000000000000000000000000000000000000081525060200191505060405180910390fd5b8060048190555050565b600160009054906101000a900473ffffffffffffffffffffffffffffffffffffffff1673ffffffffffffffffffffffffffffffffffffffff163373ffffffffffffffffffffffffffffffffffffffff161461130d576040517f08c379a00000000000000000000000000000000000000000000000000000000081526004018080602001828103825260098152602001807f6e6f74206f776e6572000000000000000000000000000000000000000000000081525060200191505060405180910390fd5b81600b81905550806008819055505050565b600d818154811061132c57fe5b90600052602060002090600502016000915090508060000160009054906101000a900473ffffffffffffffffffffffffffffffffffffffff16908060010154908060020154908060030154908060040154905085565b60045481565b426113a3600354600f60040154611eaa90919063ffffffff16565b10806113c75750426113c5600254600f60050154611eaa90919063ffffffff16565b105b611439576040517f08c379a00000000000000000000000000000000000000000000000000000000081526004018080602001828103825260108152602001807f47616d65206973206e6f74206f7665720000000000000000000000000000000081525060200191505060405180910390fd5b6000600f6002015490506114cc600960009054906101000a900473ffffffffffffffffffffffffffffffffffffffff166114916064611483600b5486611e2490919063ffffffff16565b611dda90919063ffffffff16565b6040518060400160405280601d81526020017f4f74686572207472616e7366657220706c6174666f726d206572726f72000000815250611f32565b611557600f60010160009054906101000a900473ffffffffffffffffffffffffffffffffffffffff1661151c606461150e602d86611e2490919063ffffffff16565b611dda90919063ffffffff16565b6040518060400160405280601b81526020017f4f74686572207472616e736665722077696e6e6572206572726f720000000000815250611f32565b6115be336115836064611575600c5486611e2490919063ffffffff16565b611dda90919063ffffffff16565b6040518060400160405280601b81526020017f4f74686572207472616e736665722068656c706572206572726f720000000000815250611f32565b6116696115e960646115db600c5485611e2490919063ffffffff16565b611dda90919063ffffffff16565b61165b6116136064611605602d87611e2490919063ffffffff16565b611dda90919063ffffffff16565b61164d61163e6064611630600b5489611e2490919063ffffffff16565b611dda90919063ffffffff16565b8661204a90919063ffffffff16565b61204a90919063ffffffff16565b61204a90919063ffffffff16565b600f600201819055507f1993aa2090edc0bad979d5f16efd6e3c23b084dc8356e9b2fe900406c7ba0389600f60010160009054906101000a900473ffffffffffffffffffffffffffffffffffffffff16336116f36116e460646116d6602d88611e2490919063ffffffff16565b611dda90919063ffffffff16565b8561204a90919063ffffffff16565b604051808473ffffffffffffffffffffffffffffffffffffffff1673ffffffffffffffffffffffffffffffffffffffff1681526020018373ffffffffffffffffffffffffffffffffffffffff1673ffffffffffffffffffffffffffffffffffffffff168152602001828152602001935050505060405180910390a1611776612094565b50565b600042905090565b600160009054906101000a900473ffffffffffffffffffffffffffffffffffffffff1673ffffffffffffffffffffffffffffffffffffffff163373ffffffffffffffffffffffffffffffffffffffff1614611844576040517f08c379a00000000000000000000000000000000000000000000000000000000081526004018080602001828103825260098152602001807f6e6f74206f776e6572000000000000000000000000000000000000000000000081525060200191505060405180910390fd5b6000821461185457816003819055505b6000811461186457806002819055505b5050565b60004290506000600f600501541461199d5780611895600354600f60040154611eaa90919063ffffffff16565b1015611909576040517f08c379a00000000000000000000000000000000000000000000000000000000081526004018080602001828103825260178152602001807f4f766572206475726174696f6e2c67616d65206f76657200000000000000000081525060200191505060405180910390fd5b80611924600254600f60050154611eaa90919063ffffffff16565b1015611998576040517f08c379a00000000000000000000000000000000000000000000000000000000081526004018080602001828103825260188152602001807f47616d6520697320657870656e64206f7665722074696d65000000000000000081525060200191505060405180910390fd5b6119a8565b80600f600501819055505b678ac7230489e80000341015611a26576040517f08c379a000000000000000000000000000000000000000000000000000000000815260040180806020018281038252601e8152602001807f4d696e20616d6f756e74206d75737420677265617465207468616e203130000081525060200191505060405180910390fd5b6000611a6234611a546064611a4634600854611e2490919063ffffffff16565b611dda90919063ffffffff16565b611eaa90919063ffffffff16565b905080341115611ada576040517f08c379a000000000000000000000000000000000000000000000000000000000815260040180806020018281038252601e8152602001807f416d6f756e742063616e206e6f74206f766572206d617820616d6f756e74000081525060200191505060405180910390fd5b611af06001600654611eaa90919063ffffffff16565b6006819055506000611b0c600f60030154600854600654610967565b905080341015611b84576040517f08c379a000000000000000000000000000000000000000000000000000000000815260040180806020018281038252600c8152602001807f416d6f756e74206572726f72000000000000000000000000000000000000000081525060200191505060405180910390fd5b60008090506004546006541415611c2657611bc16064611bb36005600f60020154611e2490919063ffffffff16565b611dda90919063ffffffff16565b9050611c25600960009054906101000a900473ffffffffffffffffffffffffffffffffffffffff16826040518060400160405280601581526020017f5472616e7366657220736e61746368206572726f720000000000000000000000815250611f32565b5b611c2e6123e4565b611c3734612402565b611c6181611c5334600f60020154611eaa90919063ffffffff16565b61204a90919063ffffffff16565b600f60020181905550600f60010160009054906101000a900473ffffffffffffffffffffffffffffffffffffffff16600f60000160006101000a81548173ffffffffffffffffffffffffffffffffffffffff021916908373ffffffffffffffffffffffffffffffffffffffff16021790555033600f60010160006101000a81548173ffffffffffffffffffffffffffffffffffffffff021916908373ffffffffffffffffffffffffffffffffffffffff16021790555034600f6003018190555083600f600401819055507f6afd9d1c30fce85d2b7bb21441c679ed5a43bba76809e463ff25788f59cf9a193334604051808373ffffffffffffffffffffffffffffffffffffffff1673ffffffffffffffffffffffffffffffffffffffff1681526020018281526020019250505060405180910390a150505050565b60065481565b600960009054906101000a900473ffffffffffffffffffffffffffffffffffffffff1681565b60085481565b60025481565b60035481565b6000611e1c83836040518060400160405280601a81526020017f536166654d6174683a206469766973696f6e206279207a65726f000000000000815250612420565b905092915050565b600080831415611e375760009050611ea4565b6000828402905082848281611e4857fe5b0414611e9f576040517f08c379a00000000000000000000000000000000000000000000000000000000081526004018080602001828103825260218152602001806125ec6021913960400191505060405180910390fd5b809150505b92915050565b600080828401905083811015611f28576040517f08c379a000000000000000000000000000000000000000000000000000000000815260040180806020018281038252601b8152602001807f536166654d6174683a206164646974696f6e206f766572666c6f77000000000081525060200191505060405180910390fd5b8091505092915050565b60008373ffffffffffffffffffffffffffffffffffffffff168360405180600001905060006040518083038185875af1925050503d8060008114611f92576040519150601f19603f3d011682016040523d82523d6000602084013e611f97565b606091505b50509050808290612043576040517f08c379a00000000000000000000000000000000000000000000000000000000081526004018080602001828103825283818151815260200191508051906020019080838360005b83811015612008578082015181840152602081019050611fed565b50505050905090810190601f1680156120355780820380516001836020036101000a031916815260200191505b509250505060405180910390fd5b5050505050565b600061208c83836040518060400160405280601e81526020017f536166654d6174683a207375627472616374696f6e206f766572666c6f7700008152506124e6565b905092915050565b61209c6125a6565b6040518060a00160405280600f60010160009054906101000a900473ffffffffffffffffffffffffffffffffffffffff1673ffffffffffffffffffffffffffffffffffffffff16815260200160065481526020016007548152602001600f6002015481526020014281525090506000600f60010160009054906101000a900473ffffffffffffffffffffffffffffffffffffffff169080600181540180825580915050600190039060005260206000200160009091909190916101000a81548173ffffffffffffffffffffffffffffffffffffffff021916908373ffffffffffffffffffffffffffffffffffffffff160217905550600d81908060018154018082558091505060019003906000526020600020906005020160009091909190915060008201518160000160006101000a81548173ffffffffffffffffffffffffffffffffffffffff021916908373ffffffffffffffffffffffffffffffffffffffff160217905550602082015181600101556040820151816002015560608201518160030155608082015181600401555050600e6000600f60010160009054906101000a900473ffffffffffffffffffffffffffffffffffffffff1673ffffffffffffffffffffffffffffffffffffffff1673ffffffffffffffffffffffffffffffffffffffff16815260200190815260200160002081908060018154018082558091505060019003906000526020600020906005020160009091909190915060008201518160000160006101000a81548173ffffffffffffffffffffffffffffffffffffffff021916908373ffffffffffffffffffffffffffffffffffffffff1602179055506020820151816001015560408201518160020155606082015181600301556080820151816004015550506000600f60000160006101000a81548173ffffffffffffffffffffffffffffffffffffffff021916908373ffffffffffffffffffffffffffffffffffffffff1602179055506000600f60010160006101000a81548173ffffffffffffffffffffffffffffffffffffffff021916908373ffffffffffffffffffffffffffffffffffffffff160217905550600a54600f600301819055506000600f600401819055506000600f60050181905550600060068190555050565b6123fa6001600754611eaa90919063ffffffff16565b600781905550565b61241781600554611eaa90919063ffffffff16565b60058190555050565b600080831182906124cc576040517f08c379a00000000000000000000000000000000000000000000000000000000081526004018080602001828103825283818151815260200191508051906020019080838360005b83811015612491578082015181840152602081019050612476565b50505050905090810190601f1680156124be5780820380516001836020036101000a031916815260200191505b509250505060405180910390fd5b5060008385816124d857fe5b049050809150509392505050565b6000838311158290612593576040517f08c379a00000000000000000000000000000000000000000000000000000000081526004018080602001828103825283818151815260200191508051906020019080838360005b8381101561255857808201518184015260208101905061253d565b50505050905090810190601f1680156125855780820380516001836020036101000a031916815260200191505b509250505060405180910390fd5b5060008385039050809150509392505050565b6040518060a00160405280600073ffffffffffffffffffffffffffffffffffffffff16815260200160008152602001600081526020016000815260200160008152509056fe536166654d6174683a206d756c7469706c69636174696f6e206f766572666c6f77a2646970667358221220fc05458c9f2e088420e851f3e0b3a61cd5fc1b74932a2ba4ba769dc5b513ce8d64736f6c63430006020033",
  "source": "pragma solidity >=0.6.0 <0.8.0;\nimport \"@openzeppelin/contracts/math/SafeMath.sol\";\nimport \"./SponsorWhitelistControl.sol\";\n\ncontract Snatch{\n\n    event SnatchPool(address _addr,uint256 _amount);\n    event WithdrawPool(address _owner, address _addr,uint256 _amount);\n\n    address[] public winnerAddresses;\n\n    using SafeMath for uint256;\n\n    address snatchOwner;\n\n    uint256 public durationEndTime = 5*86400;\n\n    uint256 public durationTime = 1*3600;\n\n    uint256 public suprise = 100;\n\n    uint256 public totalAmount;\n\n    uint256 public snatchCount;\n\n    uint256 public totalSnatchCount;\n\n    uint256 public increaseRange = 20;\n\n    address public platformAddress;\n\n    uint256 public submitAmount = 10e18;\n\n    uint256 public platformRate = 20;\n    uint256 public helperRate = 5;\n\n    Winner[] public winners;\n\n    mapping(address => Winner[]) public winnerMap;\n\n    SnatchInfo snatchInfo;\n\n    struct SnatchInfo{\n        address lastOwner;\n        address tempOwner;\n        uint256 amount;\n        uint256 lastAmount;\n        uint256 lastTime;\n        uint256 startTime;\n    }\n\n    struct Winner{\n        address winner;\n        uint256 count;\n        uint256 scount;\n        uint256 amount;\n        uint256 winTime;\n    }\n\n    SponsorWhitelistControl public constant SPONSOR = SponsorWhitelistControl(\n        address(0x0888000000000000000000000000000000000001)\n    );\n\n    constructor() public{\n        snatchOwner = msg.sender;\n        platformAddress = msg.sender;\n        snatchInfo = SnatchInfo(address(0),address(0),0,submitAmount,0,0);\n        // register all users as sponsees\n        address[] memory users = new address[](1);\n        users[0] = address(0);\n        SPONSOR.addPrivilege(users);\n    }\n\n    \n\n    modifier onlyOwner(){\n        require(msg.sender==snatchOwner,\"not owner\");\n        _;\n    }\n\n    function getCurrentSnatchInfo() view public returns(\n        address lastOwner,\n        address tempOwner,\n        uint256 amount,\n        uint256 submitAmount,\n        uint256 lastAmount,\n        uint256 lastTime,\n        uint256 startTime,\n        uint256 _durationEndTime,\n        uint256 _durationTime,\n        uint256 _increaseRange,\n        uint256 _totalAmount,\n        uint256 _snatchCount,\n        uint256 _totalSnatchCount\n        ){\n            return (snatchInfo.lastOwner,snatchInfo.tempOwner,\n            snatchInfo.amount,submitAmount,snatchInfo.lastAmount,\n            snatchInfo.lastTime,snatchInfo.startTime,\n            durationEndTime,durationTime,increaseRange,totalAmount,snatchCount,totalSnatchCount\n            );\n    }\n\n    function getWinnerAddresses() view public returns(address[] memory _winners){\n        return winnerAddresses;\n    }\n\n    function setSubmitM(uint256 _amount) public onlyOwner(){\n        submitAmount = _amount;\n    }\n\n    function setPlatform(address _platform) public onlyOwner(){\n        platformAddress = _platform;\n    }\n\n    function setSuprise(uint256 _suprise) public onlyOwner(){\n        suprise = _suprise;\n    }\n    \n    function setDuration(uint256 _durationTime,uint256 _durationEndTime) public onlyOwner(){\n        if(_durationTime!=0){\n            durationTime = _durationTime;\n        }\n        if(_durationEndTime!=0){\n            durationEndTime = _durationEndTime;\n        }\n    }\n\n    function setPlatformRate(uint256 _rate,uint256 _increaseRange) public onlyOwner(){\n        platformRate = _rate;\n        increaseRange = _increaseRange;\n    }\n\n    function getNow() view public returns(uint256){\n        return block.timestamp;\n    }\n\n    function snatchPool() payable public{\n        //get now\n        uint256 t = block.timestamp;\n        if(snatchInfo.startTime!=0){\n            require(snatchInfo.lastTime.add(durationTime) >= t, \"Over duration,game over\");\n            require(snatchInfo.startTime.add(durationEndTime) >= t, \"Game is expend over time\");\n        }else{\n            //set time like\n            snatchInfo.startTime = t;\n        }\n        // require(snatchInfo.tempOwner!=msg.sender,\"Can not repeat snatch\");\n        //cal amounnt\n        require(msg.value >= 10 ether,\"Min amount must greate than 10\");\n        uint256 rangeAmount = increaseRange.mul(msg.value).div(100).add(msg.value);\n        require(msg.value <= rangeAmount, \"Amount can not over max amount\");\n        // add count\n        snatchCount = snatchCount.add(1);\n        //check amount\n        uint256 nowAmount = calcRangeAmount(snatchInfo.lastAmount,increaseRange,snatchCount);\n        require(msg.value >= nowAmount,\"Amount error\");\n\n        uint256 reward = 0;\n        //\n        if(snatchCount == suprise){\n            //send 5%\n            reward = snatchInfo.amount.mul(5).div(100);\n            transferEth(platformAddress, reward,\"Transfer snatch error\");\n        }\n        addSnatchTotalCount();\n        addSnatchTotalAmount(msg.value);\n        //add amount\n        snatchInfo.amount = snatchInfo.amount.add(msg.value).sub(reward);\n        snatchInfo.lastOwner = snatchInfo.tempOwner;\n        snatchInfo.tempOwner = msg.sender;\n        snatchInfo.lastAmount = msg.value;\n        snatchInfo.lastTime = t;\n        emit SnatchPool(msg.sender,msg.value);\n    }\n\n    function withdrawPool() public{\n        require(snatchInfo.tempOwner == msg.sender,\"Not winner\");\n        require(snatchInfo.lastTime.add(durationTime) < block.timestamp\n            || snatchInfo.startTime.add(durationEndTime) < block.timestamp,\"Game is not over\");\n        uint256 reward = snatchInfo.amount;\n        //r*10%\n        transferEth(platformAddress, reward.mul(platformRate).div(100),\"Transfer platform error\");\n        // r-r*10%\n        //50% to winner\n        transferEth(snatchInfo.tempOwner,reward.mul(50).div(100),\"Transfer winner error\");\n        //decimals\n        snatchInfo.amount = reward.sub(reward.mul(platformRate).div(100))\n                                        .sub(reward.mul(50).div(100));\n        emit WithdrawPool(msg.sender,msg.sender,reward.sub(reward.mul(50).div(100)));\n        initStatus();\n    }\n\n    function otherWithdraw() public {\n        require(snatchInfo.lastTime.add(durationTime) < block.timestamp\n            || snatchInfo.startTime.add(durationEndTime) < block.timestamp,\"Game is not over\");\n        uint256 reward = snatchInfo.amount;\n        //platform 10%\n        transferEth(platformAddress, reward.mul(platformRate).div(100),\"Other transfer platform error\");\n        //win 45%\n        transferEth(snatchInfo.tempOwner,reward.mul(45).div(100),\"Other transfer winner error\");\n        //win 5%\n        transferEth(msg.sender,reward.mul(helperRate).div(100),\"Other transfer helper error\");\n        //40% decimals\n        snatchInfo.amount = reward.sub(reward.mul(platformRate).div(100))\n                                    .sub(reward.mul(45).div(100))\n                                    .sub(reward.mul(helperRate).div(100));\n        emit WithdrawPool(snatchInfo.tempOwner,\n                            msg.sender,\n                            reward.sub(reward.mul(45).div(100)));\n        initStatus();\n    }\n\n\n    function addSnatchTotalAmount(uint256 _amount) internal{\n        totalAmount = totalAmount.add(_amount);\n    }\n\n    function addSnatchTotalCount() internal{\n        totalSnatchCount = totalSnatchCount.add(1);\n    }\n\n    function initStatus() internal{\n        Winner memory winner = Winner(snatchInfo.tempOwner,\n                        snatchCount,totalSnatchCount,\n                        snatchInfo.amount,block.timestamp);\n        winnerAddresses.push(snatchInfo.tempOwner);\n        winners.push(winner);\n        winnerMap[snatchInfo.tempOwner].push(winner);\n        snatchInfo.lastOwner = address(0);\n        snatchInfo.tempOwner = address(0);\n        snatchInfo.lastAmount = submitAmount;\n        snatchInfo.lastTime = 0;\n        snatchInfo.startTime = 0;\n        snatchCount = 0;\n    }\n   \n\n    function transferEth(address _address, uint256 _value,string memory message) internal{\n        (bool res, ) = address(uint160(_address)).call{value:_value}(\"\");\n        require(res,message);\n    }\n\n    function calcRangeAmount(uint256 _amount,uint256 _rate,uint256 _count) pure public returns(uint256){\n        return _amount.add(_amount.mul(_rate.mul(_count.div(100)).div(100)));\n    }\n\n    receive() external payable {}\n\n}",
  "sourcePath": "/Users/wangban/Downloads/money/coin/chk/chksol/contracts/Snatch.sol",
  "compiler": {
    "name": "solc",
    "version": "0.6.2+commit.bacdbe57.Emscripten.clang"
  },
  "schemaVersion": "3.2.0",
  "updatedAt": "2021-01-15T16:48:11.247Z",
  "devdoc": {
    "methods": {}
  },
  "userdoc": {
    "methods": {}
  }
}