{
  "contractName": "SnatchNormal",
  "abi": [
    {
      "inputs": [
        {
          "internalType": "address",
          "name": "_nftToken",
          "type": "address"
        }
      ],
      "stateMutability": "nonpayable",
      "type": "constructor"
    },
    {
      "anonymous": false,
      "inputs": [
        {
          "indexed": false,
          "internalType": "address",
          "name": "owner",
          "type": "address"
        },
        {
          "indexed": false,
          "internalType": "uint256",
          "name": "_id",
          "type": "uint256"
        }
      ],
      "name": "AddSnatch",
      "type": "event"
    },
    {
      "anonymous": false,
      "inputs": [
        {
          "indexed": false,
          "internalType": "address",
          "name": "_addr",
          "type": "address"
        },
        {
          "indexed": false,
          "internalType": "uint256",
          "name": "_amount",
          "type": "uint256"
        }
      ],
      "name": "SnatchTokenPool",
      "type": "event"
    },
    {
      "anonymous": false,
      "inputs": [
        {
          "indexed": false,
          "internalType": "address",
          "name": "_owner",
          "type": "address"
        },
        {
          "indexed": false,
          "internalType": "address",
          "name": "_addr",
          "type": "address"
        },
        {
          "indexed": false,
          "internalType": "uint256",
          "name": "_amount",
          "type": "uint256"
        }
      ],
      "name": "WithdrawTokenPool",
      "type": "event"
    },
    {
      "inputs": [],
      "name": "SPONSOR",
      "outputs": [
        {
          "internalType": "contract SponsorWhitelistControl",
          "name": "",
          "type": "address"
        }
      ],
      "stateMutability": "view",
      "type": "function"
    },
    {
      "inputs": [
        {
          "internalType": "uint256",
          "name": "",
          "type": "uint256"
        }
      ],
      "name": "exchangeRate",
      "outputs": [
        {
          "internalType": "uint256",
          "name": "",
          "type": "uint256"
        }
      ],
      "stateMutability": "view",
      "type": "function"
    },
    {
      "inputs": [
        {
          "internalType": "address",
          "name": "",
          "type": "address"
        }
      ],
      "name": "givers",
      "outputs": [
        {
          "internalType": "uint256",
          "name": "",
          "type": "uint256"
        }
      ],
      "stateMutability": "view",
      "type": "function"
    },
    {
      "inputs": [
        {
          "internalType": "address",
          "name": "",
          "type": "address"
        },
        {
          "internalType": "uint256",
          "name": "",
          "type": "uint256"
        }
      ],
      "name": "selfSnatchInfoMap",
      "outputs": [
        {
          "internalType": "uint256",
          "name": "",
          "type": "uint256"
        }
      ],
      "stateMutability": "view",
      "type": "function"
    },
    {
      "inputs": [
        {
          "internalType": "uint256",
          "name": "",
          "type": "uint256"
        }
      ],
      "name": "snatchInfoMap",
      "outputs": [
        {
          "internalType": "address",
          "name": "token",
          "type": "address"
        },
        {
          "internalType": "address",
          "name": "owner",
          "type": "address"
        },
        {
          "internalType": "address",
          "name": "lastOwner",
          "type": "address"
        },
        {
          "internalType": "address",
          "name": "tempOwner",
          "type": "address"
        },
        {
          "internalType": "uint256",
          "name": "amount",
          "type": "uint256"
        },
        {
          "internalType": "uint256",
          "name": "submitAmount",
          "type": "uint256"
        },
        {
          "internalType": "uint256",
          "name": "lastAmount",
          "type": "uint256"
        },
        {
          "internalType": "uint256",
          "name": "increaseRange",
          "type": "uint256"
        },
        {
          "internalType": "uint256",
          "name": "snatchCount",
          "type": "uint256"
        },
        {
          "internalType": "uint256",
          "name": "totalSnatchCount",
          "type": "uint256"
        },
        {
          "internalType": "uint256",
          "name": "totalAmount",
          "type": "uint256"
        }
      ],
      "stateMutability": "view",
      "type": "function"
    },
    {
      "inputs": [
        {
          "internalType": "address",
          "name": "",
          "type": "address"
        }
      ],
      "name": "snatchOwnerRole",
      "outputs": [
        {
          "internalType": "bool",
          "name": "",
          "type": "bool"
        }
      ],
      "stateMutability": "view",
      "type": "function"
    },
    {
      "inputs": [
        {
          "internalType": "uint256",
          "name": "",
          "type": "uint256"
        }
      ],
      "name": "snatchlist",
      "outputs": [
        {
          "internalType": "uint256",
          "name": "",
          "type": "uint256"
        }
      ],
      "stateMutability": "view",
      "type": "function"
    },
    {
      "inputs": [
        {
          "internalType": "address",
          "name": "",
          "type": "address"
        },
        {
          "internalType": "uint256",
          "name": "",
          "type": "uint256"
        }
      ],
      "name": "ticketCountMap",
      "outputs": [
        {
          "internalType": "uint256",
          "name": "",
          "type": "uint256"
        }
      ],
      "stateMutability": "view",
      "type": "function"
    },
    {
      "inputs": [
        {
          "internalType": "uint256",
          "name": "",
          "type": "uint256"
        },
        {
          "internalType": "uint256",
          "name": "",
          "type": "uint256"
        }
      ],
      "name": "winners",
      "outputs": [
        {
          "internalType": "address",
          "name": "winner",
          "type": "address"
        },
        {
          "internalType": "uint256",
          "name": "count",
          "type": "uint256"
        },
        {
          "internalType": "uint256",
          "name": "snatchCount",
          "type": "uint256"
        },
        {
          "internalType": "uint256",
          "name": "amount",
          "type": "uint256"
        },
        {
          "internalType": "uint256",
          "name": "winTime",
          "type": "uint256"
        }
      ],
      "stateMutability": "view",
      "type": "function"
    },
    {
      "stateMutability": "payable",
      "type": "receive"
    },
    {
      "inputs": [
        {
          "internalType": "uint256",
          "name": "_id",
          "type": "uint256"
        }
      ],
      "name": "getSnatchTimeInfo",
      "outputs": [
        {
          "internalType": "uint256",
          "name": "_startTime",
          "type": "uint256"
        },
        {
          "internalType": "uint256",
          "name": "_lastTime",
          "type": "uint256"
        },
        {
          "internalType": "uint256",
          "name": "_durationTime",
          "type": "uint256"
        },
        {
          "internalType": "uint256",
          "name": "_durationEndTime",
          "type": "uint256"
        }
      ],
      "stateMutability": "view",
      "type": "function"
    },
    {
      "inputs": [
        {
          "internalType": "uint256",
          "name": "_id",
          "type": "uint256"
        }
      ],
      "name": "getSnatchBaseInfo",
      "outputs": [
        {
          "internalType": "address",
          "name": "_token",
          "type": "address"
        },
        {
          "internalType": "address",
          "name": "_owner",
          "type": "address"
        },
        {
          "internalType": "address",
          "name": "_lastOwner",
          "type": "address"
        },
        {
          "internalType": "address",
          "name": "_tempOwner",
          "type": "address"
        },
        {
          "internalType": "uint256",
          "name": "_amount",
          "type": "uint256"
        },
        {
          "internalType": "uint256",
          "name": "_submitAmount",
          "type": "uint256"
        },
        {
          "internalType": "uint256",
          "name": "_lastAmount",
          "type": "uint256"
        },
        {
          "internalType": "uint256",
          "name": "_increaseRange",
          "type": "uint256"
        },
        {
          "internalType": "uint256",
          "name": "_snatchCount",
          "type": "uint256"
        },
        {
          "internalType": "uint256",
          "name": "_totalSnatchCount",
          "type": "uint256"
        },
        {
          "internalType": "uint256",
          "name": "_totalAmount",
          "type": "uint256"
        }
      ],
      "stateMutability": "view",
      "type": "function"
    },
    {
      "inputs": [
        {
          "internalType": "address",
          "name": "_owner",
          "type": "address"
        }
      ],
      "name": "getOwnerSnatch",
      "outputs": [
        {
          "internalType": "uint256[]",
          "name": "_ids",
          "type": "uint256[]"
        }
      ],
      "stateMutability": "view",
      "type": "function"
    },
    {
      "inputs": [
        {
          "internalType": "address",
          "name": "_nftToken",
          "type": "address"
        }
      ],
      "name": "addNft",
      "outputs": [],
      "stateMutability": "nonpayable",
      "type": "function"
    },
    {
      "inputs": [
        {
          "internalType": "uint256",
          "name": "_tokenId",
          "type": "uint256"
        },
        {
          "internalType": "address",
          "name": "nftToken",
          "type": "address"
        },
        {
          "internalType": "address",
          "name": "token",
          "type": "address"
        },
        {
          "internalType": "uint256",
          "name": "submitAmount",
          "type": "uint256"
        },
        {
          "internalType": "uint256",
          "name": "durationTime",
          "type": "uint256"
        },
        {
          "internalType": "uint256",
          "name": "durationEndTime",
          "type": "uint256"
        },
        {
          "internalType": "uint256",
          "name": "increaseRange",
          "type": "uint256"
        }
      ],
      "name": "addSnatch",
      "outputs": [],
      "stateMutability": "nonpayable",
      "type": "function"
    },
    {
      "inputs": [
        {
          "internalType": "uint256",
          "name": "_rate",
          "type": "uint256"
        },
        {
          "internalType": "uint256",
          "name": "_id",
          "type": "uint256"
        }
      ],
      "name": "setExchangeRateById",
      "outputs": [],
      "stateMutability": "nonpayable",
      "type": "function"
    },
    {
      "inputs": [],
      "name": "getSnatchList",
      "outputs": [
        {
          "internalType": "uint256[]",
          "name": "",
          "type": "uint256[]"
        }
      ],
      "stateMutability": "view",
      "type": "function"
    },
    {
      "inputs": [
        {
          "internalType": "uint256",
          "name": "_id",
          "type": "uint256"
        },
        {
          "internalType": "uint256",
          "name": "_amount",
          "type": "uint256"
        }
      ],
      "name": "snatchTokenPool",
      "outputs": [],
      "stateMutability": "nonpayable",
      "type": "function"
    },
    {
      "inputs": [
        {
          "internalType": "uint256",
          "name": "_id",
          "type": "uint256"
        }
      ],
      "name": "withdrawPool",
      "outputs": [],
      "stateMutability": "nonpayable",
      "type": "function"
    },
    {
      "inputs": [
        {
          "internalType": "uint256",
          "name": "_id",
          "type": "uint256"
        }
      ],
      "name": "otherWithdrawToken",
      "outputs": [],
      "stateMutability": "nonpayable",
      "type": "function"
    },
    {
      "inputs": [
        {
          "internalType": "uint256",
          "name": "_id",
          "type": "uint256"
        }
      ],
      "name": "exchangeRest",
      "outputs": [],
      "stateMutability": "payable",
      "type": "function"
    },
    {
      "inputs": [
        {
          "internalType": "uint256",
          "name": "_amount",
          "type": "uint256"
        },
        {
          "internalType": "uint256",
          "name": "_id",
          "type": "uint256"
        }
      ],
      "name": "getPlatformCoin",
      "outputs": [],
      "stateMutability": "nonpayable",
      "type": "function"
    },
    {
      "inputs": [
        {
          "internalType": "uint256",
          "name": "_amount",
          "type": "uint256"
        },
        {
          "internalType": "uint256",
          "name": "_rate",
          "type": "uint256"
        },
        {
          "internalType": "uint256",
          "name": "_count",
          "type": "uint256"
        }
      ],
      "name": "calcRangeAmount",
      "outputs": [
        {
          "internalType": "uint256",
          "name": "",
          "type": "uint256"
        }
      ],
      "stateMutability": "pure",
      "type": "function"
    },
    {
      "inputs": [
        {
          "internalType": "address",
          "name": "operator",
          "type": "address"
        },
        {
          "internalType": "address",
          "name": "from",
          "type": "address"
        },
        {
          "internalType": "address",
          "name": "to",
          "type": "address"
        },
        {
          "internalType": "uint256",
          "name": "amount",
          "type": "uint256"
        },
        {
          "internalType": "bytes",
          "name": "userData",
          "type": "bytes"
        },
        {
          "internalType": "bytes",
          "name": "operatorData",
          "type": "bytes"
        }
      ],
      "name": "tokensReceived",
      "outputs": [],
      "stateMutability": "nonpayable",
      "type": "function"
    }
  ],
  "bytecode": "0x608060405260026007557388887ed889e776bcbe2f0f9932ecfabcdfcd1820600c60006101000a81548173ffffffffffffffffffffffffffffffffffffffff021916908373ffffffffffffffffffffffffffffffffffffffff1602179055503480156200006b57600080fd5b506040516200438b3803806200438b833981810160405260208110156200009157600080fd5b8101908080519060200190929190505050600c60009054906101000a900473ffffffffffffffffffffffffffffffffffffffff1673ffffffffffffffffffffffffffffffffffffffff166329965a1d307fb281fc8c12954d22544db45de3159a39272895b169a852b314f9cc762e44c53b60001b306040518463ffffffff1660e01b8152600401808473ffffffffffffffffffffffffffffffffffffffff1673ffffffffffffffffffffffffffffffffffffffff1681526020018381526020018273ffffffffffffffffffffffffffffffffffffffff1673ffffffffffffffffffffffffffffffffffffffff1681526020019350505050600060405180830381600087803b158015620001a357600080fd5b505af1158015620001b8573d6000803e3d6000fd5b5050505033600660006101000a81548173ffffffffffffffffffffffffffffffffffffffff021916908373ffffffffffffffffffffffffffffffffffffffff160217905550806000808373ffffffffffffffffffffffffffffffffffffffff1673ffffffffffffffffffffffffffffffffffffffff16815260200190815260200160002060006101000a81548173ffffffffffffffffffffffffffffffffffffffff021916908373ffffffffffffffffffffffffffffffffffffffff16021790555060606001604051908082528060200260200182016040528015620002ad5781602001602082028038833980820191505090505b509050600081600081518110620002c057fe5b602002602001019073ffffffffffffffffffffffffffffffffffffffff16908173ffffffffffffffffffffffffffffffffffffffff168152505073088800000000000000000000000000000000000173ffffffffffffffffffffffffffffffffffffffff166310128d3e826040518263ffffffff1660e01b81526004018080602001828103825283818151815260200191508051906020019060200280838360005b838110156200037f57808201518184015260208101905062000362565b5050505090500192505050600060405180830381600087803b158015620003a557600080fd5b505af1158015620003ba573d6000803e3d6000fd5b505050505050613fbb80620003d06000396000f3fe6080604052600436106101435760003560e01c806375456c30116100b6578063b0e1152c1161006f578063b0e1152c14610a87578063b636dcac14610af3578063cf7b603614610b62578063cfa5beda14610ba7578063e2928ffb14610bec578063e89081f814610c3b5761014a565b806375456c301461065f5780637bb8510a146106c857806387cafbba1461072c57806390f90013146108715780639d6fe3a91461089f578063a40f1d70146109e45761014a565b8063402d9bcd11610108578063402d9bcd14610495578063447a91fd146104da578063485fa99e1461052b5780634c034ea91461057a578063631b1758146105b55780636b86d844146106245761014a565b806223de291461014f5780630ae1955d146102945780630efc8865146102f75780631b4e5fc6146103985780631d073a7a1461043e5761014a565b3661014a57005b600080fd5b34801561015b57600080fd5b50610292600480360360c081101561017257600080fd5b81019080803573ffffffffffffffffffffffffffffffffffffffff169060200190929190803573ffffffffffffffffffffffffffffffffffffffff169060200190929190803573ffffffffffffffffffffffffffffffffffffffff16906020019092919080359060200190929190803590602001906401000000008111156101f957600080fd5b82018360208201111561020b57600080fd5b8035906020019184600183028401116401000000008311171561022d57600080fd5b90919293919293908035906020019064010000000081111561024e57600080fd5b82018360208201111561026057600080fd5b8035906020019184600183028401116401000000008311171561028257600080fd5b9091929391929390505050610ca0565b005b3480156102a057600080fd5b506102e1600480360360608110156102b757600080fd5b81019080803590602001909291908035906020019092919080359060200190929190505050610cf7565b6040518082815260200191505060405180910390f35b34801561030357600080fd5b5061033a6004803603604081101561031a57600080fd5b810190808035906020019092919080359060200190929190505050610d5f565b604051808673ffffffffffffffffffffffffffffffffffffffff1673ffffffffffffffffffffffffffffffffffffffff1681526020018581526020018481526020018381526020018281526020019550505050505060405180910390f35b3480156103a457600080fd5b506103e7600480360360208110156103bb57600080fd5b81019080803573ffffffffffffffffffffffffffffffffffffffff169060200190929190505050610dcf565b6040518080602001828103825283818151815260200191508051906020019060200280838360005b8381101561042a57808201518184015260208101905061040f565b505050509050019250505060405180910390f35b34801561044a57600080fd5b50610453610e66565b604051808273ffffffffffffffffffffffffffffffffffffffff1673ffffffffffffffffffffffffffffffffffffffff16815260200191505060405180910390f35b3480156104a157600080fd5b506104d8600480360360408110156104b857600080fd5b810190808035906020019092919080359060200190929190505050610e7e565b005b3480156104e657600080fd5b50610529600480360360208110156104fd57600080fd5b81019080803573ffffffffffffffffffffffffffffffffffffffff16906020019092919050505061103f565b005b34801561053757600080fd5b506105646004803603602081101561054e57600080fd5b8101908080359060200190929190505050611182565b6040518082815260200191505060405180910390f35b34801561058657600080fd5b506105b36004803603602081101561059d57600080fd5b81019080803590602001909291905050506111a3565b005b3480156105c157600080fd5b5061060e600480360360408110156105d857600080fd5b81019080803573ffffffffffffffffffffffffffffffffffffffff1690602001909291908035906020019092919050505061172a565b6040518082815260200191505060405180910390f35b34801561063057600080fd5b5061065d6004803603602081101561064757600080fd5b8101908080359060200190929190505050611758565b005b34801561066b57600080fd5b506106ae6004803603602081101561068257600080fd5b81019080803573ffffffffffffffffffffffffffffffffffffffff169060200190929190505050611d17565b604051808215151515815260200191505060405180910390f35b3480156106d457600080fd5b50610701600480360360208110156106eb57600080fd5b8101908080359060200190929190505050611d37565b6040518085815260200184815260200183815260200182815260200194505050505060405180910390f35b34801561073857600080fd5b506107656004803603602081101561074f57600080fd5b8101908080359060200190929190505050611fb1565b604051808c73ffffffffffffffffffffffffffffffffffffffff1673ffffffffffffffffffffffffffffffffffffffff1681526020018b73ffffffffffffffffffffffffffffffffffffffff1673ffffffffffffffffffffffffffffffffffffffff1681526020018a73ffffffffffffffffffffffffffffffffffffffff1673ffffffffffffffffffffffffffffffffffffffff1681526020018973ffffffffffffffffffffffffffffffffffffffff1673ffffffffffffffffffffffffffffffffffffffff1681526020018881526020018781526020018681526020018581526020018481526020018381526020018281526020019b50505050505050505050505060405180910390f35b61089d6004803603602081101561088757600080fd5b810190808035906020019092919050505061208b565b005b3480156108ab57600080fd5b506108d8600480360360208110156108c257600080fd5b81019080803590602001909291905050506123e0565b604051808c73ffffffffffffffffffffffffffffffffffffffff1673ffffffffffffffffffffffffffffffffffffffff1681526020018b73ffffffffffffffffffffffffffffffffffffffff1673ffffffffffffffffffffffffffffffffffffffff1681526020018a73ffffffffffffffffffffffffffffffffffffffff1673ffffffffffffffffffffffffffffffffffffffff1681526020018973ffffffffffffffffffffffffffffffffffffffff1673ffffffffffffffffffffffffffffffffffffffff1681526020018881526020018781526020018681526020018581526020018481526020018381526020018281526020019b50505050505050505050505060405180910390f35b3480156109f057600080fd5b50610a85600480360360e0811015610a0757600080fd5b8101908080359060200190929190803573ffffffffffffffffffffffffffffffffffffffff169060200190929190803573ffffffffffffffffffffffffffffffffffffffff1690602001909291908035906020019092919080359060200190929190803590602001909291908035906020019092919050505061265e565b005b348015610a9357600080fd5b50610a9c612f4c565b6040518080602001828103825283818151815260200191508051906020019060200280838360005b83811015610adf578082015181840152602081019050610ac4565b505050509050019250505060405180910390f35b348015610aff57600080fd5b50610b4c60048036036040811015610b1657600080fd5b81019080803573ffffffffffffffffffffffffffffffffffffffff16906020019092919080359060200190929190505050612fa4565b6040518082815260200191505060405180910390f35b348015610b6e57600080fd5b50610ba560048036036040811015610b8557600080fd5b810190808035906020019092919080359060200190929190505050612fc9565b005b348015610bb357600080fd5b50610bea60048036036040811015610bca57600080fd5b8101908080359060200190929190803590602001909291905050506133dc565b005b348015610bf857600080fd5b50610c2560048036036020811015610c0f57600080fd5b81019080803590602001909291905050506134d5565b6040518082815260200191505060405180910390f35b348015610c4757600080fd5b50610c8a60048036036020811015610c5e57600080fd5b81019080803573ffffffffffffffffffffffffffffffffffffffff1690602001909291905050506134ed565b6040518082815260200191505060405180910390f35b84600360008973ffffffffffffffffffffffffffffffffffffffff1673ffffffffffffffffffffffffffffffffffffffff168152602001908152602001600020600082825401925050819055505050505050505050565b6000610d56610d476064610d39610d2a610d1b60648861350590919063ffffffff16565b8861354f90919063ffffffff16565b8861354f90919063ffffffff16565b61350590919063ffffffff16565b856135d590919063ffffffff16565b90509392505050565b60026020528160005260406000208181548110610d7857fe5b9060005260206000209060050201600091509150508060000160009054906101000a900473ffffffffffffffffffffffffffffffffffffffff16908060010154908060020154908060030154908060040154905085565b6060600a60008373ffffffffffffffffffffffffffffffffffffffff1673ffffffffffffffffffffffffffffffffffffffff168152602001908152602001600020805480602002602001604051908101604052809291908181526020018280548015610e5a57602002820191906000526020600020905b815481526020019060010190808311610e46575b50505050509050919050565b73088800000000000000000000000000000000000181565b60006009600083815260200190815260200160002090508060010160009054906101000a900473ffffffffffffffffffffffffffffffffffffffff1673ffffffffffffffffffffffffffffffffffffffff163373ffffffffffffffffffffffffffffffffffffffff1614610f5a576040517f08c379a000000000000000000000000000000000000000000000000000000000815260040180806020018281038252600d8152602001807f4d757374206964206f776e65720000000000000000000000000000000000000081525060200191505060405180910390fd5b6000610f836064610f7560328761354f90919063ffffffff16565b61350590919063ffffffff16565b9050610fc533826040518060400160405280601c81526020017f45786368616e67652072657374207472616e73666572206572726f720000000081525061365d565b611039600660009054906101000a900473ffffffffffffffffffffffffffffffffffffffff16610ffe838761377590919063ffffffff16565b6040518060400160405280601c81526020017f45786368616e67652072657374207472616e73666572206572726f720000000081525061365d565b50505050565b600660009054906101000a900473ffffffffffffffffffffffffffffffffffffffff1673ffffffffffffffffffffffffffffffffffffffff163373ffffffffffffffffffffffffffffffffffffffff1614611102576040517f08c379a00000000000000000000000000000000000000000000000000000000081526004018080602001828103825260098152602001807f6e6f74206f776e6572000000000000000000000000000000000000000000000081525060200191505060405180910390fd5b806000808373ffffffffffffffffffffffffffffffffffffffff1673ffffffffffffffffffffffffffffffffffffffff16815260200190815260200160002060006101000a81548173ffffffffffffffffffffffffffffffffffffffff021916908373ffffffffffffffffffffffffffffffffffffffff16021790555050565b6008818154811061118f57fe5b906000526020600020016000915090505481565b60006009600083815260200190815260200160002090503373ffffffffffffffffffffffffffffffffffffffff168160030160009054906101000a900473ffffffffffffffffffffffffffffffffffffffff1673ffffffffffffffffffffffffffffffffffffffff161461127f576040517f08c379a000000000000000000000000000000000000000000000000000000000815260040180806020018281038252600a8152602001807f4e6f742077696e6e65720000000000000000000000000000000000000000000081525060200191505060405180910390fd5b600073ffffffffffffffffffffffffffffffffffffffff168160030160009054906101000a900473ffffffffffffffffffffffffffffffffffffffff1673ffffffffffffffffffffffffffffffffffffffff161415611346576040517f08c379a00000000000000000000000000000000000000000000000000000000081526004018080602001828103825260108152602001807f416c72656164792077697468647261770000000000000000000000000000000081525060200191505060405180910390fd5b60008160070190504261137e8260026004811061135f57fe5b01548360016004811061136e57fe5b01546135d590919063ffffffff16565b10806113b75750426113b58260036004811061139657fe5b0154836000600481106113a557fe5b01546135d590919063ffffffff16565b105b611429576040517f08c379a00000000000000000000000000000000000000000000000000000000081526004018080602001828103825260108152602001807f47616d65206973206e6f74206f7665720000000000000000000000000000000081525060200191505060405180910390fd5b60008260040154905060008360000160009054906101000a900473ffffffffffffffffffffffffffffffffffffffff1690508073ffffffffffffffffffffffffffffffffffffffff16639bd9bbc68560010160009054906101000a900473ffffffffffffffffffffffffffffffffffffffff166114c360646114b5600a8861354f90919063ffffffff16565b61350590919063ffffffff16565b6040518363ffffffff1660e01b8152600401808373ffffffffffffffffffffffffffffffffffffffff1673ffffffffffffffffffffffffffffffffffffffff168152602001828152602001806020018281038252600081526020016020019350505050600060405180830381600087803b15801561154057600080fd5b505af1158015611554573d6000803e3d6000fd5b505050508073ffffffffffffffffffffffffffffffffffffffff16639bd9bbc68560030160009054906101000a900473ffffffffffffffffffffffffffffffffffffffff166115c060646115b260328861354f90919063ffffffff16565b61350590919063ffffffff16565b6040518363ffffffff1660e01b8152600401808373ffffffffffffffffffffffffffffffffffffffff1673ffffffffffffffffffffffffffffffffffffffff168152602001828152602001806020018281038252600081526020016020019350505050600060405180830381600087803b15801561163d57600080fd5b505af1158015611651573d6000803e3d6000fd5b505050507fe39c37ed96c9cf01c6ee0a3a59853c39372094160aeb431bead7292f9fd6402d333361169f606461169160328861354f90919063ffffffff16565b61350590919063ffffffff16565b604051808473ffffffffffffffffffffffffffffffffffffffff1673ffffffffffffffffffffffffffffffffffffffff1681526020018373ffffffffffffffffffffffffffffffffffffffff1673ffffffffffffffffffffffffffffffffffffffff168152602001828152602001935050505060405180910390a1611723856137bf565b5050505050565b600a602052816000526040600020818154811061174357fe5b90600052602060002001600091509150505481565b60006009600083815260200190815260200160002090506000816007019050426117a78260026004811061178857fe5b01548360016004811061179757fe5b01546135d590919063ffffffff16565b10806117e05750426117de826003600481106117bf57fe5b0154836000600481106117ce57fe5b01546135d590919063ffffffff16565b105b611852576040517f08c379a00000000000000000000000000000000000000000000000000000000081526004018080602001828103825260108152602001807f47616d65206973206e6f74206f7665720000000000000000000000000000000081525060200191505060405180910390fd5b600073ffffffffffffffffffffffffffffffffffffffff168260030160009054906101000a900473ffffffffffffffffffffffffffffffffffffffff1673ffffffffffffffffffffffffffffffffffffffff161415611919576040517f08c379a00000000000000000000000000000000000000000000000000000000081526004018080602001828103825260108152602001807f416c72656164792077697468647261770000000000000000000000000000000081525060200191505060405180910390fd5b60008260040154905060008360000160009054906101000a900473ffffffffffffffffffffffffffffffffffffffff1690508073ffffffffffffffffffffffffffffffffffffffff16639bd9bbc68560010160009054906101000a900473ffffffffffffffffffffffffffffffffffffffff166119b360646119a5600a8861354f90919063ffffffff16565b61350590919063ffffffff16565b6040518363ffffffff1660e01b8152600401808373ffffffffffffffffffffffffffffffffffffffff1673ffffffffffffffffffffffffffffffffffffffff168152602001828152602001806020018281038252600081526020016020019350505050600060405180830381600087803b158015611a3057600080fd5b505af1158015611a44573d6000803e3d6000fd5b505050508073ffffffffffffffffffffffffffffffffffffffff16639bd9bbc68560030160009054906101000a900473ffffffffffffffffffffffffffffffffffffffff16611ab06064611aa2602d8861354f90919063ffffffff16565b61350590919063ffffffff16565b6040518363ffffffff1660e01b8152600401808373ffffffffffffffffffffffffffffffffffffffff1673ffffffffffffffffffffffffffffffffffffffff168152602001828152602001806020018281038252600081526020016020019350505050600060405180830381600087803b158015611b2d57600080fd5b505af1158015611b41573d6000803e3d6000fd5b505050508073ffffffffffffffffffffffffffffffffffffffff16639bd9bbc633611b896064611b7b60058861354f90919063ffffffff16565b61350590919063ffffffff16565b6040518363ffffffff1660e01b8152600401808373ffffffffffffffffffffffffffffffffffffffff1673ffffffffffffffffffffffffffffffffffffffff168152602001828152602001806020018281038252600081526020016020019350505050600060405180830381600087803b158015611c0657600080fd5b505af1158015611c1a573d6000803e3d6000fd5b505050507fe39c37ed96c9cf01c6ee0a3a59853c39372094160aeb431bead7292f9fd6402d8460030160009054906101000a900473ffffffffffffffffffffffffffffffffffffffff1633611c8c6064611c7e602d8861354f90919063ffffffff16565b61350590919063ffffffff16565b604051808473ffffffffffffffffffffffffffffffffffffffff1673ffffffffffffffffffffffffffffffffffffffff1681526020018373ffffffffffffffffffffffffffffffffffffffff1673ffffffffffffffffffffffffffffffffffffffff168152602001828152602001935050505060405180910390a1611d10856137bf565b5050505050565b60046020528060005260406000206000915054906101000a900460ff1681565b600080600080611d45613db7565b60096000878152602001908152602001600020604051806101800160405290816000820160009054906101000a900473ffffffffffffffffffffffffffffffffffffffff1673ffffffffffffffffffffffffffffffffffffffff1673ffffffffffffffffffffffffffffffffffffffff1681526020016001820160009054906101000a900473ffffffffffffffffffffffffffffffffffffffff1673ffffffffffffffffffffffffffffffffffffffff1673ffffffffffffffffffffffffffffffffffffffff1681526020016002820160009054906101000a900473ffffffffffffffffffffffffffffffffffffffff1673ffffffffffffffffffffffffffffffffffffffff1673ffffffffffffffffffffffffffffffffffffffff1681526020016003820160009054906101000a900473ffffffffffffffffffffffffffffffffffffffff1673ffffffffffffffffffffffffffffffffffffffff1673ffffffffffffffffffffffffffffffffffffffff16815260200160048201548152602001600582015481526020016006820154815260200160078201600480602002604051908101604052809291908260048015611f16576020028201915b815481526020019060010190808311611f02575b50505050508152602001600b8201548152602001600c8201548152602001600d8201548152602001600e820154815250509050611f51613e76565b8160e00151905080600060048110611f6557fe5b602002015181600160048110611f7757fe5b602002015182600260048110611f8957fe5b602002015183600360048110611f9b57fe5b6020020151955095509550955050509193509193565b60096020528060005260406000206000915090508060000160009054906101000a900473ffffffffffffffffffffffffffffffffffffffff16908060010160009054906101000a900473ffffffffffffffffffffffffffffffffffffffff16908060020160009054906101000a900473ffffffffffffffffffffffffffffffffffffffff16908060030160009054906101000a900473ffffffffffffffffffffffffffffffffffffffff169080600401549080600501549080600601549080600b01549080600c01549080600d01549080600e015490508b565b60006009600083815260200190815260200160002090506000816007016000600481106120b457fe5b015414612129576040517f08c379a00000000000000000000000000000000000000000000000000000000081526004018080602001828103825260088152602001807f4e6f74206f76657200000000000000000000000000000000000000000000000081525060200191505060405180910390fd5b6000349050600081116121a4576040517f08c379a000000000000000000000000000000000000000000000000000000000815260040180806020018281038252600c8152602001807f416d6f756e74206572726f72000000000000000000000000000000000000000081525060200191505060405180910390fd5b6000600b600085815260200190815260200160002054905060008111612232576040517f08c379a00000000000000000000000000000000000000000000000000000000081526004018080602001828103825260158152602001807f45786368616e67652072617465206e6f7420736574000000000000000000000081525060200191505060405180910390fd5b6000612261670de0b6b3a7640000612253848661354f90919063ffffffff16565b61350590919063ffffffff16565b905080846004015410156122dd576040517f08c379a00000000000000000000000000000000000000000000000000000000081526004018080602001828103825260098152602001807f4e6f20616d6f756e74000000000000000000000000000000000000000000000081525060200191505060405180910390fd5b60008460000160009054906101000a900473ffffffffffffffffffffffffffffffffffffffff1690508073ffffffffffffffffffffffffffffffffffffffff16639bd9bbc633866040518363ffffffff1660e01b8152600401808373ffffffffffffffffffffffffffffffffffffffff1673ffffffffffffffffffffffffffffffffffffffff168152602001828152602001806020018281038252600081526020016020019350505050600060405180830381600087803b1580156123a157600080fd5b505af11580156123b5573d6000803e3d6000fd5b505050506123d084866004015461377590919063ffffffff16565b8560040181905550505050505050565b60008060008060008060008060008060006123f9613db7565b600960008e8152602001908152602001600020604051806101800160405290816000820160009054906101000a900473ffffffffffffffffffffffffffffffffffffffff1673ffffffffffffffffffffffffffffffffffffffff1673ffffffffffffffffffffffffffffffffffffffff1681526020016001820160009054906101000a900473ffffffffffffffffffffffffffffffffffffffff1673ffffffffffffffffffffffffffffffffffffffff1673ffffffffffffffffffffffffffffffffffffffff1681526020016002820160009054906101000a900473ffffffffffffffffffffffffffffffffffffffff1673ffffffffffffffffffffffffffffffffffffffff1673ffffffffffffffffffffffffffffffffffffffff1681526020016003820160009054906101000a900473ffffffffffffffffffffffffffffffffffffffff1673ffffffffffffffffffffffffffffffffffffffff1673ffffffffffffffffffffffffffffffffffffffff168152602001600482015481526020016005820154815260200160068201548152602001600782016004806020026040519081016040528092919082600480156125ca576020028201915b8154815260200190600101908083116125b6575b50505050508152602001600b8201548152602001600c8201548152602001600d8201548152602001600e820154815250509050806000015181602001518260400151836060015184608001518560a001518660c001518761010001518861012001518961014001518a61016001519b509b509b509b509b509b509b509b509b509b509b505091939597999b90929496989a50565b600460003373ffffffffffffffffffffffffffffffffffffffff1673ffffffffffffffffffffffffffffffffffffffff16815260200190815260200160002060009054906101000a900460ff161561271e576040517f08c379a000000000000000000000000000000000000000000000000000000000815260040180806020018281038252600c8152602001807f486173206120736e61746368000000000000000000000000000000000000000081525060200191505060405180910390fd5b60008060008873ffffffffffffffffffffffffffffffffffffffff1673ffffffffffffffffffffffffffffffffffffffff16815260200190815260200160002060009054906101000a900473ffffffffffffffffffffffffffffffffffffffff1673ffffffffffffffffffffffffffffffffffffffff1662fdd58e338a6040518363ffffffff1660e01b8152600401808373ffffffffffffffffffffffffffffffffffffffff1673ffffffffffffffffffffffffffffffffffffffff1681526020018281526020019250505060206040518083038186803b15801561280257600080fd5b505afa158015612816573d6000803e3d6000fd5b505050506040513d602081101561282c57600080fd5b8101908080519060200190929190505050116128b0576040517f08c379a000000000000000000000000000000000000000000000000000000000815260040180806020018281038252600d8152602001807f6e6f74206e6674206f776e65720000000000000000000000000000000000000081525060200191505060405180910390fd5b60008590506000600560008973ffffffffffffffffffffffffffffffffffffffff1673ffffffffffffffffffffffffffffffffffffffff16815260200190815260200160002060008a81526020019081526020016000205490506007548110612981576040517f08c379a00000000000000000000000000000000000000000000000000000000081526004018080602001828103825260118152602001807f4f766572207469636b657420636f756e7400000000000000000000000000000081525060200191505060405180910390fd5b6129e56001600560008b73ffffffffffffffffffffffffffffffffffffffff1673ffffffffffffffffffffffffffffffffffffffff16815260200190815260200160002060008c8152602001908152602001600020546135d590919063ffffffff16565b600560008a73ffffffffffffffffffffffffffffffffffffffff1673ffffffffffffffffffffffffffffffffffffffff16815260200190815260200160002060008b815260200190815260200160002081905550858273ffffffffffffffffffffffffffffffffffffffff166370a08231336040518263ffffffff1660e01b8152600401808273ffffffffffffffffffffffffffffffffffffffff1673ffffffffffffffffffffffffffffffffffffffff16815260200191505060206040518083038186803b158015612ab757600080fd5b505afa158015612acb573d6000803e3d6000fd5b505050506040513d6020811015612ae157600080fd5b81019080805190602001909291905050501015612b66576040517f08c379a000000000000000000000000000000000000000000000000000000000815260040180806020018281038252601f8152602001807f4f776e657220646f6e6f74206861766520656e6f7567682062616c616e63650081525060200191505060405180910390fd5b6000600460003373ffffffffffffffffffffffffffffffffffffffff1673ffffffffffffffffffffffffffffffffffffffff16815260200190815260200160002060006101000a81548160ff021916908315150217905550600060088054905090506008819080600181540180825580915050600190039060005260206000200160009091909190915055612bf9613e76565b60405180608001604052806000815260200160008152602001888152602001878152509050612c26613db7565b6040518061018001604052808b73ffffffffffffffffffffffffffffffffffffffff1681526020013373ffffffffffffffffffffffffffffffffffffffff168152602001600073ffffffffffffffffffffffffffffffffffffffff168152602001600073ffffffffffffffffffffffffffffffffffffffff168152602001600081526020018a81526020018a8152602001838152602001878152602001600081526020016000815260200160008152509050806009600085815260200190815260200160002060008201518160000160006101000a81548173ffffffffffffffffffffffffffffffffffffffff021916908373ffffffffffffffffffffffffffffffffffffffff16021790555060208201518160010160006101000a81548173ffffffffffffffffffffffffffffffffffffffff021916908373ffffffffffffffffffffffffffffffffffffffff16021790555060408201518160020160006101000a81548173ffffffffffffffffffffffffffffffffffffffff021916908373ffffffffffffffffffffffffffffffffffffffff16021790555060608201518160030160006101000a81548173ffffffffffffffffffffffffffffffffffffffff021916908373ffffffffffffffffffffffffffffffffffffffff1602179055506080820151816004015560a0820151816005015560c0820151816006015560e082015181600701906004612e3d929190613e98565b5061010082015181600b015561012082015181600c015561014082015181600d015561016082015181600e0155905050600a60003373ffffffffffffffffffffffffffffffffffffffff1673ffffffffffffffffffffffffffffffffffffffff1681526020019081526020016000208390806001815401808255809150506001900390600052602060002001600090919091909150557fc928b6f079b8fe663931bb45ebf484679c3a03553e83769e75d8c1ec977479f43384604051808373ffffffffffffffffffffffffffffffffffffffff1673ffffffffffffffffffffffffffffffffffffffff1681526020018281526020019250505060405180910390a1505050505050505050505050565b60606008805480602002602001604051908101604052809291908181526020018280548015612f9a57602002820191906000526020600020905b815481526020019060010190808311612f86575b5050505050905090565b6005602052816000526040600020602052806000526040600020600091509150505481565b6000600960008481526020019081526020016000209050612ff8600182600c01546135d590919063ffffffff16565b81600c01819055506000613019826006015483600b015484600c0154610cf7565b905080831015613091576040517f08c379a000000000000000000000000000000000000000000000000000000000815260040180806020018281038252601c8152602001807f536e61746368546f6b656e506f6f6c20416d6f756e74206572726f720000000081525060200191505060405180910390fd5b600042905060008360070190506000816000600481106130ad57fe5b01541461320157816130e4826002600481106130c557fe5b0154836001600481106130d457fe5b01546135d590919063ffffffff16565b1015613158576040517f08c379a00000000000000000000000000000000000000000000000000000000081526004018080602001828103825260178152602001807f4f766572206475726174696f6e2c67616d65206f76657200000000000000000081525060200191505060405180910390fd5b816131888260036004811061316957fe5b01548360006004811061317857fe5b01546135d590919063ffffffff16565b10156131fc576040517f08c379a00000000000000000000000000000000000000000000000000000000081526004018080602001828103825260188152602001807f47616d6520697320657870656e64206f7665722074696d65000000000000000081525060200191505060405180910390fd5b613215565b818160006004811061320f57fe5b01819055505b61322c8585600401546135d590919063ffffffff16565b84600401819055508360030160009054906101000a900473ffffffffffffffffffffffffffffffffffffffff168460020160006101000a81548173ffffffffffffffffffffffffffffffffffffffff021916908373ffffffffffffffffffffffffffffffffffffffff160217905550338460030160006101000a81548173ffffffffffffffffffffffffffffffffffffffff021916908373ffffffffffffffffffffffffffffffffffffffff16021790555084846006018190555081816001600481106132f557fe5b0181905550613312600185600d01546135d590919063ffffffff16565b84600d01819055506133318585600e01546135d590919063ffffffff16565b84600e01819055506133698460000160009054906101000a900473ffffffffffffffffffffffffffffffffffffffff16333088613a03565b7ffd107d8fb07d2a49fcce797c9e7915c733ad34daa8f39604822bd9950a3c43f33386604051808373ffffffffffffffffffffffffffffffffffffffff1673ffffffffffffffffffffffffffffffffffffffff1681526020018281526020019250505060405180910390a1505050505050565b60006009600083815260200190815260200160002090508060010160009054906101000a900473ffffffffffffffffffffffffffffffffffffffff1673ffffffffffffffffffffffffffffffffffffffff163373ffffffffffffffffffffffffffffffffffffffff16146134b8576040517f08c379a000000000000000000000000000000000000000000000000000000000815260040180806020018281038252600d8152602001807f4d757374206964206f776e65720000000000000000000000000000000000000081525060200191505060405180910390fd5b82600b600084815260200190815260200160002081905550505050565b600b6020528060005260406000206000915090505481565b60036020528060005260406000206000915090505481565b600061354783836040518060400160405280601a81526020017f536166654d6174683a206469766973696f6e206279207a65726f000000000000815250613c31565b905092915050565b60008083141561356257600090506135cf565b600082840290508284828161357357fe5b04146135ca576040517f08c379a0000000000000000000000000000000000000000000000000000000008152600401808060200182810382526021815260200180613f656021913960400191505060405180910390fd5b809150505b92915050565b600080828401905083811015613653576040517f08c379a000000000000000000000000000000000000000000000000000000000815260040180806020018281038252601b8152602001807f536166654d6174683a206164646974696f6e206f766572666c6f77000000000081525060200191505060405180910390fd5b8091505092915050565b60008373ffffffffffffffffffffffffffffffffffffffff168360405180600001905060006040518083038185875af1925050503d80600081146136bd576040519150601f19603f3d011682016040523d82523d6000602084013e6136c2565b606091505b5050905080829061376e576040517f08c379a00000000000000000000000000000000000000000000000000000000081526004018080602001828103825283818151815260200191508051906020019080838360005b83811015613733578082015181840152602081019050613718565b50505050905090810190601f1680156137605780820380516001836020036101000a031916815260200191505b509250505060405180910390fd5b5050505050565b60006137b783836040518060400160405280601e81526020017f536166654d6174683a207375627472616374696f6e206f766572666c6f770000815250613cf7565b905092915050565b60006009600083815260200190815260200160002090506137de613ed8565b6040518060a001604052808360030160009054906101000a900473ffffffffffffffffffffffffffffffffffffffff1673ffffffffffffffffffffffffffffffffffffffff16815260200183600c0154815260200183600d01548152602001836004015481526020014281525090506002600084815260200190815260200160002081908060018154018082558091505060019003906000526020600020906005020160009091909190915060008201518160000160006101000a81548173ffffffffffffffffffffffffffffffffffffffff021916908373ffffffffffffffffffffffffffffffffffffffff16021790555060208201518160010155604082015181600201556060820151816003015560808201518160040155505060008260020160006101000a81548173ffffffffffffffffffffffffffffffffffffffff021916908373ffffffffffffffffffffffffffffffffffffffff16021790555060008260030160006101000a81548173ffffffffffffffffffffffffffffffffffffffff021916908373ffffffffffffffffffffffffffffffffffffffff1602179055506139ae60646139a06028856004015461354f90919063ffffffff16565b61350590919063ffffffff16565b82600401819055508160050154826006018190555060008260070190506000816000600481106139da57fe5b01819055506000816001600481106139ee57fe5b0181905550600083600c018190555050505050565b600060608573ffffffffffffffffffffffffffffffffffffffff166323b872dd868686604051602401808473ffffffffffffffffffffffffffffffffffffffff1673ffffffffffffffffffffffffffffffffffffffff1681526020018373ffffffffffffffffffffffffffffffffffffffff1673ffffffffffffffffffffffffffffffffffffffff16815260200182815260200193505050506040516020818303038152906040529060e01b6020820180517bffffffffffffffffffffffffffffffffffffffffffffffffffffffff83818316178352505050506040518082805190602001908083835b60208310613b105780518252602082019150602081019050602083039250613aed565b6001836020036101000a0380198251168184511680821785525050505050509050019150506000604051808303816000865af19150503d8060008114613b72576040519150601f19603f3d011682016040523d82523d6000602084013e613b77565b606091505b5091509150818015613bb75750600081511480613bb65750808060200190516020811015613ba457600080fd5b81019080805190602001909291905050505b5b613c29576040517f08c379a00000000000000000000000000000000000000000000000000000000081526004018080602001828103825260148152602001807f5452414e534645525f46524f4d5f4641494c454400000000000000000000000081525060200191505060405180910390fd5b505050505050565b60008083118290613cdd576040517f08c379a00000000000000000000000000000000000000000000000000000000081526004018080602001828103825283818151815260200191508051906020019080838360005b83811015613ca2578082015181840152602081019050613c87565b50505050905090810190601f168015613ccf5780820380516001836020036101000a031916815260200191505b509250505060405180910390fd5b506000838581613ce957fe5b049050809150509392505050565b6000838311158290613da4576040517f08c379a00000000000000000000000000000000000000000000000000000000081526004018080602001828103825283818151815260200191508051906020019080838360005b83811015613d69578082015181840152602081019050613d4e565b50505050905090810190601f168015613d965780820380516001836020036101000a031916815260200191505b509250505060405180910390fd5b5060008385039050809150509392505050565b604051806101800160405280600073ffffffffffffffffffffffffffffffffffffffff168152602001600073ffffffffffffffffffffffffffffffffffffffff168152602001600073ffffffffffffffffffffffffffffffffffffffff168152602001600073ffffffffffffffffffffffffffffffffffffffff168152602001600081526020016000815260200160008152602001613e54613f1d565b8152602001600081526020016000815260200160008152602001600081525090565b6040518060800160405280600490602082028038833980820191505090505090565b8260048101928215613ec7579160200282015b82811115613ec6578251825591602001919060010190613eab565b5b509050613ed49190613f3f565b5090565b6040518060a00160405280600073ffffffffffffffffffffffffffffffffffffffff168152602001600081526020016000815260200160008152602001600081525090565b6040518060800160405280600490602082028038833980820191505090505090565b613f6191905b80821115613f5d576000816000905550600101613f45565b5090565b9056fe536166654d6174683a206d756c7469706c69636174696f6e206f766572666c6f77a2646970667358221220049cf0ababcf1cd0218abf84380edaa612f0c8b22d7ae54d25a2929753706d6c64736f6c63430006020033",
  "source": "pragma solidity >=0.6.0 <0.8.0;\nimport \"@openzeppelin/contracts/math/SafeMath.sol\";\nimport './Ticket1155Nft.sol';\n\nimport \"@openzeppelin/contracts/token/ERC777/IERC777Recipient.sol\";\nimport \"@openzeppelin/contracts/token/ERC777/IERC777.sol\";\nimport \"@openzeppelin/contracts/introspection/IERC1820Registry.sol\";\nimport \"./SponsorWhitelistControl.sol\";\n\ncontract SnatchNormal is IERC777Recipient{\n\n    event AddSnatch(address owner,uint256 _id);\n    event SnatchTokenPool(address _addr,uint256 _amount);\n    event WithdrawTokenPool(address _owner, address _addr,uint256 _amount);\n\n    mapping(address => Ticket1155Nft) ticketMap;\n\n    mapping (address=>uint256[]) snatchPools;\n\n    mapping (uint256=>Winner[]) public winners;\n\n    mapping(address => uint256) public givers;\n\n    mapping(address => bool) public snatchOwnerRole;\n\n    mapping(address => mapping(uint256 => uint256)) public ticketCountMap;\n\n    using SafeMath for uint256;\n\n    address snatchNormalOwner;\n\n    uint256 ticketCount=2;\n\n    uint256[] public snatchlist;\n\n    mapping(uint256=>SnatchInfo) public snatchInfoMap;\n\n    mapping (address=>uint256[]) public selfSnatchInfoMap;\n    //cfx 1cfx\n    mapping (uint256=>uint256) public exchangeRate;\n\n    struct SnatchInfo{\n        address token;//\n        address owner;//msg.sender\n        address lastOwner;//0\n        address tempOwner;//0\n        uint256 amount;//0\n        uint256 submitAmount;\n        uint256 lastAmount;//-\n        //startTime lastTime durationTime durationEndTime\n        uint256[4] time;//-,-,0,-\n        uint256 increaseRange;//-\n        uint256 snatchCount;//0\n        uint256 totalSnatchCount;//0\n        uint256 totalAmount;//0\n    }\n\n    struct Winner{\n        address winner;\n        uint256 count;\n        uint256 snatchCount;\n        uint256 amount;\n        uint256 winTime;\n    }\n\n    IERC1820Registry private _erc1820 = IERC1820Registry(0x88887eD889e776bCBe2f0f9932EcFaBcDfCd1820);\n\n    // keccak256(\"ERC777TokensRecipient\")\n    bytes32 constant private TOKENS_RECIPIENT_INTERFACE_HASH =\n        0xb281fc8c12954d22544db45de3159a39272895b169a852b314f9cc762e44c53b;\n\n    SponsorWhitelistControl public constant SPONSOR = SponsorWhitelistControl(\n        address(0x0888000000000000000000000000000000000001)\n    );\n\n    constructor(address _nftToken) public {\n        _erc1820.setInterfaceImplementer(address(this), TOKENS_RECIPIENT_INTERFACE_HASH, address(this));\n        snatchNormalOwner = msg.sender;\n        ticketMap[_nftToken] = Ticket1155Nft(_nftToken);\n        // register all users as sponsees\n        address[] memory users = new address[](1);\n        users[0] = address(0);\n        SPONSOR.addPrivilege(users);\n    }\n\n    modifier onlySnatchNormalOwner(){\n        require(msg.sender==snatchNormalOwner,\"not owner\");\n        _;\n    }\n\n    function getSnatchTimeInfo(uint256 _id) view public returns(\n        uint256 _startTime,uint256 _lastTime,uint256 _durationTime,\n        uint256 _durationEndTime\n    ){\n        SnatchInfo memory snatchInfo = snatchInfoMap[_id];\n        //startTime lastTime durationTime durationEndTime\n        uint256[4] memory t = snatchInfo.time;\n        return (t[0],t[1],t[2],t[3]);\n    }\n\n    function getSnatchBaseInfo(uint256 _id) view public returns(\n        address _token,\n        address _owner,address _lastOwner,address _tempOwner,\n        uint256 _amount,uint256 _submitAmount,uint256 _lastAmount,\n        uint256 _increaseRange,uint256 _snatchCount,\n        uint256 _totalSnatchCount,uint256 _totalAmount\n    ){\n        SnatchInfo memory snatchInfo = snatchInfoMap[_id];\n        return(snatchInfo.token,\n        snatchInfo.owner,\n        snatchInfo.lastOwner,\n        snatchInfo.tempOwner,\n        snatchInfo.amount,\n        snatchInfo.submitAmount,\n        snatchInfo.lastAmount,\n        snatchInfo.increaseRange,\n        snatchInfo.snatchCount,\n        snatchInfo.totalSnatchCount,\n        snatchInfo.totalAmount);\n    }\n    \n    function getOwnerSnatch(address _owner) view public returns(uint256[] memory _ids){\n        return selfSnatchInfoMap[_owner];\n    }\n\n\n    function addNft(address _nftToken) public onlySnatchNormalOwner(){\n        ticketMap[_nftToken] = Ticket1155Nft(_nftToken);\n    }\n\n    function addSnatch(\n        uint256 _tokenId,\n        address nftToken,\n        address token,\n        uint256 submitAmount,\n        uint256 durationTime,\n        uint256 durationEndTime,\n        uint256 increaseRange\n    ) public{\n        // 1155\n        require(!snatchOwnerRole[msg.sender],\"Has a snatch\");\n        require(ticketMap[nftToken].balanceOf(msg.sender,_tokenId) > 0,\"not nft owner\");\n        IERC777 iERC777 = IERC777(token);\n        uint256 cc=ticketCountMap[nftToken][_tokenId];\n        require(cc<ticketCount,\"Over ticket count\");\n        ticketCountMap[nftToken][_tokenId]=ticketCountMap[nftToken][_tokenId].add(1);\n        require(iERC777.balanceOf(msg.sender) >= submitAmount,\"Owner donot have enough balance\");\n        snatchOwnerRole[msg.sender] = false;\n        uint256 id = snatchlist.length;\n        snatchlist.push(id);\n        uint256[4] memory time = [0,0,durationTime,durationEndTime];\n        SnatchInfo memory snatchInfo = SnatchInfo(\n            token,\n            msg.sender,\n            address(0),\n            address(0),\n            0,\n            submitAmount,\n            submitAmount,\n            time,\n            increaseRange,\n            0,\n            0,\n            0\n        );\n        snatchInfoMap[id] = snatchInfo;\n        selfSnatchInfoMap[msg.sender].push(id);\n        emit AddSnatch(msg.sender,id);\n    }\n\n    function setExchangeRateById(uint256 _rate, uint256 _id) public{\n        SnatchInfo storage snatchInfo = snatchInfoMap[_id];\n        require(msg.sender==snatchInfo.owner,\"Must id owner\");\n        exchangeRate[_id]=_rate;\n    }\n\n    function getSnatchList() view public returns(uint256[] memory){\n        return snatchlist;\n    }\n\n    function snatchTokenPool(uint256 _id,uint256 _amount) public{\n        SnatchInfo storage snatchInfo = snatchInfoMap[_id];\n        //+1\n        snatchInfo.snatchCount = snatchInfo.snatchCount.add(1);\n        uint256 nowAmount = calcRangeAmount(snatchInfo.lastAmount,\n                                    snatchInfo.increaseRange,\n                                    snatchInfo.snatchCount);\n        require(_amount >= nowAmount,\"SnatchTokenPool Amount error\");\n        // require(snatchInfo.tempOwner!=msg.sender,\"Can not repeat snatch\");\n        uint256 t = block.timestamp;\n        uint256[4] storage time = snatchInfo.time;\n        if(time[0]!=0){\n            //startTime,lastTime,durationTime,durationEndTime\n            require(time[1].add(time[2]) >= t, \"Over duration,game over\");\n            require(time[0].add(time[3]) >= t, \"Game is expend over time\");\n        }else{\n            time[0] = t;\n        }\n        //add amount\n        snatchInfo.amount = snatchInfo.amount.add(_amount);\n        snatchInfo.lastOwner = snatchInfo.tempOwner;\n        snatchInfo.tempOwner = msg.sender;\n        snatchInfo.lastAmount = _amount;\n        time[1] = t;\n        snatchInfo.totalSnatchCount = snatchInfo.totalSnatchCount.add(1);\n        snatchInfo.totalAmount = snatchInfo.totalAmount.add(_amount);\n        safeTransferFrom(snatchInfo.token,msg.sender,address(this), _amount);\n        emit SnatchTokenPool(msg.sender,_amount);\n    }\n\n    function withdrawPool(uint256 _id) public{\n        SnatchInfo storage snatchInfo =snatchInfoMap[_id];\n        require(snatchInfo.tempOwner == msg.sender,\"Not winner\");\n        require(snatchInfo.tempOwner!=address(0),\"Already withdraw\");\n        uint256[4] storage time = snatchInfo.time;\n        require(time[1].add(time[2]) < block.timestamp\n            || time[0].add(time[3]) < block.timestamp, \"Game is not over\");\n        //10%\n        uint256 reward = snatchInfo.amount;\n\n        IERC777 iERC777 = IERC777(snatchInfo.token);\n        //owner 10%\n        iERC777.send(snatchInfo.owner, reward.mul(10).div(100), \"\");\n        //50%\n        iERC777.send(snatchInfo.tempOwner,reward.mul(50).div(100), \"\");\n        emit WithdrawTokenPool(msg.sender,msg.sender,reward.mul(50).div(100));\n        initStatus(_id);\n    }\n\n    function otherWithdrawToken(uint256 _id) public {\n        SnatchInfo storage snatchInfo = snatchInfoMap[_id];\n        uint256[4] storage time = snatchInfo.time;\n        require(time[1].add(time[2]) < block.timestamp\n            || time[0].add(time[3]) < block.timestamp,\"Game is not over\");\n        require(snatchInfo.tempOwner!=address(0),\"Already withdraw\");\n        uint256 reward = snatchInfo.amount;\n        IERC777 iERC777 = IERC777(snatchInfo.token);\n        //owner 10%\n        iERC777.send(snatchInfo.owner, reward.mul(10).div(100), \"\");\n        //win 50%\n        iERC777.send(snatchInfo.tempOwner,reward.mul(45).div(100), \"\");\n        //win 5%\n        iERC777.send(msg.sender,reward.mul(5).div(100),\"\");\n        emit WithdrawTokenPool(snatchInfo.tempOwner,msg.sender,reward.mul(45).div(100));\n        initStatus(_id);\n    }\n\n    function initStatus(uint256 _id) internal{\n        SnatchInfo storage snatchInfo = snatchInfoMap[_id];\n        Winner memory winner = Winner(snatchInfo.tempOwner,\n                        snatchInfo.snatchCount,snatchInfo.totalSnatchCount,\n                        snatchInfo.amount,block.timestamp);\n        winners[_id].push(winner);\n        snatchInfo.lastOwner = address(0);\n        snatchInfo.tempOwner = address(0);\n        snatchInfo.amount = snatchInfo.amount.mul(40).div(100);\n        snatchInfo.lastAmount = snatchInfo.submitAmount;\n        uint256[4] storage time = snatchInfo.time;\n        time[0] = 0;\n        time[1] = 0;\n        snatchInfo.snatchCount = 0;\n    }\n\n\n    function exchangeRest(uint256 _id) payable public{\n        SnatchInfo storage snatchInfo = snatchInfoMap[_id];\n        require(snatchInfo.time[0] == 0,\"Not over\");\n        uint256 _amount = msg.value;\n        require( _amount > 0,\"Amount error\");\n        //\n        uint256 rate = exchangeRate[_id];\n        require(rate > 0,\"Exchange rate not set\");\n        //1cfx  rate \n        uint256 exchangeAmount = _amount.mul(rate).div(1e18);\n        require(snatchInfo.amount >= exchangeAmount,\"No amount\");\n        IERC777 it = IERC777(snatchInfo.token);\n        it.send(msg.sender, _amount, \"\");\n        //cfx\n        snatchInfo.amount = snatchInfo.amount.sub(_amount);\n    }\n\n    function getPlatformCoin(uint256 _amount,uint256 _id) public{\n        SnatchInfo storage snatchInfo = snatchInfoMap[_id];\n        require(msg.sender == snatchInfo.owner,\"Must id owner\");\n        uint256 platformReward = _amount.mul(50).div(100);\n        transferEth(msg.sender,platformReward,\"Exchange rest transfer error\");\n        transferEth(snatchNormalOwner,_amount.sub(platformReward),\"Exchange rest transfer error\");\n    }\n\n    function calcRangeAmount(uint256 _amount,uint256 _rate,uint256 _count) pure public returns(uint256){\n        return _amount.add(_amount.mul(_rate.mul(_count.div(100))).div(100));\n    }\n   \n    function safeTransferFrom(address token, address from, address to, uint value) internal {\n        // bytes4(keccak256(bytes('transferFrom(address,address,uint256)')));\n        //transfer ERC20 Token\n        (bool success, bytes memory data) = token.call(abi.encodeWithSelector(0x23b872dd, from, to, value));\n        require(success && (data.length == 0 || abi.decode(data, (bool))), 'TRANSFER_FROM_FAILED');\n    }\n\n    function transferEth(address _address, uint256 _value,string memory message) internal{\n        (bool res, ) = address(uint160(_address)).call{value:_value}(\"\");\n        require(res,message);\n    }\n\n\n    function tokensReceived(\n      address operator,\n      address from,\n      address to,\n      uint amount,\n      bytes calldata userData,\n      bytes calldata operatorData\n    ) external override{\n        givers[from] += amount;\n    }\n\n    receive() external payable {}\n}",
  "sourcePath": "/Users/wangban/Downloads/money/coin/chk/chksol/contracts/SnatchNormal.sol",
  "compiler": {
    "name": "solc",
    "version": "0.6.2+commit.bacdbe57.Emscripten.clang"
  },
  "schemaVersion": "3.2.0",
  "updatedAt": "2021-01-19T07:43:03.811Z",
  "devdoc": {
    "methods": {}
  },
  "userdoc": {
    "methods": {}
  }
}