{
  "contractName": "SnatchNormal",
  "abi": [
    {
      "inputs": [
        {
          "internalType": "address",
          "name": "_nftToken",
          "type": "address"
        }
      ],
      "stateMutability": "nonpayable",
      "type": "constructor"
    },
    {
      "anonymous": false,
      "inputs": [
        {
          "indexed": false,
          "internalType": "address",
          "name": "owner",
          "type": "address"
        },
        {
          "indexed": false,
          "internalType": "uint256",
          "name": "_id",
          "type": "uint256"
        }
      ],
      "name": "AddSnatch",
      "type": "event"
    },
    {
      "anonymous": false,
      "inputs": [
        {
          "indexed": false,
          "internalType": "address",
          "name": "_addr",
          "type": "address"
        },
        {
          "indexed": false,
          "internalType": "uint256",
          "name": "_amount",
          "type": "uint256"
        }
      ],
      "name": "SnatchTokenPool",
      "type": "event"
    },
    {
      "anonymous": false,
      "inputs": [
        {
          "indexed": false,
          "internalType": "address",
          "name": "_owner",
          "type": "address"
        },
        {
          "indexed": false,
          "internalType": "address",
          "name": "_addr",
          "type": "address"
        },
        {
          "indexed": false,
          "internalType": "uint256",
          "name": "_amount",
          "type": "uint256"
        }
      ],
      "name": "WithdrawTokenPool",
      "type": "event"
    },
    {
      "inputs": [],
      "name": "SPONSOR",
      "outputs": [
        {
          "internalType": "contract SponsorWhitelistControl",
          "name": "",
          "type": "address"
        }
      ],
      "stateMutability": "view",
      "type": "function"
    },
    {
      "inputs": [
        {
          "internalType": "address",
          "name": "",
          "type": "address"
        }
      ],
      "name": "givers",
      "outputs": [
        {
          "internalType": "uint256",
          "name": "",
          "type": "uint256"
        }
      ],
      "stateMutability": "view",
      "type": "function"
    },
    {
      "inputs": [
        {
          "internalType": "address",
          "name": "",
          "type": "address"
        },
        {
          "internalType": "uint256",
          "name": "",
          "type": "uint256"
        }
      ],
      "name": "selfSnatchInfoMap",
      "outputs": [
        {
          "internalType": "uint256",
          "name": "",
          "type": "uint256"
        }
      ],
      "stateMutability": "view",
      "type": "function"
    },
    {
      "inputs": [
        {
          "internalType": "uint256",
          "name": "",
          "type": "uint256"
        }
      ],
      "name": "snatchInfoMap",
      "outputs": [
        {
          "internalType": "address",
          "name": "token",
          "type": "address"
        },
        {
          "internalType": "address",
          "name": "owner",
          "type": "address"
        },
        {
          "internalType": "address",
          "name": "lastOwner",
          "type": "address"
        },
        {
          "internalType": "address",
          "name": "tempOwner",
          "type": "address"
        },
        {
          "internalType": "uint256",
          "name": "amount",
          "type": "uint256"
        },
        {
          "internalType": "uint256",
          "name": "submitAmount",
          "type": "uint256"
        },
        {
          "internalType": "uint256",
          "name": "lastAmount",
          "type": "uint256"
        },
        {
          "internalType": "uint256",
          "name": "increaseRange",
          "type": "uint256"
        },
        {
          "internalType": "uint256",
          "name": "snatchCount",
          "type": "uint256"
        },
        {
          "internalType": "uint256",
          "name": "totalSnatchCount",
          "type": "uint256"
        },
        {
          "internalType": "uint256",
          "name": "totalAmount",
          "type": "uint256"
        }
      ],
      "stateMutability": "view",
      "type": "function"
    },
    {
      "inputs": [
        {
          "internalType": "address",
          "name": "",
          "type": "address"
        }
      ],
      "name": "snatchOwnerRole",
      "outputs": [
        {
          "internalType": "bool",
          "name": "",
          "type": "bool"
        }
      ],
      "stateMutability": "view",
      "type": "function"
    },
    {
      "inputs": [
        {
          "internalType": "uint256",
          "name": "",
          "type": "uint256"
        }
      ],
      "name": "snatchlist",
      "outputs": [
        {
          "internalType": "uint256",
          "name": "",
          "type": "uint256"
        }
      ],
      "stateMutability": "view",
      "type": "function"
    },
    {
      "inputs": [
        {
          "internalType": "address",
          "name": "",
          "type": "address"
        },
        {
          "internalType": "uint256",
          "name": "",
          "type": "uint256"
        }
      ],
      "name": "ticketCountMap",
      "outputs": [
        {
          "internalType": "uint256",
          "name": "",
          "type": "uint256"
        }
      ],
      "stateMutability": "view",
      "type": "function"
    },
    {
      "inputs": [
        {
          "internalType": "uint256",
          "name": "",
          "type": "uint256"
        },
        {
          "internalType": "uint256",
          "name": "",
          "type": "uint256"
        }
      ],
      "name": "winners",
      "outputs": [
        {
          "internalType": "address",
          "name": "winner",
          "type": "address"
        },
        {
          "internalType": "uint256",
          "name": "count",
          "type": "uint256"
        },
        {
          "internalType": "uint256",
          "name": "snatchCount",
          "type": "uint256"
        },
        {
          "internalType": "uint256",
          "name": "amount",
          "type": "uint256"
        },
        {
          "internalType": "uint256",
          "name": "winTime",
          "type": "uint256"
        }
      ],
      "stateMutability": "view",
      "type": "function"
    },
    {
      "inputs": [
        {
          "internalType": "uint256",
          "name": "_id",
          "type": "uint256"
        }
      ],
      "name": "getSnatchTimeInfo",
      "outputs": [
        {
          "internalType": "uint256",
          "name": "_startTime",
          "type": "uint256"
        },
        {
          "internalType": "uint256",
          "name": "_lastTime",
          "type": "uint256"
        },
        {
          "internalType": "uint256",
          "name": "_durationTime",
          "type": "uint256"
        },
        {
          "internalType": "uint256",
          "name": "_durationEndTime",
          "type": "uint256"
        }
      ],
      "stateMutability": "view",
      "type": "function"
    },
    {
      "inputs": [
        {
          "internalType": "uint256",
          "name": "_id",
          "type": "uint256"
        }
      ],
      "name": "getSnatchBaseInfo",
      "outputs": [
        {
          "internalType": "address",
          "name": "_token",
          "type": "address"
        },
        {
          "internalType": "address",
          "name": "_owner",
          "type": "address"
        },
        {
          "internalType": "address",
          "name": "_lastOwner",
          "type": "address"
        },
        {
          "internalType": "address",
          "name": "_tempOwner",
          "type": "address"
        },
        {
          "internalType": "uint256",
          "name": "_amount",
          "type": "uint256"
        },
        {
          "internalType": "uint256",
          "name": "_submitAmount",
          "type": "uint256"
        },
        {
          "internalType": "uint256",
          "name": "_lastAmount",
          "type": "uint256"
        },
        {
          "internalType": "uint256",
          "name": "_increaseRange",
          "type": "uint256"
        },
        {
          "internalType": "uint256",
          "name": "_snatchCount",
          "type": "uint256"
        },
        {
          "internalType": "uint256",
          "name": "_totalSnatchCount",
          "type": "uint256"
        },
        {
          "internalType": "uint256",
          "name": "_totalAmount",
          "type": "uint256"
        }
      ],
      "stateMutability": "view",
      "type": "function"
    },
    {
      "inputs": [
        {
          "internalType": "address",
          "name": "_owner",
          "type": "address"
        }
      ],
      "name": "getOwnerSnatch",
      "outputs": [
        {
          "internalType": "uint256[]",
          "name": "_ids",
          "type": "uint256[]"
        }
      ],
      "stateMutability": "view",
      "type": "function"
    },
    {
      "inputs": [
        {
          "internalType": "address",
          "name": "_nftToken",
          "type": "address"
        }
      ],
      "name": "addNft",
      "outputs": [],
      "stateMutability": "nonpayable",
      "type": "function"
    },
    {
      "inputs": [
        {
          "internalType": "uint256",
          "name": "_tokenId",
          "type": "uint256"
        },
        {
          "internalType": "address",
          "name": "nftToken",
          "type": "address"
        },
        {
          "internalType": "address",
          "name": "token",
          "type": "address"
        },
        {
          "internalType": "uint256",
          "name": "submitAmount",
          "type": "uint256"
        },
        {
          "internalType": "uint256",
          "name": "durationTime",
          "type": "uint256"
        },
        {
          "internalType": "uint256",
          "name": "durationEndTime",
          "type": "uint256"
        },
        {
          "internalType": "uint256",
          "name": "increaseRange",
          "type": "uint256"
        }
      ],
      "name": "addSnatch",
      "outputs": [],
      "stateMutability": "nonpayable",
      "type": "function"
    },
    {
      "inputs": [],
      "name": "getSnatchList",
      "outputs": [
        {
          "internalType": "uint256[]",
          "name": "",
          "type": "uint256[]"
        }
      ],
      "stateMutability": "view",
      "type": "function"
    },
    {
      "inputs": [
        {
          "internalType": "uint256",
          "name": "_id",
          "type": "uint256"
        },
        {
          "internalType": "uint256",
          "name": "_amount",
          "type": "uint256"
        }
      ],
      "name": "snatchTokenPool",
      "outputs": [],
      "stateMutability": "nonpayable",
      "type": "function"
    },
    {
      "inputs": [
        {
          "internalType": "uint256",
          "name": "_id",
          "type": "uint256"
        }
      ],
      "name": "withdrawPool",
      "outputs": [],
      "stateMutability": "nonpayable",
      "type": "function"
    },
    {
      "inputs": [
        {
          "internalType": "uint256",
          "name": "_id",
          "type": "uint256"
        }
      ],
      "name": "otherWithdrawToken",
      "outputs": [],
      "stateMutability": "nonpayable",
      "type": "function"
    },
    {
      "inputs": [
        {
          "internalType": "uint256",
          "name": "_amount",
          "type": "uint256"
        },
        {
          "internalType": "uint256",
          "name": "_rate",
          "type": "uint256"
        },
        {
          "internalType": "uint256",
          "name": "_count",
          "type": "uint256"
        }
      ],
      "name": "calcRangeAmount",
      "outputs": [
        {
          "internalType": "uint256",
          "name": "",
          "type": "uint256"
        }
      ],
      "stateMutability": "view",
      "type": "function"
    },
    {
      "inputs": [
        {
          "internalType": "address",
          "name": "operator",
          "type": "address"
        },
        {
          "internalType": "address",
          "name": "from",
          "type": "address"
        },
        {
          "internalType": "address",
          "name": "to",
          "type": "address"
        },
        {
          "internalType": "uint256",
          "name": "amount",
          "type": "uint256"
        },
        {
          "internalType": "bytes",
          "name": "userData",
          "type": "bytes"
        },
        {
          "internalType": "bytes",
          "name": "operatorData",
          "type": "bytes"
        }
      ],
      "name": "tokensReceived",
      "outputs": [],
      "stateMutability": "nonpayable",
      "type": "function"
    }
  ],
  "bytecode": "0x608060405260026007557388887ed889e776bcbe2f0f9932ecfabcdfcd1820600b60006101000a81548173ffffffffffffffffffffffffffffffffffffffff021916908373ffffffffffffffffffffffffffffffffffffffff1602179055503480156200006b57600080fd5b506040516200378c3803806200378c833981810160405260208110156200009157600080fd5b8101908080519060200190929190505050600b60009054906101000a900473ffffffffffffffffffffffffffffffffffffffff1673ffffffffffffffffffffffffffffffffffffffff166329965a1d307fb281fc8c12954d22544db45de3159a39272895b169a852b314f9cc762e44c53b60001b306040518463ffffffff1660e01b8152600401808473ffffffffffffffffffffffffffffffffffffffff1673ffffffffffffffffffffffffffffffffffffffff1681526020018381526020018273ffffffffffffffffffffffffffffffffffffffff1673ffffffffffffffffffffffffffffffffffffffff1681526020019350505050600060405180830381600087803b158015620001a357600080fd5b505af1158015620001b8573d6000803e3d6000fd5b5050505033600660006101000a81548173ffffffffffffffffffffffffffffffffffffffff021916908373ffffffffffffffffffffffffffffffffffffffff160217905550806000808373ffffffffffffffffffffffffffffffffffffffff1673ffffffffffffffffffffffffffffffffffffffff16815260200190815260200160002060006101000a81548173ffffffffffffffffffffffffffffffffffffffff021916908373ffffffffffffffffffffffffffffffffffffffff16021790555060606001604051908082528060200260200182016040528015620002ad5781602001602082028038833980820191505090505b509050600081600081518110620002c057fe5b602002602001019073ffffffffffffffffffffffffffffffffffffffff16908173ffffffffffffffffffffffffffffffffffffffff168152505073088800000000000000000000000000000000000173ffffffffffffffffffffffffffffffffffffffff166310128d3e826040518263ffffffff1660e01b81526004018080602001828103825283818151815260200191508051906020019060200280838360005b838110156200037f57808201518184015260208101905062000362565b5050505090500192505050600060405180830381600087803b158015620003a557600080fd5b505af1158015620003ba573d6000803e3d6000fd5b5050505050506133bc80620003d06000396000f3fe608060405234801561001057600080fd5b50600436106101205760003560e01c80636b86d844116100ad578063a40f1d7011610071578063a40f1d7014610891578063b0e1152c14610927578063b636dcac14610986578063cf7b6036146109e8578063e89081f814610a2057610120565b80636b86d8441461054057806375456c301461056e5780637bb8510a146105ca57806387cafbba146106215780639d6fe3a91461075957610120565b80631d073a7a116100f45780631d073a7a146103e0578063447a91fd1461042a578063485fa99e1461046e5780634c034ea9146104b0578063631b1758146104de57610120565b806223de29146101255780630ae1955d1461025d5780630efc8865146102b35780631b4e5fc614610347575b600080fd5b61025b600480360360c081101561013b57600080fd5b81019080803573ffffffffffffffffffffffffffffffffffffffff169060200190929190803573ffffffffffffffffffffffffffffffffffffffff169060200190929190803573ffffffffffffffffffffffffffffffffffffffff16906020019092919080359060200190929190803590602001906401000000008111156101c257600080fd5b8201836020820111156101d457600080fd5b803590602001918460018302840111640100000000831117156101f657600080fd5b90919293919293908035906020019064010000000081111561021757600080fd5b82018360208201111561022957600080fd5b8035906020019184600183028401116401000000008311171561024b57600080fd5b9091929391929390505050610a78565b005b61029d6004803603606081101561027357600080fd5b81019080803590602001909291908035906020019092919080359060200190929190505050610acf565b6040518082815260200191505060405180910390f35b6102e9600480360360408110156102c957600080fd5b810190808035906020019092919080359060200190929190505050610b37565b604051808673ffffffffffffffffffffffffffffffffffffffff1673ffffffffffffffffffffffffffffffffffffffff1681526020018581526020018481526020018381526020018281526020019550505050505060405180910390f35b6103896004803603602081101561035d57600080fd5b81019080803573ffffffffffffffffffffffffffffffffffffffff169060200190929190505050610ba7565b6040518080602001828103825283818151815260200191508051906020019060200280838360005b838110156103cc5780820151818401526020810190506103b1565b505050509050019250505060405180910390f35b6103e8610c3e565b604051808273ffffffffffffffffffffffffffffffffffffffff1673ffffffffffffffffffffffffffffffffffffffff16815260200191505060405180910390f35b61046c6004803603602081101561044057600080fd5b81019080803573ffffffffffffffffffffffffffffffffffffffff169060200190929190505050610c56565b005b61049a6004803603602081101561048457600080fd5b8101908080359060200190929190505050610d99565b6040518082815260200191505060405180910390f35b6104dc600480360360208110156104c657600080fd5b8101908080359060200190929190505050610dba565b005b61052a600480360360408110156104f457600080fd5b81019080803573ffffffffffffffffffffffffffffffffffffffff1690602001909291908035906020019092919050505061127a565b6040518082815260200191505060405180910390f35b61056c6004803603602081101561055657600080fd5b81019080803590602001909291905050506112a8565b005b6105b06004803603602081101561058457600080fd5b81019080803573ffffffffffffffffffffffffffffffffffffffff1690602001909291905050506117a0565b604051808215151515815260200191505060405180910390f35b6105f6600480360360208110156105e057600080fd5b81019080803590602001909291905050506117c0565b6040518085815260200184815260200183815260200182815260200194505050505060405180910390f35b61064d6004803603602081101561063757600080fd5b8101908080359060200190929190505050611a3a565b604051808c73ffffffffffffffffffffffffffffffffffffffff1673ffffffffffffffffffffffffffffffffffffffff1681526020018b73ffffffffffffffffffffffffffffffffffffffff1673ffffffffffffffffffffffffffffffffffffffff1681526020018a73ffffffffffffffffffffffffffffffffffffffff1673ffffffffffffffffffffffffffffffffffffffff1681526020018973ffffffffffffffffffffffffffffffffffffffff1673ffffffffffffffffffffffffffffffffffffffff1681526020018881526020018781526020018681526020018581526020018481526020018381526020018281526020019b50505050505050505050505060405180910390f35b6107856004803603602081101561076f57600080fd5b8101908080359060200190929190505050611b14565b604051808c73ffffffffffffffffffffffffffffffffffffffff1673ffffffffffffffffffffffffffffffffffffffff1681526020018b73ffffffffffffffffffffffffffffffffffffffff1673ffffffffffffffffffffffffffffffffffffffff1681526020018a73ffffffffffffffffffffffffffffffffffffffff1673ffffffffffffffffffffffffffffffffffffffff1681526020018973ffffffffffffffffffffffffffffffffffffffff1673ffffffffffffffffffffffffffffffffffffffff1681526020018881526020018781526020018681526020018581526020018481526020018381526020018281526020019b50505050505050505050505060405180910390f35b610925600480360360e08110156108a757600080fd5b8101908080359060200190929190803573ffffffffffffffffffffffffffffffffffffffff169060200190929190803573ffffffffffffffffffffffffffffffffffffffff16906020019092919080359060200190929190803590602001909291908035906020019092919080359060200190929190505050611d92565b005b61092f612680565b6040518080602001828103825283818151815260200191508051906020019060200280838360005b83811015610972578082015181840152602081019050610957565b505050509050019250505060405180910390f35b6109d26004803603604081101561099c57600080fd5b81019080803573ffffffffffffffffffffffffffffffffffffffff169060200190929190803590602001909291905050506126d8565b6040518082815260200191505060405180910390f35b610a1e600480360360408110156109fe57600080fd5b8101908080359060200190929190803590602001909291905050506126fd565b005b610a6260048036036020811015610a3657600080fd5b81019080803573ffffffffffffffffffffffffffffffffffffffff169060200190929190505050612b10565b6040518082815260200191505060405180910390f35b84600360008973ffffffffffffffffffffffffffffffffffffffff1673ffffffffffffffffffffffffffffffffffffffff168152602001908152602001600020600082825401925050819055505050505050505050565b6000610b2e610b1f610b106064610b02610af3606488612b2890919063ffffffff16565b88612b7290919063ffffffff16565b612b2890919063ffffffff16565b86612b7290919063ffffffff16565b85612bf890919063ffffffff16565b90509392505050565b60026020528160005260406000208181548110610b5057fe5b9060005260206000209060050201600091509150508060000160009054906101000a900473ffffffffffffffffffffffffffffffffffffffff16908060010154908060020154908060030154908060040154905085565b6060600a60008373ffffffffffffffffffffffffffffffffffffffff1673ffffffffffffffffffffffffffffffffffffffff168152602001908152602001600020805480602002602001604051908101604052809291908181526020018280548015610c3257602002820191906000526020600020905b815481526020019060010190808311610c1e575b50505050509050919050565b73088800000000000000000000000000000000000181565b600660009054906101000a900473ffffffffffffffffffffffffffffffffffffffff1673ffffffffffffffffffffffffffffffffffffffff163373ffffffffffffffffffffffffffffffffffffffff1614610d19576040517f08c379a00000000000000000000000000000000000000000000000000000000081526004018080602001828103825260098152602001807f6e6f74206f776e6572000000000000000000000000000000000000000000000081525060200191505060405180910390fd5b806000808373ffffffffffffffffffffffffffffffffffffffff1673ffffffffffffffffffffffffffffffffffffffff16815260200190815260200160002060006101000a81548173ffffffffffffffffffffffffffffffffffffffff021916908373ffffffffffffffffffffffffffffffffffffffff16021790555050565b60088181548110610da657fe5b906000526020600020016000915090505481565b60006009600083815260200190815260200160002090503373ffffffffffffffffffffffffffffffffffffffff168160030160009054906101000a900473ffffffffffffffffffffffffffffffffffffffff1673ffffffffffffffffffffffffffffffffffffffff1614610e96576040517f08c379a000000000000000000000000000000000000000000000000000000000815260040180806020018281038252600a8152602001807f4e6f742077696e6e65720000000000000000000000000000000000000000000081525060200191505060405180910390fd5b600081600701905042610ece82600260048110610eaf57fe5b015483600160048110610ebe57fe5b0154612bf890919063ffffffff16565b1080610f07575042610f0582600360048110610ee657fe5b015483600060048110610ef557fe5b0154612bf890919063ffffffff16565b105b610f79576040517f08c379a00000000000000000000000000000000000000000000000000000000081526004018080602001828103825260108152602001807f47616d65206973206e6f74206f7665720000000000000000000000000000000081525060200191505060405180910390fd5b60008260040154905060008360000160009054906101000a900473ffffffffffffffffffffffffffffffffffffffff1690508073ffffffffffffffffffffffffffffffffffffffff16639bd9bbc68560010160009054906101000a900473ffffffffffffffffffffffffffffffffffffffff166110136064611005600a88612b7290919063ffffffff16565b612b2890919063ffffffff16565b6040518363ffffffff1660e01b8152600401808373ffffffffffffffffffffffffffffffffffffffff1673ffffffffffffffffffffffffffffffffffffffff168152602001828152602001806020018281038252600081526020016020019350505050600060405180830381600087803b15801561109057600080fd5b505af11580156110a4573d6000803e3d6000fd5b505050508073ffffffffffffffffffffffffffffffffffffffff16639bd9bbc68560030160009054906101000a900473ffffffffffffffffffffffffffffffffffffffff166111106064611102603288612b7290919063ffffffff16565b612b2890919063ffffffff16565b6040518363ffffffff1660e01b8152600401808373ffffffffffffffffffffffffffffffffffffffff1673ffffffffffffffffffffffffffffffffffffffff168152602001828152602001806020018281038252600081526020016020019350505050600060405180830381600087803b15801561118d57600080fd5b505af11580156111a1573d6000803e3d6000fd5b505050507fe39c37ed96c9cf01c6ee0a3a59853c39372094160aeb431bead7292f9fd6402d33336111ef60646111e1603288612b7290919063ffffffff16565b612b2890919063ffffffff16565b604051808473ffffffffffffffffffffffffffffffffffffffff1673ffffffffffffffffffffffffffffffffffffffff1681526020018373ffffffffffffffffffffffffffffffffffffffff1673ffffffffffffffffffffffffffffffffffffffff168152602001828152602001935050505060405180910390a161127385612c80565b5050505050565b600a602052816000526040600020818154811061129357fe5b90600052602060002001600091509150505481565b60006009600083815260200190815260200160002090506000816007019050426112f7826002600481106112d857fe5b0154836001600481106112e757fe5b0154612bf890919063ffffffff16565b108061133057504261132e8260036004811061130f57fe5b01548360006004811061131e57fe5b0154612bf890919063ffffffff16565b105b6113a2576040517f08c379a00000000000000000000000000000000000000000000000000000000081526004018080602001828103825260108152602001807f47616d65206973206e6f74206f7665720000000000000000000000000000000081525060200191505060405180910390fd5b60008260040154905060008360000160009054906101000a900473ffffffffffffffffffffffffffffffffffffffff1690508073ffffffffffffffffffffffffffffffffffffffff16639bd9bbc68560010160009054906101000a900473ffffffffffffffffffffffffffffffffffffffff1661143c606461142e600a88612b7290919063ffffffff16565b612b2890919063ffffffff16565b6040518363ffffffff1660e01b8152600401808373ffffffffffffffffffffffffffffffffffffffff1673ffffffffffffffffffffffffffffffffffffffff168152602001828152602001806020018281038252600081526020016020019350505050600060405180830381600087803b1580156114b957600080fd5b505af11580156114cd573d6000803e3d6000fd5b505050508073ffffffffffffffffffffffffffffffffffffffff16639bd9bbc68560030160009054906101000a900473ffffffffffffffffffffffffffffffffffffffff16611539606461152b602d88612b7290919063ffffffff16565b612b2890919063ffffffff16565b6040518363ffffffff1660e01b8152600401808373ffffffffffffffffffffffffffffffffffffffff1673ffffffffffffffffffffffffffffffffffffffff168152602001828152602001806020018281038252600081526020016020019350505050600060405180830381600087803b1580156115b657600080fd5b505af11580156115ca573d6000803e3d6000fd5b505050508073ffffffffffffffffffffffffffffffffffffffff16639bd9bbc6336116126064611604600588612b7290919063ffffffff16565b612b2890919063ffffffff16565b6040518363ffffffff1660e01b8152600401808373ffffffffffffffffffffffffffffffffffffffff1673ffffffffffffffffffffffffffffffffffffffff168152602001828152602001806020018281038252600081526020016020019350505050600060405180830381600087803b15801561168f57600080fd5b505af11580156116a3573d6000803e3d6000fd5b505050507fe39c37ed96c9cf01c6ee0a3a59853c39372094160aeb431bead7292f9fd6402d8460030160009054906101000a900473ffffffffffffffffffffffffffffffffffffffff16336117156064611707602d88612b7290919063ffffffff16565b612b2890919063ffffffff16565b604051808473ffffffffffffffffffffffffffffffffffffffff1673ffffffffffffffffffffffffffffffffffffffff1681526020018373ffffffffffffffffffffffffffffffffffffffff1673ffffffffffffffffffffffffffffffffffffffff168152602001828152602001935050505060405180910390a161179985612c80565b5050505050565b60046020528060005260406000206000915054906101000a900460ff1681565b6000806000806117ce6131b8565b60096000878152602001908152602001600020604051806101800160405290816000820160009054906101000a900473ffffffffffffffffffffffffffffffffffffffff1673ffffffffffffffffffffffffffffffffffffffff1673ffffffffffffffffffffffffffffffffffffffff1681526020016001820160009054906101000a900473ffffffffffffffffffffffffffffffffffffffff1673ffffffffffffffffffffffffffffffffffffffff1673ffffffffffffffffffffffffffffffffffffffff1681526020016002820160009054906101000a900473ffffffffffffffffffffffffffffffffffffffff1673ffffffffffffffffffffffffffffffffffffffff1673ffffffffffffffffffffffffffffffffffffffff1681526020016003820160009054906101000a900473ffffffffffffffffffffffffffffffffffffffff1673ffffffffffffffffffffffffffffffffffffffff1673ffffffffffffffffffffffffffffffffffffffff1681526020016004820154815260200160058201548152602001600682015481526020016007820160048060200260405190810160405280929190826004801561199f576020028201915b81548152602001906001019080831161198b575b50505050508152602001600b8201548152602001600c8201548152602001600d8201548152602001600e8201548152505090506119da613277565b8160e001519050806000600481106119ee57fe5b602002015181600160048110611a0057fe5b602002015182600260048110611a1257fe5b602002015183600360048110611a2457fe5b6020020151955095509550955050509193509193565b60096020528060005260406000206000915090508060000160009054906101000a900473ffffffffffffffffffffffffffffffffffffffff16908060010160009054906101000a900473ffffffffffffffffffffffffffffffffffffffff16908060020160009054906101000a900473ffffffffffffffffffffffffffffffffffffffff16908060030160009054906101000a900473ffffffffffffffffffffffffffffffffffffffff169080600401549080600501549080600601549080600b01549080600c01549080600d01549080600e015490508b565b6000806000806000806000806000806000611b2d6131b8565b600960008e8152602001908152602001600020604051806101800160405290816000820160009054906101000a900473ffffffffffffffffffffffffffffffffffffffff1673ffffffffffffffffffffffffffffffffffffffff1673ffffffffffffffffffffffffffffffffffffffff1681526020016001820160009054906101000a900473ffffffffffffffffffffffffffffffffffffffff1673ffffffffffffffffffffffffffffffffffffffff1673ffffffffffffffffffffffffffffffffffffffff1681526020016002820160009054906101000a900473ffffffffffffffffffffffffffffffffffffffff1673ffffffffffffffffffffffffffffffffffffffff1673ffffffffffffffffffffffffffffffffffffffff1681526020016003820160009054906101000a900473ffffffffffffffffffffffffffffffffffffffff1673ffffffffffffffffffffffffffffffffffffffff1673ffffffffffffffffffffffffffffffffffffffff16815260200160048201548152602001600582015481526020016006820154815260200160078201600480602002604051908101604052809291908260048015611cfe576020028201915b815481526020019060010190808311611cea575b50505050508152602001600b8201548152602001600c8201548152602001600d8201548152602001600e820154815250509050806000015181602001518260400151836060015184608001518560a001518660c001518761010001518861012001518961014001518a61016001519b509b509b509b509b509b509b509b509b509b509b505091939597999b90929496989a50565b600460003373ffffffffffffffffffffffffffffffffffffffff1673ffffffffffffffffffffffffffffffffffffffff16815260200190815260200160002060009054906101000a900460ff1615611e52576040517f08c379a000000000000000000000000000000000000000000000000000000000815260040180806020018281038252600c8152602001807f486173206120736e61746368000000000000000000000000000000000000000081525060200191505060405180910390fd5b60008060008873ffffffffffffffffffffffffffffffffffffffff1673ffffffffffffffffffffffffffffffffffffffff16815260200190815260200160002060009054906101000a900473ffffffffffffffffffffffffffffffffffffffff1673ffffffffffffffffffffffffffffffffffffffff1662fdd58e338a6040518363ffffffff1660e01b8152600401808373ffffffffffffffffffffffffffffffffffffffff1673ffffffffffffffffffffffffffffffffffffffff1681526020018281526020019250505060206040518083038186803b158015611f3657600080fd5b505afa158015611f4a573d6000803e3d6000fd5b505050506040513d6020811015611f6057600080fd5b810190808051906020019092919050505011611fe4576040517f08c379a000000000000000000000000000000000000000000000000000000000815260040180806020018281038252600d8152602001807f6e6f74206e6674206f776e65720000000000000000000000000000000000000081525060200191505060405180910390fd5b60008590506000600560008973ffffffffffffffffffffffffffffffffffffffff1673ffffffffffffffffffffffffffffffffffffffff16815260200190815260200160002060008a815260200190815260200160002054905060075481106120b5576040517f08c379a00000000000000000000000000000000000000000000000000000000081526004018080602001828103825260118152602001807f4f766572207469636b657420636f756e7400000000000000000000000000000081525060200191505060405180910390fd5b6121196001600560008b73ffffffffffffffffffffffffffffffffffffffff1673ffffffffffffffffffffffffffffffffffffffff16815260200190815260200160002060008c815260200190815260200160002054612bf890919063ffffffff16565b600560008a73ffffffffffffffffffffffffffffffffffffffff1673ffffffffffffffffffffffffffffffffffffffff16815260200190815260200160002060008b815260200190815260200160002081905550858273ffffffffffffffffffffffffffffffffffffffff166370a08231336040518263ffffffff1660e01b8152600401808273ffffffffffffffffffffffffffffffffffffffff1673ffffffffffffffffffffffffffffffffffffffff16815260200191505060206040518083038186803b1580156121eb57600080fd5b505afa1580156121ff573d6000803e3d6000fd5b505050506040513d602081101561221557600080fd5b8101908080519060200190929190505050101561229a576040517f08c379a000000000000000000000000000000000000000000000000000000000815260040180806020018281038252601f8152602001807f4f776e657220646f6e6f74206861766520656e6f7567682062616c616e63650081525060200191505060405180910390fd5b6000600460003373ffffffffffffffffffffffffffffffffffffffff1673ffffffffffffffffffffffffffffffffffffffff16815260200190815260200160002060006101000a81548160ff02191690831515021790555060006008805490509050600881908060018154018082558091505060019003906000526020600020016000909190919091505561232d613277565b6040518060800160405280600081526020016000815260200188815260200187815250905061235a6131b8565b6040518061018001604052808b73ffffffffffffffffffffffffffffffffffffffff1681526020013373ffffffffffffffffffffffffffffffffffffffff168152602001600073ffffffffffffffffffffffffffffffffffffffff168152602001600073ffffffffffffffffffffffffffffffffffffffff168152602001600081526020018a81526020018a8152602001838152602001878152602001600081526020016000815260200160008152509050806009600085815260200190815260200160002060008201518160000160006101000a81548173ffffffffffffffffffffffffffffffffffffffff021916908373ffffffffffffffffffffffffffffffffffffffff16021790555060208201518160010160006101000a81548173ffffffffffffffffffffffffffffffffffffffff021916908373ffffffffffffffffffffffffffffffffffffffff16021790555060408201518160020160006101000a81548173ffffffffffffffffffffffffffffffffffffffff021916908373ffffffffffffffffffffffffffffffffffffffff16021790555060608201518160030160006101000a81548173ffffffffffffffffffffffffffffffffffffffff021916908373ffffffffffffffffffffffffffffffffffffffff1602179055506080820151816004015560a0820151816005015560c0820151816006015560e082015181600701906004612571929190613299565b5061010082015181600b015561012082015181600c015561014082015181600d015561016082015181600e0155905050600a60003373ffffffffffffffffffffffffffffffffffffffff1673ffffffffffffffffffffffffffffffffffffffff1681526020019081526020016000208390806001815401808255809150506001900390600052602060002001600090919091909150557fc928b6f079b8fe663931bb45ebf484679c3a03553e83769e75d8c1ec977479f43384604051808373ffffffffffffffffffffffffffffffffffffffff1673ffffffffffffffffffffffffffffffffffffffff1681526020018281526020019250505060405180910390a1505050505050505050505050565b606060088054806020026020016040519081016040528092919081815260200182805480156126ce57602002820191906000526020600020905b8154815260200190600101908083116126ba575b5050505050905090565b6005602052816000526040600020602052806000526040600020600091509150505481565b600060096000848152602001908152602001600020905061272c600182600c0154612bf890919063ffffffff16565b81600c0181905550600061274d826006015483600b015484600c0154610acf565b9050808310156127c5576040517f08c379a000000000000000000000000000000000000000000000000000000000815260040180806020018281038252601c8152602001807f536e61746368546f6b656e506f6f6c20416d6f756e74206572726f720000000081525060200191505060405180910390fd5b600042905060008360070190506000816000600481106127e157fe5b0154146129355781612818826002600481106127f957fe5b01548360016004811061280857fe5b0154612bf890919063ffffffff16565b101561288c576040517f08c379a00000000000000000000000000000000000000000000000000000000081526004018080602001828103825260178152602001807f4f766572206475726174696f6e2c67616d65206f76657200000000000000000081525060200191505060405180910390fd5b816128bc8260036004811061289d57fe5b0154836000600481106128ac57fe5b0154612bf890919063ffffffff16565b1015612930576040517f08c379a00000000000000000000000000000000000000000000000000000000081526004018080602001828103825260188152602001807f47616d6520697320657870656e64206f7665722074696d65000000000000000081525060200191505060405180910390fd5b612949565b818160006004811061294357fe5b01819055505b612960858560040154612bf890919063ffffffff16565b84600401819055508360030160009054906101000a900473ffffffffffffffffffffffffffffffffffffffff168460020160006101000a81548173ffffffffffffffffffffffffffffffffffffffff021916908373ffffffffffffffffffffffffffffffffffffffff160217905550338460030160006101000a81548173ffffffffffffffffffffffffffffffffffffffff021916908373ffffffffffffffffffffffffffffffffffffffff1602179055508484600601819055508181600160048110612a2957fe5b0181905550612a46600185600d0154612bf890919063ffffffff16565b84600d0181905550612a658585600e0154612bf890919063ffffffff16565b84600e0181905550612a9d8460000160009054906101000a900473ffffffffffffffffffffffffffffffffffffffff16333088612ec4565b7ffd107d8fb07d2a49fcce797c9e7915c733ad34daa8f39604822bd9950a3c43f33386604051808373ffffffffffffffffffffffffffffffffffffffff1673ffffffffffffffffffffffffffffffffffffffff1681526020018281526020019250505060405180910390a1505050505050565b60036020528060005260406000206000915090505481565b6000612b6a83836040518060400160405280601a81526020017f536166654d6174683a206469766973696f6e206279207a65726f0000000000008152506130f2565b905092915050565b600080831415612b855760009050612bf2565b6000828402905082848281612b9657fe5b0414612bed576040517f08c379a00000000000000000000000000000000000000000000000000000000081526004018080602001828103825260218152602001806133666021913960400191505060405180910390fd5b809150505b92915050565b600080828401905083811015612c76576040517f08c379a000000000000000000000000000000000000000000000000000000000815260040180806020018281038252601b8152602001807f536166654d6174683a206164646974696f6e206f766572666c6f77000000000081525060200191505060405180910390fd5b8091505092915050565b6000600960008381526020019081526020016000209050612c9f6132d9565b6040518060a001604052808360030160009054906101000a900473ffffffffffffffffffffffffffffffffffffffff1673ffffffffffffffffffffffffffffffffffffffff16815260200183600c0154815260200183600d01548152602001836004015481526020014281525090506002600084815260200190815260200160002081908060018154018082558091505060019003906000526020600020906005020160009091909190915060008201518160000160006101000a81548173ffffffffffffffffffffffffffffffffffffffff021916908373ffffffffffffffffffffffffffffffffffffffff16021790555060208201518160010155604082015181600201556060820151816003015560808201518160040155505060008260020160006101000a81548173ffffffffffffffffffffffffffffffffffffffff021916908373ffffffffffffffffffffffffffffffffffffffff16021790555060008260030160006101000a81548173ffffffffffffffffffffffffffffffffffffffff021916908373ffffffffffffffffffffffffffffffffffffffff160217905550612e6f6064612e6160288560040154612b7290919063ffffffff16565b612b2890919063ffffffff16565b8260040181905550816005015482600601819055506000826007019050600081600060048110612e9b57fe5b0181905550600081600160048110612eaf57fe5b0181905550600083600c018190555050505050565b600060608573ffffffffffffffffffffffffffffffffffffffff166323b872dd868686604051602401808473ffffffffffffffffffffffffffffffffffffffff1673ffffffffffffffffffffffffffffffffffffffff1681526020018373ffffffffffffffffffffffffffffffffffffffff1673ffffffffffffffffffffffffffffffffffffffff16815260200182815260200193505050506040516020818303038152906040529060e01b6020820180517bffffffffffffffffffffffffffffffffffffffffffffffffffffffff83818316178352505050506040518082805190602001908083835b60208310612fd15780518252602082019150602081019050602083039250612fae565b6001836020036101000a0380198251168184511680821785525050505050509050019150506000604051808303816000865af19150503d8060008114613033576040519150601f19603f3d011682016040523d82523d6000602084013e613038565b606091505b50915091508180156130785750600081511480613077575080806020019051602081101561306557600080fd5b81019080805190602001909291905050505b5b6130ea576040517f08c379a00000000000000000000000000000000000000000000000000000000081526004018080602001828103825260148152602001807f5452414e534645525f46524f4d5f4641494c454400000000000000000000000081525060200191505060405180910390fd5b505050505050565b6000808311829061319e576040517f08c379a00000000000000000000000000000000000000000000000000000000081526004018080602001828103825283818151815260200191508051906020019080838360005b83811015613163578082015181840152602081019050613148565b50505050905090810190601f1680156131905780820380516001836020036101000a031916815260200191505b509250505060405180910390fd5b5060008385816131aa57fe5b049050809150509392505050565b604051806101800160405280600073ffffffffffffffffffffffffffffffffffffffff168152602001600073ffffffffffffffffffffffffffffffffffffffff168152602001600073ffffffffffffffffffffffffffffffffffffffff168152602001600073ffffffffffffffffffffffffffffffffffffffff16815260200160008152602001600081526020016000815260200161325561331e565b8152602001600081526020016000815260200160008152602001600081525090565b6040518060800160405280600490602082028038833980820191505090505090565b82600481019282156132c8579160200282015b828111156132c75782518255916020019190600101906132ac565b5b5090506132d59190613340565b5090565b6040518060a00160405280600073ffffffffffffffffffffffffffffffffffffffff168152602001600081526020016000815260200160008152602001600081525090565b6040518060800160405280600490602082028038833980820191505090505090565b61336291905b8082111561335e576000816000905550600101613346565b5090565b9056fe536166654d6174683a206d756c7469706c69636174696f6e206f766572666c6f77a26469706673582212207fe88e5f03bfdc3a672e4afbd79eaf1c6f24ba657b1db5de55b7afafc9c93fd664736f6c63430006020033",
  "source": "pragma solidity >=0.6.0 <0.8.0;\nimport \"@openzeppelin/contracts/math/SafeMath.sol\";\nimport './Ticket1155Nft.sol';\n\nimport \"@openzeppelin/contracts/token/ERC777/IERC777Recipient.sol\";\nimport \"@openzeppelin/contracts/token/ERC777/IERC777.sol\";\nimport \"@openzeppelin/contracts/introspection/IERC1820Registry.sol\";\nimport \"./SponsorWhitelistControl.sol\";\n\ncontract SnatchNormal is IERC777Recipient{\n\n    event AddSnatch(address owner,uint256 _id);\n    event SnatchTokenPool(address _addr,uint256 _amount);\n    event WithdrawTokenPool(address _owner, address _addr,uint256 _amount);\n\n    mapping(address => Ticket1155Nft) ticketMap;\n\n    mapping (address=>uint256[]) snatchPools;\n\n    mapping (uint256=>Winner[]) public winners;\n\n    mapping(address => uint256) public givers;\n\n    mapping(address => bool) public snatchOwnerRole;\n\n    mapping(address => mapping(uint256 => uint256)) public ticketCountMap;\n\n    using SafeMath for uint256;\n\n    address snatchNormalOwner;\n\n    uint256 ticketCount=2;\n\n    uint256[] public snatchlist;\n\n    mapping(uint256=>SnatchInfo) public snatchInfoMap;\n\n    mapping (address=>uint256[]) public selfSnatchInfoMap;\n\n    struct SnatchInfo{\n        address token;//\n        address owner;//msg.sender\n        address lastOwner;//0\n        address tempOwner;//0\n        uint256 amount;//0\n        uint256 submitAmount;\n        uint256 lastAmount;//-\n        //startTime lastTime durationTime durationEndTime\n        uint256[4] time;//-,-,0,-\n        uint256 increaseRange;//-\n        uint256 snatchCount;//0\n        uint256 totalSnatchCount;//0\n        uint256 totalAmount;//0\n    }\n\n    struct Winner{\n        address winner;\n        uint256 count;\n        uint256 snatchCount;\n        uint256 amount;\n        uint256 winTime;\n    }\n\n    IERC1820Registry private _erc1820 = IERC1820Registry(0x88887eD889e776bCBe2f0f9932EcFaBcDfCd1820);\n\n    // keccak256(\"ERC777TokensRecipient\")\n    bytes32 constant private TOKENS_RECIPIENT_INTERFACE_HASH =\n        0xb281fc8c12954d22544db45de3159a39272895b169a852b314f9cc762e44c53b;\n\n    SponsorWhitelistControl public constant SPONSOR = SponsorWhitelistControl(\n        address(0x0888000000000000000000000000000000000001)\n    );\n\n    constructor(address _nftToken) public {\n        _erc1820.setInterfaceImplementer(address(this), TOKENS_RECIPIENT_INTERFACE_HASH, address(this));\n        snatchNormalOwner = msg.sender;\n        ticketMap[_nftToken] = Ticket1155Nft(_nftToken);\n        // register all users as sponsees\n        address[] memory users = new address[](1);\n        users[0] = address(0);\n        SPONSOR.addPrivilege(users);\n    }\n\n    modifier onlySnatchNormalOwner(){\n        require(msg.sender==snatchNormalOwner,\"not owner\");\n        _;\n    }\n\n    function getSnatchTimeInfo(uint256 _id) view public returns(\n        uint256 _startTime,uint256 _lastTime,uint256 _durationTime,\n        uint256 _durationEndTime\n    ){\n        SnatchInfo memory snatchInfo = snatchInfoMap[_id];\n        //startTime lastTime durationTime durationEndTime\n        uint256[4] memory t = snatchInfo.time;\n        return (t[0],t[1],t[2],t[3]);\n    }\n\n    function getSnatchBaseInfo(uint256 _id) view public returns(\n        address _token,\n        address _owner,address _lastOwner,address _tempOwner,\n        uint256 _amount,uint256 _submitAmount,uint256 _lastAmount,\n        uint256 _increaseRange,uint256 _snatchCount,\n        uint256 _totalSnatchCount,uint256 _totalAmount\n    ){\n        SnatchInfo memory snatchInfo = snatchInfoMap[_id];\n        return(snatchInfo.token,\n        snatchInfo.owner,\n        snatchInfo.lastOwner,\n        snatchInfo.tempOwner,\n        snatchInfo.amount,\n        snatchInfo.submitAmount,\n        snatchInfo.lastAmount,\n        snatchInfo.increaseRange,\n        snatchInfo.snatchCount,\n        snatchInfo.totalSnatchCount,\n        snatchInfo.totalAmount);\n    }\n    \n    function getOwnerSnatch(address _owner) view public returns(uint256[] memory _ids){\n        return selfSnatchInfoMap[_owner];\n    }\n\n\n    function addNft(address _nftToken) public onlySnatchNormalOwner(){\n        ticketMap[_nftToken] = Ticket1155Nft(_nftToken);\n    }\n\n    function addSnatch(\n        uint256 _tokenId,\n        address nftToken,\n        address token,\n        uint256 submitAmount,\n        uint256 durationTime,\n        uint256 durationEndTime,\n        uint256 increaseRange\n    ) public{\n        // 1155\n        require(!snatchOwnerRole[msg.sender],\"Has a snatch\");\n        require(ticketMap[nftToken].balanceOf(msg.sender,_tokenId) > 0,\"not nft owner\");\n        IERC777 iERC777 = IERC777(token);\n        uint256 cc=ticketCountMap[nftToken][_tokenId];\n        require(cc<ticketCount,\"Over ticket count\");\n        ticketCountMap[nftToken][_tokenId]=ticketCountMap[nftToken][_tokenId].add(1);\n        require(iERC777.balanceOf(msg.sender) >= submitAmount,\"Owner donot have enough balance\");\n        snatchOwnerRole[msg.sender] = false;\n        uint256 id = snatchlist.length;\n        snatchlist.push(id);\n        uint256[4] memory time = [0,0,durationTime,durationEndTime];\n        SnatchInfo memory snatchInfo = SnatchInfo(\n            token,\n            msg.sender,\n            address(0),\n            address(0),\n            0,\n            submitAmount,\n            submitAmount,\n            time,\n            increaseRange,\n            0,\n            0,\n            0\n        );\n        snatchInfoMap[id] = snatchInfo;\n        selfSnatchInfoMap[msg.sender].push(id);\n        emit AddSnatch(msg.sender,id);\n    }\n\n    function getSnatchList() view public returns(uint256[] memory){\n        return snatchlist;\n    }\n\n    function snatchTokenPool(uint256 _id,uint256 _amount) public{\n        SnatchInfo storage snatchInfo = snatchInfoMap[_id];\n        //+1\n        snatchInfo.snatchCount = snatchInfo.snatchCount.add(1);\n        uint256 nowAmount = calcRangeAmount(snatchInfo.lastAmount,\n                                    snatchInfo.increaseRange,\n                                    snatchInfo.snatchCount);\n        require(_amount >= nowAmount,\"SnatchTokenPool Amount error\");\n        // require(snatchInfo.tempOwner!=msg.sender,\"Can not repeat snatch\");\n        uint256 t = block.timestamp;\n        uint256[4] storage time = snatchInfo.time;\n        if(time[0]!=0){\n            //startTime,lastTime,durationTime,durationEndTime\n            require(time[1].add(time[2]) >= t, \"Over duration,game over\");\n            require(time[0].add(time[3]) >= t, \"Game is expend over time\");\n        }else{\n            time[0] = t;\n        }\n        //add amount\n        snatchInfo.amount = snatchInfo.amount.add(_amount);\n        snatchInfo.lastOwner = snatchInfo.tempOwner;\n        snatchInfo.tempOwner = msg.sender;\n        snatchInfo.lastAmount = _amount;\n        time[1] = t;\n        snatchInfo.totalSnatchCount = snatchInfo.totalSnatchCount.add(1);\n        snatchInfo.totalAmount = snatchInfo.totalAmount.add(_amount);\n        safeTransferFrom(snatchInfo.token,msg.sender,address(this), _amount);\n        emit SnatchTokenPool(msg.sender,_amount);\n    }\n\n    function withdrawPool(uint256 _id) public{\n        SnatchInfo storage snatchInfo =snatchInfoMap[_id];\n        require(snatchInfo.tempOwner == msg.sender,\"Not winner\");\n        uint256[4] storage time = snatchInfo.time;\n        require(time[1].add(time[2]) < block.timestamp\n            || time[0].add(time[3]) < block.timestamp, \"Game is not over\");\n        //10%\n        uint256 reward = snatchInfo.amount;\n\n        IERC777 iERC777 = IERC777(snatchInfo.token);\n        //owner 10%\n        iERC777.send(snatchInfo.owner, reward.mul(10).div(100), \"\");\n        //50%\n        iERC777.send(snatchInfo.tempOwner,reward.mul(50).div(100), \"\");\n        emit WithdrawTokenPool(msg.sender,msg.sender,reward.mul(50).div(100));\n        initStatus(_id);\n    }\n\n    function otherWithdrawToken(uint256 _id) public {\n        SnatchInfo storage snatchInfo = snatchInfoMap[_id];\n        uint256[4] storage time = snatchInfo.time;\n        require(time[1].add(time[2]) < block.timestamp\n            || time[0].add(time[3]) < block.timestamp,\"Game is not over\");\n        uint256 reward = snatchInfo.amount;\n        IERC777 iERC777 = IERC777(snatchInfo.token);\n        //owner 10%\n        iERC777.send(snatchInfo.owner, reward.mul(10).div(100), \"\");\n        //win 50%\n        iERC777.send(snatchInfo.tempOwner,reward.mul(45).div(100), \"\");\n        //win 5%\n        iERC777.send(msg.sender,reward.mul(5).div(100),\"\");\n        emit WithdrawTokenPool(snatchInfo.tempOwner,msg.sender,reward.mul(45).div(100));\n        initStatus(_id);\n    }\n\n    function initStatus(uint256 _id) internal{\n        SnatchInfo storage snatchInfo = snatchInfoMap[_id];\n        Winner memory winner = Winner(snatchInfo.tempOwner,\n                        snatchInfo.snatchCount,snatchInfo.totalSnatchCount,\n                        snatchInfo.amount,block.timestamp);\n        winners[_id].push(winner);\n        snatchInfo.lastOwner = address(0);\n        snatchInfo.tempOwner = address(0);\n        snatchInfo.amount = snatchInfo.amount.mul(40).div(100);\n        snatchInfo.lastAmount = snatchInfo.submitAmount;\n        uint256[4] storage time = snatchInfo.time;\n        time[0] = 0;\n        time[1] = 0;\n        snatchInfo.snatchCount = 0;\n    }\n\n    function calcRangeAmount(uint256 _amount,uint256 _rate,uint256 _count) view public returns(uint256){\n        return _amount.add(_amount.mul(_rate.mul(_count.div(100)).div(100)));\n    }\n   \n    function safeTransferFrom(address token, address from, address to, uint value) internal {\n        // bytes4(keccak256(bytes('transferFrom(address,address,uint256)')));\n        //transfer ERC20 Token\n        (bool success, bytes memory data) = token.call(abi.encodeWithSelector(0x23b872dd, from, to, value));\n        require(success && (data.length == 0 || abi.decode(data, (bool))), 'TRANSFER_FROM_FAILED');\n    }\n\n    function tokensReceived(\n      address operator,\n      address from,\n      address to,\n      uint amount,\n      bytes calldata userData,\n      bytes calldata operatorData\n    ) external override{\n        givers[from] += amount;\n    }\n\n}",
  "sourcePath": "/Users/wangban/Downloads/money/coin/chk/chksol/contracts/SnatchNormal.sol",
  "compiler": {
    "name": "solc",
    "version": "0.6.2+commit.bacdbe57.Emscripten.clang"
  },
  "schemaVersion": "3.2.0",
  "updatedAt": "2021-01-15T16:48:11.304Z",
  "devdoc": {
    "methods": {}
  },
  "userdoc": {
    "methods": {}
  }
}