{
  "contractName": "SnatchNormal",
  "abi": [
    {
      "inputs": [
        {
          "internalType": "address",
          "name": "_nftToken",
          "type": "address"
        }
      ],
      "stateMutability": "nonpayable",
      "type": "constructor"
    },
    {
      "anonymous": false,
      "inputs": [
        {
          "indexed": false,
          "internalType": "address",
          "name": "owner",
          "type": "address"
        },
        {
          "indexed": false,
          "internalType": "uint256",
          "name": "_id",
          "type": "uint256"
        }
      ],
      "name": "AddSnatch",
      "type": "event"
    },
    {
      "anonymous": false,
      "inputs": [
        {
          "indexed": false,
          "internalType": "address",
          "name": "_addr",
          "type": "address"
        },
        {
          "indexed": false,
          "internalType": "uint256",
          "name": "_amount",
          "type": "uint256"
        }
      ],
      "name": "SnatchTokenPool",
      "type": "event"
    },
    {
      "anonymous": false,
      "inputs": [
        {
          "indexed": false,
          "internalType": "address",
          "name": "_owner",
          "type": "address"
        },
        {
          "indexed": false,
          "internalType": "address",
          "name": "_addr",
          "type": "address"
        },
        {
          "indexed": false,
          "internalType": "uint256",
          "name": "_amount",
          "type": "uint256"
        }
      ],
      "name": "WithdrawTokenPool",
      "type": "event"
    },
    {
      "inputs": [
        {
          "internalType": "address",
          "name": "",
          "type": "address"
        }
      ],
      "name": "givers",
      "outputs": [
        {
          "internalType": "uint256",
          "name": "",
          "type": "uint256"
        }
      ],
      "stateMutability": "view",
      "type": "function"
    },
    {
      "inputs": [
        {
          "internalType": "address",
          "name": "",
          "type": "address"
        },
        {
          "internalType": "uint256",
          "name": "",
          "type": "uint256"
        }
      ],
      "name": "selfSnatchInfoMap",
      "outputs": [
        {
          "internalType": "uint256",
          "name": "",
          "type": "uint256"
        }
      ],
      "stateMutability": "view",
      "type": "function"
    },
    {
      "inputs": [
        {
          "internalType": "uint256",
          "name": "",
          "type": "uint256"
        }
      ],
      "name": "snatchInfoMap",
      "outputs": [
        {
          "internalType": "address",
          "name": "token",
          "type": "address"
        },
        {
          "internalType": "address",
          "name": "owner",
          "type": "address"
        },
        {
          "internalType": "address",
          "name": "lastOwner",
          "type": "address"
        },
        {
          "internalType": "address",
          "name": "tempOwner",
          "type": "address"
        },
        {
          "internalType": "uint256",
          "name": "amount",
          "type": "uint256"
        },
        {
          "internalType": "uint256",
          "name": "submitAmount",
          "type": "uint256"
        },
        {
          "internalType": "uint256",
          "name": "lastAmount",
          "type": "uint256"
        },
        {
          "internalType": "uint256",
          "name": "increaseRange",
          "type": "uint256"
        },
        {
          "internalType": "uint256",
          "name": "snatchCount",
          "type": "uint256"
        },
        {
          "internalType": "uint256",
          "name": "totalSnatchCount",
          "type": "uint256"
        },
        {
          "internalType": "uint256",
          "name": "totalAmount",
          "type": "uint256"
        }
      ],
      "stateMutability": "view",
      "type": "function"
    },
    {
      "inputs": [
        {
          "internalType": "address",
          "name": "",
          "type": "address"
        }
      ],
      "name": "snatchOwnerRole",
      "outputs": [
        {
          "internalType": "bool",
          "name": "",
          "type": "bool"
        }
      ],
      "stateMutability": "view",
      "type": "function"
    },
    {
      "inputs": [
        {
          "internalType": "uint256",
          "name": "",
          "type": "uint256"
        }
      ],
      "name": "snatchlist",
      "outputs": [
        {
          "internalType": "uint256",
          "name": "",
          "type": "uint256"
        }
      ],
      "stateMutability": "view",
      "type": "function"
    },
    {
      "inputs": [
        {
          "internalType": "uint256",
          "name": "",
          "type": "uint256"
        },
        {
          "internalType": "uint256",
          "name": "",
          "type": "uint256"
        }
      ],
      "name": "winners",
      "outputs": [
        {
          "internalType": "address",
          "name": "winner",
          "type": "address"
        },
        {
          "internalType": "uint256",
          "name": "count",
          "type": "uint256"
        },
        {
          "internalType": "uint256",
          "name": "snatchCount",
          "type": "uint256"
        },
        {
          "internalType": "uint256",
          "name": "amount",
          "type": "uint256"
        },
        {
          "internalType": "uint256",
          "name": "winTime",
          "type": "uint256"
        }
      ],
      "stateMutability": "view",
      "type": "function"
    },
    {
      "inputs": [
        {
          "internalType": "uint256",
          "name": "_id",
          "type": "uint256"
        }
      ],
      "name": "getSnatchTimeInfo",
      "outputs": [
        {
          "internalType": "uint256",
          "name": "_startTime",
          "type": "uint256"
        },
        {
          "internalType": "uint256",
          "name": "_lastTime",
          "type": "uint256"
        },
        {
          "internalType": "uint256",
          "name": "_durationTime",
          "type": "uint256"
        },
        {
          "internalType": "uint256",
          "name": "_durationEndTime",
          "type": "uint256"
        }
      ],
      "stateMutability": "view",
      "type": "function"
    },
    {
      "inputs": [
        {
          "internalType": "uint256",
          "name": "_id",
          "type": "uint256"
        }
      ],
      "name": "getSnatchBaseInfo",
      "outputs": [
        {
          "internalType": "address",
          "name": "_token",
          "type": "address"
        },
        {
          "internalType": "address",
          "name": "_owner",
          "type": "address"
        },
        {
          "internalType": "address",
          "name": "_lastOwner",
          "type": "address"
        },
        {
          "internalType": "address",
          "name": "_tempOwner",
          "type": "address"
        },
        {
          "internalType": "uint256",
          "name": "_amount",
          "type": "uint256"
        },
        {
          "internalType": "uint256",
          "name": "_submitAmount",
          "type": "uint256"
        },
        {
          "internalType": "uint256",
          "name": "_lastAmount",
          "type": "uint256"
        },
        {
          "internalType": "uint256",
          "name": "_increaseRange",
          "type": "uint256"
        },
        {
          "internalType": "uint256",
          "name": "_snatchCount",
          "type": "uint256"
        },
        {
          "internalType": "uint256",
          "name": "_totalSnatchCount",
          "type": "uint256"
        },
        {
          "internalType": "uint256",
          "name": "_totalAmount",
          "type": "uint256"
        }
      ],
      "stateMutability": "view",
      "type": "function"
    },
    {
      "inputs": [
        {
          "internalType": "address",
          "name": "_owner",
          "type": "address"
        }
      ],
      "name": "getOwnerSnatch",
      "outputs": [
        {
          "internalType": "uint256[]",
          "name": "_ids",
          "type": "uint256[]"
        }
      ],
      "stateMutability": "view",
      "type": "function"
    },
    {
      "inputs": [
        {
          "internalType": "address",
          "name": "_nftToken",
          "type": "address"
        }
      ],
      "name": "addNft",
      "outputs": [],
      "stateMutability": "nonpayable",
      "type": "function"
    },
    {
      "inputs": [
        {
          "internalType": "uint256",
          "name": "_id",
          "type": "uint256"
        },
        {
          "internalType": "address",
          "name": "nftToken",
          "type": "address"
        },
        {
          "internalType": "address",
          "name": "token",
          "type": "address"
        },
        {
          "internalType": "uint256",
          "name": "submitAmount",
          "type": "uint256"
        },
        {
          "internalType": "uint256",
          "name": "durationTime",
          "type": "uint256"
        },
        {
          "internalType": "uint256",
          "name": "durationEndTime",
          "type": "uint256"
        },
        {
          "internalType": "uint256",
          "name": "increaseRange",
          "type": "uint256"
        }
      ],
      "name": "addSnatch",
      "outputs": [],
      "stateMutability": "nonpayable",
      "type": "function"
    },
    {
      "inputs": [
        {
          "internalType": "uint256",
          "name": "_id",
          "type": "uint256"
        },
        {
          "internalType": "uint256",
          "name": "_amount",
          "type": "uint256"
        }
      ],
      "name": "snatchTokenPool",
      "outputs": [],
      "stateMutability": "nonpayable",
      "type": "function"
    },
    {
      "inputs": [
        {
          "internalType": "uint256",
          "name": "_id",
          "type": "uint256"
        }
      ],
      "name": "withdrawPool",
      "outputs": [],
      "stateMutability": "nonpayable",
      "type": "function"
    },
    {
      "inputs": [
        {
          "internalType": "uint256",
          "name": "_id",
          "type": "uint256"
        }
      ],
      "name": "otherWithdrawToken",
      "outputs": [],
      "stateMutability": "nonpayable",
      "type": "function"
    },
    {
      "inputs": [
        {
          "internalType": "address",
          "name": "operator",
          "type": "address"
        },
        {
          "internalType": "address",
          "name": "from",
          "type": "address"
        },
        {
          "internalType": "address",
          "name": "to",
          "type": "address"
        },
        {
          "internalType": "uint256",
          "name": "amount",
          "type": "uint256"
        },
        {
          "internalType": "bytes",
          "name": "userData",
          "type": "bytes"
        },
        {
          "internalType": "bytes",
          "name": "operatorData",
          "type": "bytes"
        }
      ],
      "name": "tokensReceived",
      "outputs": [],
      "stateMutability": "nonpayable",
      "type": "function"
    }
  ],
  "bytecode": "0x608060405260056007557388887ed889e776bcbe2f0f9932ecfabcdfcd1820600b60006101000a81548173ffffffffffffffffffffffffffffffffffffffff021916908373ffffffffffffffffffffffffffffffffffffffff16021790555034801561006a57600080fd5b50604051620033b8380380620033b88339818101604052602081101561008f57600080fd5b8101908080519060200190929190505050600b60009054906101000a900473ffffffffffffffffffffffffffffffffffffffff1673ffffffffffffffffffffffffffffffffffffffff166329965a1d307fb281fc8c12954d22544db45de3159a39272895b169a852b314f9cc762e44c53b60001b306040518463ffffffff1660e01b8152600401808473ffffffffffffffffffffffffffffffffffffffff1673ffffffffffffffffffffffffffffffffffffffff1681526020018381526020018273ffffffffffffffffffffffffffffffffffffffff1673ffffffffffffffffffffffffffffffffffffffff1681526020019350505050600060405180830381600087803b1580156101a057600080fd5b505af11580156101b4573d6000803e3d6000fd5b5050505033600660006101000a81548173ffffffffffffffffffffffffffffffffffffffff021916908373ffffffffffffffffffffffffffffffffffffffff160217905550806000808373ffffffffffffffffffffffffffffffffffffffff1673ffffffffffffffffffffffffffffffffffffffff16815260200190815260200160002060006101000a81548173ffffffffffffffffffffffffffffffffffffffff021916908373ffffffffffffffffffffffffffffffffffffffff1602179055505061313180620002876000396000f3fe608060405234801561001057600080fd5b50600436106100f45760003560e01c80636b86d844116100975780639d6fe3a9116100665780639d6fe3a91461068d578063a40f1d70146107c5578063cf7b60361461085b578063e89081f814610893576100f4565b80636b86d8441461047457806375456c30146104a25780637bb8510a146104fe57806387cafbba14610555576100f4565b8063447a91fd116100d3578063447a91fd1461035e578063485fa99e146103a25780634c034ea9146103e4578063631b175814610412576100f4565b806223de29146100f95780630efc8865146102315780631b4e5fc6146102c5575b600080fd5b61022f600480360360c081101561010f57600080fd5b81019080803573ffffffffffffffffffffffffffffffffffffffff169060200190929190803573ffffffffffffffffffffffffffffffffffffffff169060200190929190803573ffffffffffffffffffffffffffffffffffffffff169060200190929190803590602001909291908035906020019064010000000081111561019657600080fd5b8201836020820111156101a857600080fd5b803590602001918460018302840111640100000000831117156101ca57600080fd5b9091929391929390803590602001906401000000008111156101eb57600080fd5b8201836020820111156101fd57600080fd5b8035906020019184600183028401116401000000008311171561021f57600080fd5b90919293919293905050506108eb565b005b6102676004803603604081101561024757600080fd5b810190808035906020019092919080359060200190929190505050610942565b604051808673ffffffffffffffffffffffffffffffffffffffff1673ffffffffffffffffffffffffffffffffffffffff1681526020018581526020018481526020018381526020018281526020019550505050505060405180910390f35b610307600480360360208110156102db57600080fd5b81019080803573ffffffffffffffffffffffffffffffffffffffff1690602001909291905050506109b2565b6040518080602001828103825283818151815260200191508051906020019060200280838360005b8381101561034a57808201518184015260208101905061032f565b505050509050019250505060405180910390f35b6103a06004803603602081101561037457600080fd5b81019080803573ffffffffffffffffffffffffffffffffffffffff169060200190929190505050610a49565b005b6103ce600480360360208110156103b857600080fd5b8101908080359060200190929190505050610b8c565b6040518082815260200191505060405180910390f35b610410600480360360208110156103fa57600080fd5b8101908080359060200190929190505050610bad565b005b61045e6004803603604081101561042857600080fd5b81019080803573ffffffffffffffffffffffffffffffffffffffff16906020019092919080359060200190929190505050611091565b6040518082815260200191505060405180910390f35b6104a06004803603602081101561048a57600080fd5b81019080803590602001909291905050506110bf565b005b6104e4600480360360208110156104b857600080fd5b81019080803573ffffffffffffffffffffffffffffffffffffffff1690602001909291905050506115ed565b604051808215151515815260200191505060405180910390f35b61052a6004803603602081101561051457600080fd5b810190808035906020019092919050505061160d565b6040518085815260200184815260200183815260200182815260200194505050505060405180910390f35b6105816004803603602081101561056b57600080fd5b8101908080359060200190929190505050611887565b604051808c73ffffffffffffffffffffffffffffffffffffffff1673ffffffffffffffffffffffffffffffffffffffff1681526020018b73ffffffffffffffffffffffffffffffffffffffff1673ffffffffffffffffffffffffffffffffffffffff1681526020018a73ffffffffffffffffffffffffffffffffffffffff1673ffffffffffffffffffffffffffffffffffffffff1681526020018973ffffffffffffffffffffffffffffffffffffffff1673ffffffffffffffffffffffffffffffffffffffff1681526020018881526020018781526020018681526020018581526020018481526020018381526020018281526020019b50505050505050505050505060405180910390f35b6106b9600480360360208110156106a357600080fd5b8101908080359060200190929190505050611961565b604051808c73ffffffffffffffffffffffffffffffffffffffff1673ffffffffffffffffffffffffffffffffffffffff1681526020018b73ffffffffffffffffffffffffffffffffffffffff1673ffffffffffffffffffffffffffffffffffffffff1681526020018a73ffffffffffffffffffffffffffffffffffffffff1673ffffffffffffffffffffffffffffffffffffffff1681526020018973ffffffffffffffffffffffffffffffffffffffff1673ffffffffffffffffffffffffffffffffffffffff1681526020018881526020018781526020018681526020018581526020018481526020018381526020018281526020019b50505050505050505050505060405180910390f35b610859600480360360e08110156107db57600080fd5b8101908080359060200190929190803573ffffffffffffffffffffffffffffffffffffffff169060200190929190803573ffffffffffffffffffffffffffffffffffffffff16906020019092919080359060200190929190803590602001909291908035906020019092919080359060200190929190505050611bdf565b005b6108916004803603604081101561087157600080fd5b8101908080359060200190929190803590602001909291905050506122e3565b005b6108d5600480360360208110156108a957600080fd5b81019080803573ffffffffffffffffffffffffffffffffffffffff1690602001909291905050506127a4565b6040518082815260200191505060405180910390f35b84600360008973ffffffffffffffffffffffffffffffffffffffff1673ffffffffffffffffffffffffffffffffffffffff168152602001908152602001600020600082825401925050819055505050505050505050565b6002602052816000526040600020818154811061095b57fe5b9060005260206000209060050201600091509150508060000160009054906101000a900473ffffffffffffffffffffffffffffffffffffffff16908060010154908060020154908060030154908060040154905085565b6060600a60008373ffffffffffffffffffffffffffffffffffffffff1673ffffffffffffffffffffffffffffffffffffffff168152602001908152602001600020805480602002602001604051908101604052809291908181526020018280548015610a3d57602002820191906000526020600020905b815481526020019060010190808311610a29575b50505050509050919050565b600660009054906101000a900473ffffffffffffffffffffffffffffffffffffffff1673ffffffffffffffffffffffffffffffffffffffff163373ffffffffffffffffffffffffffffffffffffffff1614610b0c576040517f08c379a00000000000000000000000000000000000000000000000000000000081526004018080602001828103825260098152602001807f6e6f74206f776e6572000000000000000000000000000000000000000000000081525060200191505060405180910390fd5b806000808373ffffffffffffffffffffffffffffffffffffffff1673ffffffffffffffffffffffffffffffffffffffff16815260200190815260200160002060006101000a81548173ffffffffffffffffffffffffffffffffffffffff021916908373ffffffffffffffffffffffffffffffffffffffff16021790555050565b60088181548110610b9957fe5b906000526020600020016000915090505481565b60006009600083815260200190815260200160002090503373ffffffffffffffffffffffffffffffffffffffff168160030160009054906101000a900473ffffffffffffffffffffffffffffffffffffffff1673ffffffffffffffffffffffffffffffffffffffff1614610c89576040517f08c379a000000000000000000000000000000000000000000000000000000000815260040180806020018281038252600a8152602001807f4e6f742077696e6e65720000000000000000000000000000000000000000000081525060200191505060405180910390fd5b600081600701905042610cc182600260048110610ca257fe5b015483600160048110610cb157fe5b01546127bc90919063ffffffff16565b1080610cfa575042610cf882600360048110610cd957fe5b015483600060048110610ce857fe5b01546127bc90919063ffffffff16565b105b610d6c576040517f08c379a00000000000000000000000000000000000000000000000000000000081526004018080602001828103825260108152602001807f47616d65206973206e6f74206f7665720000000000000000000000000000000081525060200191505060405180910390fd5b60008260040154905060008360000160009054906101000a900473ffffffffffffffffffffffffffffffffffffffff1690508073ffffffffffffffffffffffffffffffffffffffff16639bd9bbc68560010160009054906101000a900473ffffffffffffffffffffffffffffffffffffffff16610e066064610df8600a8861284490919063ffffffff16565b6128ca90919063ffffffff16565b6040518363ffffffff1660e01b8152600401808373ffffffffffffffffffffffffffffffffffffffff1673ffffffffffffffffffffffffffffffffffffffff168152602001828152602001806020018281038252600081526020016020019350505050600060405180830381600087803b158015610e8357600080fd5b505af1158015610e97573d6000803e3d6000fd5b505050508073ffffffffffffffffffffffffffffffffffffffff16639bd9bbc68560030160009054906101000a900473ffffffffffffffffffffffffffffffffffffffff16610f15610f066064610ef8600a8961284490919063ffffffff16565b6128ca90919063ffffffff16565b8661291490919063ffffffff16565b6040518363ffffffff1660e01b8152600401808373ffffffffffffffffffffffffffffffffffffffff1673ffffffffffffffffffffffffffffffffffffffff168152602001828152602001806020018281038252600081526020016020019350505050600060405180830381600087803b158015610f9257600080fd5b505af1158015610fa6573d6000803e3d6000fd5b505050507fe39c37ed96c9cf01c6ee0a3a59853c39372094160aeb431bead7292f9fd6402d3333611006610ff76064610fe9600a8961284490919063ffffffff16565b6128ca90919063ffffffff16565b8661291490919063ffffffff16565b604051808473ffffffffffffffffffffffffffffffffffffffff1673ffffffffffffffffffffffffffffffffffffffff1681526020018373ffffffffffffffffffffffffffffffffffffffff1673ffffffffffffffffffffffffffffffffffffffff168152602001828152602001935050505060405180910390a161108a8561295e565b5050505050565b600a60205281600052604060002081815481106110aa57fe5b90600052602060002001600091509150505481565b600060096000838152602001908152602001600020905060008160070190504261110e826002600481106110ef57fe5b0154836001600481106110fe57fe5b01546127bc90919063ffffffff16565b10806111475750426111458260036004811061112657fe5b01548360006004811061113557fe5b01546127bc90919063ffffffff16565b105b6111b9576040517f08c379a00000000000000000000000000000000000000000000000000000000081526004018080602001828103825260108152602001807f47616d65206973206e6f74206f7665720000000000000000000000000000000081525060200191505060405180910390fd5b60008260040154905060008360000160009054906101000a900473ffffffffffffffffffffffffffffffffffffffff1690508073ffffffffffffffffffffffffffffffffffffffff16639bd9bbc68560010160009054906101000a900473ffffffffffffffffffffffffffffffffffffffff166112536064611245600a8861284490919063ffffffff16565b6128ca90919063ffffffff16565b6040518363ffffffff1660e01b8152600401808373ffffffffffffffffffffffffffffffffffffffff1673ffffffffffffffffffffffffffffffffffffffff168152602001828152602001806020018281038252600081526020016020019350505050600060405180830381600087803b1580156112d057600080fd5b505af11580156112e4573d6000803e3d6000fd5b505050508073ffffffffffffffffffffffffffffffffffffffff16639bd9bbc68560030160009054906101000a900473ffffffffffffffffffffffffffffffffffffffff166113626113536064611345600c8961284490919063ffffffff16565b6128ca90919063ffffffff16565b8661291490919063ffffffff16565b6040518363ffffffff1660e01b8152600401808373ffffffffffffffffffffffffffffffffffffffff1673ffffffffffffffffffffffffffffffffffffffff168152602001828152602001806020018281038252600081526020016020019350505050600060405180830381600087803b1580156113df57600080fd5b505af11580156113f3573d6000803e3d6000fd5b505050508073ffffffffffffffffffffffffffffffffffffffff16639bd9bbc63361144d61143e606461143060028961284490919063ffffffff16565b6128ca90919063ffffffff16565b8661291490919063ffffffff16565b6040518363ffffffff1660e01b8152600401808373ffffffffffffffffffffffffffffffffffffffff1673ffffffffffffffffffffffffffffffffffffffff168152602001828152602001806020018281038252600081526020016020019350505050600060405180830381600087803b1580156114ca57600080fd5b505af11580156114de573d6000803e3d6000fd5b505050507fe39c37ed96c9cf01c6ee0a3a59853c39372094160aeb431bead7292f9fd6402d8460030160009054906101000a900473ffffffffffffffffffffffffffffffffffffffff16336115626115536064611545600c8961284490919063ffffffff16565b6128ca90919063ffffffff16565b8661291490919063ffffffff16565b604051808473ffffffffffffffffffffffffffffffffffffffff1673ffffffffffffffffffffffffffffffffffffffff1681526020018373ffffffffffffffffffffffffffffffffffffffff1673ffffffffffffffffffffffffffffffffffffffff168152602001828152602001935050505060405180910390a16115e68561295e565b5050505050565b60046020528060005260406000206000915054906101000a900460ff1681565b60008060008061161b612f2d565b60096000878152602001908152602001600020604051806101800160405290816000820160009054906101000a900473ffffffffffffffffffffffffffffffffffffffff1673ffffffffffffffffffffffffffffffffffffffff1673ffffffffffffffffffffffffffffffffffffffff1681526020016001820160009054906101000a900473ffffffffffffffffffffffffffffffffffffffff1673ffffffffffffffffffffffffffffffffffffffff1673ffffffffffffffffffffffffffffffffffffffff1681526020016002820160009054906101000a900473ffffffffffffffffffffffffffffffffffffffff1673ffffffffffffffffffffffffffffffffffffffff1673ffffffffffffffffffffffffffffffffffffffff1681526020016003820160009054906101000a900473ffffffffffffffffffffffffffffffffffffffff1673ffffffffffffffffffffffffffffffffffffffff1673ffffffffffffffffffffffffffffffffffffffff168152602001600482015481526020016005820154815260200160068201548152602001600782016004806020026040519081016040528092919082600480156117ec576020028201915b8154815260200190600101908083116117d8575b50505050508152602001600b8201548152602001600c8201548152602001600d8201548152602001600e820154815250509050611827612fec565b8160e0015190508060006004811061183b57fe5b60200201518160016004811061184d57fe5b60200201518260026004811061185f57fe5b60200201518360036004811061187157fe5b6020020151955095509550955050509193509193565b60096020528060005260406000206000915090508060000160009054906101000a900473ffffffffffffffffffffffffffffffffffffffff16908060010160009054906101000a900473ffffffffffffffffffffffffffffffffffffffff16908060020160009054906101000a900473ffffffffffffffffffffffffffffffffffffffff16908060030160009054906101000a900473ffffffffffffffffffffffffffffffffffffffff169080600401549080600501549080600601549080600b01549080600c01549080600d01549080600e015490508b565b600080600080600080600080600080600061197a612f2d565b600960008e8152602001908152602001600020604051806101800160405290816000820160009054906101000a900473ffffffffffffffffffffffffffffffffffffffff1673ffffffffffffffffffffffffffffffffffffffff1673ffffffffffffffffffffffffffffffffffffffff1681526020016001820160009054906101000a900473ffffffffffffffffffffffffffffffffffffffff1673ffffffffffffffffffffffffffffffffffffffff1673ffffffffffffffffffffffffffffffffffffffff1681526020016002820160009054906101000a900473ffffffffffffffffffffffffffffffffffffffff1673ffffffffffffffffffffffffffffffffffffffff1673ffffffffffffffffffffffffffffffffffffffff1681526020016003820160009054906101000a900473ffffffffffffffffffffffffffffffffffffffff1673ffffffffffffffffffffffffffffffffffffffff1673ffffffffffffffffffffffffffffffffffffffff16815260200160048201548152602001600582015481526020016006820154815260200160078201600480602002604051908101604052809291908260048015611b4b576020028201915b815481526020019060010190808311611b37575b50505050508152602001600b8201548152602001600c8201548152602001600d8201548152602001600e820154815250509050806000015181602001518260400151836060015184608001518560a001518660c001518761010001518861012001518961014001518a61016001519b509b509b509b509b509b509b509b509b509b509b505091939597999b90929496989a50565b600460003373ffffffffffffffffffffffffffffffffffffffff1673ffffffffffffffffffffffffffffffffffffffff16815260200190815260200160002060009054906101000a900460ff1615611c9f576040517f08c379a000000000000000000000000000000000000000000000000000000000815260040180806020018281038252600c8152602001807f486173206120736e61746368000000000000000000000000000000000000000081525060200191505060405180910390fd5b60008060008873ffffffffffffffffffffffffffffffffffffffff1673ffffffffffffffffffffffffffffffffffffffff16815260200190815260200160002060009054906101000a900473ffffffffffffffffffffffffffffffffffffffff1673ffffffffffffffffffffffffffffffffffffffff1662fdd58e338a6040518363ffffffff1660e01b8152600401808373ffffffffffffffffffffffffffffffffffffffff1673ffffffffffffffffffffffffffffffffffffffff1681526020018281526020019250505060206040518083038186803b158015611d8357600080fd5b505afa158015611d97573d6000803e3d6000fd5b505050506040513d6020811015611dad57600080fd5b810190808051906020019092919050505011611e31576040517f08c379a000000000000000000000000000000000000000000000000000000000815260040180806020018281038252600d8152602001807f6e6f74206e6674206f776e65720000000000000000000000000000000000000081525060200191505060405180910390fd5b6000600560008873ffffffffffffffffffffffffffffffffffffffff1673ffffffffffffffffffffffffffffffffffffffff1681526020019081526020016000206000898152602001908152602001600020549050600754811115611efe576040517f08c379a00000000000000000000000000000000000000000000000000000000081526004018080602001828103825260118152602001807f4f766572207469636b657420636f756e7400000000000000000000000000000081525060200191505060405180910390fd5b6000600460003373ffffffffffffffffffffffffffffffffffffffff1673ffffffffffffffffffffffffffffffffffffffff16815260200190815260200160002060006101000a81548160ff021916908315150217905550600060088054905090506008819080600181540180825580915050600190039060005260206000200160009091909190915055611f91612fec565b60405180608001604052806000815260200160008152602001878152602001868152509050611fbe612f2d565b6040518061018001604052808a73ffffffffffffffffffffffffffffffffffffffff1681526020013373ffffffffffffffffffffffffffffffffffffffff168152602001600073ffffffffffffffffffffffffffffffffffffffff168152602001600073ffffffffffffffffffffffffffffffffffffffff16815260200160008152602001898152602001898152602001838152602001868152602001600081526020016000815260200160008152509050806009600085815260200190815260200160002060008201518160000160006101000a81548173ffffffffffffffffffffffffffffffffffffffff021916908373ffffffffffffffffffffffffffffffffffffffff16021790555060208201518160010160006101000a81548173ffffffffffffffffffffffffffffffffffffffff021916908373ffffffffffffffffffffffffffffffffffffffff16021790555060408201518160020160006101000a81548173ffffffffffffffffffffffffffffffffffffffff021916908373ffffffffffffffffffffffffffffffffffffffff16021790555060608201518160030160006101000a81548173ffffffffffffffffffffffffffffffffffffffff021916908373ffffffffffffffffffffffffffffffffffffffff1602179055506080820151816004015560a0820151816005015560c0820151816006015560e0820151816007019060046121d592919061300e565b5061010082015181600b015561012082015181600c015561014082015181600d015561016082015181600e0155905050600a60003373ffffffffffffffffffffffffffffffffffffffff1673ffffffffffffffffffffffffffffffffffffffff1681526020019081526020016000208390806001815401808255809150506001900390600052602060002001600090919091909150557fc928b6f079b8fe663931bb45ebf484679c3a03553e83769e75d8c1ec977479f43384604051808373ffffffffffffffffffffffffffffffffffffffff1673ffffffffffffffffffffffffffffffffffffffff1681526020018281526020019250505060405180910390a15050505050505050505050565b60006009600084815260200190815260200160002090508060060154821015612374576040517f08c379a00000000000000000000000000000000000000000000000000000000081526004018080602001828103825260208152602001807f4d696e20616d6f756e74206d75737420677265617465207468616e20302e303181525060200191505060405180910390fd5b3373ffffffffffffffffffffffffffffffffffffffff168160020160009054906101000a900473ffffffffffffffffffffffffffffffffffffffff1673ffffffffffffffffffffffffffffffffffffffff16141561243a576040517f08c379a00000000000000000000000000000000000000000000000000000000081526004018080602001828103825260158152602001807f43616e206e6f742072657065617420736e61746368000000000000000000000081525060200191505060405180910390fd5b6000429050600082600701905060008160006004811061245657fe5b0154146125aa578161248d8260026004811061246e57fe5b01548360016004811061247d57fe5b01546127bc90919063ffffffff16565b1015612501576040517f08c379a00000000000000000000000000000000000000000000000000000000081526004018080602001828103825260178152602001807f4f766572206475726174696f6e2c67616d65206f76657200000000000000000081525060200191505060405180910390fd5b816125318260036004811061251257fe5b01548360006004811061252157fe5b01546127bc90919063ffffffff16565b10156125a5576040517f08c379a00000000000000000000000000000000000000000000000000000000081526004018080602001828103825260188152602001807f47616d6520697320657870656e64206f7665722074696d65000000000000000081525060200191505060405180910390fd5b6125be565b81816000600481106125b857fe5b01819055505b6125d58484600401546127bc90919063ffffffff16565b83600401819055508260030160009054906101000a900473ffffffffffffffffffffffffffffffffffffffff168360020160006101000a81548173ffffffffffffffffffffffffffffffffffffffff021916908373ffffffffffffffffffffffffffffffffffffffff160217905550338360030160006101000a81548173ffffffffffffffffffffffffffffffffffffffff021916908373ffffffffffffffffffffffffffffffffffffffff160217905550838360060181905550818160016004811061269e57fe5b01819055506126bb600184600c01546127bc90919063ffffffff16565b83600c01819055506126db600184600d01546127bc90919063ffffffff16565b83600d01819055506126fa8484600e01546127bc90919063ffffffff16565b83600e01819055506127328360000160009054906101000a900473ffffffffffffffffffffffffffffffffffffffff16333087612b79565b7ffd107d8fb07d2a49fcce797c9e7915c733ad34daa8f39604822bd9950a3c43f33385604051808373ffffffffffffffffffffffffffffffffffffffff1673ffffffffffffffffffffffffffffffffffffffff1681526020018281526020019250505060405180910390a15050505050565b60036020528060005260406000206000915090505481565b60008082840190508381101561283a576040517f08c379a000000000000000000000000000000000000000000000000000000000815260040180806020018281038252601b8152602001807f536166654d6174683a206164646974696f6e206f766572666c6f77000000000081525060200191505060405180910390fd5b8091505092915050565b60008083141561285757600090506128c4565b600082840290508284828161286857fe5b04146128bf576040517f08c379a00000000000000000000000000000000000000000000000000000000081526004018080602001828103825260218152602001806130db6021913960400191505060405180910390fd5b809150505b92915050565b600061290c83836040518060400160405280601a81526020017f536166654d6174683a206469766973696f6e206279207a65726f000000000000815250612da7565b905092915050565b600061295683836040518060400160405280601e81526020017f536166654d6174683a207375627472616374696f6e206f766572666c6f770000815250612e6d565b905092915050565b600060096000838152602001908152602001600020905061297d61304e565b6040518060a001604052808360030160009054906101000a900473ffffffffffffffffffffffffffffffffffffffff1673ffffffffffffffffffffffffffffffffffffffff16815260200183600c0154815260200183600d01548152602001836004015481526020014281525090506002600084815260200190815260200160002081908060018154018082558091505060019003906000526020600020906005020160009091909190915060008201518160000160006101000a81548173ffffffffffffffffffffffffffffffffffffffff021916908373ffffffffffffffffffffffffffffffffffffffff16021790555060208201518160010155604082015181600201556060820151816003015560808201518160040155505060008260020160006101000a81548173ffffffffffffffffffffffffffffffffffffffff021916908373ffffffffffffffffffffffffffffffffffffffff16021790555060008260030160006101000a81548173ffffffffffffffffffffffffffffffffffffffff021916908373ffffffffffffffffffffffffffffffffffffffff16021790555060008260040181905550816005015482600601819055506000826007019050600081600060048110612b5057fe5b0181905550600081600160048110612b6457fe5b0181905550600083600c018190555050505050565b600060608573ffffffffffffffffffffffffffffffffffffffff166323b872dd868686604051602401808473ffffffffffffffffffffffffffffffffffffffff1673ffffffffffffffffffffffffffffffffffffffff1681526020018373ffffffffffffffffffffffffffffffffffffffff1673ffffffffffffffffffffffffffffffffffffffff16815260200182815260200193505050506040516020818303038152906040529060e01b6020820180517bffffffffffffffffffffffffffffffffffffffffffffffffffffffff83818316178352505050506040518082805190602001908083835b60208310612c865780518252602082019150602081019050602083039250612c63565b6001836020036101000a0380198251168184511680821785525050505050509050019150506000604051808303816000865af19150503d8060008114612ce8576040519150601f19603f3d011682016040523d82523d6000602084013e612ced565b606091505b5091509150818015612d2d5750600081511480612d2c5750808060200190516020811015612d1a57600080fd5b81019080805190602001909291905050505b5b612d9f576040517f08c379a00000000000000000000000000000000000000000000000000000000081526004018080602001828103825260148152602001807f5452414e534645525f46524f4d5f4641494c454400000000000000000000000081525060200191505060405180910390fd5b505050505050565b60008083118290612e53576040517f08c379a00000000000000000000000000000000000000000000000000000000081526004018080602001828103825283818151815260200191508051906020019080838360005b83811015612e18578082015181840152602081019050612dfd565b50505050905090810190601f168015612e455780820380516001836020036101000a031916815260200191505b509250505060405180910390fd5b506000838581612e5f57fe5b049050809150509392505050565b6000838311158290612f1a576040517f08c379a00000000000000000000000000000000000000000000000000000000081526004018080602001828103825283818151815260200191508051906020019080838360005b83811015612edf578082015181840152602081019050612ec4565b50505050905090810190601f168015612f0c5780820380516001836020036101000a031916815260200191505b509250505060405180910390fd5b5060008385039050809150509392505050565b604051806101800160405280600073ffffffffffffffffffffffffffffffffffffffff168152602001600073ffffffffffffffffffffffffffffffffffffffff168152602001600073ffffffffffffffffffffffffffffffffffffffff168152602001600073ffffffffffffffffffffffffffffffffffffffff168152602001600081526020016000815260200160008152602001612fca613093565b8152602001600081526020016000815260200160008152602001600081525090565b6040518060800160405280600490602082028038833980820191505090505090565b826004810192821561303d579160200282015b8281111561303c578251825591602001919060010190613021565b5b50905061304a91906130b5565b5090565b6040518060a00160405280600073ffffffffffffffffffffffffffffffffffffffff168152602001600081526020016000815260200160008152602001600081525090565b6040518060800160405280600490602082028038833980820191505090505090565b6130d791905b808211156130d35760008160009055506001016130bb565b5090565b9056fe536166654d6174683a206d756c7469706c69636174696f6e206f766572666c6f77a26469706673582212209f3bcf35565ae29503ee13b554199718ecc7afccc28cb6832ba63e12f6f986ee64736f6c63430006020033",
  "source": "pragma solidity >=0.6.0 <0.8.0;\nimport \"@openzeppelin/contracts/math/SafeMath.sol\";\nimport './Ticket1155Nft.sol';\n\nimport \"@openzeppelin/contracts/token/ERC777/IERC777Recipient.sol\";\nimport \"@openzeppelin/contracts/token/ERC777/IERC777.sol\";\nimport \"@openzeppelin/contracts/introspection/IERC1820Registry.sol\";\n\n\ncontract SnatchNormal is IERC777Recipient{\n\n    event AddSnatch(address owner,uint256 _id);\n    event SnatchTokenPool(address _addr,uint256 _amount);\n    event WithdrawTokenPool(address _owner, address _addr,uint256 _amount);\n\n    mapping(address => Ticket1155Nft) ticketMap;\n\n    mapping (address=>uint256[]) snatchPools;\n\n    mapping (uint256=>Winner[]) public winners;\n\n    mapping(address => uint256) public givers;\n\n    mapping(address => bool) public snatchOwnerRole;\n\n    mapping(address => mapping(uint256 => uint256)) ticketCountMap;\n\n    using SafeMath for uint256;\n\n    address snatchNormalOwner;\n\n    uint256 ticketCount=5;\n\n    uint256[] public snatchlist;\n\n    mapping(uint256=>SnatchInfo) public snatchInfoMap;\n\n    mapping (address=>uint256[]) public selfSnatchInfoMap;\n\n    struct SnatchInfo{\n        address token;//\n        address owner;//msg.sender\n        address lastOwner;//0\n        address tempOwner;//0\n        uint256 amount;//0\n        uint256 submitAmount;\n        uint256 lastAmount;//-\n        //startTime lastTime durationTime durationEndTime\n        uint256[4] time;//-,-,0,-\n        uint256 increaseRange;//-\n        uint256 snatchCount;//0\n        uint256 totalSnatchCount;//0\n        uint256 totalAmount;//0\n    }\n\n    struct Winner{\n        address winner;\n        uint256 count;\n        uint256 snatchCount;\n        uint256 amount;\n        uint256 winTime;\n    }\n\n    IERC1820Registry private _erc1820 = IERC1820Registry(0x88887eD889e776bCBe2f0f9932EcFaBcDfCd1820);\n\n    // keccak256(\"ERC777TokensRecipient\")\n    bytes32 constant private TOKENS_RECIPIENT_INTERFACE_HASH =\n        0xb281fc8c12954d22544db45de3159a39272895b169a852b314f9cc762e44c53b;\n\n    constructor(address _nftToken) public {\n        _erc1820.setInterfaceImplementer(address(this), TOKENS_RECIPIENT_INTERFACE_HASH, address(this));\n        snatchNormalOwner = msg.sender;\n        ticketMap[_nftToken] = Ticket1155Nft(_nftToken);\n    }\n\n    modifier onlySnatchNormalOwner(){\n        require(msg.sender==snatchNormalOwner,\"not owner\");\n        _;\n    }\n\n    function getSnatchTimeInfo(uint256 _id) view public returns(\n        uint256 _startTime,uint256 _lastTime,uint256 _durationTime,\n        uint256 _durationEndTime\n    ){\n        SnatchInfo memory snatchInfo = snatchInfoMap[_id];\n        //startTime lastTime durationTime durationEndTime\n        uint256[4] memory t = snatchInfo.time;\n        return (t[0],t[1],t[2],t[3]);\n    }\n\n    function getSnatchBaseInfo(uint256 _id) view public returns(\n        address _token,\n        address _owner,address _lastOwner,address _tempOwner,\n        uint256 _amount,uint256 _submitAmount,uint256 _lastAmount,\n        uint256 _increaseRange,uint256 _snatchCount,\n        uint256 _totalSnatchCount,uint256 _totalAmount\n    ){\n        SnatchInfo memory snatchInfo = snatchInfoMap[_id];\n        return(snatchInfo.token,\n        snatchInfo.owner,\n        snatchInfo.lastOwner,\n        snatchInfo.tempOwner,\n        snatchInfo.amount,\n        snatchInfo.submitAmount,\n        snatchInfo.lastAmount,\n        snatchInfo.increaseRange,\n        snatchInfo.snatchCount,\n        snatchInfo.totalSnatchCount,\n        snatchInfo.totalAmount);\n    }\n    \n    function getOwnerSnatch(address _owner) view public returns(uint256[] memory _ids){\n        return selfSnatchInfoMap[_owner];\n    }\n\n\n    function addNft(address _nftToken) public onlySnatchNormalOwner(){\n        ticketMap[_nftToken] = Ticket1155Nft(_nftToken);\n    }\n\n    function addSnatch(\n        uint256 _id,\n        address nftToken,\n        address token,\n        uint256 submitAmount,\n        uint256 durationTime,\n        uint256 durationEndTime,\n        uint256 increaseRange\n    ) public{\n        // 1155\n        require(!snatchOwnerRole[msg.sender],\"Has a snatch\");\n        require(ticketMap[nftToken].balanceOf(msg.sender,_id) > 0,\"not nft owner\");\n        uint256 cc=ticketCountMap[nftToken][_id];\n        require(cc<=ticketCount,\"Over ticket count\");\n        snatchOwnerRole[msg.sender] = false;\n        uint256 id = snatchlist.length;\n        snatchlist.push(id);\n        uint256[4] memory time = [0,0,durationTime,durationEndTime];\n        SnatchInfo memory snatchInfo = SnatchInfo(\n            token,\n            msg.sender,\n            address(0),\n            address(0),\n            0,\n            submitAmount,\n            submitAmount,\n            time,\n            increaseRange,\n            0,\n            0,\n            0\n        );\n        snatchInfoMap[id] = snatchInfo;\n        selfSnatchInfoMap[msg.sender].push(id);\n        emit AddSnatch(msg.sender,id);\n    }\n\n    function snatchTokenPool(uint256 _id,uint256 _amount) public{\n        SnatchInfo storage snatchInfo = snatchInfoMap[_id];\n        require(_amount >= snatchInfo.lastAmount,\"Min amount must greate than 0.01\");\n        require(snatchInfo.lastOwner!=msg.sender,\"Can not repeat snatch\");\n        uint256 t = block.timestamp;\n        uint256[4] storage time = snatchInfo.time;\n        if(time[0]!=0){\n            //startTime,lastTime,durationTime,durationEndTime\n            require(time[1].add(time[2]) >= t, \"Over duration,game over\");\n            require(time[0].add(time[3]) >= t, \"Game is expend over time\");\n        }else{\n            time[0] = t;\n        }\n        //add amount\n        snatchInfo.amount = snatchInfo.amount.add(_amount);\n        snatchInfo.lastOwner = snatchInfo.tempOwner;\n        snatchInfo.tempOwner = msg.sender;\n        snatchInfo.lastAmount = _amount;\n        time[1] = t;\n        snatchInfo.snatchCount = snatchInfo.snatchCount.add(1);\n        snatchInfo.totalSnatchCount = snatchInfo.totalSnatchCount.add(1);\n        snatchInfo.totalAmount = snatchInfo.totalAmount.add(_amount);\n        safeTransferFrom(snatchInfo.token,msg.sender,address(this), _amount);\n        emit SnatchTokenPool(msg.sender,_amount);\n    }\n\n    function withdrawPool(uint256 _id) public{\n        SnatchInfo storage snatchInfo =snatchInfoMap[_id];\n        require(snatchInfo.tempOwner == msg.sender,\"Not winner\");\n        uint256[4] storage time = snatchInfo.time;\n        require(time[1].add(time[2]) < block.timestamp\n            || time[0].add(time[3]) < block.timestamp, \"Game is not over\");\n        //10%\n        uint256 reward = snatchInfo.amount;\n\n        IERC777 iERC777 = IERC777(snatchInfo.token);\n        iERC777.send(snatchInfo.owner, reward.mul(10).div(100), \"\");\n        iERC777.send(snatchInfo.tempOwner,reward.sub(reward.mul(10).div(100)), \"\");\n        emit WithdrawTokenPool(msg.sender,msg.sender,reward.sub(reward.mul(10).div(100)));\n        initStatus(_id);\n    }\n\n    function otherWithdrawToken(uint256 _id) public {\n        SnatchInfo storage snatchInfo = snatchInfoMap[_id];\n        uint256[4] storage time = snatchInfo.time;\n        require(time[1].add(time[2]) < block.timestamp\n            || time[0].add(time[3]) < block.timestamp,\"Game is not over\");\n        uint256 reward = snatchInfo.amount;\n        IERC777 iERC777 = IERC777(snatchInfo.token);\n        //owner 10%\n        iERC777.send(snatchInfo.owner, reward.mul(10).div(100), \"\");\n        //win 88%\n        iERC777.send(snatchInfo.tempOwner,reward.sub(reward.mul(12).div(100)), \"\");\n        //win 2%\n        iERC777.send(msg.sender,reward.sub(reward.mul(2).div(100)), \"\");\n        emit WithdrawTokenPool(snatchInfo.tempOwner,msg.sender,reward.sub(reward.mul(12).div(100)));\n        initStatus(_id);\n    }\n\n    function initStatus(uint256 _id) internal{\n        SnatchInfo storage snatchInfo = snatchInfoMap[_id];\n        Winner memory winner = Winner(snatchInfo.tempOwner,\n                        snatchInfo.snatchCount,snatchInfo.totalSnatchCount,\n                        snatchInfo.amount,block.timestamp);\n        winners[_id].push(winner);\n        snatchInfo.lastOwner = address(0);\n        snatchInfo.tempOwner = address(0);\n        snatchInfo.amount = 0;\n        snatchInfo.lastAmount = snatchInfo.submitAmount;\n        uint256[4] storage time = snatchInfo.time;\n        time[0] = 0;\n        time[1] = 0;\n        snatchInfo.snatchCount = 0;\n    }\n   \n    function safeTransferFrom(address token, address from, address to, uint value) internal {\n        // bytes4(keccak256(bytes('transferFrom(address,address,uint256)')));\n        //transfer ERC20 Token\n        (bool success, bytes memory data) = token.call(abi.encodeWithSelector(0x23b872dd, from, to, value));\n        require(success && (data.length == 0 || abi.decode(data, (bool))), 'TRANSFER_FROM_FAILED');\n    }\n\n    function tokensReceived(\n      address operator,\n      address from,\n      address to,\n      uint amount,\n      bytes calldata userData,\n      bytes calldata operatorData\n    ) external override{\n        givers[from] += amount;\n    }\n\n}",
  "sourcePath": "/Users/wangban/Downloads/money/coin/chk/chksol/contracts/SnatchNormal.sol",
  "compiler": {
    "name": "solc",
    "version": "0.6.2+commit.bacdbe57.Emscripten.clang"
  },
  "schemaVersion": "3.2.0",
  "updatedAt": "2021-01-05T15:45:26.955Z",
  "devdoc": {
    "methods": {}
  },
  "userdoc": {
    "methods": {}
  }
}