{
  "contractName": "Snatch",
  "abi": [
    {
      "inputs": [],
      "stateMutability": "nonpayable",
      "type": "constructor"
    },
    {
      "anonymous": false,
      "inputs": [
        {
          "indexed": false,
          "internalType": "address",
          "name": "_addr",
          "type": "address"
        },
        {
          "indexed": false,
          "internalType": "uint256",
          "name": "_amount",
          "type": "uint256"
        }
      ],
      "name": "SnatchPool",
      "type": "event"
    },
    {
      "anonymous": false,
      "inputs": [
        {
          "indexed": false,
          "internalType": "address",
          "name": "_owner",
          "type": "address"
        },
        {
          "indexed": false,
          "internalType": "address",
          "name": "_addr",
          "type": "address"
        },
        {
          "indexed": false,
          "internalType": "uint256",
          "name": "_amount",
          "type": "uint256"
        }
      ],
      "name": "WithdrawPool",
      "type": "event"
    },
    {
      "inputs": [],
      "name": "durationEndTime",
      "outputs": [
        {
          "internalType": "uint256",
          "name": "",
          "type": "uint256"
        }
      ],
      "stateMutability": "view",
      "type": "function"
    },
    {
      "inputs": [],
      "name": "durationTime",
      "outputs": [
        {
          "internalType": "uint256",
          "name": "",
          "type": "uint256"
        }
      ],
      "stateMutability": "view",
      "type": "function"
    },
    {
      "inputs": [],
      "name": "increaseRange",
      "outputs": [
        {
          "internalType": "uint256",
          "name": "",
          "type": "uint256"
        }
      ],
      "stateMutability": "view",
      "type": "function"
    },
    {
      "inputs": [],
      "name": "platformAddress",
      "outputs": [
        {
          "internalType": "address",
          "name": "",
          "type": "address"
        }
      ],
      "stateMutability": "view",
      "type": "function"
    },
    {
      "inputs": [],
      "name": "snatchCount",
      "outputs": [
        {
          "internalType": "uint256",
          "name": "",
          "type": "uint256"
        }
      ],
      "stateMutability": "view",
      "type": "function"
    },
    {
      "inputs": [],
      "name": "totalAmount",
      "outputs": [
        {
          "internalType": "uint256",
          "name": "",
          "type": "uint256"
        }
      ],
      "stateMutability": "view",
      "type": "function"
    },
    {
      "inputs": [],
      "name": "totalSnatchCount",
      "outputs": [
        {
          "internalType": "uint256",
          "name": "",
          "type": "uint256"
        }
      ],
      "stateMutability": "view",
      "type": "function"
    },
    {
      "inputs": [
        {
          "internalType": "uint256",
          "name": "",
          "type": "uint256"
        }
      ],
      "name": "winnerAddresses",
      "outputs": [
        {
          "internalType": "address",
          "name": "",
          "type": "address"
        }
      ],
      "stateMutability": "view",
      "type": "function"
    },
    {
      "inputs": [
        {
          "internalType": "address",
          "name": "",
          "type": "address"
        },
        {
          "internalType": "uint256",
          "name": "",
          "type": "uint256"
        }
      ],
      "name": "winnerMap",
      "outputs": [
        {
          "internalType": "address",
          "name": "winner",
          "type": "address"
        },
        {
          "internalType": "uint256",
          "name": "count",
          "type": "uint256"
        },
        {
          "internalType": "uint256",
          "name": "scount",
          "type": "uint256"
        },
        {
          "internalType": "uint256",
          "name": "amount",
          "type": "uint256"
        },
        {
          "internalType": "uint256",
          "name": "winTime",
          "type": "uint256"
        }
      ],
      "stateMutability": "view",
      "type": "function"
    },
    {
      "inputs": [
        {
          "internalType": "uint256",
          "name": "",
          "type": "uint256"
        }
      ],
      "name": "winners",
      "outputs": [
        {
          "internalType": "address",
          "name": "winner",
          "type": "address"
        },
        {
          "internalType": "uint256",
          "name": "count",
          "type": "uint256"
        },
        {
          "internalType": "uint256",
          "name": "scount",
          "type": "uint256"
        },
        {
          "internalType": "uint256",
          "name": "amount",
          "type": "uint256"
        },
        {
          "internalType": "uint256",
          "name": "winTime",
          "type": "uint256"
        }
      ],
      "stateMutability": "view",
      "type": "function"
    },
    {
      "inputs": [],
      "name": "getCurrentSnatchInfo",
      "outputs": [
        {
          "internalType": "address",
          "name": "lastOwner",
          "type": "address"
        },
        {
          "internalType": "address",
          "name": "tempOwner",
          "type": "address"
        },
        {
          "internalType": "uint256",
          "name": "amount",
          "type": "uint256"
        },
        {
          "internalType": "uint256",
          "name": "lastAmount",
          "type": "uint256"
        },
        {
          "internalType": "uint256",
          "name": "lastTime",
          "type": "uint256"
        },
        {
          "internalType": "uint256",
          "name": "startTime",
          "type": "uint256"
        }
      ],
      "stateMutability": "view",
      "type": "function"
    },
    {
      "inputs": [],
      "name": "getWinnerAddresses",
      "outputs": [
        {
          "internalType": "address[]",
          "name": "_winners",
          "type": "address[]"
        }
      ],
      "stateMutability": "view",
      "type": "function"
    },
    {
      "inputs": [
        {
          "internalType": "address",
          "name": "_platform",
          "type": "address"
        }
      ],
      "name": "setPlatform",
      "outputs": [],
      "stateMutability": "nonpayable",
      "type": "function"
    },
    {
      "inputs": [
        {
          "internalType": "uint256",
          "name": "_durationTime",
          "type": "uint256"
        },
        {
          "internalType": "uint256",
          "name": "_durationEndTime",
          "type": "uint256"
        }
      ],
      "name": "setDuration",
      "outputs": [],
      "stateMutability": "nonpayable",
      "type": "function"
    },
    {
      "inputs": [
        {
          "internalType": "uint256",
          "name": "_rate",
          "type": "uint256"
        },
        {
          "internalType": "uint256",
          "name": "_increaseRange",
          "type": "uint256"
        }
      ],
      "name": "setPlatformRate",
      "outputs": [],
      "stateMutability": "nonpayable",
      "type": "function"
    },
    {
      "inputs": [],
      "name": "getNow",
      "outputs": [
        {
          "internalType": "uint256",
          "name": "",
          "type": "uint256"
        }
      ],
      "stateMutability": "view",
      "type": "function"
    },
    {
      "inputs": [],
      "name": "snatchPool",
      "outputs": [],
      "stateMutability": "payable",
      "type": "function"
    },
    {
      "inputs": [],
      "name": "withdrawPool",
      "outputs": [],
      "stateMutability": "nonpayable",
      "type": "function"
    },
    {
      "inputs": [],
      "name": "otherWithdraw",
      "outputs": [],
      "stateMutability": "nonpayable",
      "type": "function"
    }
  ],
  "bytecode": "0x608060405262093a806002556146506003556014600755600a6009556002600a5534801561002c57600080fd5b5033600160006101000a81548173ffffffffffffffffffffffffffffffffffffffff021916908373ffffffffffffffffffffffffffffffffffffffff16021790555033600860006101000a81548173ffffffffffffffffffffffffffffffffffffffff021916908373ffffffffffffffffffffffffffffffffffffffff1602179055506040518060c00160405280600073ffffffffffffffffffffffffffffffffffffffff168152602001600073ffffffffffffffffffffffffffffffffffffffff1681526020016000815260200160008152602001600081526020016000815250600d60008201518160000160006101000a81548173ffffffffffffffffffffffffffffffffffffffff021916908373ffffffffffffffffffffffffffffffffffffffff16021790555060208201518160010160006101000a81548173ffffffffffffffffffffffffffffffffffffffff021916908373ffffffffffffffffffffffffffffffffffffffff16021790555060408201518160020155606082015181600301556080820151816004015560a08201518160050155905050611e63806101d86000396000f3fe6080604052600436106101145760003560e01c8063a2fb1175116100a0578063d2a4a44011610064578063d2a4a44014610588578063dbe55e56146105b3578063e280b8b21461060a578063f0902b2014610635578063f8b75fb51461066057610114565b8063a2fb117514610460578063af42242d146104f7578063bbe4fd501461050e578063cd7ea09514610539578063d07cae9d1461057e57610114565b80632a5913f5116100e75780632a5913f5146102565780634679689c1461030d5780635c42c733146103b35780636945c5ea146103ca578063a1672bbe1461041b57610114565b8063045f9c97146101195780630fdfc0c8146101945780631a39d8ef146101bf5780631ef9c56f146101ea575b600080fd5b34801561012557600080fd5b506101526004803603602081101561013c57600080fd5b810190808035906020019092919050505061068b565b604051808273ffffffffffffffffffffffffffffffffffffffff1673ffffffffffffffffffffffffffffffffffffffff16815260200191505060405180910390f35b3480156101a057600080fd5b506101a96106c7565b6040518082815260200191505060405180910390f35b3480156101cb57600080fd5b506101d46106cd565b6040518082815260200191505060405180910390f35b3480156101f657600080fd5b506101ff6106d3565b6040518080602001828103825283818151815260200191508051906020019060200280838360005b83811015610242578082015181840152602081019050610227565b505050509050019250505060405180910390f35b34801561026257600080fd5b506102af6004803603604081101561027957600080fd5b81019080803573ffffffffffffffffffffffffffffffffffffffff16906020019092919080359060200190929190505050610761565b604051808673ffffffffffffffffffffffffffffffffffffffff1673ffffffffffffffffffffffffffffffffffffffff1681526020018581526020018481526020018381526020018281526020019550505050505060405180910390f35b34801561031957600080fd5b506103226107d1565b604051808773ffffffffffffffffffffffffffffffffffffffff1673ffffffffffffffffffffffffffffffffffffffff1681526020018673ffffffffffffffffffffffffffffffffffffffff1673ffffffffffffffffffffffffffffffffffffffff168152602001858152602001848152602001838152602001828152602001965050505050505060405180910390f35b3480156103bf57600080fd5b506103c8610852565b005b3480156103d657600080fd5b50610419600480360360208110156103ed57600080fd5b81019080803573ffffffffffffffffffffffffffffffffffffffff169060200190929190505050610b71565b005b34801561042757600080fd5b5061045e6004803603604081101561043e57600080fd5b810190808035906020019092919080359060200190929190505050610c78565b005b34801561046c57600080fd5b506104996004803603602081101561048357600080fd5b8101908080359060200190929190505050610d4d565b604051808673ffffffffffffffffffffffffffffffffffffffff1673ffffffffffffffffffffffffffffffffffffffff1681526020018581526020018481526020018381526020018281526020019550505050505060405180910390f35b34801561050357600080fd5b5061050c610db0565b005b34801561051a57600080fd5b50610523611099565b6040518082815260200191505060405180910390f35b34801561054557600080fd5b5061057c6004803603604081101561055c57600080fd5b8101908080359060200190929190803590602001909291905050506110a1565b005b610586611188565b005b34801561059457600080fd5b5061059d6115cc565b6040518082815260200191505060405180910390f35b3480156105bf57600080fd5b506105c86115d2565b604051808273ffffffffffffffffffffffffffffffffffffffff1673ffffffffffffffffffffffffffffffffffffffff16815260200191505060405180910390f35b34801561061657600080fd5b5061061f6115f8565b6040518082815260200191505060405180910390f35b34801561064157600080fd5b5061064a6115fe565b6040518082815260200191505060405180910390f35b34801561066c57600080fd5b50610675611604565b6040518082815260200191505060405180910390f35b6000818154811061069857fe5b906000526020600020016000915054906101000a900473ffffffffffffffffffffffffffffffffffffffff1681565b60065481565b60045481565b6060600080548060200260200160405190810160405280929190818152602001828054801561075757602002820191906000526020600020905b8160009054906101000a900473ffffffffffffffffffffffffffffffffffffffff1673ffffffffffffffffffffffffffffffffffffffff168152602001906001019080831161070d575b5050505050905090565b600c602052816000526040600020818154811061077a57fe5b9060005260206000209060050201600091509150508060000160009054906101000a900473ffffffffffffffffffffffffffffffffffffffff16908060010154908060020154908060030154908060040154905085565b600080600080600080600d60000160009054906101000a900473ffffffffffffffffffffffffffffffffffffffff16600d60010160009054906101000a900473ffffffffffffffffffffffffffffffffffffffff16600d60020154600d60030154600d60040154600d60050154955095509550955095509550909192939495565b3373ffffffffffffffffffffffffffffffffffffffff16600d60010160009054906101000a900473ffffffffffffffffffffffffffffffffffffffff1673ffffffffffffffffffffffffffffffffffffffff1614610918576040517f08c379a000000000000000000000000000000000000000000000000000000000815260040180806020018281038252600a8152602001807f4e6f742077696e6e65720000000000000000000000000000000000000000000081525060200191505060405180910390fd5b42610933600354600d6004015461160a90919063ffffffff16565b1080610957575042610955600254600d6005015461160a90919063ffffffff16565b105b6109c9576040517f08c379a00000000000000000000000000000000000000000000000000000000081526004018080602001828103825260108152602001807f47616d65206973206e6f74206f7665720000000000000000000000000000000081525060200191505060405180910390fd5b6000600d600201549050610a26600860009054906101000a900473ffffffffffffffffffffffffffffffffffffffff16610a216064610a136009548661169290919063ffffffff16565b61171890919063ffffffff16565b611762565b610a8e600d60010160009054906101000a900473ffffffffffffffffffffffffffffffffffffffff16610a89610a7a6064610a6c6009548761169290919063ffffffff16565b61171890919063ffffffff16565b8461184390919063ffffffff16565b611762565b7f1993aa2090edc0bad979d5f16efd6e3c23b084dc8356e9b2fe900406c7ba03893333610aeb610adc6064610ace6009548861169290919063ffffffff16565b61171890919063ffffffff16565b8561184390919063ffffffff16565b604051808473ffffffffffffffffffffffffffffffffffffffff1673ffffffffffffffffffffffffffffffffffffffff1681526020018373ffffffffffffffffffffffffffffffffffffffff1673ffffffffffffffffffffffffffffffffffffffff168152602001828152602001935050505060405180910390a1610b6e61188d565b50565b600160009054906101000a900473ffffffffffffffffffffffffffffffffffffffff1673ffffffffffffffffffffffffffffffffffffffff163373ffffffffffffffffffffffffffffffffffffffff1614610c34576040517f08c379a00000000000000000000000000000000000000000000000000000000081526004018080602001828103825260098152602001807f6e6f74206f776e6572000000000000000000000000000000000000000000000081525060200191505060405180910390fd5b80600860006101000a81548173ffffffffffffffffffffffffffffffffffffffff021916908373ffffffffffffffffffffffffffffffffffffffff16021790555050565b600160009054906101000a900473ffffffffffffffffffffffffffffffffffffffff1673ffffffffffffffffffffffffffffffffffffffff163373ffffffffffffffffffffffffffffffffffffffff1614610d3b576040517f08c379a00000000000000000000000000000000000000000000000000000000081526004018080602001828103825260098152602001807f6e6f74206f776e6572000000000000000000000000000000000000000000000081525060200191505060405180910390fd5b81600981905550806007819055505050565b600b8181548110610d5a57fe5b90600052602060002090600502016000915090508060000160009054906101000a900473ffffffffffffffffffffffffffffffffffffffff16908060010154908060020154908060030154908060040154905085565b42610dcb600354600d6004015461160a90919063ffffffff16565b1080610def575042610ded600254600d6005015461160a90919063ffffffff16565b105b610e61576040517f08c379a00000000000000000000000000000000000000000000000000000000081526004018080602001828103825260108152602001807f47616d65206973206e6f74206f7665720000000000000000000000000000000081525060200191505060405180910390fd5b6000600d600201549050610ebe600860009054906101000a900473ffffffffffffffffffffffffffffffffffffffff16610eb96064610eab6009548661169290919063ffffffff16565b61171890919063ffffffff16565b611762565b610f3a600d60010160009054906101000a900473ffffffffffffffffffffffffffffffffffffffff16610f35610f266064610f18610f09600a5460095461160a90919063ffffffff16565b8761169290919063ffffffff16565b61171890919063ffffffff16565b8461184390919063ffffffff16565b611762565b610f7d33610f78610f696064610f5b600a548761169290919063ffffffff16565b61171890919063ffffffff16565b8461184390919063ffffffff16565b611762565b7f1993aa2090edc0bad979d5f16efd6e3c23b084dc8356e9b2fe900406c7ba0389600d60010160009054906101000a900473ffffffffffffffffffffffffffffffffffffffff16336110136110046064610ff6610fe7600a5460095461160a90919063ffffffff16565b8861169290919063ffffffff16565b61171890919063ffffffff16565b8561184390919063ffffffff16565b604051808473ffffffffffffffffffffffffffffffffffffffff1673ffffffffffffffffffffffffffffffffffffffff1681526020018373ffffffffffffffffffffffffffffffffffffffff1673ffffffffffffffffffffffffffffffffffffffff168152602001828152602001935050505060405180910390a161109661188d565b50565b600042905090565b600160009054906101000a900473ffffffffffffffffffffffffffffffffffffffff1673ffffffffffffffffffffffffffffffffffffffff163373ffffffffffffffffffffffffffffffffffffffff1614611164576040517f08c379a00000000000000000000000000000000000000000000000000000000081526004018080602001828103825260098152602001807f6e6f74206f776e6572000000000000000000000000000000000000000000000081525060200191505060405180910390fd5b6000821461117457816003819055505b6000811461118457806002819055505b5050565b662386f26fc10000341015611205576040517f08c379a00000000000000000000000000000000000000000000000000000000081526004018080602001828103825260208152602001807f4d696e20616d6f756e74206d75737420677265617465207468616e20302e303181525060200191505060405180910390fd5b60004290506000600d600501541461133a5780611232600354600d6004015461160a90919063ffffffff16565b10156112a6576040517f08c379a00000000000000000000000000000000000000000000000000000000081526004018080602001828103825260178152602001807f4f766572206475726174696f6e2c67616d65206f76657200000000000000000081525060200191505060405180910390fd5b806112c1600254600d6005015461160a90919063ffffffff16565b1015611335576040517f08c379a00000000000000000000000000000000000000000000000000000000081526004018080602001828103825260188152602001807f47616d6520697320657870656e64206f7665722074696d65000000000000000081525060200191505060405180910390fd5b611345565b80600d600501819055505b600d600301543410156113c0576040517f08c379a000000000000000000000000000000000000000000000000000000000815260040180806020018281038252600c8152602001807f416d6f756e74206572726f72000000000000000000000000000000000000000081525060200191505060405180910390fd5b60006113ea60646113dc3460075461169290919063ffffffff16565b61171890919063ffffffff16565b905080341115611462576040517f08c379a000000000000000000000000000000000000000000000000000000000815260040180806020018281038252601e8152602001807f416d6f756e742063616e206e6f74206f766572206d617820616d6f756e74000081525060200191505060405180910390fd5b61147a34600d6002015461160a90919063ffffffff16565b600d60020181905550600d60010160009054906101000a900473ffffffffffffffffffffffffffffffffffffffff16600d60000160006101000a81548173ffffffffffffffffffffffffffffffffffffffff021916908373ffffffffffffffffffffffffffffffffffffffff16021790555033600d60010160006101000a81548173ffffffffffffffffffffffffffffffffffffffff021916908373ffffffffffffffffffffffffffffffffffffffff16021790555034600d6003018190555081600d6004018190555061154c611be7565b61155534611c05565b61155d611c23565b7f6afd9d1c30fce85d2b7bb21441c679ed5a43bba76809e463ff25788f59cf9a193334604051808373ffffffffffffffffffffffffffffffffffffffff1673ffffffffffffffffffffffffffffffffffffffff1681526020018281526020019250505060405180910390a15050565b60055481565b600860009054906101000a900473ffffffffffffffffffffffffffffffffffffffff1681565b60075481565b60025481565b60035481565b600080828401905083811015611688576040517f08c379a000000000000000000000000000000000000000000000000000000000815260040180806020018281038252601b8152602001807f536166654d6174683a206164646974696f6e206f766572666c6f77000000000081525060200191505060405180910390fd5b8091505092915050565b6000808314156116a55760009050611712565b60008284029050828482816116b657fe5b041461170d576040517f08c379a0000000000000000000000000000000000000000000000000000000008152600401808060200182810382526021815260200180611e0d6021913960400191505060405180910390fd5b809150505b92915050565b600061175a83836040518060400160405280601a81526020017f536166654d6174683a206469766973696f6e206279207a65726f000000000000815250611c41565b905092915050565b60008273ffffffffffffffffffffffffffffffffffffffff168260405180600001905060006040518083038185875af1925050503d80600081146117c2576040519150601f19603f3d011682016040523d82523d6000602084013e6117c7565b606091505b505090508061183e576040517f08c379a00000000000000000000000000000000000000000000000000000000081526004018080602001828103825260128152602001807f5452414e5346455220455448204552524f52000000000000000000000000000081525060200191505060405180910390fd5b505050565b600061188583836040518060400160405280601e81526020017f536166654d6174683a207375627472616374696f6e206f766572666c6f770000815250611d07565b905092915050565b611895611dc7565b6040518060a00160405280600d60010160009054906101000a900473ffffffffffffffffffffffffffffffffffffffff1673ffffffffffffffffffffffffffffffffffffffff16815260200160055481526020016006548152602001600d6002015481526020014281525090506000600d60010160009054906101000a900473ffffffffffffffffffffffffffffffffffffffff169080600181540180825580915050600190039060005260206000200160009091909190916101000a81548173ffffffffffffffffffffffffffffffffffffffff021916908373ffffffffffffffffffffffffffffffffffffffff160217905550600b81908060018154018082558091505060019003906000526020600020906005020160009091909190915060008201518160000160006101000a81548173ffffffffffffffffffffffffffffffffffffffff021916908373ffffffffffffffffffffffffffffffffffffffff160217905550602082015181600101556040820151816002015560608201518160030155608082015181600401555050600c6000600d60010160009054906101000a900473ffffffffffffffffffffffffffffffffffffffff1673ffffffffffffffffffffffffffffffffffffffff1673ffffffffffffffffffffffffffffffffffffffff16815260200190815260200160002081908060018154018082558091505060019003906000526020600020906005020160009091909190915060008201518160000160006101000a81548173ffffffffffffffffffffffffffffffffffffffff021916908373ffffffffffffffffffffffffffffffffffffffff1602179055506020820151816001015560408201518160020155606082015181600301556080820151816004015550506000600d60000160006101000a81548173ffffffffffffffffffffffffffffffffffffffff021916908373ffffffffffffffffffffffffffffffffffffffff1602179055506000600d60010160006101000a81548173ffffffffffffffffffffffffffffffffffffffff021916908373ffffffffffffffffffffffffffffffffffffffff1602179055506000600d600201819055506000600d600301819055506000600d600401819055506000600d60050181905550600060058190555050565b611bfd600160065461160a90919063ffffffff16565b600681905550565b611c1a8160045461160a90919063ffffffff16565b60048190555050565b611c39600160055461160a90919063ffffffff16565b600581905550565b60008083118290611ced576040517f08c379a00000000000000000000000000000000000000000000000000000000081526004018080602001828103825283818151815260200191508051906020019080838360005b83811015611cb2578082015181840152602081019050611c97565b50505050905090810190601f168015611cdf5780820380516001836020036101000a031916815260200191505b509250505060405180910390fd5b506000838581611cf957fe5b049050809150509392505050565b6000838311158290611db4576040517f08c379a00000000000000000000000000000000000000000000000000000000081526004018080602001828103825283818151815260200191508051906020019080838360005b83811015611d79578082015181840152602081019050611d5e565b50505050905090810190601f168015611da65780820380516001836020036101000a031916815260200191505b509250505060405180910390fd5b5060008385039050809150509392505050565b6040518060a00160405280600073ffffffffffffffffffffffffffffffffffffffff16815260200160008152602001600081526020016000815260200160008152509056fe536166654d6174683a206d756c7469706c69636174696f6e206f766572666c6f77a26469706673582212203c0ca19c530d22bf0bb470ec4b98e775cc839135126d60c499df5b965ce9482064736f6c63430006020033",
  "source": "pragma solidity >=0.6.0 <0.8.0;\nimport \"@openzeppelin/contracts/math/SafeMath.sol\";\n\ncontract Snatch{\n\n    event SnatchPool(address _addr,uint256 _amount);\n    event WithdrawPool(address _owner, address _addr,uint256 _amount);\n\n    address[] public winnerAddresses;\n\n    using SafeMath for uint256;\n\n    address snatchOwner;\n\n    uint256 public durationEndTime = 7*86400;\n\n    uint256 public durationTime = 5*3600;\n\n    uint256 public totalAmount;\n\n    uint256 public snatchCount;\n\n    uint256 public totalSnatchCount;\n\n    uint256 public increaseRange = 20;\n\n    address public platformAddress;\n\n    uint256 platformRate=10;\n    uint256 helperRate=2;\n\n    Winner[] public winners;\n\n    mapping(address => Winner[]) public winnerMap;\n\n    SnatchInfo snatchInfo;\n\n    struct SnatchInfo{\n        address lastOwner;\n        address tempOwner;\n        uint256 amount;\n        uint256 lastAmount;\n        uint256 lastTime;\n        uint256 startTime;\n    }\n\n    struct Winner{\n        address winner;\n        uint256 count;\n        uint256 scount;\n        uint256 amount;\n        uint256 winTime;\n    }\n\n    constructor() public{\n        snatchOwner = msg.sender;\n        platformAddress = msg.sender;\n        snatchInfo = SnatchInfo(address(0),address(0),0,0,0,0);\n    }\n\n    modifier onlyOwner(){\n        require(msg.sender==snatchOwner,\"not owner\");\n        _;\n    }\n\n    function getCurrentSnatchInfo() view public returns(address lastOwner,\n        address tempOwner,\n        uint256 amount,\n        uint256 lastAmount,\n        uint256 lastTime,\n        uint256 startTime){\n            return (snatchInfo.lastOwner,snatchInfo.tempOwner,\n            snatchInfo.amount,snatchInfo.lastAmount,\n            snatchInfo.lastTime,snatchInfo.startTime);\n    }\n\n    function getWinnerAddresses() view public returns(address[] memory _winners){\n        return winnerAddresses;\n    }\n\n    function setPlatform(address _platform) public onlyOwner(){\n        platformAddress = _platform;\n    }\n    \n    function setDuration(uint256 _durationTime,uint256 _durationEndTime) public onlyOwner(){\n        if(_durationTime!=0){\n            durationTime = _durationTime;\n        }\n        if(_durationEndTime!=0){\n            durationEndTime = _durationEndTime;\n        }\n    }\n\n    function setPlatformRate(uint256 _rate,uint256 _increaseRange) public onlyOwner(){\n        platformRate = _rate;\n        increaseRange = _increaseRange;\n    }\n\n    function getNow() view public returns(uint256){\n        return block.timestamp;\n    }\n\n    function snatchPool() payable public{\n        require(msg.value >= 0.01 ether,\"Min amount must greate than 0.01\");\n        //get now\n        uint256 t = block.timestamp;\n        if(snatchInfo.startTime!=0){\n            require(snatchInfo.lastTime.add(durationTime) >= t, \"Over duration,game over\");\n            require(snatchInfo.startTime.add(durationEndTime) >= t, \"Game is expend over time\");\n        }else{\n            //set time like\n            snatchInfo.startTime = t;\n        }\n        require(msg.value >= snatchInfo.lastAmount, \"Amount error\");\n        uint256 rangeAmount = increaseRange.mul(msg.value).div(100);\n        require(msg.value <= rangeAmount, \"Amount can not over max amount\");\n        //add amount\n        snatchInfo.amount = snatchInfo.amount.add(msg.value);\n        snatchInfo.lastOwner = snatchInfo.tempOwner;\n        snatchInfo.tempOwner = msg.sender;\n        snatchInfo.lastAmount = msg.value;\n        snatchInfo.lastTime = t;\n        // add count\n        addSnatchTotalCount();\n        addSnatchTotalAmount(msg.value);\n        addSnatchCount();\n        emit SnatchPool(msg.sender,msg.value);\n    }\n\n    function withdrawPool() public{\n        require(snatchInfo.tempOwner == msg.sender,\"Not winner\");\n        require(snatchInfo.lastTime.add(durationTime) < block.timestamp\n            || snatchInfo.startTime.add(durationEndTime) < block.timestamp,\"Game is not over\");\n        //10%\n        uint256 reward = snatchInfo.amount;\n        transferEth(platformAddress, reward.mul(platformRate).div(100));\n        transferEth(snatchInfo.tempOwner,reward.sub(reward.mul(platformRate).div(100)));\n        emit WithdrawPool(msg.sender,msg.sender,reward.sub(reward.mul(platformRate).div(100)));\n        initStatus();\n    }\n\n    function otherWithdraw() public {\n        require(snatchInfo.lastTime.add(durationTime) < block.timestamp\n            || snatchInfo.startTime.add(durationEndTime) < block.timestamp,\"Game is not over\");\n        //platform 10%\n        uint256 reward = snatchInfo.amount;\n        transferEth(platformAddress, reward.mul(platformRate).div(100));\n        //win 88%\n        transferEth(snatchInfo.tempOwner,reward.sub(reward.mul(platformRate.add(helperRate)).div(100)));\n        //win 2%\n        transferEth(msg.sender,reward.sub(reward.mul(helperRate).div(100)));\n        emit WithdrawPool(snatchInfo.tempOwner,\n                            msg.sender,\n                            reward.sub(reward.mul(platformRate.add(helperRate)).div(100)));\n        initStatus();\n    }\n\n    function addSnatchCount() internal{\n        snatchCount = snatchCount.add(1);\n    }\n\n    function addSnatchTotalAmount(uint256 _amount) internal{\n        totalAmount = totalAmount.add(_amount);\n    }\n\n    function addSnatchTotalCount() internal{\n        totalSnatchCount = totalSnatchCount.add(1);\n    }\n\n    function initStatus() internal{\n        Winner memory winner = Winner(snatchInfo.tempOwner,\n                        snatchCount,totalSnatchCount,\n                        snatchInfo.amount,block.timestamp);\n        winnerAddresses.push(snatchInfo.tempOwner);\n        winners.push(winner);\n        winnerMap[snatchInfo.tempOwner].push(winner);\n        snatchInfo.lastOwner = address(0);\n        snatchInfo.tempOwner = address(0);\n        snatchInfo.amount = 0;\n        snatchInfo.lastAmount = 0;\n        snatchInfo.lastTime = 0;\n        snatchInfo.startTime = 0;\n        snatchCount = 0;\n    }\n   \n\n    function transferEth(address _address, uint256 _value) internal{\n        (bool res, ) = address(uint160(_address)).call{value:_value}(\"\");\n        require(res,\"TRANSFER ETH ERROR\");\n    }\n\n}",
  "sourcePath": "/Users/wangban/Downloads/money/coin/chk/chksol/contracts/Snatch.sol",
  "compiler": {
    "name": "solc",
    "version": "0.6.2+commit.bacdbe57.Emscripten.clang"
  },
  "schemaVersion": "3.2.0",
  "updatedAt": "2021-01-05T03:35:14.288Z",
  "devdoc": {
    "methods": {}
  },
  "userdoc": {
    "methods": {}
  }
}