{
  "contractName": "Snatch",
  "abi": [
    {
      "inputs": [
        {
          "internalType": "contract InviteInterface",
          "name": "_invite",
          "type": "address"
        }
      ],
      "stateMutability": "nonpayable",
      "type": "constructor"
    },
    {
      "anonymous": false,
      "inputs": [
        {
          "indexed": false,
          "internalType": "address",
          "name": "_addr",
          "type": "address"
        },
        {
          "indexed": false,
          "internalType": "uint256",
          "name": "_amount",
          "type": "uint256"
        }
      ],
      "name": "SnatchPool",
      "type": "event"
    },
    {
      "anonymous": false,
      "inputs": [
        {
          "indexed": false,
          "internalType": "address",
          "name": "_owner",
          "type": "address"
        },
        {
          "indexed": false,
          "internalType": "address",
          "name": "_addr",
          "type": "address"
        },
        {
          "indexed": false,
          "internalType": "uint256",
          "name": "_amount",
          "type": "uint256"
        }
      ],
      "name": "WithdrawPool",
      "type": "event"
    },
    {
      "inputs": [],
      "name": "SPONSOR",
      "outputs": [
        {
          "internalType": "contract SponsorWhitelistControl",
          "name": "",
          "type": "address"
        }
      ],
      "stateMutability": "view",
      "type": "function"
    },
    {
      "inputs": [],
      "name": "durationEndTime",
      "outputs": [
        {
          "internalType": "uint256",
          "name": "",
          "type": "uint256"
        }
      ],
      "stateMutability": "view",
      "type": "function"
    },
    {
      "inputs": [],
      "name": "durationTime",
      "outputs": [
        {
          "internalType": "uint256",
          "name": "",
          "type": "uint256"
        }
      ],
      "stateMutability": "view",
      "type": "function"
    },
    {
      "inputs": [],
      "name": "helperRate",
      "outputs": [
        {
          "internalType": "uint256",
          "name": "",
          "type": "uint256"
        }
      ],
      "stateMutability": "view",
      "type": "function"
    },
    {
      "inputs": [],
      "name": "increaseRange",
      "outputs": [
        {
          "internalType": "uint256",
          "name": "",
          "type": "uint256"
        }
      ],
      "stateMutability": "view",
      "type": "function"
    },
    {
      "inputs": [],
      "name": "invitePercent",
      "outputs": [
        {
          "internalType": "uint256",
          "name": "",
          "type": "uint256"
        }
      ],
      "stateMutability": "view",
      "type": "function"
    },
    {
      "inputs": [],
      "name": "platformAddress",
      "outputs": [
        {
          "internalType": "address",
          "name": "",
          "type": "address"
        }
      ],
      "stateMutability": "view",
      "type": "function"
    },
    {
      "inputs": [],
      "name": "platformRate",
      "outputs": [
        {
          "internalType": "uint256",
          "name": "",
          "type": "uint256"
        }
      ],
      "stateMutability": "view",
      "type": "function"
    },
    {
      "inputs": [],
      "name": "snatchCount",
      "outputs": [
        {
          "internalType": "uint256",
          "name": "",
          "type": "uint256"
        }
      ],
      "stateMutability": "view",
      "type": "function"
    },
    {
      "inputs": [],
      "name": "submitAmount",
      "outputs": [
        {
          "internalType": "uint256",
          "name": "",
          "type": "uint256"
        }
      ],
      "stateMutability": "view",
      "type": "function"
    },
    {
      "inputs": [],
      "name": "surprise",
      "outputs": [
        {
          "internalType": "uint256",
          "name": "",
          "type": "uint256"
        }
      ],
      "stateMutability": "view",
      "type": "function"
    },
    {
      "inputs": [],
      "name": "totalAmount",
      "outputs": [
        {
          "internalType": "uint256",
          "name": "",
          "type": "uint256"
        }
      ],
      "stateMutability": "view",
      "type": "function"
    },
    {
      "inputs": [],
      "name": "totalSnatchCount",
      "outputs": [
        {
          "internalType": "uint256",
          "name": "",
          "type": "uint256"
        }
      ],
      "stateMutability": "view",
      "type": "function"
    },
    {
      "inputs": [
        {
          "internalType": "uint256",
          "name": "",
          "type": "uint256"
        }
      ],
      "name": "winnerAddresses",
      "outputs": [
        {
          "internalType": "address",
          "name": "",
          "type": "address"
        }
      ],
      "stateMutability": "view",
      "type": "function"
    },
    {
      "inputs": [
        {
          "internalType": "address",
          "name": "",
          "type": "address"
        },
        {
          "internalType": "uint256",
          "name": "",
          "type": "uint256"
        }
      ],
      "name": "winnerMap",
      "outputs": [
        {
          "internalType": "address",
          "name": "winner",
          "type": "address"
        },
        {
          "internalType": "uint256",
          "name": "count",
          "type": "uint256"
        },
        {
          "internalType": "uint256",
          "name": "scount",
          "type": "uint256"
        },
        {
          "internalType": "uint256",
          "name": "amount",
          "type": "uint256"
        },
        {
          "internalType": "uint256",
          "name": "winTime",
          "type": "uint256"
        }
      ],
      "stateMutability": "view",
      "type": "function"
    },
    {
      "inputs": [
        {
          "internalType": "uint256",
          "name": "",
          "type": "uint256"
        }
      ],
      "name": "winners",
      "outputs": [
        {
          "internalType": "address",
          "name": "winner",
          "type": "address"
        },
        {
          "internalType": "uint256",
          "name": "count",
          "type": "uint256"
        },
        {
          "internalType": "uint256",
          "name": "scount",
          "type": "uint256"
        },
        {
          "internalType": "uint256",
          "name": "amount",
          "type": "uint256"
        },
        {
          "internalType": "uint256",
          "name": "winTime",
          "type": "uint256"
        }
      ],
      "stateMutability": "view",
      "type": "function"
    },
    {
      "stateMutability": "payable",
      "type": "receive"
    },
    {
      "inputs": [],
      "name": "getCurrentSnatchInfo",
      "outputs": [
        {
          "internalType": "address",
          "name": "lastOwner",
          "type": "address"
        },
        {
          "internalType": "address",
          "name": "tempOwner",
          "type": "address"
        },
        {
          "internalType": "uint256",
          "name": "amount",
          "type": "uint256"
        },
        {
          "internalType": "uint256",
          "name": "_submitAmount",
          "type": "uint256"
        },
        {
          "internalType": "uint256",
          "name": "lastAmount",
          "type": "uint256"
        },
        {
          "internalType": "uint256",
          "name": "lastTime",
          "type": "uint256"
        },
        {
          "internalType": "uint256",
          "name": "startTime",
          "type": "uint256"
        },
        {
          "internalType": "uint256",
          "name": "_durationEndTime",
          "type": "uint256"
        },
        {
          "internalType": "uint256",
          "name": "_durationTime",
          "type": "uint256"
        },
        {
          "internalType": "uint256",
          "name": "_increaseRange",
          "type": "uint256"
        },
        {
          "internalType": "uint256",
          "name": "_totalAmount",
          "type": "uint256"
        },
        {
          "internalType": "uint256",
          "name": "_snatchCount",
          "type": "uint256"
        },
        {
          "internalType": "uint256",
          "name": "_totalSnatchCount",
          "type": "uint256"
        }
      ],
      "stateMutability": "view",
      "type": "function"
    },
    {
      "inputs": [],
      "name": "getWinnerAddresses",
      "outputs": [
        {
          "internalType": "address[]",
          "name": "_winners",
          "type": "address[]"
        }
      ],
      "stateMutability": "view",
      "type": "function"
    },
    {
      "inputs": [
        {
          "internalType": "uint256",
          "name": "_amount",
          "type": "uint256"
        }
      ],
      "name": "setSubmitM",
      "outputs": [],
      "stateMutability": "nonpayable",
      "type": "function"
    },
    {
      "inputs": [
        {
          "internalType": "uint256",
          "name": "_invitePercent",
          "type": "uint256"
        }
      ],
      "name": "setInvitePercent",
      "outputs": [],
      "stateMutability": "nonpayable",
      "type": "function"
    },
    {
      "inputs": [
        {
          "internalType": "contract InviteInterface",
          "name": "_invite",
          "type": "address"
        }
      ],
      "name": "setInviteInterface",
      "outputs": [],
      "stateMutability": "nonpayable",
      "type": "function"
    },
    {
      "inputs": [
        {
          "internalType": "address",
          "name": "_platform",
          "type": "address"
        }
      ],
      "name": "setPlatform",
      "outputs": [],
      "stateMutability": "nonpayable",
      "type": "function"
    },
    {
      "inputs": [
        {
          "internalType": "uint256",
          "name": "_surprise",
          "type": "uint256"
        }
      ],
      "name": "setSurprise",
      "outputs": [],
      "stateMutability": "nonpayable",
      "type": "function"
    },
    {
      "inputs": [
        {
          "internalType": "uint256",
          "name": "_durationTime",
          "type": "uint256"
        },
        {
          "internalType": "uint256",
          "name": "_durationEndTime",
          "type": "uint256"
        }
      ],
      "name": "setDuration",
      "outputs": [],
      "stateMutability": "nonpayable",
      "type": "function"
    },
    {
      "inputs": [
        {
          "internalType": "uint256",
          "name": "_rate",
          "type": "uint256"
        },
        {
          "internalType": "uint256",
          "name": "_increaseRange",
          "type": "uint256"
        }
      ],
      "name": "setPlatformRate",
      "outputs": [],
      "stateMutability": "nonpayable",
      "type": "function"
    },
    {
      "inputs": [],
      "name": "getNow",
      "outputs": [
        {
          "internalType": "uint256",
          "name": "",
          "type": "uint256"
        }
      ],
      "stateMutability": "view",
      "type": "function"
    },
    {
      "inputs": [
        {
          "internalType": "address",
          "name": "_owner",
          "type": "address"
        }
      ],
      "name": "getRewards",
      "outputs": [
        {
          "internalType": "uint256",
          "name": "_inviteReward",
          "type": "uint256"
        },
        {
          "internalType": "uint256",
          "name": "_surprise",
          "type": "uint256"
        }
      ],
      "stateMutability": "view",
      "type": "function"
    },
    {
      "inputs": [],
      "name": "snatchPool",
      "outputs": [],
      "stateMutability": "payable",
      "type": "function"
    },
    {
      "inputs": [],
      "name": "withdrawPool",
      "outputs": [],
      "stateMutability": "nonpayable",
      "type": "function"
    },
    {
      "inputs": [],
      "name": "otherWithdraw",
      "outputs": [],
      "stateMutability": "nonpayable",
      "type": "function"
    },
    {
      "inputs": [
        {
          "internalType": "address",
          "name": "_owner",
          "type": "address"
        }
      ],
      "name": "withdrawReward",
      "outputs": [],
      "stateMutability": "nonpayable",
      "type": "function"
    },
    {
      "inputs": [
        {
          "internalType": "uint256",
          "name": "_amount",
          "type": "uint256"
        },
        {
          "internalType": "uint256",
          "name": "_rate",
          "type": "uint256"
        },
        {
          "internalType": "uint256",
          "name": "_count",
          "type": "uint256"
        },
        {
          "internalType": "uint256",
          "name": "_sCount",
          "type": "uint256"
        }
      ],
      "name": "calcRangeAmount",
      "outputs": [
        {
          "internalType": "uint256",
          "name": "",
          "type": "uint256"
        }
      ],
      "stateMutability": "pure",
      "type": "function"
    }
  ],
  "bytecode": "0x608060405262069780600255610e106003556064600455600a6008556014600955678ac7230489e80000600b556014600c556005600d553480156200004357600080fd5b50604051620033a5380380620033a5833981810160405260208110156200006957600080fd5b810190808051906020019092919050505033600160006101000a81548173ffffffffffffffffffffffffffffffffffffffff021916908373ffffffffffffffffffffffffffffffffffffffff16021790555033600a60006101000a81548173ffffffffffffffffffffffffffffffffffffffff021916908373ffffffffffffffffffffffffffffffffffffffff1602179055506040518060c00160405280600073ffffffffffffffffffffffffffffffffffffffff168152602001600073ffffffffffffffffffffffffffffffffffffffff16815260200160008152602001600b548152602001600081526020016000815250601260008201518160000160006101000a81548173ffffffffffffffffffffffffffffffffffffffff021916908373ffffffffffffffffffffffffffffffffffffffff16021790555060208201518160010160006101000a81548173ffffffffffffffffffffffffffffffffffffffff021916908373ffffffffffffffffffffffffffffffffffffffff16021790555060408201518160020155606082015181600301556080820151816004015560a0820151816005015590505080600f60006101000a81548173ffffffffffffffffffffffffffffffffffffffff021916908373ffffffffffffffffffffffffffffffffffffffff160217905550606060016040519080825280602002602001820160405280156200028b5781602001602082028038833980820191505090505b5090506000816000815181106200029e57fe5b602002602001019073ffffffffffffffffffffffffffffffffffffffff16908173ffffffffffffffffffffffffffffffffffffffff168152505073088800000000000000000000000000000000000173ffffffffffffffffffffffffffffffffffffffff166310128d3e826040518263ffffffff1660e01b81526004018080602001828103825283818151815260200191508051906020019060200280838360005b838110156200035d57808201518184015260208101905062000340565b5050505090500192505050600060405180830381600087803b1580156200038357600080fd5b505af115801562000398573d6000803e3d6000fd5b505050505050612ff780620003ae6000396000f3fe6080604052600436106101e75760003560e01c80638069d3b311610102578063d07cae9d11610095578063e280b8b211610064578063e280b8b214610a02578063e82d2cdb14610a2d578063f0902b2014610a9a578063f8b75fb514610ac5576101ee565b8063d07cae9d14610925578063d2a4a4401461092f578063d5d5a9031461095a578063dbe55e56146109ab576101ee565b8063b86e321c116100d1578063b86e321c14610839578063bbe4fd501461088a578063bd3edb5e146108b5578063cd7ea095146108e0576101ee565b80638069d3b31461070b578063a1672bbe14610746578063a2fb11751461078b578063af42242d14610822576101ee565b806336e0cac61161017a57806361a04cb41161014957806361a04cb4146105f85780636945c5ea146106235780637541bf941461067457806379ee54f71461069f576101ee565b806336e0cac6146104a45780634679689c146104cf5780635c1648c1146105a65780635c42c733146105e1576101ee565b80631a39d8ef116101b65780631a39d8ef146102ff5780631d073a7a1461032a5780631ef9c56f146103815780632a5913f5146103ed576101ee565b80630212448a146101f3578063045f9c971461021e57806305e059e3146102995780630fdfc0c8146102d4576101ee565b366101ee57005b600080fd5b3480156101ff57600080fd5b50610208610af0565b6040518082815260200191505060405180910390f35b34801561022a57600080fd5b506102576004803603602081101561024157600080fd5b8101908080359060200190929190505050610af6565b604051808273ffffffffffffffffffffffffffffffffffffffff1673ffffffffffffffffffffffffffffffffffffffff16815260200191505060405180910390f35b3480156102a557600080fd5b506102d2600480360360208110156102bc57600080fd5b8101908080359060200190929190505050610b32565b005b3480156102e057600080fd5b506102e9610bff565b6040518082815260200191505060405180910390f35b34801561030b57600080fd5b50610314610c05565b6040518082815260200191505060405180910390f35b34801561033657600080fd5b5061033f610c0b565b604051808273ffffffffffffffffffffffffffffffffffffffff1673ffffffffffffffffffffffffffffffffffffffff16815260200191505060405180910390f35b34801561038d57600080fd5b50610396610c23565b6040518080602001828103825283818151815260200191508051906020019060200280838360005b838110156103d95780820151818401526020810190506103be565b505050509050019250505060405180910390f35b3480156103f957600080fd5b506104466004803603604081101561041057600080fd5b81019080803573ffffffffffffffffffffffffffffffffffffffff16906020019092919080359060200190929190505050610cb1565b604051808673ffffffffffffffffffffffffffffffffffffffff1673ffffffffffffffffffffffffffffffffffffffff1681526020018581526020018481526020018381526020018281526020019550505050505060405180910390f35b3480156104b057600080fd5b506104b9610d21565b6040518082815260200191505060405180910390f35b3480156104db57600080fd5b506104e4610d27565b604051808e73ffffffffffffffffffffffffffffffffffffffff1673ffffffffffffffffffffffffffffffffffffffff1681526020018d73ffffffffffffffffffffffffffffffffffffffff1673ffffffffffffffffffffffffffffffffffffffff1681526020018c81526020018b81526020018a81526020018981526020018881526020018781526020018681526020018581526020018481526020018381526020018281526020019d505050505050505050505050505060405180910390f35b3480156105b257600080fd5b506105df600480360360208110156105c957600080fd5b8101908080359060200190929190505050610ddd565b005b3480156105ed57600080fd5b506105f6610eaa565b005b34801561060457600080fd5b5061060d611364565b6040518082815260200191505060405180910390f35b34801561062f57600080fd5b506106726004803603602081101561064657600080fd5b81019080803573ffffffffffffffffffffffffffffffffffffffff16906020019092919050505061136a565b005b34801561068057600080fd5b50610689611471565b6040518082815260200191505060405180910390f35b3480156106ab57600080fd5b506106ee600480360360208110156106c257600080fd5b81019080803573ffffffffffffffffffffffffffffffffffffffff169060200190929190505050611477565b604051808381526020018281526020019250505060405180910390f35b34801561071757600080fd5b506107446004803603602081101561072e57600080fd5b810190808035906020019092919050505061154c565b005b34801561075257600080fd5b506107896004803603604081101561076957600080fd5b810190808035906020019092919080359060200190929190505050611619565b005b34801561079757600080fd5b506107c4600480360360208110156107ae57600080fd5b81019080803590602001909291905050506116ee565b604051808673ffffffffffffffffffffffffffffffffffffffff1673ffffffffffffffffffffffffffffffffffffffff1681526020018581526020018481526020018381526020018281526020019550505050505060405180910390f35b34801561082e57600080fd5b50610837611751565b005b34801561084557600080fd5b506108886004803603602081101561085c57600080fd5b81019080803573ffffffffffffffffffffffffffffffffffffffff169060200190929190505050611c0a565b005b34801561089657600080fd5b5061089f611d3b565b6040518082815260200191505060405180910390f35b3480156108c157600080fd5b506108ca611d43565b6040518082815260200191505060405180910390f35b3480156108ec57600080fd5b506109236004803603604081101561090357600080fd5b810190808035906020019092919080359060200190929190505050611d49565b005b61092d611e30565b005b34801561093b57600080fd5b506109446123fa565b6040518082815260200191505060405180910390f35b34801561096657600080fd5b506109a96004803603602081101561097d57600080fd5b81019080803573ffffffffffffffffffffffffffffffffffffffff169060200190929190505050612400565b005b3480156109b757600080fd5b506109c0612507565b604051808273ffffffffffffffffffffffffffffffffffffffff1673ffffffffffffffffffffffffffffffffffffffff16815260200191505060405180910390f35b348015610a0e57600080fd5b50610a1761252d565b6040518082815260200191505060405180910390f35b348015610a3957600080fd5b50610a8460048036036080811015610a5057600080fd5b8101908080359060200190929190803590602001909291908035906020019092919080359060200190929190505050612533565b6040518082815260200191505060405180910390f35b348015610aa657600080fd5b50610aaf61259b565b6040518082815260200191505060405180910390f35b348015610ad157600080fd5b50610ada6125a1565b6040518082815260200191505060405180910390f35b60085481565b60008181548110610b0357fe5b906000526020600020016000915054906101000a900473ffffffffffffffffffffffffffffffffffffffff1681565b600160009054906101000a900473ffffffffffffffffffffffffffffffffffffffff1673ffffffffffffffffffffffffffffffffffffffff163373ffffffffffffffffffffffffffffffffffffffff1614610bf5576040517f08c379a00000000000000000000000000000000000000000000000000000000081526004018080602001828103825260098152602001807f6e6f74206f776e6572000000000000000000000000000000000000000000000081525060200191505060405180910390fd5b8060048190555050565b60075481565b60055481565b73088800000000000000000000000000000000000181565b60606000805480602002602001604051908101604052809291908181526020018280548015610ca757602002820191906000526020600020905b8160009054906101000a900473ffffffffffffffffffffffffffffffffffffffff1673ffffffffffffffffffffffffffffffffffffffff1681526020019060010190808311610c5d575b5050505050905090565b60116020528160005260406000208181548110610cca57fe5b9060005260206000209060050201600091509150508060000160009054906101000a900473ffffffffffffffffffffffffffffffffffffffff16908060010154908060020154908060030154908060040154905085565b600c5481565b6000806000806000806000806000806000806000601260000160009054906101000a900473ffffffffffffffffffffffffffffffffffffffff16601260010160009054906101000a900473ffffffffffffffffffffffffffffffffffffffff16601260020154600b546012600301546012600401546012600501546002546003546009546005546006546007549c509c509c509c509c509c509c509c509c509c509c509c509c50909192939495969798999a9b9c565b600160009054906101000a900473ffffffffffffffffffffffffffffffffffffffff1673ffffffffffffffffffffffffffffffffffffffff163373ffffffffffffffffffffffffffffffffffffffff1614610ea0576040517f08c379a00000000000000000000000000000000000000000000000000000000081526004018080602001828103825260098152602001807f6e6f74206f776e6572000000000000000000000000000000000000000000000081525060200191505060405180910390fd5b80600b8190555050565b3373ffffffffffffffffffffffffffffffffffffffff16601260010160009054906101000a900473ffffffffffffffffffffffffffffffffffffffff1673ffffffffffffffffffffffffffffffffffffffff1614610f70576040517f08c379a000000000000000000000000000000000000000000000000000000000815260040180806020018281038252600a8152602001807f4e6f742077696e6e65720000000000000000000000000000000000000000000081525060200191505060405180910390fd5b42610f8b6003546012600401546125a790919063ffffffff16565b1080610faf575042610fad6002546012600501546125a790919063ffffffff16565b105b611021576040517f08c379a00000000000000000000000000000000000000000000000000000000081526004018080602001828103825260108152602001807f47616d65206973206e6f74206f7665720000000000000000000000000000000081525060200191505060405180910390fd5b600073ffffffffffffffffffffffffffffffffffffffff16601260010160009054906101000a900473ffffffffffffffffffffffffffffffffffffffff1673ffffffffffffffffffffffffffffffffffffffff1614156110e9576040517f08c379a00000000000000000000000000000000000000000000000000000000081526004018080602001828103825260108152602001807f416c72656164792077697468647261770000000000000000000000000000000081525060200191505060405180910390fd5b6000601260020154905061117c600a60009054906101000a900473ffffffffffffffffffffffffffffffffffffffff166111416064611133600c548661262f90919063ffffffff16565b6126b590919063ffffffff16565b6040518060400160405280601781526020017f5472616e7366657220706c6174666f726d206572726f720000000000000000008152506126ff565b611207601260010160009054906101000a900473ffffffffffffffffffffffffffffffffffffffff166111cc60646111be60328661262f90919063ffffffff16565b6126b590919063ffffffff16565b6040518060400160405280601581526020017f5472616e736665722077696e6e6572206572726f7200000000000000000000008152506126ff565b611279611231606461122360328561262f90919063ffffffff16565b6126b590919063ffffffff16565b61126b61125c606461124e600c548761262f90919063ffffffff16565b6126b590919063ffffffff16565b8461281790919063ffffffff16565b61281790919063ffffffff16565b6012600201819055507f1993aa2090edc0bad979d5f16efd6e3c23b084dc8356e9b2fe900406c7ba038933336112de6112cf60646112c160328861262f90919063ffffffff16565b6126b590919063ffffffff16565b8561281790919063ffffffff16565b604051808473ffffffffffffffffffffffffffffffffffffffff1673ffffffffffffffffffffffffffffffffffffffff1681526020018373ffffffffffffffffffffffffffffffffffffffff1673ffffffffffffffffffffffffffffffffffffffff168152602001828152602001935050505060405180910390a1611361612861565b50565b600b5481565b600160009054906101000a900473ffffffffffffffffffffffffffffffffffffffff1673ffffffffffffffffffffffffffffffffffffffff163373ffffffffffffffffffffffffffffffffffffffff161461142d576040517f08c379a00000000000000000000000000000000000000000000000000000000081526004018080602001828103825260098152602001807f6e6f74206f776e6572000000000000000000000000000000000000000000000081525060200191505060405180910390fd5b80600a60006101000a81548173ffffffffffffffffffffffffffffffffffffffff021916908373ffffffffffffffffffffffffffffffffffffffff16021790555050565b600d5481565b600080611482612f24565b600e60008573ffffffffffffffffffffffffffffffffffffffff1673ffffffffffffffffffffffffffffffffffffffff1681526020019081526020016000206040518060600160405290816000820160009054906101000a900473ffffffffffffffffffffffffffffffffffffffff1673ffffffffffffffffffffffffffffffffffffffff1673ffffffffffffffffffffffffffffffffffffffff168152602001600182015481526020016002820154815250509050806020015181604001519250925050915091565b600160009054906101000a900473ffffffffffffffffffffffffffffffffffffffff1673ffffffffffffffffffffffffffffffffffffffff163373ffffffffffffffffffffffffffffffffffffffff161461160f576040517f08c379a00000000000000000000000000000000000000000000000000000000081526004018080602001828103825260098152602001807f6e6f74206f776e6572000000000000000000000000000000000000000000000081525060200191505060405180910390fd5b8060088190555050565b600160009054906101000a900473ffffffffffffffffffffffffffffffffffffffff1673ffffffffffffffffffffffffffffffffffffffff163373ffffffffffffffffffffffffffffffffffffffff16146116dc576040517f08c379a00000000000000000000000000000000000000000000000000000000081526004018080602001828103825260098152602001807f6e6f74206f776e6572000000000000000000000000000000000000000000000081525060200191505060405180910390fd5b81600c81905550806009819055505050565b601081815481106116fb57fe5b90600052602060002090600502016000915090508060000160009054906101000a900473ffffffffffffffffffffffffffffffffffffffff16908060010154908060020154908060030154908060040154905085565b4261176c6003546012600401546125a790919063ffffffff16565b108061179057504261178e6002546012600501546125a790919063ffffffff16565b105b611802576040517f08c379a00000000000000000000000000000000000000000000000000000000081526004018080602001828103825260108152602001807f47616d65206973206e6f74206f7665720000000000000000000000000000000081525060200191505060405180910390fd5b600073ffffffffffffffffffffffffffffffffffffffff16601260010160009054906101000a900473ffffffffffffffffffffffffffffffffffffffff1673ffffffffffffffffffffffffffffffffffffffff1614156118ca576040517f08c379a00000000000000000000000000000000000000000000000000000000081526004018080602001828103825260168152602001807f4f7468657220616c72656164792077697468647261770000000000000000000081525060200191505060405180910390fd5b6000601260020154905061195d600a60009054906101000a900473ffffffffffffffffffffffffffffffffffffffff166119226064611914600c548661262f90919063ffffffff16565b6126b590919063ffffffff16565b6040518060400160405280601d81526020017f4f74686572207472616e7366657220706c6174666f726d206572726f720000008152506126ff565b6119e8601260010160009054906101000a900473ffffffffffffffffffffffffffffffffffffffff166119ad606461199f602d8661262f90919063ffffffff16565b6126b590919063ffffffff16565b6040518060400160405280601b81526020017f4f74686572207472616e736665722077696e6e6572206572726f7200000000008152506126ff565b611a4f33611a146064611a06600d548661262f90919063ffffffff16565b6126b590919063ffffffff16565b6040518060400160405280601b81526020017f4f74686572207472616e736665722068656c706572206572726f7200000000008152506126ff565b611afa611a7a6064611a6c600d548561262f90919063ffffffff16565b6126b590919063ffffffff16565b611aec611aa46064611a96602d8761262f90919063ffffffff16565b6126b590919063ffffffff16565b611ade611acf6064611ac1600c548961262f90919063ffffffff16565b6126b590919063ffffffff16565b8661281790919063ffffffff16565b61281790919063ffffffff16565b61281790919063ffffffff16565b6012600201819055507f1993aa2090edc0bad979d5f16efd6e3c23b084dc8356e9b2fe900406c7ba0389601260010160009054906101000a900473ffffffffffffffffffffffffffffffffffffffff1633611b84611b756064611b67602d8861262f90919063ffffffff16565b6126b590919063ffffffff16565b8561281790919063ffffffff16565b604051808473ffffffffffffffffffffffffffffffffffffffff1673ffffffffffffffffffffffffffffffffffffffff1681526020018373ffffffffffffffffffffffffffffffffffffffff1673ffffffffffffffffffffffffffffffffffffffff168152602001828152602001935050505060405180910390a1611c07612861565b50565b6000600e60008373ffffffffffffffffffffffffffffffffffffffff1673ffffffffffffffffffffffffffffffffffffffff16815260200190815260200160002090506000611c6a826002015483600101546125a790919063ffffffff16565b905060008111611ce2576040517f08c379a00000000000000000000000000000000000000000000000000000000081526004018080602001828103825260098152602001807f4e6f20726577617264000000000000000000000000000000000000000000000081525060200191505060405180910390fd5b6000826001018190555060008260020181905550611d3683826040518060400160405280601581526020017f7472616e7366657220726577617264206572726f7200000000000000000000008152506126ff565b505050565b600042905090565b60045481565b600160009054906101000a900473ffffffffffffffffffffffffffffffffffffffff1673ffffffffffffffffffffffffffffffffffffffff163373ffffffffffffffffffffffffffffffffffffffff1614611e0c576040517f08c379a00000000000000000000000000000000000000000000000000000000081526004018080602001828103825260098152602001807f6e6f74206f776e6572000000000000000000000000000000000000000000000081525060200191505060405180910390fd5b60008214611e1c57816003819055505b60008114611e2c57806002819055505b5050565b6000429050600060126005015414611f655780611e5d6003546012600401546125a790919063ffffffff16565b1015611ed1576040517f08c379a00000000000000000000000000000000000000000000000000000000081526004018080602001828103825260178152602001807f4f766572206475726174696f6e2c67616d65206f76657200000000000000000081525060200191505060405180910390fd5b80611eec6002546012600501546125a790919063ffffffff16565b1015611f60576040517f08c379a00000000000000000000000000000000000000000000000000000000081526004018080602001828103825260188152602001807f47616d6520697320657870656e64206f7665722074696d65000000000000000081525060200191505060405180910390fd5b611f70565b806012600501819055505b678ac7230489e80000341015611fee576040517f08c379a000000000000000000000000000000000000000000000000000000000815260040180806020018281038252601e8152602001807f4d696e20616d6f756e74206d75737420677265617465207468616e203130000081525060200191505060405180910390fd5b600061202a3461201c606461200e3460095461262f90919063ffffffff16565b6126b590919063ffffffff16565b6125a790919063ffffffff16565b9050803411156120a2576040517f08c379a000000000000000000000000000000000000000000000000000000000815260040180806020018281038252601e8152602001807f416d6f756e742063616e206e6f74206f766572206d617820616d6f756e74000081525060200191505060405180910390fd5b6120b860016006546125a790919063ffffffff16565b60068190555060006120d4600b54600954600654600454612533565b90508034101561214c576040517f08c379a000000000000000000000000000000000000000000000000000000000815260040180806020018281038252600c8152602001807f416d6f756e74206572726f72000000000000000000000000000000000000000081525060200191505060405180910390fd5b60006121583334612bb1565b9050600080905060016121786004546006546126b590919063ffffffff16565b106122715760006121b5655af3107a40006121a7655af3107a40006012600201546126b590919063ffffffff16565b61262f90919063ffffffff16565b90506121de60646121d060058461262f90919063ffffffff16565b6126b590919063ffffffff16565b915061220a826121fc8360126002015461281790919063ffffffff16565b6125a790919063ffffffff16565b91506000600e60003373ffffffffffffffffffffffffffffffffffffffff1673ffffffffffffffffffffffffffffffffffffffff16815260200190815260200160002090506122668382600201546125a790919063ffffffff16565b816002018190555050505b612279612d62565b61228234612d80565b6122be826122b0836122a2346012600201546125a790919063ffffffff16565b61281790919063ffffffff16565b61281790919063ffffffff16565b601260020181905550601260010160009054906101000a900473ffffffffffffffffffffffffffffffffffffffff16601260000160006101000a81548173ffffffffffffffffffffffffffffffffffffffff021916908373ffffffffffffffffffffffffffffffffffffffff16021790555033601260010160006101000a81548173ffffffffffffffffffffffffffffffffffffffff021916908373ffffffffffffffffffffffffffffffffffffffff16021790555034601260030181905550846012600401819055507f6afd9d1c30fce85d2b7bb21441c679ed5a43bba76809e463ff25788f59cf9a193334604051808373ffffffffffffffffffffffffffffffffffffffff1673ffffffffffffffffffffffffffffffffffffffff1681526020018281526020019250505060405180910390a15050505050565b60065481565b600160009054906101000a900473ffffffffffffffffffffffffffffffffffffffff1673ffffffffffffffffffffffffffffffffffffffff163373ffffffffffffffffffffffffffffffffffffffff16146124c3576040517f08c379a00000000000000000000000000000000000000000000000000000000081526004018080602001828103825260098152602001807f6e6f74206f776e6572000000000000000000000000000000000000000000000081525060200191505060405180910390fd5b80600f60006101000a81548173ffffffffffffffffffffffffffffffffffffffff021916908373ffffffffffffffffffffffffffffffffffffffff16021790555050565b600a60009054906101000a900473ffffffffffffffffffffffffffffffffffffffff1681565b60095481565b6000612591612582606461257461256561255687896126b590919063ffffffff16565b8961262f90919063ffffffff16565b8961262f90919063ffffffff16565b6126b590919063ffffffff16565b866125a790919063ffffffff16565b9050949350505050565b60025481565b60035481565b600080828401905083811015612625576040517f08c379a000000000000000000000000000000000000000000000000000000000815260040180806020018281038252601b8152602001807f536166654d6174683a206164646974696f6e206f766572666c6f77000000000081525060200191505060405180910390fd5b8091505092915050565b60008083141561264257600090506126af565b600082840290508284828161265357fe5b04146126aa576040517f08c379a0000000000000000000000000000000000000000000000000000000008152600401808060200182810382526021815260200180612fa16021913960400191505060405180910390fd5b809150505b92915050565b60006126f783836040518060400160405280601a81526020017f536166654d6174683a206469766973696f6e206279207a65726f000000000000815250612d9e565b905092915050565b60008373ffffffffffffffffffffffffffffffffffffffff168360405180600001905060006040518083038185875af1925050503d806000811461275f576040519150601f19603f3d011682016040523d82523d6000602084013e612764565b606091505b50509050808290612810576040517f08c379a00000000000000000000000000000000000000000000000000000000081526004018080602001828103825283818151815260200191508051906020019080838360005b838110156127d55780820151818401526020810190506127ba565b50505050905090810190601f1680156128025780820380516001836020036101000a031916815260200191505b509250505060405180910390fd5b5050505050565b600061285983836040518060400160405280601e81526020017f536166654d6174683a207375627472616374696f6e206f766572666c6f770000815250612e64565b905092915050565b612869612f5b565b6040518060a00160405280601260010160009054906101000a900473ffffffffffffffffffffffffffffffffffffffff1673ffffffffffffffffffffffffffffffffffffffff1681526020016006548152602001600754815260200160126002015481526020014281525090506000601260010160009054906101000a900473ffffffffffffffffffffffffffffffffffffffff169080600181540180825580915050600190039060005260206000200160009091909190916101000a81548173ffffffffffffffffffffffffffffffffffffffff021916908373ffffffffffffffffffffffffffffffffffffffff160217905550601081908060018154018082558091505060019003906000526020600020906005020160009091909190915060008201518160000160006101000a81548173ffffffffffffffffffffffffffffffffffffffff021916908373ffffffffffffffffffffffffffffffffffffffff16021790555060208201518160010155604082015181600201556060820151816003015560808201518160040155505060116000601260010160009054906101000a900473ffffffffffffffffffffffffffffffffffffffff1673ffffffffffffffffffffffffffffffffffffffff1673ffffffffffffffffffffffffffffffffffffffff16815260200190815260200160002081908060018154018082558091505060019003906000526020600020906005020160009091909190915060008201518160000160006101000a81548173ffffffffffffffffffffffffffffffffffffffff021916908373ffffffffffffffffffffffffffffffffffffffff1602179055506020820151816001015560408201518160020155606082015181600301556080820151816004015550506000601260000160006101000a81548173ffffffffffffffffffffffffffffffffffffffff021916908373ffffffffffffffffffffffffffffffffffffffff1602179055506000601260010160006101000a81548173ffffffffffffffffffffffffffffffffffffffff021916908373ffffffffffffffffffffffffffffffffffffffff160217905550600b5460126003018190555060006012600401819055506000601260050181905550600060068190555050565b600080600f60009054906101000a900473ffffffffffffffffffffffffffffffffffffffff1673ffffffffffffffffffffffffffffffffffffffff1663732cfca0856040518263ffffffff1660e01b8152600401808273ffffffffffffffffffffffffffffffffffffffff1673ffffffffffffffffffffffffffffffffffffffff16815260200191505060206040518083038186803b158015612c5357600080fd5b505afa158015612c67573d6000803e3d6000fd5b505050506040513d6020811015612c7d57600080fd5b810190808051906020019092919050505090506000809050600073ffffffffffffffffffffffffffffffffffffffff168273ffffffffffffffffffffffffffffffffffffffff1614612d5757612cf16064612ce38660085461262f90919063ffffffff16565b6126b590919063ffffffff16565b90506000600e60008473ffffffffffffffffffffffffffffffffffffffff1673ffffffffffffffffffffffffffffffffffffffff1681526020019081526020016000209050612d4d8282600101546125a790919063ffffffff16565b8160010181905550505b809250505092915050565b612d7860016007546125a790919063ffffffff16565b600781905550565b612d95816005546125a790919063ffffffff16565b60058190555050565b60008083118290612e4a576040517f08c379a00000000000000000000000000000000000000000000000000000000081526004018080602001828103825283818151815260200191508051906020019080838360005b83811015612e0f578082015181840152602081019050612df4565b50505050905090810190601f168015612e3c5780820380516001836020036101000a031916815260200191505b509250505060405180910390fd5b506000838581612e5657fe5b049050809150509392505050565b6000838311158290612f11576040517f08c379a00000000000000000000000000000000000000000000000000000000081526004018080602001828103825283818151815260200191508051906020019080838360005b83811015612ed6578082015181840152602081019050612ebb565b50505050905090810190601f168015612f035780820380516001836020036101000a031916815260200191505b509250505060405180910390fd5b5060008385039050809150509392505050565b6040518060600160405280600073ffffffffffffffffffffffffffffffffffffffff16815260200160008152602001600081525090565b6040518060a00160405280600073ffffffffffffffffffffffffffffffffffffffff16815260200160008152602001600081526020016000815260200160008152509056fe536166654d6174683a206d756c7469706c69636174696f6e206f766572666c6f77a264697066735822122064b9a377e7e53934a678de9e66725b5362c79b18875b8fdf48686c9a4dde7eff64736f6c63430006020033",
  "source": "pragma solidity >=0.6.0 <0.8.0;\nimport \"@openzeppelin/contracts/math/SafeMath.sol\";\nimport \"./SponsorWhitelistControl.sol\";\nimport \"./InviteInterface.sol\";\n\ncontract Snatch{\n\n    event SnatchPool(address _addr,uint256 _amount);\n    event WithdrawPool(address _owner, address _addr,uint256 _amount);\n\n    address[] public winnerAddresses;\n\n    using SafeMath for uint256;\n\n    address snatchOwner;\n\n    uint256 public durationEndTime = 5*86400;\n\n    uint256 public durationTime = 1*3600;\n\n    uint256 public surprise = 100;\n\n    uint256 public totalAmount;\n\n    uint256 public snatchCount;\n\n    uint256 public totalSnatchCount;\n\n    uint256 public invitePercent = 10;\n\n    uint256 public increaseRange = 20;\n\n    address public platformAddress;\n\n    uint256 public submitAmount = 10e18;\n\n    uint256 public platformRate = 20;\n    uint256 public helperRate = 5;\n\n    mapping(address => Reward) rewards;\n\n    InviteInterface invite;\n\n    Winner[] public winners;\n\n    mapping(address => Winner[]) public winnerMap;\n\n    SnatchInfo snatchInfo;\n\n    struct Reward{\n        address owner;\n        uint256 inviteReward;\n        uint256 surprise;\n    }\n\n    struct SnatchInfo{\n        address lastOwner;\n        address tempOwner;\n        uint256 amount;\n        uint256 lastAmount;\n        uint256 lastTime;\n        uint256 startTime;\n    }\n\n    struct Winner{\n        address winner;\n        uint256 count;\n        uint256 scount;\n        uint256 amount;\n        uint256 winTime;\n    }\n\n    SponsorWhitelistControl public constant SPONSOR = SponsorWhitelistControl(\n        address(0x0888000000000000000000000000000000000001)\n    );\n\n    constructor(InviteInterface _invite) public{\n        snatchOwner = msg.sender;\n        platformAddress = msg.sender;\n        snatchInfo = SnatchInfo(address(0),address(0),0,submitAmount,0,0);\n        invite = _invite;\n        // register all users as sponsees\n        address[] memory users = new address[](1);\n        users[0] = address(0);\n        SPONSOR.addPrivilege(users);\n    }\n\n    modifier onlyOwner(){\n        require(msg.sender==snatchOwner,\"not owner\");\n        _;\n    }\n\n    function getCurrentSnatchInfo() view public returns(\n        address lastOwner,\n        address tempOwner,\n        uint256 amount,\n        uint256 _submitAmount,\n        uint256 lastAmount,\n        uint256 lastTime,\n        uint256 startTime,\n        uint256 _durationEndTime,\n        uint256 _durationTime,\n        uint256 _increaseRange,\n        uint256 _totalAmount,\n        uint256 _snatchCount,\n        uint256 _totalSnatchCount\n        ){\n            return (snatchInfo.lastOwner,snatchInfo.tempOwner,\n            snatchInfo.amount,submitAmount,snatchInfo.lastAmount,\n            snatchInfo.lastTime,snatchInfo.startTime,\n            durationEndTime,durationTime,increaseRange,totalAmount,snatchCount,totalSnatchCount\n            );\n    }\n\n    function getWinnerAddresses() view public returns(address[] memory _winners){\n        return winnerAddresses;\n    }\n\n    function setSubmitM(uint256 _amount) public onlyOwner(){\n        submitAmount = _amount;\n    }\n\n    function setInvitePercent(uint256 _invitePercent) public onlyOwner(){\n        invitePercent = _invitePercent;\n    }\n    function setInviteInterface(InviteInterface _invite) public onlyOwner(){\n        invite = _invite;\n    }\n\n    function setPlatform(address _platform) public onlyOwner(){\n        platformAddress = _platform;\n    }\n\n    function setSurprise(uint256 _surprise) public onlyOwner(){\n        surprise = _surprise;\n    }\n    \n    function setDuration(uint256 _durationTime,uint256 _durationEndTime) public onlyOwner(){\n        if(_durationTime!=0){\n            durationTime = _durationTime;\n        }\n        if(_durationEndTime!=0){\n            durationEndTime = _durationEndTime;\n        }\n    }\n\n    function setPlatformRate(uint256 _rate,uint256 _increaseRange) public onlyOwner(){\n        platformRate = _rate;\n        increaseRange = _increaseRange;\n    }\n\n    function getNow() view public returns(uint256){\n        return block.timestamp;\n    }\n\n    function getRewards(address _owner) view public returns(uint256 _inviteReward,uint256 _surprise){\n        Reward memory re = rewards[_owner];\n        return (re.inviteReward,re.surprise);\n    }\n\n    function snatchPool() payable public{\n        //get now\n        uint256 t = block.timestamp;\n        if(snatchInfo.startTime!=0){\n            require(snatchInfo.lastTime.add(durationTime) >= t, \"Over duration,game over\");\n            require(snatchInfo.startTime.add(durationEndTime) >= t, \"Game is expend over time\");\n        }else{\n            //set time like\n            snatchInfo.startTime = t;\n        }\n        // require(snatchInfo.tempOwner!=msg.sender,\"Can not repeat snatch\");\n        //cal amounnt\n        require(msg.value >= 10 ether,\"Min amount must greate than 10\");\n        uint256 rangeAmount = increaseRange.mul(msg.value).div(100).add(msg.value);\n        require(msg.value <= rangeAmount, \"Amount can not over max amount\");\n        // add count\n        snatchCount = snatchCount.add(1);\n        //check amount\n        uint256 nowAmount = calcRangeAmount(submitAmount,increaseRange,snatchCount,surprise);\n        require(msg.value >= nowAmount,\"Amount error\");\n        //\n        uint256 rest = checkInvite(msg.sender,msg.value);\n        uint256 reward = 0;\n        //\n        if(snatchCount.div(surprise)>=1){\n            //send 5%\n            //4\n            uint256 rem = snatchInfo.amount.div(1e14).mul(1e14);\n            reward = rem.mul(5).div(100);\n            reward = snatchInfo.amount.sub(rem).add(reward);\n            //\n            // transferEth(msg.sender, reward,\"Transfer snatch error\");\n            Reward storage senderReward = rewards[msg.sender];\n            senderReward.surprise = senderReward.surprise.add(reward);\n        }\n        addSnatchTotalCount();\n        addSnatchTotalAmount(msg.value);\n        //add amount\n        snatchInfo.amount = snatchInfo.amount.add(msg.value).sub(reward).sub(rest);\n        snatchInfo.lastOwner = snatchInfo.tempOwner;\n        snatchInfo.tempOwner = msg.sender;\n        snatchInfo.lastAmount = msg.value;\n        snatchInfo.lastTime = t;\n        emit SnatchPool(msg.sender,msg.value);\n    }\n\n    function checkInvite(address _sender,uint256 _value) internal returns(uint256 _restAmount){\n        address parent = invite.getUserSimpleInfo(_sender);\n        uint256 am = 0;\n        if(parent != address(0)){\n            am = invitePercent.mul(_value).div(100);\n            Reward storage rewardP = rewards[parent];\n            rewardP.inviteReward = rewardP.inviteReward.add(am);\n            // transferEth(parent, \n            //     am,\n            //     \"Transfer invite error\");\n        }\n        //\n        return am;\n    }\n\n    function withdrawPool() public{\n        require(snatchInfo.tempOwner == msg.sender,\"Not winner\");\n        require(snatchInfo.lastTime.add(durationTime) < block.timestamp\n            || snatchInfo.startTime.add(durationEndTime) < block.timestamp,\"Game is not over\");\n        require(snatchInfo.tempOwner!=address(0),\"Already withdraw\");\n        uint256 reward = snatchInfo.amount;\n        //r*10%\n        transferEth(platformAddress, reward.mul(platformRate).div(100),\"Transfer platform error\");\n        // r-r*10%\n        //50% to winner\n        transferEth(snatchInfo.tempOwner,reward.mul(50).div(100),\"Transfer winner error\");\n        //decimals\n        snatchInfo.amount = reward.sub(reward.mul(platformRate).div(100))\n                                        .sub(reward.mul(50).div(100));\n        emit WithdrawPool(msg.sender,msg.sender,reward.sub(reward.mul(50).div(100)));\n        initStatus();\n    }\n\n    function otherWithdraw() public {\n        require(snatchInfo.lastTime.add(durationTime) < block.timestamp\n            || snatchInfo.startTime.add(durationEndTime) < block.timestamp,\"Game is not over\");\n        require(snatchInfo.tempOwner!=address(0),\"Other already withdraw\");\n        uint256 reward = snatchInfo.amount;\n        //platform 10%\n        transferEth(platformAddress, reward.mul(platformRate).div(100),\"Other transfer platform error\");\n        //win 45%\n        transferEth(snatchInfo.tempOwner,reward.mul(45).div(100),\"Other transfer winner error\");\n        //win 5%\n        transferEth(msg.sender,reward.mul(helperRate).div(100),\"Other transfer helper error\");\n        //40% decimals\n        snatchInfo.amount = reward.sub(reward.mul(platformRate).div(100))\n                                    .sub(reward.mul(45).div(100))\n                                    .sub(reward.mul(helperRate).div(100));\n        emit WithdrawPool(snatchInfo.tempOwner,\n                            msg.sender,\n                            reward.sub(reward.mul(45).div(100)));\n        initStatus();\n    }\n\n    function withdrawReward(address _owner) public{\n        Reward storage reward = rewards[_owner];\n        uint256 r = reward.inviteReward.add(reward.surprise);\n        require(r > 0,\"No reward\");\n        reward.inviteReward = 0;\n        reward.surprise = 0;\n        transferEth(_owner, r, \"transfer reward error\");\n    }\n\n    function addSnatchTotalAmount(uint256 _amount) internal{\n        totalAmount = totalAmount.add(_amount);\n    }\n\n    function addSnatchTotalCount() internal{\n        totalSnatchCount = totalSnatchCount.add(1);\n    }\n\n    function initStatus() internal{\n        Winner memory winner = Winner(snatchInfo.tempOwner,\n                        snatchCount,totalSnatchCount,\n                        snatchInfo.amount,block.timestamp);\n        winnerAddresses.push(snatchInfo.tempOwner);\n        winners.push(winner);\n        winnerMap[snatchInfo.tempOwner].push(winner);\n        snatchInfo.lastOwner = address(0);\n        snatchInfo.tempOwner = address(0);\n        snatchInfo.lastAmount = submitAmount;\n        snatchInfo.lastTime = 0;\n        snatchInfo.startTime = 0;\n        snatchCount = 0;\n    }\n   \n\n    function transferEth(address _address, uint256 _value,string memory message) internal{\n        (bool res, ) = address(uint160(_address)).call{value:_value}(\"\");\n        require(res,message);\n    }\n\n    function calcRangeAmount(uint256 _amount,uint256 _rate,uint256 _count,uint256 _sCount) pure public returns(uint256){\n        return _amount.add(_amount.mul(_rate.mul(_count.div(_sCount))).div(100));\n    }\n\n    receive() external payable {}\n\n}",
  "sourcePath": "/Users/wangban/Downloads/money/coin/chk/chksol/contracts/Snatch.sol",
  "compiler": {
    "name": "solc",
    "version": "0.6.2+commit.bacdbe57.Emscripten.clang"
  },
  "schemaVersion": "3.2.0",
  "updatedAt": "2021-01-17T16:25:34.634Z",
  "devdoc": {
    "methods": {}
  },
  "userdoc": {
    "methods": {}
  }
}