{
  "contractName": "TestOwnerOf",
  "abi": [
    {
      "inputs": [
        {
          "internalType": "uint256",
          "name": "",
          "type": "uint256"
        },
        {
          "internalType": "uint256",
          "name": "",
          "type": "uint256"
        }
      ],
      "name": "ownerOfAddress",
      "outputs": [
        {
          "internalType": "address",
          "name": "",
          "type": "address"
        }
      ],
      "stateMutability": "view",
      "type": "function"
    },
    {
      "inputs": [
        {
          "internalType": "uint256",
          "name": "_id",
          "type": "uint256"
        }
      ],
      "name": "ownerOf",
      "outputs": [
        {
          "internalType": "address[]",
          "name": "",
          "type": "address[]"
        }
      ],
      "stateMutability": "view",
      "type": "function"
    },
    {
      "inputs": [
        {
          "internalType": "uint256",
          "name": "_amount",
          "type": "uint256"
        },
        {
          "internalType": "uint256",
          "name": "_rate",
          "type": "uint256"
        },
        {
          "internalType": "uint256",
          "name": "_count",
          "type": "uint256"
        },
        {
          "internalType": "uint256",
          "name": "_sCount",
          "type": "uint256"
        }
      ],
      "name": "calcRangeAmount",
      "outputs": [
        {
          "internalType": "uint256",
          "name": "",
          "type": "uint256"
        }
      ],
      "stateMutability": "pure",
      "type": "function"
    },
    {
      "inputs": [
        {
          "internalType": "address",
          "name": "to",
          "type": "address"
        },
        {
          "internalType": "uint256",
          "name": "tokenId",
          "type": "uint256"
        }
      ],
      "name": "_addTokenToOwnerEnumeration",
      "outputs": [],
      "stateMutability": "nonpayable",
      "type": "function"
    },
    {
      "inputs": [
        {
          "internalType": "uint256",
          "name": "_m",
          "type": "uint256"
        }
      ],
      "name": "box",
      "outputs": [
        {
          "internalType": "uint256",
          "name": "",
          "type": "uint256"
        }
      ],
      "stateMutability": "pure",
      "type": "function"
    }
  ],
  "bytecode": "0x608060405234801561001057600080fd5b50610772806100206000396000f3fe608060405234801561001057600080fd5b50600436106100575760003560e01c80635a7d188a1461005c5780636352211e146100d457806369025b5f146101575780636ca21b95146101a5578063e82d2cdb146101e7575b600080fd5b6100926004803603604081101561007257600080fd5b810190808035906020019092919080359060200190929190505050610247565b604051808273ffffffffffffffffffffffffffffffffffffffff1673ffffffffffffffffffffffffffffffffffffffff16815260200191505060405180910390f35b610100600480360360208110156100ea57600080fd5b8101908080359060200190929190505050610292565b6040518080602001828103825283818151815260200191508051906020019060200280838360005b83811015610143578082015181840152602081019050610128565b505050509050019250505060405180910390f35b6101a36004803603604081101561016d57600080fd5b81019080803573ffffffffffffffffffffffffffffffffffffffff16906020019092919080359060200190929190505050610332565b005b6101d1600480360360208110156101bb57600080fd5b81019080803590602001909291905050506103fc565b6040518082815260200191505060405180910390f35b610231600480360360808110156101fd57600080fd5b8101908080359060200190929190803590602001909291908035906020019092919080359060200190929190505050610495565b6040518082815260200191505060405180910390f35b6000602052816000526040600020818154811061026057fe5b906000526020600020016000915091509054906101000a900473ffffffffffffffffffffffffffffffffffffffff1681565b606060008083815260200190815260200160002080548060200260200160405190810160405280929190818152602001828054801561032657602002820191906000526020600020905b8160009054906101000a900473ffffffffffffffffffffffffffffffffffffffff1673ffffffffffffffffffffffffffffffffffffffff16815260200190600101908083116102dc575b50505050509050919050565b60008060008381526020019081526020016000209050600081805490501115610395578080548061035f57fe5b6001900381819060005260206000200160006101000a81549073ffffffffffffffffffffffffffffffffffffffff021916905590555b80839080600181540180825580915050600190039060005260206000200160009091909190916101000a81548173ffffffffffffffffffffffffffffffffffffffff021916908373ffffffffffffffffffffffffffffffffffffffff160217905550505050565b60008068015af1d78b58c400009050600080905060008090505b8481101561048a5761047b61046c61043783886104fd90919063ffffffff16565b61045e606461045060288961058590919063ffffffff16565b61060b90919063ffffffff16565b61060b90919063ffffffff16565b836104fd90919063ffffffff16565b91508080600101915050610416565b508092505050919050565b60006104f36104e460646104d66104c76104b8878961060b90919063ffffffff16565b8961058590919063ffffffff16565b8961058590919063ffffffff16565b61060b90919063ffffffff16565b866104fd90919063ffffffff16565b9050949350505050565b60008082840190508381101561057b576040517f08c379a000000000000000000000000000000000000000000000000000000000815260040180806020018281038252601b8152602001807f536166654d6174683a206164646974696f6e206f766572666c6f77000000000081525060200191505060405180910390fd5b8091505092915050565b6000808314156105985760009050610605565b60008284029050828482816105a957fe5b0414610600576040517f08c379a000000000000000000000000000000000000000000000000000000000815260040180806020018281038252602181526020018061071c6021913960400191505060405180910390fd5b809150505b92915050565b600061064d83836040518060400160405280601a81526020017f536166654d6174683a206469766973696f6e206279207a65726f000000000000815250610655565b905092915050565b60008083118290610701576040517f08c379a00000000000000000000000000000000000000000000000000000000081526004018080602001828103825283818151815260200191508051906020019080838360005b838110156106c65780820151818401526020810190506106ab565b50505050905090810190601f1680156106f35780820380516001836020036101000a031916815260200191505b509250505060405180910390fd5b50600083858161070d57fe5b04905080915050939250505056fe536166654d6174683a206d756c7469706c69636174696f6e206f766572666c6f77a264697066735822122057036c5f7cc0ba2e40a6fa42a65462e788a3916b965ccda55f218e09fd54100c64736f6c63430006020033",
  "source": "pragma solidity 0.6.2;\n\nimport \"@openzeppelin/contracts/math/SafeMath.sol\";\n\ncontract TestOwnerOf{\n\n    using SafeMath for uint256;\n\n    mapping(uint256 => address[]) public ownerOfAddress;\n\n    function ownerOf(uint256 _id) view public returns(address[] memory){\n        return ownerOfAddress[_id];\n    }\n\n     function calcRangeAmount(uint256 _amount,uint256 _rate,uint256 _count,uint256 _sCount) pure public returns(uint256){\n        return _amount.add(_amount.mul(_rate.mul(_count.div(_sCount))).div(100));\n    }\n\n    function _addTokenToOwnerEnumeration(address to, uint256 tokenId) public {\n        address[] storage addr = ownerOfAddress[tokenId];\n        if(addr.length>0){\n            addr.pop();\n        }\n        addr.push(to);\n    }   \n\n    function box(uint256 _m) pure public returns(uint256){\n        uint256 price = 25e18;\n        uint256 value = 0;\n        for (uint256 index = 0; index < _m; index++) {\n            value = value.add(price.mul(40).div(100).div(_m.add(index))); \n        }\n        return value;\n    }\n}",
  "sourcePath": "/Users/wangban/Downloads/money/coin/chk/chksol/contracts/TestOwnerOf.sol",
  "compiler": {
    "name": "solc",
    "version": "0.6.2+commit.bacdbe57.Emscripten.clang"
  },
  "schemaVersion": "3.2.0",
  "updatedAt": "2021-01-17T16:03:53.515Z",
  "devdoc": {
    "methods": {}
  },
  "userdoc": {
    "methods": {}
  }
}