{
  "contractName": "Ticket1155Nft",
  "abi": [
    {
      "inputs": [],
      "stateMutability": "nonpayable",
      "type": "constructor"
    },
    {
      "anonymous": false,
      "inputs": [
        {
          "indexed": true,
          "internalType": "address",
          "name": "account",
          "type": "address"
        },
        {
          "indexed": true,
          "internalType": "address",
          "name": "operator",
          "type": "address"
        },
        {
          "indexed": false,
          "internalType": "bool",
          "name": "approved",
          "type": "bool"
        }
      ],
      "name": "ApprovalForAll",
      "type": "event"
    },
    {
      "anonymous": false,
      "inputs": [
        {
          "indexed": true,
          "internalType": "address",
          "name": "operator",
          "type": "address"
        },
        {
          "indexed": true,
          "internalType": "address",
          "name": "from",
          "type": "address"
        },
        {
          "indexed": true,
          "internalType": "address",
          "name": "to",
          "type": "address"
        },
        {
          "indexed": false,
          "internalType": "uint256[]",
          "name": "ids",
          "type": "uint256[]"
        },
        {
          "indexed": false,
          "internalType": "uint256[]",
          "name": "values",
          "type": "uint256[]"
        }
      ],
      "name": "TransferBatch",
      "type": "event"
    },
    {
      "anonymous": false,
      "inputs": [
        {
          "indexed": true,
          "internalType": "address",
          "name": "operator",
          "type": "address"
        },
        {
          "indexed": true,
          "internalType": "address",
          "name": "from",
          "type": "address"
        },
        {
          "indexed": true,
          "internalType": "address",
          "name": "to",
          "type": "address"
        },
        {
          "indexed": false,
          "internalType": "uint256",
          "name": "id",
          "type": "uint256"
        },
        {
          "indexed": false,
          "internalType": "uint256",
          "name": "value",
          "type": "uint256"
        }
      ],
      "name": "TransferSingle",
      "type": "event"
    },
    {
      "anonymous": false,
      "inputs": [
        {
          "indexed": false,
          "internalType": "string",
          "name": "value",
          "type": "string"
        },
        {
          "indexed": true,
          "internalType": "uint256",
          "name": "id",
          "type": "uint256"
        }
      ],
      "name": "URI",
      "type": "event"
    },
    {
      "inputs": [
        {
          "internalType": "address",
          "name": "account",
          "type": "address"
        },
        {
          "internalType": "uint256",
          "name": "id",
          "type": "uint256"
        }
      ],
      "name": "balanceOf",
      "outputs": [
        {
          "internalType": "uint256",
          "name": "",
          "type": "uint256"
        }
      ],
      "stateMutability": "view",
      "type": "function"
    },
    {
      "inputs": [
        {
          "internalType": "address[]",
          "name": "accounts",
          "type": "address[]"
        },
        {
          "internalType": "uint256[]",
          "name": "ids",
          "type": "uint256[]"
        }
      ],
      "name": "balanceOfBatch",
      "outputs": [
        {
          "internalType": "uint256[]",
          "name": "",
          "type": "uint256[]"
        }
      ],
      "stateMutability": "view",
      "type": "function"
    },
    {
      "inputs": [
        {
          "internalType": "address",
          "name": "account",
          "type": "address"
        },
        {
          "internalType": "address",
          "name": "operator",
          "type": "address"
        }
      ],
      "name": "isApprovedForAll",
      "outputs": [
        {
          "internalType": "bool",
          "name": "",
          "type": "bool"
        }
      ],
      "stateMutability": "view",
      "type": "function"
    },
    {
      "inputs": [
        {
          "internalType": "address",
          "name": "",
          "type": "address"
        }
      ],
      "name": "miners",
      "outputs": [
        {
          "internalType": "bool",
          "name": "",
          "type": "bool"
        }
      ],
      "stateMutability": "view",
      "type": "function"
    },
    {
      "inputs": [],
      "name": "name",
      "outputs": [
        {
          "internalType": "string",
          "name": "",
          "type": "string"
        }
      ],
      "stateMutability": "view",
      "type": "function"
    },
    {
      "inputs": [
        {
          "internalType": "address",
          "name": "operator",
          "type": "address"
        },
        {
          "internalType": "bool",
          "name": "approved",
          "type": "bool"
        }
      ],
      "name": "setApprovalForAll",
      "outputs": [],
      "stateMutability": "nonpayable",
      "type": "function"
    },
    {
      "inputs": [
        {
          "internalType": "bytes4",
          "name": "interfaceId",
          "type": "bytes4"
        }
      ],
      "name": "supportsInterface",
      "outputs": [
        {
          "internalType": "bool",
          "name": "",
          "type": "bool"
        }
      ],
      "stateMutability": "view",
      "type": "function"
    },
    {
      "inputs": [],
      "name": "symbol",
      "outputs": [
        {
          "internalType": "string",
          "name": "",
          "type": "string"
        }
      ],
      "stateMutability": "view",
      "type": "function"
    },
    {
      "inputs": [
        {
          "internalType": "address",
          "name": "_miner",
          "type": "address"
        }
      ],
      "name": "addMiner",
      "outputs": [],
      "stateMutability": "nonpayable",
      "type": "function"
    },
    {
      "inputs": [
        {
          "internalType": "address",
          "name": "_miner",
          "type": "address"
        }
      ],
      "name": "removeMiner",
      "outputs": [],
      "stateMutability": "nonpayable",
      "type": "function"
    },
    {
      "inputs": [
        {
          "internalType": "string",
          "name": "_baseUri",
          "type": "string"
        }
      ],
      "name": "setBaseUri",
      "outputs": [],
      "stateMutability": "nonpayable",
      "type": "function"
    },
    {
      "inputs": [
        {
          "internalType": "address",
          "name": "_owner",
          "type": "address"
        }
      ],
      "name": "tokensOf",
      "outputs": [
        {
          "internalType": "uint256[]",
          "name": "_tokens",
          "type": "uint256[]"
        }
      ],
      "stateMutability": "view",
      "type": "function"
    },
    {
      "inputs": [
        {
          "internalType": "uint256",
          "name": "_id",
          "type": "uint256"
        }
      ],
      "name": "uri",
      "outputs": [
        {
          "internalType": "string",
          "name": "",
          "type": "string"
        }
      ],
      "stateMutability": "view",
      "type": "function"
    },
    {
      "inputs": [],
      "name": "totalSupply",
      "outputs": [
        {
          "internalType": "uint256",
          "name": "",
          "type": "uint256"
        }
      ],
      "stateMutability": "view",
      "type": "function"
    },
    {
      "inputs": [
        {
          "internalType": "address",
          "name": "from",
          "type": "address"
        },
        {
          "internalType": "address",
          "name": "to",
          "type": "address"
        },
        {
          "internalType": "uint256",
          "name": "tokenId",
          "type": "uint256"
        },
        {
          "internalType": "uint256",
          "name": "amount",
          "type": "uint256"
        },
        {
          "internalType": "bytes",
          "name": "data",
          "type": "bytes"
        }
      ],
      "name": "safeTransferFrom",
      "outputs": [],
      "stateMutability": "nonpayable",
      "type": "function"
    },
    {
      "inputs": [
        {
          "internalType": "address",
          "name": "from",
          "type": "address"
        },
        {
          "internalType": "address",
          "name": "to",
          "type": "address"
        },
        {
          "internalType": "uint256[]",
          "name": "ids",
          "type": "uint256[]"
        },
        {
          "internalType": "uint256[]",
          "name": "amounts",
          "type": "uint256[]"
        },
        {
          "internalType": "bytes",
          "name": "data",
          "type": "bytes"
        }
      ],
      "name": "safeBatchTransferFrom",
      "outputs": [],
      "stateMutability": "nonpayable",
      "type": "function"
    },
    {
      "inputs": [
        {
          "internalType": "address",
          "name": "_to",
          "type": "address"
        }
      ],
      "name": "mint",
      "outputs": [
        {
          "internalType": "uint256",
          "name": "",
          "type": "uint256"
        }
      ],
      "stateMutability": "nonpayable",
      "type": "function"
    },
    {
      "inputs": [
        {
          "internalType": "address",
          "name": "owner",
          "type": "address"
        },
        {
          "internalType": "uint256",
          "name": "tokenId",
          "type": "uint256"
        }
      ],
      "name": "burn",
      "outputs": [],
      "stateMutability": "nonpayable",
      "type": "function"
    }
  ],
  "bytecode": "0x60806040526040518060400160405280600b81526020017f545454545420546f6b656e0000000000000000000000000000000000000000008152506006908051906020019062000051929190620002c0565b506040518060400160405280600481526020017f5454545400000000000000000000000000000000000000000000000000000000815250600790805190602001906200009f929190620002c0565b50348015620000ad57600080fd5b50604051806060016040528060288152602001620041a560289139620000e06301ffc9a760e01b6200019b60201b60201c565b620000f181620002a460201b60201c565b6200010963d9b67a2660e01b6200019b60201b60201c565b62000121630e89341c60e01b6200019b60201b60201c565b5033600560006101000a81548173ffffffffffffffffffffffffffffffffffffffff021916908373ffffffffffffffffffffffffffffffffffffffff160217905550604051806060016040528060288152602001620041a560289139600c908051906020019062000194929190620002c0565b506200036f565b63ffffffff60e01b817bffffffffffffffffffffffffffffffffffffffffffffffffffffffff1916141562000238576040517f08c379a000000000000000000000000000000000000000000000000000000000815260040180806020018281038252601c8152602001807f4552433136353a20696e76616c696420696e746572666163652069640000000081525060200191505060405180910390fd5b6001600080837bffffffffffffffffffffffffffffffffffffffffffffffffffffffff19167bffffffffffffffffffffffffffffffffffffffffffffffffffffffff1916815260200190815260200160002060006101000a81548160ff02191690831515021790555050565b8060039080519060200190620002bc929190620002c0565b5050565b828054600181600116156101000203166002900490600052602060002090601f016020900481019282601f106200030357805160ff191683800117855562000334565b8280016001018555821562000334579182015b828111156200033357825182559160200191906001019062000316565b5b50905062000343919062000347565b5090565b6200036c91905b80821115620003685760008160009055506001016200034e565b5090565b90565b613e26806200037f6000396000f3fe608060405234801561001057600080fd5b50600436106101155760003560e01c8063648ec7b9116100a2578063a0bcfc7f11610071578063a0bcfc7f1461094f578063a22cb46514610a0a578063e985e9c514610a5a578063f242432a14610ad6578063f3982e5e14610be557610115565b8063648ec7b9146107ca5780636a6278421461082657806395d89b411461087e5780639dc29fac1461090157610115565b806310242590116100e9578063102425901461030b57806318160ddd1461034f5780632eb2c2d61461036d5780634e1273f4146105905780635a3f26721461073157610115565b8062fdd58e1461011a57806301ffc9a71461017c57806306fdde03146101e15780630e89341c14610264575b600080fd5b6101666004803603604081101561013057600080fd5b81019080803573ffffffffffffffffffffffffffffffffffffffff16906020019092919080359060200190929190505050610c29565b6040518082815260200191505060405180910390f35b6101c76004803603602081101561019257600080fd5b8101908080357bffffffffffffffffffffffffffffffffffffffffffffffffffffffff19169060200190929190505050610d09565b604051808215151515815260200191505060405180910390f35b6101e9610d70565b6040518080602001828103825283818151815260200191508051906020019080838360005b8381101561022957808201518184015260208101905061020e565b50505050905090810190601f1680156102565780820380516001836020036101000a031916815260200191505b509250505060405180910390f35b6102906004803603602081101561027a57600080fd5b8101908080359060200190929190505050610e0e565b6040518080602001828103825283818151815260200191508051906020019080838360005b838110156102d05780820151818401526020810190506102b5565b50505050905090810190601f1680156102fd5780820380516001836020036101000a031916815260200191505b509250505060405180910390f35b61034d6004803603602081101561032157600080fd5b81019080803573ffffffffffffffffffffffffffffffffffffffff169060200190929190505050610ef9565b005b610357611017565b6040518082815260200191505060405180910390f35b61058e600480360360a081101561038357600080fd5b81019080803573ffffffffffffffffffffffffffffffffffffffff169060200190929190803573ffffffffffffffffffffffffffffffffffffffff169060200190929190803590602001906401000000008111156103e057600080fd5b8201836020820111156103f257600080fd5b8035906020019184602083028401116401000000008311171561041457600080fd5b919080806020026020016040519081016040528093929190818152602001838360200280828437600081840152601f19601f8201169050808301925050505050505091929192908035906020019064010000000081111561047457600080fd5b82018360208201111561048657600080fd5b803590602001918460208302840111640100000000831117156104a857600080fd5b919080806020026020016040519081016040528093929190818152602001838360200280828437600081840152601f19601f8201169050808301925050505050505091929192908035906020019064010000000081111561050857600080fd5b82018360208201111561051a57600080fd5b8035906020019184600183028401116401000000008311171561053c57600080fd5b91908080601f016020809104026020016040519081016040528093929190818152602001838380828437600081840152601f19601f820116905080830192505050505050509192919290505050611024565b005b6106da600480360360408110156105a657600080fd5b81019080803590602001906401000000008111156105c357600080fd5b8201836020820111156105d557600080fd5b803590602001918460208302840111640100000000831117156105f757600080fd5b919080806020026020016040519081016040528093929190818152602001838360200280828437600081840152601f19601f8201169050808301925050505050505091929192908035906020019064010000000081111561065757600080fd5b82018360208201111561066957600080fd5b8035906020019184602083028401116401000000008311171561068b57600080fd5b919080806020026020016040519081016040528093929190818152602001838360200280828437600081840152601f19601f820116905080830192505050505050509192919290505050611099565b6040518080602001828103825283818151815260200191508051906020019060200280838360005b8381101561071d578082015181840152602081019050610702565b505050509050019250505060405180910390f35b6107736004803603602081101561074757600080fd5b81019080803573ffffffffffffffffffffffffffffffffffffffff169060200190929190505050611277565b6040518080602001828103825283818151815260200191508051906020019060200280838360005b838110156107b657808201518184015260208101905061079b565b505050509050019250505060405180910390f35b61080c600480360360208110156107e057600080fd5b81019080803573ffffffffffffffffffffffffffffffffffffffff16906020019092919050505061130e565b604051808215151515815260200191505060405180910390f35b6108686004803603602081101561083c57600080fd5b81019080803573ffffffffffffffffffffffffffffffffffffffff16906020019092919050505061132e565b6040518082815260200191505060405180910390f35b610886611511565b6040518080602001828103825283818151815260200191508051906020019080838360005b838110156108c65780820151818401526020810190506108ab565b50505050905090810190601f1680156108f35780820380516001836020036101000a031916815260200191505b509250505060405180910390f35b61094d6004803603604081101561091757600080fd5b81019080803573ffffffffffffffffffffffffffffffffffffffff169060200190929190803590602001909291905050506115af565b005b610a086004803603602081101561096557600080fd5b810190808035906020019064010000000081111561098257600080fd5b82018360208201111561099457600080fd5b803590602001918460018302840111640100000000831117156109b657600080fd5b91908080601f016020809104026020016040519081016040528093929190818152602001838380828437600081840152601f19601f8201169050808301925050505050505091929192905050506115eb565b005b610a5860048036036040811015610a2057600080fd5b81019080803573ffffffffffffffffffffffffffffffffffffffff1690602001909291908035151590602001909291905050506116d1565b005b610abc60048036036040811015610a7057600080fd5b81019080803573ffffffffffffffffffffffffffffffffffffffff169060200190929190803573ffffffffffffffffffffffffffffffffffffffff16906020019092919050505061186c565b604051808215151515815260200191505060405180910390f35b610be3600480360360a0811015610aec57600080fd5b81019080803573ffffffffffffffffffffffffffffffffffffffff169060200190929190803573ffffffffffffffffffffffffffffffffffffffff169060200190929190803590602001909291908035906020019092919080359060200190640100000000811115610b5d57600080fd5b820183602082011115610b6f57600080fd5b80359060200191846001830284011164010000000083111715610b9157600080fd5b91908080601f016020809104026020016040519081016040528093929190818152602001838380828437600081840152601f19601f820116905080830192505050505050509192919290505050611900565b005b610c2760048036036020811015610bfb57600080fd5b81019080803573ffffffffffffffffffffffffffffffffffffffff169060200190929190505050611928565b005b60008073ffffffffffffffffffffffffffffffffffffffff168373ffffffffffffffffffffffffffffffffffffffff161415610cb0576040517f08c379a000000000000000000000000000000000000000000000000000000000815260040180806020018281038252602b815260200180613c09602b913960400191505060405180910390fd5b6001600083815260200190815260200160002060008473ffffffffffffffffffffffffffffffffffffffff1673ffffffffffffffffffffffffffffffffffffffff16815260200190815260200160002054905092915050565b6000806000837bffffffffffffffffffffffffffffffffffffffffffffffffffffffff19167bffffffffffffffffffffffffffffffffffffffffffffffffffffffff1916815260200190815260200160002060009054906101000a900460ff169050919050565b60068054600181600116156101000203166002900480601f016020809104026020016040519081016040528092919081815260200182805460018160011615610100020316600290048015610e065780601f10610ddb57610100808354040283529160200191610e06565b820191906000526020600020905b815481529060010190602001808311610de957829003601f168201915b505050505081565b6060610ef2600c8054600181600116156101000203166002900480601f016020809104026020016040519081016040528092919081815260200182805460018160011615610100020316600290048015610ea95780601f10610e7e57610100808354040283529160200191610ea9565b820191906000526020600020905b815481529060010190602001808311610e8c57829003601f168201915b5050505050610eb784611a46565b6040518060400160405280600581526020017f2e6a736f6e000000000000000000000000000000000000000000000000000000815250611b73565b9050919050565b3373ffffffffffffffffffffffffffffffffffffffff16600560009054906101000a900473ffffffffffffffffffffffffffffffffffffffff1673ffffffffffffffffffffffffffffffffffffffff1614610fbc576040517f08c379a00000000000000000000000000000000000000000000000000000000081526004018080602001828103825260098152602001807f4e6f74206f776e6572000000000000000000000000000000000000000000000081525060200191505060405180910390fd5b6000600d60008373ffffffffffffffffffffffffffffffffffffffff1673ffffffffffffffffffffffffffffffffffffffff16815260200190815260200160002060006101000a81548160ff02191690831515021790555050565b6000600a80549050905090565b6110318585858585611ba9565b60008090505b835181101561109157600084828151811061104e57fe5b60200260200101519050600084838151811061106657fe5b6020026020010151905061107a8883612037565b61108487836121e0565b5050806001019050611037565b505050505050565b606081518351146110f5576040517f08c379a0000000000000000000000000000000000000000000000000000000008152600401808060200182810382526029815260200180613d7f6029913960400191505060405180910390fd5b606083516040519080825280602002602001820160405280156111275781602001602082028038833980820191505090505b50905060008090505b845181101561126c57600073ffffffffffffffffffffffffffffffffffffffff1685828151811061115d57fe5b602002602001015173ffffffffffffffffffffffffffffffffffffffff1614156111d2576040517f08c379a0000000000000000000000000000000000000000000000000000000008152600401808060200182810382526031815260200180613c346031913960400191505060405180910390fd5b600160008583815181106111e257fe5b60200260200101518152602001908152602001600020600086838151811061120657fe5b602002602001015173ffffffffffffffffffffffffffffffffffffffff1673ffffffffffffffffffffffffffffffffffffffff1681526020019081526020016000205482828151811061125557fe5b602002602001018181525050806001019050611130565b508091505092915050565b6060600860008373ffffffffffffffffffffffffffffffffffffffff1673ffffffffffffffffffffffffffffffffffffffff16815260200190815260200160002080548060200260200160405190810160405280929190818152602001828054801561130257602002820191906000526020600020905b8154815260200190600101908083116112ee575b50505050509050919050565b600d6020528060005260406000206000915054906101000a900460ff1681565b6000600d60003373ffffffffffffffffffffffffffffffffffffffff1673ffffffffffffffffffffffffffffffffffffffff16815260200190815260200160002060009054906101000a900460ff166113ef576040517f08c379a00000000000000000000000000000000000000000000000000000000081526004018080602001828103825260098152602001807f4e6f74206d696e6572000000000000000000000000000000000000000000000081525060200191505060405180910390fd5b6113f960046122a4565b600061140560046122ba565b90506114f5838260016114f0600c8054600181600116156101000203166002900480601f0160208091040260200160405190810160405280929190818152602001828054600181600116156101000203166002900480156114a75780601f1061147c576101008083540402835291602001916114a7565b820191906000526020600020905b81548152906001019060200180831161148a57829003601f168201915b50505050506114b5306122c8565b6040518060400160405280600181526020017f2f00000000000000000000000000000000000000000000000000000000000000815250611b73565b612509565b6114fe8161270c565b61150883826121e0565b80915050919050565b60078054600181600116156101000203166002900480601f0160208091040260200160405190810160405280929190818152602001828054600181600116156101000203166002900480156115a75780601f1061157c576101008083540402835291602001916115a7565b820191906000526020600020905b81548152906001019060200180831161158a57829003601f168201915b505050505081565b6115bb82826001612755565b6115c58282612037565b600060096000838152602001908152602001600020819055506115e781612971565b5050565b3373ffffffffffffffffffffffffffffffffffffffff16600560009054906101000a900473ffffffffffffffffffffffffffffffffffffffff1673ffffffffffffffffffffffffffffffffffffffff16146116ae576040517f08c379a00000000000000000000000000000000000000000000000000000000081526004018080602001828103825260098152602001807f4e6f74206f776e6572000000000000000000000000000000000000000000000081525060200191505060405180910390fd5b6116b781612a36565b80600c90805190602001906116cd929190613b07565b5050565b8173ffffffffffffffffffffffffffffffffffffffff166116f0612a50565b73ffffffffffffffffffffffffffffffffffffffff16141561175d576040517f08c379a0000000000000000000000000000000000000000000000000000000008152600401808060200182810382526029815260200180613d566029913960400191505060405180910390fd5b806002600061176a612a50565b73ffffffffffffffffffffffffffffffffffffffff1673ffffffffffffffffffffffffffffffffffffffff16815260200190815260200160002060008473ffffffffffffffffffffffffffffffffffffffff1673ffffffffffffffffffffffffffffffffffffffff16815260200190815260200160002060006101000a81548160ff0219169083151502179055508173ffffffffffffffffffffffffffffffffffffffff16611817612a50565b73ffffffffffffffffffffffffffffffffffffffff167f17307eab39ab6107e8899845ad3d59bd9653f200f220920489ca2b5937696c3183604051808215151515815260200191505060405180910390a35050565b6000600260008473ffffffffffffffffffffffffffffffffffffffff1673ffffffffffffffffffffffffffffffffffffffff16815260200190815260200160002060008373ffffffffffffffffffffffffffffffffffffffff1673ffffffffffffffffffffffffffffffffffffffff16815260200190815260200160002060009054906101000a900460ff16905092915050565b61190d8585858585612a58565b6119178584612037565b61192184846121e0565b5050505050565b3373ffffffffffffffffffffffffffffffffffffffff16600560009054906101000a900473ffffffffffffffffffffffffffffffffffffffff1673ffffffffffffffffffffffffffffffffffffffff16146119eb576040517f08c379a00000000000000000000000000000000000000000000000000000000081526004018080602001828103825260098152602001807f4e6f74206f776e6572000000000000000000000000000000000000000000000081525060200191505060405180910390fd5b6001600d60008373ffffffffffffffffffffffffffffffffffffffff1673ffffffffffffffffffffffffffffffffffffffff16815260200190815260200160002060006101000a81548160ff02191690831515021790555050565b60606000821415611a8e576040518060400160405280600181526020017f30000000000000000000000000000000000000000000000000000000000000008152509050611b6e565b600082905060005b60008214611ab8578080600101915050600a8281611ab057fe5b049150611a96565b6060816040519080825280601f01601f191660200182016040528015611aed5781602001600182028038833980820191505090505b50905060006001830390505b60008614611b6657600a8681611b0b57fe5b0660300160f81b82828060019003935081518110611b2557fe5b60200101907effffffffffffffffffffffffffffffffffffffffffffffffffffffffffffff1916908160001a905350600a8681611b5e57fe5b049550611af9565b819450505050505b919050565b6060611ba08484846040518060200160405280600081525060405180602001604052806000815250612dcd565b90509392505050565b8151835114611c03576040517f08c379a0000000000000000000000000000000000000000000000000000000008152600401808060200182810382526028815260200180613da86028913960400191505060405180910390fd5b600073ffffffffffffffffffffffffffffffffffffffff168473ffffffffffffffffffffffffffffffffffffffff161415611c89576040517f08c379a0000000000000000000000000000000000000000000000000000000008152600401808060200182810382526025815260200180613cb26025913960400191505060405180910390fd5b611c91612a50565b73ffffffffffffffffffffffffffffffffffffffff168573ffffffffffffffffffffffffffffffffffffffff161480611cd75750611cd685611cd1612a50565b61186c565b5b611d2c576040517f08c379a0000000000000000000000000000000000000000000000000000000008152600401808060200182810382526032815260200180613cd76032913960400191505060405180910390fd5b6000611d36612a50565b9050611d46818787878787613093565b60008090505b8451811015611f1a576000858281518110611d6357fe5b602002602001015190506000858381518110611d7b57fe5b60200260200101519050611e02816040518060600160405280602a8152602001613d2c602a91396001600086815260200190815260200160002060008d73ffffffffffffffffffffffffffffffffffffffff1673ffffffffffffffffffffffffffffffffffffffff1681526020019081526020016000205461309b9092919063ffffffff16565b6001600084815260200190815260200160002060008b73ffffffffffffffffffffffffffffffffffffffff1673ffffffffffffffffffffffffffffffffffffffff16815260200190815260200160002081905550611eb9816001600085815260200190815260200160002060008b73ffffffffffffffffffffffffffffffffffffffff1673ffffffffffffffffffffffffffffffffffffffff1681526020019081526020016000205461315b90919063ffffffff16565b6001600084815260200190815260200160002060008a73ffffffffffffffffffffffffffffffffffffffff1673ffffffffffffffffffffffffffffffffffffffff168152602001908152602001600020819055505050806001019050611d4c565b508473ffffffffffffffffffffffffffffffffffffffff168673ffffffffffffffffffffffffffffffffffffffff168273ffffffffffffffffffffffffffffffffffffffff167f4a39dc06d4c0dbc64b70af90fd698a233a518aa5d07e595d983b8c0526c8f7fb8787604051808060200180602001838103835285818151815260200191508051906020019060200280838360005b83811015611fca578082015181840152602081019050611faf565b50505050905001838103825284818151815260200191508051906020019060200280838360005b8381101561200c578082015181840152602081019050611ff1565b5050505090500194505050505060405180910390a461202f8187878787876131e3565b505050505050565b600061208f6001600860008673ffffffffffffffffffffffffffffffffffffffff1673ffffffffffffffffffffffffffffffffffffffff1681526020019081526020016000208054905061365b90919063ffffffff16565b905060006009600084815260200190815260200160002054905081811461217c576000600860008673ffffffffffffffffffffffffffffffffffffffff1673ffffffffffffffffffffffffffffffffffffffff16815260200190815260200160002083815481106120fc57fe5b9060005260206000200154905080600860008773ffffffffffffffffffffffffffffffffffffffff1673ffffffffffffffffffffffffffffffffffffffff168152602001908152602001600020838154811061215457fe5b9060005260206000200181905550816009600083815260200190815260200160002081905550505b600860008573ffffffffffffffffffffffffffffffffffffffff1673ffffffffffffffffffffffffffffffffffffffff1681526020019081526020016000208054806121c457fe5b6001900381819060005260206000200160009055905550505050565b600860008373ffffffffffffffffffffffffffffffffffffffff1673ffffffffffffffffffffffffffffffffffffffff168152602001908152602001600020805490506009600083815260200190815260200160002081905550600860008373ffffffffffffffffffffffffffffffffffffffff1673ffffffffffffffffffffffffffffffffffffffff1681526020019081526020016000208190806001815401808255809150506001900390600052602060002001600090919091909150555050565b6001816000016000828254019250508190555050565b600081600001549050919050565b606060008260601b905060007f303132333435363738396162636465660000000000000000000000000000000090506060602a6040519080825280601f01601f19166020018201604052801561232d5781602001600182028038833980820191505090505b5090507f30000000000000000000000000000000000000000000000000000000000000008160008151811061235e57fe5b60200101907effffffffffffffffffffffffffffffffffffffffffffffffffffffffffffff1916908160001a9053507f7800000000000000000000000000000000000000000000000000000000000000816001815181106123bb57fe5b60200101907effffffffffffffffffffffffffffffffffffffffffffffffffffffffffffff1916908160001a90535060008090505b60148110156124fd5782600485836014811061240857fe5b1a60f81b7effffffffffffffffffffffffffffffffffffffffffffffffffffffffffffff1916901c60f81c60ff166010811061244057fe5b1a60f81b826002808402018151811061245557fe5b60200101907effffffffffffffffffffffffffffffffffffffffffffffffffffffffffffff1916908160001a90535082600f60f81b85836014811061249657fe5b1a60f81b1660f81c60ff16601081106124ab57fe5b1a60f81b8260036002840201815181106124c157fe5b60200101907effffffffffffffffffffffffffffffffffffffffffffffffffffffffffffff1916908160001a90535080806001019150506123f0565b50809350505050919050565b600073ffffffffffffffffffffffffffffffffffffffff168473ffffffffffffffffffffffffffffffffffffffff16141561258f576040517f08c379a0000000000000000000000000000000000000000000000000000000008152600401808060200182810382526021815260200180613dd06021913960400191505060405180910390fd5b6000612599612a50565b90506125ba816000876125ab886136a5565b6125b4886136a5565b87613093565b61261d836001600087815260200190815260200160002060008873ffffffffffffffffffffffffffffffffffffffff1673ffffffffffffffffffffffffffffffffffffffff1681526020019081526020016000205461315b90919063ffffffff16565b6001600086815260200190815260200160002060008773ffffffffffffffffffffffffffffffffffffffff1673ffffffffffffffffffffffffffffffffffffffff168152602001908152602001600020819055508473ffffffffffffffffffffffffffffffffffffffff16600073ffffffffffffffffffffffffffffffffffffffff168273ffffffffffffffffffffffffffffffffffffffff167fc3d58168c5ae7397731d063d5bbf3d657854427343f4c083240f7aacaa2d0f628787604051808381526020018281526020019250505060405180910390a4612705816000878787876136fe565b5050505050565b600a80549050600b600083815260200190815260200160002081905550600a81908060018154018082558091505060019003906000526020600020016000909190919091505550565b600073ffffffffffffffffffffffffffffffffffffffff168373ffffffffffffffffffffffffffffffffffffffff1614156127db576040517f08c379a0000000000000000000000000000000000000000000000000000000008152600401808060200182810382526023815260200180613d096023913960400191505060405180910390fd5b60006127e5612a50565b9050612815818560006127f7876136a5565b612800876136a5565b60405180602001604052806000815250613093565b61289282604051806060016040528060248152602001613c65602491396001600087815260200190815260200160002060008873ffffffffffffffffffffffffffffffffffffffff1673ffffffffffffffffffffffffffffffffffffffff1681526020019081526020016000205461309b9092919063ffffffff16565b6001600085815260200190815260200160002060008673ffffffffffffffffffffffffffffffffffffffff1673ffffffffffffffffffffffffffffffffffffffff16815260200190815260200160002081905550600073ffffffffffffffffffffffffffffffffffffffff168473ffffffffffffffffffffffffffffffffffffffff168273ffffffffffffffffffffffffffffffffffffffff167fc3d58168c5ae7397731d063d5bbf3d657854427343f4c083240f7aacaa2d0f628686604051808381526020018281526020019250505060405180910390a450505050565b600061298c6001600a8054905061365b90919063ffffffff16565b90506000600b60008481526020019081526020016000205490506000600a83815481106129b557fe5b9060005260206000200154905080600a83815481106129d057fe5b906000526020600020018190555081600b600083815260200190815260200160002081905550600a805480612a0157fe5b600190038181906000526020600020016000905590556000600b60008681526020019081526020016000208190555050505050565b8060039080519060200190612a4c929190613b07565b5050565b600033905090565b600073ffffffffffffffffffffffffffffffffffffffff168473ffffffffffffffffffffffffffffffffffffffff161415612ade576040517f08c379a0000000000000000000000000000000000000000000000000000000008152600401808060200182810382526025815260200180613cb26025913960400191505060405180910390fd5b612ae6612a50565b73ffffffffffffffffffffffffffffffffffffffff168573ffffffffffffffffffffffffffffffffffffffff161480612b2c5750612b2b85612b26612a50565b61186c565b5b612b81576040517f08c379a0000000000000000000000000000000000000000000000000000000008152600401808060200182810382526029815260200180613c896029913960400191505060405180910390fd5b6000612b8b612a50565b9050612bab818787612b9c886136a5565b612ba5886136a5565b87613093565b612c28836040518060600160405280602a8152602001613d2c602a91396001600088815260200190815260200160002060008a73ffffffffffffffffffffffffffffffffffffffff1673ffffffffffffffffffffffffffffffffffffffff1681526020019081526020016000205461309b9092919063ffffffff16565b6001600086815260200190815260200160002060008873ffffffffffffffffffffffffffffffffffffffff1673ffffffffffffffffffffffffffffffffffffffff16815260200190815260200160002081905550612cdf836001600087815260200190815260200160002060008873ffffffffffffffffffffffffffffffffffffffff1673ffffffffffffffffffffffffffffffffffffffff1681526020019081526020016000205461315b90919063ffffffff16565b6001600086815260200190815260200160002060008773ffffffffffffffffffffffffffffffffffffffff1673ffffffffffffffffffffffffffffffffffffffff168152602001908152602001600020819055508473ffffffffffffffffffffffffffffffffffffffff168673ffffffffffffffffffffffffffffffffffffffff168273ffffffffffffffffffffffffffffffffffffffff167fc3d58168c5ae7397731d063d5bbf3d657854427343f4c083240f7aacaa2d0f628787604051808381526020018281526020019250505060405180910390a4612dc58187878787876136fe565b505050505050565b6060808690506060869050606086905060608690506060869050606081518351855187518951010101016040519080825280601f01601f191660200182016040528015612e295781602001600182028038833980820191505090505b5090506060819050600080905060008090505b8851811015612eaa57888181518110612e5157fe5b602001015160f81c60f81b838380600101945081518110612e6e57fe5b60200101907effffffffffffffffffffffffffffffffffffffffffffffffffffffffffffff1916908160001a9053508080600101915050612e3c565b5060008090505b8751811015612f1f57878181518110612ec657fe5b602001015160f81c60f81b838380600101945081518110612ee357fe5b60200101907effffffffffffffffffffffffffffffffffffffffffffffffffffffffffffff1916908160001a9053508080600101915050612eb1565b5060008090505b8651811015612f9457868181518110612f3b57fe5b602001015160f81c60f81b838380600101945081518110612f5857fe5b60200101907effffffffffffffffffffffffffffffffffffffffffffffffffffffffffffff1916908160001a9053508080600101915050612f26565b5060008090505b855181101561300957858181518110612fb057fe5b602001015160f81c60f81b838380600101945081518110612fcd57fe5b60200101907effffffffffffffffffffffffffffffffffffffffffffffffffffffffffffff1916908160001a9053508080600101915050612f9b565b5060008090505b845181101561307e5784818151811061302557fe5b602001015160f81c60f81b83838060010194508151811061304257fe5b60200101907effffffffffffffffffffffffffffffffffffffffffffffffffffffffffffff1916908160001a9053508080600101915050613010565b50819850505050505050505095945050505050565b505050505050565b6000838311158290613148576040517f08c379a00000000000000000000000000000000000000000000000000000000081526004018080602001828103825283818151815260200191508051906020019080838360005b8381101561310d5780820151818401526020810190506130f2565b50505050905090810190601f16801561313a5780820380516001836020036101000a031916815260200191505b509250505060405180910390fd5b5060008385039050809150509392505050565b6000808284019050838110156131d9576040517f08c379a000000000000000000000000000000000000000000000000000000000815260040180806020018281038252601b8152602001807f536166654d6174683a206164646974696f6e206f766572666c6f77000000000081525060200191505060405180910390fd5b8091505092915050565b6132028473ffffffffffffffffffffffffffffffffffffffff16613af4565b15613653578373ffffffffffffffffffffffffffffffffffffffff1663bc197c8187878686866040518663ffffffff1660e01b8152600401808673ffffffffffffffffffffffffffffffffffffffff1673ffffffffffffffffffffffffffffffffffffffff1681526020018573ffffffffffffffffffffffffffffffffffffffff1673ffffffffffffffffffffffffffffffffffffffff168152602001806020018060200180602001848103845287818151815260200191508051906020019060200280838360005b838110156132e65780820151818401526020810190506132cb565b50505050905001848103835286818151815260200191508051906020019060200280838360005b8381101561332857808201518184015260208101905061330d565b50505050905001848103825285818151815260200191508051906020019080838360005b8381101561336757808201518184015260208101905061334c565b50505050905090810190601f1680156133945780820380516001836020036101000a031916815260200191505b5098505050505050505050602060405180830381600087803b1580156133b957600080fd5b505af19250505080156133ed57506040513d60208110156133d957600080fd5b810190808051906020019092919050505060015b6135b45760006040519050600081526001156134b65760443d101561341557600090506134b6565b60046000803e60005160e01c6308c379a081146134365760009150506134b6565b60043d036004833e81513d602482011167ffffffffffffffff82111715613462576000925050506134b6565b808301805167ffffffffffffffff8111156134845760009450505050506134b6565b8060208301013d86018111156134a2576000955050505050506134b6565b601f19601f82011660405282955050505050505b806134c15750613563565b806040517f08c379a00000000000000000000000000000000000000000000000000000000081526004018080602001828103825283818151815260200191508051906020019080838360005b8381101561352857808201518184015260208101905061350d565b50505050905090810190601f1680156135555780820380516001836020036101000a031916815260200191505b509250505060405180910390fd5b6040517f08c379a0000000000000000000000000000000000000000000000000000000008152600401808060200182810382526034815260200180613bad6034913960400191505060405180910390fd5b63bc197c8160e01b7bffffffffffffffffffffffffffffffffffffffffffffffffffffffff1916817bffffffffffffffffffffffffffffffffffffffffffffffffffffffff191614613651576040517f08c379a0000000000000000000000000000000000000000000000000000000008152600401808060200182810382526028815260200180613be16028913960400191505060405180910390fd5b505b505050505050565b600061369d83836040518060400160405280601e81526020017f536166654d6174683a207375627472616374696f6e206f766572666c6f77000081525061309b565b905092915050565b60608060016040519080825280602002602001820160405280156136d85781602001602082028038833980820191505090505b50905082816000815181106136e957fe5b60200260200101818152505080915050919050565b61371d8473ffffffffffffffffffffffffffffffffffffffff16613af4565b15613aec578373ffffffffffffffffffffffffffffffffffffffff1663f23a6e6187878686866040518663ffffffff1660e01b8152600401808673ffffffffffffffffffffffffffffffffffffffff1673ffffffffffffffffffffffffffffffffffffffff1681526020018573ffffffffffffffffffffffffffffffffffffffff1673ffffffffffffffffffffffffffffffffffffffff16815260200184815260200183815260200180602001828103825283818151815260200191508051906020019080838360005b838110156138025780820151818401526020810190506137e7565b50505050905090810190601f16801561382f5780820380516001836020036101000a031916815260200191505b509650505050505050602060405180830381600087803b15801561385257600080fd5b505af192505050801561388657506040513d602081101561387257600080fd5b810190808051906020019092919050505060015b613a4d57600060405190506000815260011561394f5760443d10156138ae576000905061394f565b60046000803e60005160e01c6308c379a081146138cf57600091505061394f565b60043d036004833e81513d602482011167ffffffffffffffff821117156138fb5760009250505061394f565b808301805167ffffffffffffffff81111561391d57600094505050505061394f565b8060208301013d860181111561393b5760009550505050505061394f565b601f19601f82011660405282955050505050505b8061395a57506139fc565b806040517f08c379a00000000000000000000000000000000000000000000000000000000081526004018080602001828103825283818151815260200191508051906020019080838360005b838110156139c15780820151818401526020810190506139a6565b50505050905090810190601f1680156139ee5780820380516001836020036101000a031916815260200191505b509250505060405180910390fd5b6040517f08c379a0000000000000000000000000000000000000000000000000000000008152600401808060200182810382526034815260200180613bad6034913960400191505060405180910390fd5b63f23a6e6160e01b7bffffffffffffffffffffffffffffffffffffffffffffffffffffffff1916817bffffffffffffffffffffffffffffffffffffffffffffffffffffffff191614613aea576040517f08c379a0000000000000000000000000000000000000000000000000000000008152600401808060200182810382526028815260200180613be16028913960400191505060405180910390fd5b505b505050505050565b600080823b905060008111915050919050565b828054600181600116156101000203166002900490600052602060002090601f016020900481019282601f10613b4857805160ff1916838001178555613b76565b82800160010185558215613b76579182015b82811115613b75578251825591602001919060010190613b5a565b5b509050613b839190613b87565b5090565b613ba991905b80821115613ba5576000816000905550600101613b8d565b5090565b9056fe455243313135353a207472616e7366657220746f206e6f6e2045524331313535526563656976657220696d706c656d656e746572455243313135353a204552433131353552656365697665722072656a656374656420746f6b656e73455243313135353a2062616c616e636520717565727920666f7220746865207a65726f2061646472657373455243313135353a2062617463682062616c616e636520717565727920666f7220746865207a65726f2061646472657373455243313135353a206275726e20616d6f756e7420657863656564732062616c616e6365455243313135353a2063616c6c6572206973206e6f74206f776e6572206e6f7220617070726f766564455243313135353a207472616e7366657220746f20746865207a65726f2061646472657373455243313135353a207472616e736665722063616c6c6572206973206e6f74206f776e6572206e6f7220617070726f766564455243313135353a206275726e2066726f6d20746865207a65726f2061646472657373455243313135353a20696e73756666696369656e742062616c616e636520666f72207472616e73666572455243313135353a2073657474696e6720617070726f76616c2073746174757320666f722073656c66455243313135353a206163636f756e747320616e6420696473206c656e677468206d69736d61746368455243313135353a2069647320616e6420616d6f756e7473206c656e677468206d69736d61746368455243313135353a206d696e7420746f20746865207a65726f2061646472657373a2646970667358221220ee1c74d325d9e5c09f8e825998eb7effe17b5fc0fbf0cbc314be77a4b8a3180364736f6c63430006020033687474703a2f2f3138302e37362e3131362e3139313a31383735362f76312f6e66742f627262722f",
  "source": "\npragma solidity ^0.6.2;\n\nimport \"@openzeppelin/contracts/token/ERC1155/ERC1155.sol\";\nimport \"@openzeppelin/contracts/utils/Counters.sol\";\n\nlibrary Strings {\n  // via https://github.com/oraclize/ethereum-api/blob/master/oraclizeAPI_0.5.sol\n  function strConcat(string memory _a, string memory _b, string memory _c, string memory _d, string memory _e) internal pure returns (string memory) {\n    bytes memory _ba = bytes(_a);\n    bytes memory _bb = bytes(_b);\n    bytes memory _bc = bytes(_c);\n    bytes memory _bd = bytes(_d);\n    bytes memory _be = bytes(_e);\n    string memory abcde = new string(_ba.length + _bb.length + _bc.length + _bd.length + _be.length);\n    bytes memory babcde = bytes(abcde);\n    uint k = 0;\n    for (uint i = 0; i < _ba.length; i++) babcde[k++] = _ba[i];\n    for (uint i = 0; i < _bb.length; i++) babcde[k++] = _bb[i];\n    for (uint i = 0; i < _bc.length; i++) babcde[k++] = _bc[i];\n    for (uint i = 0; i < _bd.length; i++) babcde[k++] = _bd[i];\n    for (uint i = 0; i < _be.length; i++) babcde[k++] = _be[i];\n    return string(babcde);\n  }\n\n//   function strConcat(string memory _a, string memory _b, string memory _c, string memory _d) internal pure returns (string memory) {\n//     return strConcat(_a, _b, _c, _d, \"\");\n//   }\n\n  function strConcat(string memory _a, string memory _b, string memory _c) internal pure returns (string memory) {\n    return strConcat(_a, _b, _c, \"\", \"\");\n  }\n\n  function strConcat(string memory _a, string memory _b) internal pure returns (string memory) {\n    return strConcat(_a, _b, \"\", \"\", \"\");\n  }\n\n  function uint2str(uint _i) internal pure returns (string memory _uintAsString) {\n    if (_i == 0) {\n      return \"0\";\n    }\n    uint j = _i;\n    uint len;\n    while (j != 0) {\n      len++;\n      j /= 10;\n    }\n    bytes memory bstr = new bytes(len);\n    uint k = len - 1;\n    while (_i != 0) {\n      bstr[k--] = byte(uint8(48 + _i % 10));\n      _i /= 10;\n    }\n    return string(bstr);\n  }\n\n  function fromAddress(address addr) internal pure returns(string memory) {\n    bytes20 addrBytes = bytes20(addr);\n    bytes16 hexAlphabet = \"0123456789abcdef\";\n    bytes memory result = new bytes(42);\n    result[0] = '0';\n    result[1] = 'x';\n    for (uint i = 0; i < 20; i++) {\n      result[i * 2 + 2] = hexAlphabet[uint8(addrBytes[i] >> 4)];\n      result[i * 2 + 3] = hexAlphabet[uint8(addrBytes[i] & 0x0f)];\n    }\n    return string(result);\n  }\n}\n\ncontract Ticket1155Nft is ERC1155 {\n\n    using Counters for Counters.Counter;\n    Counters.Counter private _tokenIds;\n\n    address owner;\n    // Contract name\n    string public name=\"TTTTT Token\";\n    // Contract symbol\n    string public symbol=\"TTTT\";\n\n    // Mapping from owner to list of owned token IDs\n    mapping(address => uint256[]) private _ownedTokens;\n\n    // Mapping from token ID to index of the owner tokens list\n    mapping(uint256 => uint256) private _ownedTokensIndex;\n\n    // Array with all token ids, used for enumeration\n    uint256[] private _allTokens;\n\n    // Mapping from token id to position in the allTokens array\n    mapping(uint256 => uint256) private _allTokensIndex;\n\n    string baseUri;\n\n    mapping(address => bool) public miners;\n\n    modifier onlyOwner(){\n        require(owner==msg.sender,\"Not owner\");\n        _;\n    }\n\n    modifier onlyMiner(){\n        require(miners[msg.sender],\"Not miner\");\n        _;\n    }\n\n    constructor() public ERC1155(\"http://180.76.116.191:18756/v1/nft/brbr/\") {\n        owner=msg.sender;\n        baseUri = \"http://180.76.116.191:18756/v1/nft/brbr/\";\n    }\n\n    function addMiner(address _miner) public onlyOwner(){\n        miners[_miner] = true;\n    }\n\n    function removeMiner(address _miner) public onlyOwner(){\n        miners[_miner] = false;\n    }\n\n    function setBaseUri(string memory _baseUri) public onlyOwner(){\n        super._setURI(_baseUri);\n        baseUri = _baseUri;\n    }\n\n    function tokensOf(address _owner) view public returns(uint256[] memory _tokens){\n        return _ownedTokens[_owner];\n    }\n\n    function uri(uint256 _id) external view override returns (string memory) {\n        return Strings.strConcat(baseUri, Strings.uint2str(_id), \".json\");\n    }\n\n    /**\n     * @dev Gets the total amount of tokens stored by the contract.\n     * @return uint256 representing the total amount of tokens\n     */\n    function totalSupply() public view returns (uint256) {\n        return _allTokens.length;\n    }\n\n\n    function safeTransferFrom(\n        address from,\n        address to,\n        uint256 tokenId,\n        uint256 amount,\n        bytes memory data\n    ) public override{\n        super.safeTransferFrom(from,to,tokenId,amount,data);\n         _removeTokenFromOwnerEnumeration(from, tokenId);\n        _addTokenToOwnerEnumeration(to, tokenId);\n    }\n\n    function safeBatchTransferFrom(\n        address from,\n        address to,\n        uint256[] memory ids,\n        uint256[] memory amounts,\n        bytes memory data\n    )\n        public\n        virtual\n        override\n    {\n        super.safeBatchTransferFrom(from,to,ids,amounts,data);\n        for (uint256 i = 0; i < ids.length; ++i) {\n            uint256 tokenId = ids[i];\n            uint256 amount = amounts[i];\n\n            _removeTokenFromOwnerEnumeration(from, tokenId);\n            _addTokenToOwnerEnumeration(to, tokenId);\n        }\n        \n    }\n\n    /**\n     * @dev Private function to add a token to this extension's ownership-tracking data structures.\n     * @param to address representing the new owner of the given token ID\n     * @param tokenId uint256 ID of the token to be added to the tokens list of the given address\n     */\n    function _addTokenToOwnerEnumeration(address to, uint256 tokenId) private {\n        _ownedTokensIndex[tokenId] = _ownedTokens[to].length;\n        _ownedTokens[to].push(tokenId);\n    }\n\n    /**\n     * @dev Private function to add a token to this extension's token tracking data structures.\n     * @param tokenId uint256 ID of the token to be added to the tokens list\n     */\n    function _addTokenToAllTokensEnumeration(uint256 tokenId) private {\n        _allTokensIndex[tokenId] = _allTokens.length;\n        _allTokens.push(tokenId);\n    }\n\n    function mint(address _to) public onlyMiner() returns(uint256){\n        _tokenIds.increment();\n        uint256 newItemId = _tokenIds.current();\n        _mint(_to, newItemId, 1, bytes(Strings.strConcat(baseUri, Strings.fromAddress(address(this)), \"/\"))); \n        _addTokenToAllTokensEnumeration(newItemId);\n        _addTokenToOwnerEnumeration(_to, newItemId);\n        return newItemId;\n    }\n\n     /**\n     * @dev Internal function to burn a specific token.\n     * Reverts if the token does not exist.\n     * Deprecated, use {ERC721-_burn} instead.\n     * @param owner owner of the token to burn\n     * @param tokenId uint256 ID of the token being burned\n     */\n    function burn(address owner, uint256 tokenId) public {\n        super._burn(owner, tokenId,1);\n\n        _removeTokenFromOwnerEnumeration(owner, tokenId);\n        // Since tokenId will be deleted, we can clear its slot in _ownedTokensIndex to trigger a gas refund\n        _ownedTokensIndex[tokenId] = 0;\n\n        _removeTokenFromAllTokensEnumeration(tokenId);\n    }\n\n    /**\n     * @dev Private function to remove a token from this extension's ownership-tracking data structures. Note that\n     * while the token is not assigned a new owner, the `_ownedTokensIndex` mapping is _not_ updated: this allows for\n     * gas optimizations e.g. when performing a transfer operation (avoiding double writes).\n     * This has O(1) time complexity, but alters the order of the _ownedTokens array.\n     * @param from address representing the previous owner of the given token ID\n     * @param tokenId uint256 ID of the token to be removed from the tokens list of the given address\n     */\n    function _removeTokenFromOwnerEnumeration(address from, uint256 tokenId) private {\n        // To prevent a gap in from's tokens array, we store the last token in the index of the token to delete, and\n        // then delete the last slot (swap and pop).\n\n        uint256 lastTokenIndex = _ownedTokens[from].length.sub(1);\n        uint256 tokenIndex = _ownedTokensIndex[tokenId];\n\n        // When the token to delete is the last token, the swap operation is unnecessary\n        if (tokenIndex != lastTokenIndex) {\n            uint256 lastTokenId = _ownedTokens[from][lastTokenIndex];\n\n            _ownedTokens[from][tokenIndex] = lastTokenId; // Move the last token to the slot of the to-delete token\n            _ownedTokensIndex[lastTokenId] = tokenIndex; // Update the moved token's index\n        }\n\n        // This also deletes the contents at the last position of the array\n        _ownedTokens[from].pop();\n\n        // Note that _ownedTokensIndex[tokenId] hasn't been cleared: it still points to the old slot (now occupied by\n        // lastTokenId, or just over the end of the array if the token was the last one).\n    }\n\n     /**\n     * @dev Private function to remove a token from this extension's token tracking data structures.\n     * This has O(1) time complexity, but alters the order of the _allTokens array.\n     * @param tokenId uint256 ID of the token to be removed from the tokens list\n     */\n    function _removeTokenFromAllTokensEnumeration(uint256 tokenId) private {\n        // To prevent a gap in the tokens array, we store the last token in the index of the token to delete, and\n        // then delete the last slot (swap and pop).\n\n        uint256 lastTokenIndex = _allTokens.length.sub(1);\n        uint256 tokenIndex = _allTokensIndex[tokenId];\n\n        // When the token to delete is the last token, the swap operation is unnecessary. However, since this occurs so\n        // rarely (when the last minted token is burnt) that we still do the swap here to avoid the gas cost of adding\n        // an 'if' statement (like in _removeTokenFromOwnerEnumeration)\n        uint256 lastTokenId = _allTokens[lastTokenIndex];\n\n        _allTokens[tokenIndex] = lastTokenId; // Move the last token to the slot of the to-delete token\n        _allTokensIndex[lastTokenId] = tokenIndex; // Update the moved token's index\n\n        // This also deletes the contents at the last position of the array\n        _allTokens.pop();\n        _allTokensIndex[tokenId] = 0;\n    }\n}",
  "sourcePath": "/Users/wangban/Downloads/money/coin/chk/chksol/contracts/Ticket1155Nft.sol",
  "compiler": {
    "name": "solc",
    "version": "0.6.2+commit.bacdbe57.Emscripten.clang"
  },
  "schemaVersion": "3.2.0",
  "updatedAt": "2021-01-04T15:08:56.864Z",
  "devdoc": {
    "methods": {
      "balanceOf(address,uint256)": {
        "details": "See {IERC1155-balanceOf}.     * Requirements:     * - `account` cannot be the zero address."
      },
      "balanceOfBatch(address[],uint256[])": {
        "details": "See {IERC1155-balanceOfBatch}.     * Requirements:     * - `accounts` and `ids` must have the same length."
      },
      "burn(address,uint256)": {
        "details": "Internal function to burn a specific token. Reverts if the token does not exist. Deprecated, use {ERC721-_burn} instead.",
        "params": {
          "owner": "owner of the token to burn",
          "tokenId": "uint256 ID of the token being burned"
        }
      },
      "isApprovedForAll(address,address)": {
        "details": "See {IERC1155-isApprovedForAll}."
      },
      "setApprovalForAll(address,bool)": {
        "details": "See {IERC1155-setApprovalForAll}."
      },
      "supportsInterface(bytes4)": {
        "details": "See {IERC165-supportsInterface}.     * Time complexity O(1), guaranteed to always use less than 30 000 gas."
      },
      "totalSupply()": {
        "details": "Gets the total amount of tokens stored by the contract.",
        "returns": {
          "_0": "uint256 representing the total amount of tokens"
        }
      }
    }
  },
  "userdoc": {
    "methods": {}
  }
}