{
  "contractName": "TicketShop",
  "abi": [
    {
      "inputs": [
        {
          "internalType": "address",
          "name": "_ticketNft",
          "type": "address"
        },
        {
          "internalType": "contract Invite",
          "name": "_invite",
          "type": "address"
        },
        {
          "internalType": "contract Chicken20",
          "name": "_chicken20",
          "type": "address"
        }
      ],
      "stateMutability": "nonpayable",
      "type": "constructor"
    },
    {
      "anonymous": false,
      "inputs": [
        {
          "indexed": false,
          "internalType": "uint256",
          "name": "count",
          "type": "uint256"
        }
      ],
      "name": "AddTicketCount",
      "type": "event"
    },
    {
      "anonymous": false,
      "inputs": [
        {
          "indexed": false,
          "internalType": "address",
          "name": "seller",
          "type": "address"
        },
        {
          "indexed": false,
          "internalType": "address",
          "name": "buyer",
          "type": "address"
        },
        {
          "indexed": false,
          "internalType": "uint256",
          "name": "tokenId",
          "type": "uint256"
        },
        {
          "indexed": false,
          "internalType": "uint256",
          "name": "price",
          "type": "uint256"
        }
      ],
      "name": "BuySellerTicket",
      "type": "event"
    },
    {
      "anonymous": false,
      "inputs": [
        {
          "indexed": false,
          "internalType": "address",
          "name": "buyer",
          "type": "address"
        },
        {
          "indexed": false,
          "internalType": "uint256",
          "name": "tokenId",
          "type": "uint256"
        }
      ],
      "name": "BuyTicket",
      "type": "event"
    },
    {
      "anonymous": false,
      "inputs": [
        {
          "indexed": false,
          "internalType": "address",
          "name": "seller",
          "type": "address"
        },
        {
          "indexed": false,
          "internalType": "uint256",
          "name": "tokenId",
          "type": "uint256"
        },
        {
          "indexed": false,
          "internalType": "uint256",
          "name": "price",
          "type": "uint256"
        }
      ],
      "name": "SellTicker",
      "type": "event"
    },
    {
      "inputs": [
        {
          "internalType": "uint256",
          "name": "",
          "type": "uint256"
        }
      ],
      "name": "_allTokensIndex",
      "outputs": [
        {
          "internalType": "uint256",
          "name": "",
          "type": "uint256"
        }
      ],
      "stateMutability": "view",
      "type": "function"
    },
    {
      "inputs": [],
      "name": "platform",
      "outputs": [
        {
          "internalType": "address",
          "name": "",
          "type": "address"
        }
      ],
      "stateMutability": "view",
      "type": "function"
    },
    {
      "inputs": [
        {
          "internalType": "uint256",
          "name": "",
          "type": "uint256"
        }
      ],
      "name": "shopIds",
      "outputs": [
        {
          "internalType": "uint256",
          "name": "",
          "type": "uint256"
        }
      ],
      "stateMutability": "view",
      "type": "function"
    },
    {
      "inputs": [
        {
          "internalType": "uint256",
          "name": "",
          "type": "uint256"
        }
      ],
      "name": "shopMap",
      "outputs": [
        {
          "internalType": "address",
          "name": "seller",
          "type": "address"
        },
        {
          "internalType": "uint256",
          "name": "price",
          "type": "uint256"
        },
        {
          "internalType": "address",
          "name": "buyer",
          "type": "address"
        }
      ],
      "stateMutability": "view",
      "type": "function"
    },
    {
      "inputs": [],
      "name": "ticketPrice",
      "outputs": [
        {
          "internalType": "uint256",
          "name": "",
          "type": "uint256"
        }
      ],
      "stateMutability": "view",
      "type": "function"
    },
    {
      "inputs": [],
      "name": "totalTicket",
      "outputs": [
        {
          "internalType": "uint256",
          "name": "",
          "type": "uint256"
        }
      ],
      "stateMutability": "view",
      "type": "function"
    },
    {
      "inputs": [],
      "name": "getShopItems",
      "outputs": [
        {
          "internalType": "uint256[]",
          "name": "_shopIds",
          "type": "uint256[]"
        }
      ],
      "stateMutability": "view",
      "type": "function"
    },
    {
      "inputs": [
        {
          "internalType": "address",
          "name": "_ticketNft",
          "type": "address"
        },
        {
          "internalType": "contract Invite",
          "name": "_invite",
          "type": "address"
        },
        {
          "internalType": "contract Chicken20",
          "name": "_chicken20",
          "type": "address"
        }
      ],
      "name": "setTokenParam",
      "outputs": [],
      "stateMutability": "nonpayable",
      "type": "function"
    },
    {
      "inputs": [
        {
          "internalType": "uint256",
          "name": "_ticketPrice",
          "type": "uint256"
        }
      ],
      "name": "setTickPrice",
      "outputs": [],
      "stateMutability": "nonpayable",
      "type": "function"
    },
    {
      "inputs": [
        {
          "internalType": "address",
          "name": "_platform",
          "type": "address"
        }
      ],
      "name": "setPlatForm",
      "outputs": [],
      "stateMutability": "nonpayable",
      "type": "function"
    },
    {
      "inputs": [
        {
          "internalType": "uint256",
          "name": "_rate",
          "type": "uint256"
        }
      ],
      "name": "setPlatFormRate",
      "outputs": [],
      "stateMutability": "nonpayable",
      "type": "function"
    },
    {
      "inputs": [
        {
          "internalType": "uint256",
          "name": "_tokenId",
          "type": "uint256"
        },
        {
          "internalType": "uint256",
          "name": "_price",
          "type": "uint256"
        }
      ],
      "name": "sellTicker",
      "outputs": [],
      "stateMutability": "nonpayable",
      "type": "function"
    },
    {
      "inputs": [
        {
          "internalType": "uint256",
          "name": "_tokenId",
          "type": "uint256"
        }
      ],
      "name": "buySellerTicket",
      "outputs": [],
      "stateMutability": "payable",
      "type": "function"
    },
    {
      "inputs": [],
      "name": "buyTicket",
      "outputs": [],
      "stateMutability": "payable",
      "type": "function"
    },
    {
      "inputs": [],
      "name": "addTest",
      "outputs": [],
      "stateMutability": "nonpayable",
      "type": "function"
    },
    {
      "inputs": [
        {
          "internalType": "uint256",
          "name": "_count",
          "type": "uint256"
        }
      ],
      "name": "addTicketCount",
      "outputs": [],
      "stateMutability": "nonpayable",
      "type": "function"
    },
    {
      "inputs": [
        {
          "internalType": "address",
          "name": "operator",
          "type": "address"
        },
        {
          "internalType": "address",
          "name": "from",
          "type": "address"
        },
        {
          "internalType": "uint256",
          "name": "id",
          "type": "uint256"
        },
        {
          "internalType": "uint256",
          "name": "value",
          "type": "uint256"
        },
        {
          "internalType": "bytes",
          "name": "data",
          "type": "bytes"
        }
      ],
      "name": "onERC1155Received",
      "outputs": [
        {
          "internalType": "bytes4",
          "name": "",
          "type": "bytes4"
        }
      ],
      "stateMutability": "nonpayable",
      "type": "function"
    },
    {
      "inputs": [
        {
          "internalType": "address",
          "name": "operator",
          "type": "address"
        },
        {
          "internalType": "address",
          "name": "from",
          "type": "address"
        },
        {
          "internalType": "uint256[]",
          "name": "ids",
          "type": "uint256[]"
        },
        {
          "internalType": "uint256[]",
          "name": "values",
          "type": "uint256[]"
        },
        {
          "internalType": "bytes",
          "name": "data",
          "type": "bytes"
        }
      ],
      "name": "onERC1155BatchReceived",
      "outputs": [
        {
          "internalType": "bytes4",
          "name": "",
          "type": "bytes4"
        }
      ],
      "stateMutability": "nonpayable",
      "type": "function"
    }
  ],
  "bytecode": "0x60806040526103e860045567016345785d8a00006009556005600a557388887ed889e776bcbe2f0f9932ecfabcdfcd1820600b60006101000a81548173ffffffffffffffffffffffffffffffffffffffff021916908373ffffffffffffffffffffffffffffffffffffffff16021790555034801561007c57600080fd5b506040516124453803806124458339818101604052606081101561009f57600080fd5b81019080805190602001909291908051906020019092919080519060200190929190505050600b60009054906101000a900473ffffffffffffffffffffffffffffffffffffffff1673ffffffffffffffffffffffffffffffffffffffff166329965a1d307fb281fc8c12954d22544db45de3159a39272895b169a852b314f9cc762e44c53b60001b306040518463ffffffff1660e01b8152600401808473ffffffffffffffffffffffffffffffffffffffff1673ffffffffffffffffffffffffffffffffffffffff1681526020018381526020018273ffffffffffffffffffffffffffffffffffffffff1673ffffffffffffffffffffffffffffffffffffffff1681526020019350505050600060405180830381600087803b1580156101c457600080fd5b505af11580156101d8573d6000803e3d6000fd5b50505050336000806101000a81548173ffffffffffffffffffffffffffffffffffffffff021916908373ffffffffffffffffffffffffffffffffffffffff16021790555082600160006101000a81548173ffffffffffffffffffffffffffffffffffffffff021916908373ffffffffffffffffffffffffffffffffffffffff16021790555081600260006101000a81548173ffffffffffffffffffffffffffffffffffffffff021916908373ffffffffffffffffffffffffffffffffffffffff16021790555080600360006101000a81548173ffffffffffffffffffffffffffffffffffffffff021916908373ffffffffffffffffffffffffffffffffffffffff160217905550505050612154806102f16000396000f3fe6080604052600436106101095760003560e01c8063980a0f2a11610095578063bc197c8111610064578063bc197c811461052e578063e0ca908f146106f0578063e65387fc1461071e578063edca914c14610759578063f23a6e611461076357610109565b8063980a0f2a14610414578063a726366514610465578063ac5941d9146104b4578063b8a283361461050357610109565b80634bde38c8116100dc5780634bde38c8146101d05780634d2388fa146102275780635785bca41461026257806357f86e4b146102f357806365e17540146103a857610109565b80631209b1f61461010e5780632282f4da14610139578063378bef8a1461017e5780634aa8f10d146101b9575b600080fd5b34801561011a57600080fd5b5061012361088f565b6040518082815260200191505060405180910390f35b34801561014557600080fd5b5061017c6004803603604081101561015c57600080fd5b810190808035906020019092919080359060200190929190505050610895565b005b34801561018a57600080fd5b506101b7600480360360208110156101a157600080fd5b81019080803590602001909291905050506109c1565b005b3480156101c557600080fd5b506101ce610ad8565b005b3480156101dc57600080fd5b506101e5610c84565b604051808273ffffffffffffffffffffffffffffffffffffffff1673ffffffffffffffffffffffffffffffffffffffff16815260200191505060405180910390f35b34801561023357600080fd5b506102606004803603602081101561024a57600080fd5b8101908080359060200190929190505050610caa565b005b34801561026e57600080fd5b506102f16004803603606081101561028557600080fd5b81019080803573ffffffffffffffffffffffffffffffffffffffff169060200190929190803573ffffffffffffffffffffffffffffffffffffffff169060200190929190803573ffffffffffffffffffffffffffffffffffffffff169060200190929190505050610d76565b005b3480156102ff57600080fd5b5061032c6004803603602081101561031657600080fd5b8101908080359060200190929190505050610e3e565b604051808473ffffffffffffffffffffffffffffffffffffffff1673ffffffffffffffffffffffffffffffffffffffff1681526020018381526020018273ffffffffffffffffffffffffffffffffffffffff1673ffffffffffffffffffffffffffffffffffffffff168152602001935050505060405180910390f35b3480156103b457600080fd5b506103bd610ea8565b6040518080602001828103825283818151815260200191508051906020019060200280838360005b838110156104005780820151818401526020810190506103e5565b505050509050019250505060405180910390f35b34801561042057600080fd5b506104636004803603602081101561043757600080fd5b81019080803573ffffffffffffffffffffffffffffffffffffffff169060200190929190505050610f00565b005b34801561047157600080fd5b5061049e6004803603602081101561048857600080fd5b8101908080359060200190929190505050611006565b6040518082815260200191505060405180910390f35b3480156104c057600080fd5b506104ed600480360360208110156104d757600080fd5b810190808035906020019092919050505061101e565b6040518082815260200191505060405180910390f35b34801561050f57600080fd5b5061051861103f565b6040518082815260200191505060405180910390f35b34801561053a57600080fd5b5061069c600480360360a081101561055157600080fd5b81019080803573ffffffffffffffffffffffffffffffffffffffff169060200190929190803573ffffffffffffffffffffffffffffffffffffffff169060200190929190803590602001906401000000008111156105ae57600080fd5b8201836020820111156105c057600080fd5b803590602001918460208302840111640100000000831117156105e257600080fd5b90919293919293908035906020019064010000000081111561060357600080fd5b82018360208201111561061557600080fd5b8035906020019184602083028401116401000000008311171561063757600080fd5b90919293919293908035906020019064010000000081111561065857600080fd5b82018360208201111561066a57600080fd5b8035906020019184600183028401116401000000008311171561068c57600080fd5b9091929391929390505050611045565b60405180827bffffffffffffffffffffffffffffffffffffffffffffffffffffffff19167bffffffffffffffffffffffffffffffffffffffffffffffffffffffff1916815260200191505060405180910390f35b61071c6004803603602081101561070657600080fd5b810190808035906020019092919050505061106e565b005b34801561072a57600080fd5b506107576004803603602081101561074157600080fd5b8101908080359060200190929190505050611415565b005b6107616114e1565b005b34801561076f57600080fd5b5061083b600480360360a081101561078657600080fd5b81019080803573ffffffffffffffffffffffffffffffffffffffff169060200190929190803573ffffffffffffffffffffffffffffffffffffffff1690602001909291908035906020019092919080359060200190929190803590602001906401000000008111156107f757600080fd5b82018360208201111561080957600080fd5b8035906020019184600183028401116401000000008311171561082b57600080fd5b9091929391929390505050611a78565b60405180827bffffffffffffffffffffffffffffffffffffffffffffffffffffffff19167bffffffffffffffffffffffffffffffffffffffffffffffffffffffff1916815260200191505060405180910390f35b60095481565b6000600660008481526020019081526020016000209050338160000160006101000a81548173ffffffffffffffffffffffffffffffffffffffff021916908373ffffffffffffffffffffffffffffffffffffffff16021790555081816001018190555060058054905060076000858152602001908152602001600020819055506005839080600181540180825580915050600190039060005260206000200160009091909190915055610949333085611a9f565b7fa4ded55a220657ad8f98e413fb82d16439b38daa30959f3fbd310e04e604bffe338484604051808473ffffffffffffffffffffffffffffffffffffffff1673ffffffffffffffffffffffffffffffffffffffff168152602001838152602001828152602001935050505060405180910390a1505050565b6000809054906101000a900473ffffffffffffffffffffffffffffffffffffffff1673ffffffffffffffffffffffffffffffffffffffff163373ffffffffffffffffffffffffffffffffffffffff1614610a83576040517f08c379a00000000000000000000000000000000000000000000000000000000081526004018080602001828103825260098152602001807f4e6f74206f776e6572000000000000000000000000000000000000000000000081525060200191505060405180910390fd5b610a9881600454611bb690919063ffffffff16565b6004819055507fa4eff77179922291edeec8715f3ec9e4c9057833c1e7844d5df8234b2107df4c816040518082815260200191505060405180910390a150565b600360009054906101000a900473ffffffffffffffffffffffffffffffffffffffff1673ffffffffffffffffffffffffffffffffffffffff16636039fbdb33674563918244f400006040518363ffffffff1660e01b8152600401808373ffffffffffffffffffffffffffffffffffffffff1673ffffffffffffffffffffffffffffffffffffffff16815260200182815260200192505050600060405180830381600087803b158015610b8957600080fd5b505af1158015610b9d573d6000803e3d6000fd5b505050506000600160009054906101000a900473ffffffffffffffffffffffffffffffffffffffff1673ffffffffffffffffffffffffffffffffffffffff16636a627842336040518263ffffffff1660e01b8152600401808273ffffffffffffffffffffffffffffffffffffffff1673ffffffffffffffffffffffffffffffffffffffff168152602001915050602060405180830381600087803b158015610c4457600080fd5b505af1158015610c58573d6000803e3d6000fd5b505050506040513d6020811015610c6e57600080fd5b8101908080519060200190929190505050905050565b600860009054906101000a900473ffffffffffffffffffffffffffffffffffffffff1681565b6000809054906101000a900473ffffffffffffffffffffffffffffffffffffffff1673ffffffffffffffffffffffffffffffffffffffff163373ffffffffffffffffffffffffffffffffffffffff1614610d6c576040517f08c379a00000000000000000000000000000000000000000000000000000000081526004018080602001828103825260098152602001807f4e6f74206f776e6572000000000000000000000000000000000000000000000081525060200191505060405180910390fd5b8060098190555050565b82600160006101000a81548173ffffffffffffffffffffffffffffffffffffffff021916908373ffffffffffffffffffffffffffffffffffffffff16021790555081600260006101000a81548173ffffffffffffffffffffffffffffffffffffffff021916908373ffffffffffffffffffffffffffffffffffffffff16021790555080600360006101000a81548173ffffffffffffffffffffffffffffffffffffffff021916908373ffffffffffffffffffffffffffffffffffffffff160217905550505050565b60066020528060005260406000206000915090508060000160009054906101000a900473ffffffffffffffffffffffffffffffffffffffff16908060010154908060020160009054906101000a900473ffffffffffffffffffffffffffffffffffffffff16905083565b60606005805480602002602001604051908101604052809291908181526020018280548015610ef657602002820191906000526020600020905b815481526020019060010190808311610ee2575b5050505050905090565b6000809054906101000a900473ffffffffffffffffffffffffffffffffffffffff1673ffffffffffffffffffffffffffffffffffffffff163373ffffffffffffffffffffffffffffffffffffffff1614610fc2576040517f08c379a00000000000000000000000000000000000000000000000000000000081526004018080602001828103825260098152602001807f4e6f74206f776e6572000000000000000000000000000000000000000000000081525060200191505060405180910390fd5b80600860006101000a81548173ffffffffffffffffffffffffffffffffffffffff021916908373ffffffffffffffffffffffffffffffffffffffff16021790555050565b60076020528060005260406000206000915090505481565b6005818154811061102b57fe5b906000526020600020016000915090505481565b60045481565b600060405180806120a66041913960410190506040518091039020905098975050505050505050565b600060066000838152602001908152602001600020905060003490503373ffffffffffffffffffffffffffffffffffffffff168260000160009054906101000a900473ffffffffffffffffffffffffffffffffffffffff1673ffffffffffffffffffffffffffffffffffffffff161415611150576040517f08c379a00000000000000000000000000000000000000000000000000000000081526004018080602001828103825260108152602001807f43616e206e6f74206275792073656c660000000000000000000000000000000081525060200191505060405180910390fd5b816001015481146111c9576040517f08c379a000000000000000000000000000000000000000000000000000000000815260040180806020018281038252600b8152602001807f50726963652077726f6e6700000000000000000000000000000000000000000081525060200191505060405180910390fd5b600860009054906101000a900473ffffffffffffffffffffffffffffffffffffffff1673ffffffffffffffffffffffffffffffffffffffff166108fc61122d606461121f600a5486611c3e90919063ffffffff16565b611cc490919063ffffffff16565b9081150290604051600060405180830381858888f19350505050158015611258573d6000803e3d6000fd5b508160000160009054906101000a900473ffffffffffffffffffffffffffffffffffffffff1673ffffffffffffffffffffffffffffffffffffffff166108fc6112c260646112b4600a5460640386611c3e90919063ffffffff16565b611cc490919063ffffffff16565b9081150290604051600060405180830381858888f193505050501580156112ed573d6000803e3d6000fd5b506112f9303385611a9f565b7fd45c773652144cb1eb58e95e7dee7b2f8a115622f3ea23fd488856cda28e2a6b8260000160009054906101000a900473ffffffffffffffffffffffffffffffffffffffff16338584604051808573ffffffffffffffffffffffffffffffffffffffff1673ffffffffffffffffffffffffffffffffffffffff1681526020018473ffffffffffffffffffffffffffffffffffffffff1673ffffffffffffffffffffffffffffffffffffffff16815260200183815260200182815260200194505050505060405180910390a1338260020160006101000a81548173ffffffffffffffffffffffffffffffffffffffff021916908373ffffffffffffffffffffffffffffffffffffffff16021790555061141083611d0e565b505050565b6000809054906101000a900473ffffffffffffffffffffffffffffffffffffffff1673ffffffffffffffffffffffffffffffffffffffff163373ffffffffffffffffffffffffffffffffffffffff16146114d7576040517f08c379a00000000000000000000000000000000000000000000000000000000081526004018080602001828103825260098152602001807f4e6f74206f776e6572000000000000000000000000000000000000000000000081525060200191505060405180910390fd5b80600a8190555050565b600060045411611559576040517f08c379a00000000000000000000000000000000000000000000000000000000081526004018080602001828103825260138152602001807f4e6f207469636b65742c2073656c6c206f75740000000000000000000000000081525060200191505060405180910390fd5b6000600160009054906101000a900473ffffffffffffffffffffffffffffffffffffffff1673ffffffffffffffffffffffffffffffffffffffff16636a627842336040518263ffffffff1660e01b8152600401808273ffffffffffffffffffffffffffffffffffffffff1673ffffffffffffffffffffffffffffffffffffffff168152602001915050602060405180830381600087803b1580156115fc57600080fd5b505af1158015611610573d6000803e3d6000fd5b505050506040513d602081101561162657600080fd5b8101908080519060200190929190505050905061164f6001600454611dd390919063ffffffff16565b6004819055506000600260009054906101000a900473ffffffffffffffffffffffffffffffffffffffff1673ffffffffffffffffffffffffffffffffffffffff1663732cfca0336040518263ffffffff1660e01b8152600401808273ffffffffffffffffffffffffffffffffffffffff1673ffffffffffffffffffffffffffffffffffffffff16815260200191505060206040518083038186803b1580156116f657600080fd5b505afa15801561170a573d6000803e3d6000fd5b505050506040513d602081101561172057600080fd5b8101908080519060200190929190505050905060008073ffffffffffffffffffffffffffffffffffffffff168273ffffffffffffffffffffffffffffffffffffffff16146118e95761179a8261179560646117876006600954611c3e90919063ffffffff16565b611cc490919063ffffffff16565b611e1d565b6000600260009054906101000a900473ffffffffffffffffffffffffffffffffffffffff1673ffffffffffffffffffffffffffffffffffffffff1663732cfca0846040518263ffffffff1660e01b8152600401808273ffffffffffffffffffffffffffffffffffffffff1673ffffffffffffffffffffffffffffffffffffffff16815260200191505060206040518083038186803b15801561183b57600080fd5b505afa15801561184f573d6000803e3d6000fd5b505050506040513d602081101561186557600080fd5b8101908080519060200190929190505050905060069150600073ffffffffffffffffffffffffffffffffffffffff168373ffffffffffffffffffffffffffffffffffffffff16146118e7576118e2816118dd60646118cf6004600954611c3e90919063ffffffff16565b611cc490919063ffffffff16565b611e1d565b600a91505b505b61193f600860009054906101000a900473ffffffffffffffffffffffffffffffffffffffff1661193a606461192c85606403600954611c3e90919063ffffffff16565b611cc490919063ffffffff16565b611e1d565b600360009054906101000a900473ffffffffffffffffffffffffffffffffffffffff1673ffffffffffffffffffffffffffffffffffffffff16636039fbdb33674563918244f400006040518363ffffffff1660e01b8152600401808373ffffffffffffffffffffffffffffffffffffffff1673ffffffffffffffffffffffffffffffffffffffff16815260200182815260200192505050600060405180830381600087803b1580156119f057600080fd5b505af1158015611a04573d6000803e3d6000fd5b505050507f2a3164428cba5dad15f5ffe47e10cbefdcbbe9e269fd482753982ee8b2648c3e3384604051808373ffffffffffffffffffffffffffffffffffffffff1673ffffffffffffffffffffffffffffffffffffffff1681526020018281526020019250505060405180910390a1505050565b600060405180806120e7603891396038019050604051809103902090509695505050505050565b600160009054906101000a900473ffffffffffffffffffffffffffffffffffffffff1673ffffffffffffffffffffffffffffffffffffffff1663f242432a84848460016040518563ffffffff1660e01b8152600401808573ffffffffffffffffffffffffffffffffffffffff1673ffffffffffffffffffffffffffffffffffffffff1681526020018473ffffffffffffffffffffffffffffffffffffffff1673ffffffffffffffffffffffffffffffffffffffff1681526020018381526020018281526020018060200182810382526000815260200160200195505050505050600060405180830381600087803b158015611b9957600080fd5b505af1158015611bad573d6000803e3d6000fd5b50505050505050565b600080828401905083811015611c34576040517f08c379a000000000000000000000000000000000000000000000000000000000815260040180806020018281038252601b8152602001807f536166654d6174683a206164646974696f6e206f766572666c6f77000000000081525060200191505060405180910390fd5b8091505092915050565b600080831415611c515760009050611cbe565b6000828402905082848281611c6257fe5b0414611cb9576040517f08c379a00000000000000000000000000000000000000000000000000000000081526004018080602001828103825260218152602001806120856021913960400191505060405180910390fd5b809150505b92915050565b6000611d0683836040518060400160405280601a81526020017f536166654d6174683a206469766973696f6e206279207a65726f000000000000815250611efe565b905092915050565b6000611d296001600580549050611dd390919063ffffffff16565b9050600060076000848152602001908152602001600020549050600060058381548110611d5257fe5b906000526020600020015490508060058381548110611d6d57fe5b90600052602060002001819055508160076000838152602001908152602001600020819055506005805480611d9e57fe5b600190038181906000526020600020016000905590556000600760008681526020019081526020016000208190555050505050565b6000611e1583836040518060400160405280601e81526020017f536166654d6174683a207375627472616374696f6e206f766572666c6f770000815250611fc4565b905092915050565b60008273ffffffffffffffffffffffffffffffffffffffff168260405180600001905060006040518083038185875af1925050503d8060008114611e7d576040519150601f19603f3d011682016040523d82523d6000602084013e611e82565b606091505b5050905080611ef9576040517f08c379a00000000000000000000000000000000000000000000000000000000081526004018080602001828103825260128152602001807f5452414e5346455220455448204552524f52000000000000000000000000000081525060200191505060405180910390fd5b505050565b60008083118290611faa576040517f08c379a00000000000000000000000000000000000000000000000000000000081526004018080602001828103825283818151815260200191508051906020019080838360005b83811015611f6f578082015181840152602081019050611f54565b50505050905090810190601f168015611f9c5780820380516001836020036101000a031916815260200191505b509250505060405180910390fd5b506000838581611fb657fe5b049050809150509392505050565b6000838311158290612071576040517f08c379a00000000000000000000000000000000000000000000000000000000081526004018080602001828103825283818151815260200191508051906020019080838360005b8381101561203657808201518184015260208101905061201b565b50505050905090810190601f1680156120635780820380516001836020036101000a031916815260200191505b509250505060405180910390fd5b506000838503905080915050939250505056fe536166654d6174683a206d756c7469706c69636174696f6e206f766572666c6f776f6e455243313135354261746368526563656976656428616464726573732c616464726573732c75696e743235365b5d2c75696e743235365b5d2c6279746573296f6e45524331313535526563656976656428616464726573732c616464726573732c75696e743235362c75696e743235362c627974657329a2646970667358221220f5d2e8e166090940a9608981bfd62b165647b3941ed131f43d5e6d9c90e8750764736f6c63430006020033",
  "source": "pragma solidity 0.6.2;\n\nimport \"@openzeppelin/contracts/math/SafeMath.sol\";\n\nimport \"@openzeppelin/contracts/token/ERC777/IERC777Recipient.sol\";\nimport \"@openzeppelin/contracts/token/ERC777/IERC777.sol\";\nimport \"@openzeppelin/contracts/introspection/IERC1820Registry.sol\";\n\ninterface TicketNft{\n    function mint(address player) external returns (uint256);\n    function safeTransferFrom(\n        address from,\n        address to,\n        uint256 tokenId,\n        uint256 amount,\n        bytes calldata data\n    ) external;\n}\n\ninterface Chicken20{\n    function addTokens(address _address,uint256 _amount) external;\n}\n\ninterface Invite{\n    function getUserSimpleInfo(address _address) view external returns(address referrer);\n}\n\ncontract TicketShop{\n\n    event BuyTicket(address buyer, uint256 tokenId);\n    event AddTicketCount(uint256 count);\n    event BuySellerTicket(address seller,address buyer,uint256 tokenId,uint256 price);\n    event SellTicker(address seller,uint256 tokenId,uint256 price);\n\n    using SafeMath for uint256;\n\n    address ticketShopOwner;\n\n    TicketNft ticketNft;\n\n    Invite invite;\n\n    Chicken20 chicken20;\n\n    uint256 public totalTicket = 1000;\n\n    uint256[] public shopIds;\n\n    mapping(uint256 => Shop) public shopMap;\n    mapping(uint256 => uint256) public _allTokensIndex;\n\n    address public platform;\n\n    uint256 public ticketPrice = 0.1e18;\n\n    uint256 rate = 5;\n\n    struct Shop{\n        address seller;\n        uint256 price;\n        address buyer;\n    }\n\n    modifier onlyOwner(){\n        require(msg.sender == ticketShopOwner,\"Not owner\");\n        _;\n    }\n\n    IERC1820Registry private _erc1820 = IERC1820Registry(0x88887eD889e776bCBe2f0f9932EcFaBcDfCd1820);\n\n    // keccak256(\"ERC777TokensRecipient\")\n    bytes32 constant private TOKENS_RECIPIENT_INTERFACE_HASH =\n        0xb281fc8c12954d22544db45de3159a39272895b169a852b314f9cc762e44c53b;\n\n    constructor(address _ticketNft, Invite _invite, Chicken20 _chicken20) public{\n        _erc1820.setInterfaceImplementer(address(this), TOKENS_RECIPIENT_INTERFACE_HASH, address(this));\n        ticketShopOwner = msg.sender;\n        ticketNft = TicketNft(_ticketNft);\n        invite = _invite;\n        chicken20 = _chicken20;\n    }\n\n    function getShopItems() view public returns(uint256[] memory _shopIds){\n        return shopIds;\n    }\n\n    function setTokenParam(address _ticketNft, Invite _invite, Chicken20 _chicken20) public{\n        ticketNft = TicketNft(_ticketNft);\n        invite = _invite;\n        chicken20 = _chicken20;\n    }\n\n    function setTickPrice(uint256 _ticketPrice) public onlyOwner{\n        ticketPrice = _ticketPrice;\n    }\n\n    function setPlatForm(address _platform) public onlyOwner{\n        platform = _platform;\n    }\n\n    function setPlatFormRate(uint256 _rate) public onlyOwner{\n        rate = _rate;\n    }\n\n    function sellTicker(uint256 _tokenId,uint256 _price) public{\n        Shop storage shop = shopMap[_tokenId];\n        shop.seller = msg.sender;\n        shop.price = _price;\n        _allTokensIndex[_tokenId] = shopIds.length;\n        shopIds.push(_tokenId);\n        transfer1155(msg.sender,address(this),_tokenId);\n        emit SellTicker(msg.sender, _tokenId, _price);\n    }\n\n    function buySellerTicket(uint256 _tokenId) payable public{\n        Shop storage shop=shopMap[_tokenId];\n        uint256 _price = msg.value;\n        require(shop.seller!=msg.sender,\"Can not buy self\");\n        require(_price==shop.price,\"Price wrong\");\n        address(uint160(platform)).transfer(_price.mul(rate).div(100));\n        address(uint160(shop.seller)).transfer(_price.mul(100-rate).div(100));\n        //721\n        // ticketNft.transferFrom(address(this), msg.sender, _tokenId);\n        //1155\n        transfer1155(address(this),msg.sender,_tokenId);\n        emit BuySellerTicket(shop.seller, msg.sender, _tokenId, _price);\n        shop.buyer = msg.sender;\n        _removeTokenFromShop(_tokenId);\n    }\n\n    function buyTicket() payable public{\n        require(totalTicket > 0,\"No ticket, sell out\");\n        // nft 1155\n        uint256 _tokenId = ticketNft.mint(msg.sender);\n        totalTicket = totalTicket.sub(1);\n        address parent = invite.getUserSimpleInfo(msg.sender);\n        uint256 am;\n        if(parent!=address(0)){\n            transferEth(parent,ticketPrice.mul(6).div(100));\n            address grandparent = invite.getUserSimpleInfo(parent);\n            am = 6;\n            if(parent!=address(0)){\n                transferEth(grandparent,ticketPrice.mul(4).div(100));\n                am = 10;\n            }\n        }\n        transferEth(platform,ticketPrice.mul(100-am).div(100));\n        //addTokens(address _address,uint256 _amount) \n        chicken20.addTokens(msg.sender,5e18);\n        emit BuyTicket(msg.sender,_tokenId);\n    }\n\n    function addTest() public{\n        chicken20.addTokens(msg.sender,5e18);\n        uint256 _tokenId = ticketNft.mint(msg.sender);\n    }\n\n\n    function addTicketCount(uint256 _count) public onlyOwner{\n        totalTicket= totalTicket.add(_count);\n        emit AddTicketCount(_count);\n    }\n\n    function _removeTokenFromShop(uint256 _tokenId) private {\n        uint256 lastTokenIndex = shopIds.length.sub(1);\n        uint256 tokenIndex = _allTokensIndex[_tokenId];\n\n        uint256 lastTokenId = shopIds[lastTokenIndex];\n\n        shopIds[tokenIndex] = lastTokenId;\n        _allTokensIndex[lastTokenId] = tokenIndex;\n\n        shopIds.pop();\n        _allTokensIndex[_tokenId] = 0;\n    }\n\n    function transferEth(address _address, uint256 _value) internal{\n        (bool res, ) = address(uint160(_address)).call{value:_value}(\"\");\n        require(res,\"TRANSFER ETH ERROR\");\n    }\n\n    function transfer1155(address _from,address _to,uint256 _tokenId) internal{\n        ticketNft.safeTransferFrom(_from,_to,_tokenId,1,\"\");\n    }\n\n     //-----------\n    function onERC1155Received(\n        address operator,\n        address from,\n        uint256 id,\n        uint256 value,\n        bytes calldata data\n    )external returns(bytes4){\n       return bytes4(keccak256(\"onERC1155Received(address,address,uint256,uint256,bytes)\"));\n    }\n\n    function onERC1155BatchReceived(\n        address operator,\n        address from,\n        uint256[] calldata ids,\n        uint256[] calldata values,\n        bytes calldata data\n    )external returns(bytes4){\n        return bytes4(keccak256(\"onERC1155BatchReceived(address,address,uint256[],uint256[],bytes)\"));\n    }\n}\n",
  "sourcePath": "/Users/wangban/Downloads/money/coin/chk/chksol/contracts/TicketShop.sol",
  "compiler": {
    "name": "solc",
    "version": "0.6.2+commit.bacdbe57.Emscripten.clang"
  },
  "schemaVersion": "3.2.0",
  "updatedAt": "2021-01-05T02:53:42.094Z",
  "devdoc": {
    "methods": {}
  },
  "userdoc": {
    "methods": {}
  }
}