{
  "contractName": "TicketShop",
  "abi": [
    {
      "inputs": [
        {
          "internalType": "address",
          "name": "_ticketNft",
          "type": "address"
        },
        {
          "internalType": "contract Invite",
          "name": "_invite",
          "type": "address"
        },
        {
          "internalType": "contract Chicken20",
          "name": "_chicken20",
          "type": "address"
        }
      ],
      "stateMutability": "nonpayable",
      "type": "constructor"
    },
    {
      "anonymous": false,
      "inputs": [
        {
          "indexed": false,
          "internalType": "uint256",
          "name": "count",
          "type": "uint256"
        }
      ],
      "name": "AddTicketCount",
      "type": "event"
    },
    {
      "anonymous": false,
      "inputs": [
        {
          "indexed": false,
          "internalType": "address",
          "name": "seller",
          "type": "address"
        },
        {
          "indexed": false,
          "internalType": "address",
          "name": "buyer",
          "type": "address"
        },
        {
          "indexed": false,
          "internalType": "uint256",
          "name": "tokenId",
          "type": "uint256"
        },
        {
          "indexed": false,
          "internalType": "uint256",
          "name": "price",
          "type": "uint256"
        }
      ],
      "name": "BuySellerTicket",
      "type": "event"
    },
    {
      "anonymous": false,
      "inputs": [
        {
          "indexed": false,
          "internalType": "address",
          "name": "buyer",
          "type": "address"
        },
        {
          "indexed": false,
          "internalType": "uint256",
          "name": "tokenId",
          "type": "uint256"
        }
      ],
      "name": "BuyTicket",
      "type": "event"
    },
    {
      "anonymous": false,
      "inputs": [
        {
          "indexed": false,
          "internalType": "address",
          "name": "seller",
          "type": "address"
        },
        {
          "indexed": false,
          "internalType": "uint256",
          "name": "tokenId",
          "type": "uint256"
        },
        {
          "indexed": false,
          "internalType": "uint256",
          "name": "price",
          "type": "uint256"
        }
      ],
      "name": "CancelShell",
      "type": "event"
    },
    {
      "anonymous": false,
      "inputs": [
        {
          "indexed": false,
          "internalType": "address",
          "name": "seller",
          "type": "address"
        },
        {
          "indexed": false,
          "internalType": "uint256",
          "name": "tokenId",
          "type": "uint256"
        },
        {
          "indexed": false,
          "internalType": "uint256",
          "name": "price",
          "type": "uint256"
        }
      ],
      "name": "SellTicker",
      "type": "event"
    },
    {
      "inputs": [],
      "name": "SPONSOR",
      "outputs": [
        {
          "internalType": "contract SponsorWhitelistControl",
          "name": "",
          "type": "address"
        }
      ],
      "stateMutability": "view",
      "type": "function"
    },
    {
      "inputs": [
        {
          "internalType": "uint256",
          "name": "",
          "type": "uint256"
        }
      ],
      "name": "_allTokensIndex",
      "outputs": [
        {
          "internalType": "uint256",
          "name": "",
          "type": "uint256"
        }
      ],
      "stateMutability": "view",
      "type": "function"
    },
    {
      "inputs": [],
      "name": "platform",
      "outputs": [
        {
          "internalType": "address",
          "name": "",
          "type": "address"
        }
      ],
      "stateMutability": "view",
      "type": "function"
    },
    {
      "inputs": [
        {
          "internalType": "uint256",
          "name": "",
          "type": "uint256"
        }
      ],
      "name": "shopIds",
      "outputs": [
        {
          "internalType": "uint256",
          "name": "",
          "type": "uint256"
        }
      ],
      "stateMutability": "view",
      "type": "function"
    },
    {
      "inputs": [
        {
          "internalType": "uint256",
          "name": "",
          "type": "uint256"
        }
      ],
      "name": "shopMap",
      "outputs": [
        {
          "internalType": "address",
          "name": "seller",
          "type": "address"
        },
        {
          "internalType": "uint256",
          "name": "price",
          "type": "uint256"
        },
        {
          "internalType": "address",
          "name": "buyer",
          "type": "address"
        }
      ],
      "stateMutability": "view",
      "type": "function"
    },
    {
      "inputs": [],
      "name": "ticketPrice",
      "outputs": [
        {
          "internalType": "uint256",
          "name": "",
          "type": "uint256"
        }
      ],
      "stateMutability": "view",
      "type": "function"
    },
    {
      "inputs": [],
      "name": "totalTicket",
      "outputs": [
        {
          "internalType": "uint256",
          "name": "",
          "type": "uint256"
        }
      ],
      "stateMutability": "view",
      "type": "function"
    },
    {
      "inputs": [],
      "name": "getShopItems",
      "outputs": [
        {
          "internalType": "uint256[]",
          "name": "_shopIds",
          "type": "uint256[]"
        }
      ],
      "stateMutability": "view",
      "type": "function"
    },
    {
      "inputs": [
        {
          "internalType": "contract TicketNft",
          "name": "_ticketNft",
          "type": "address"
        },
        {
          "internalType": "contract Invite",
          "name": "_invite",
          "type": "address"
        },
        {
          "internalType": "contract Chicken20",
          "name": "_chicken20",
          "type": "address"
        }
      ],
      "name": "setTokenParam",
      "outputs": [],
      "stateMutability": "nonpayable",
      "type": "function"
    },
    {
      "inputs": [
        {
          "internalType": "uint256",
          "name": "_ticketPrice",
          "type": "uint256"
        }
      ],
      "name": "setTickPrice",
      "outputs": [],
      "stateMutability": "nonpayable",
      "type": "function"
    },
    {
      "inputs": [
        {
          "internalType": "address",
          "name": "_platform",
          "type": "address"
        }
      ],
      "name": "setPlatForm",
      "outputs": [],
      "stateMutability": "nonpayable",
      "type": "function"
    },
    {
      "inputs": [
        {
          "internalType": "uint256",
          "name": "_rate",
          "type": "uint256"
        }
      ],
      "name": "setPlatFormRate",
      "outputs": [],
      "stateMutability": "nonpayable",
      "type": "function"
    },
    {
      "inputs": [
        {
          "internalType": "uint256",
          "name": "_tokenId",
          "type": "uint256"
        },
        {
          "internalType": "uint256",
          "name": "_price",
          "type": "uint256"
        }
      ],
      "name": "sellTicker",
      "outputs": [],
      "stateMutability": "nonpayable",
      "type": "function"
    },
    {
      "inputs": [
        {
          "internalType": "uint256",
          "name": "_tokenId",
          "type": "uint256"
        }
      ],
      "name": "buySellerTicket",
      "outputs": [],
      "stateMutability": "payable",
      "type": "function"
    },
    {
      "inputs": [],
      "name": "buyTicket",
      "outputs": [],
      "stateMutability": "payable",
      "type": "function"
    },
    {
      "inputs": [
        {
          "internalType": "uint256",
          "name": "_tokenId",
          "type": "uint256"
        }
      ],
      "name": "cancelShell",
      "outputs": [],
      "stateMutability": "nonpayable",
      "type": "function"
    },
    {
      "inputs": [
        {
          "internalType": "uint256",
          "name": "_count",
          "type": "uint256"
        }
      ],
      "name": "addTicketCount",
      "outputs": [],
      "stateMutability": "nonpayable",
      "type": "function"
    },
    {
      "inputs": [
        {
          "internalType": "address",
          "name": "operator",
          "type": "address"
        },
        {
          "internalType": "address",
          "name": "from",
          "type": "address"
        },
        {
          "internalType": "uint256",
          "name": "id",
          "type": "uint256"
        },
        {
          "internalType": "uint256",
          "name": "value",
          "type": "uint256"
        },
        {
          "internalType": "bytes",
          "name": "data",
          "type": "bytes"
        }
      ],
      "name": "onERC1155Received",
      "outputs": [
        {
          "internalType": "bytes4",
          "name": "",
          "type": "bytes4"
        }
      ],
      "stateMutability": "nonpayable",
      "type": "function"
    },
    {
      "inputs": [
        {
          "internalType": "address",
          "name": "operator",
          "type": "address"
        },
        {
          "internalType": "address",
          "name": "from",
          "type": "address"
        },
        {
          "internalType": "uint256[]",
          "name": "ids",
          "type": "uint256[]"
        },
        {
          "internalType": "uint256[]",
          "name": "values",
          "type": "uint256[]"
        },
        {
          "internalType": "bytes",
          "name": "data",
          "type": "bytes"
        }
      ],
      "name": "onERC1155BatchReceived",
      "outputs": [
        {
          "internalType": "bytes4",
          "name": "",
          "type": "bytes4"
        }
      ],
      "stateMutability": "nonpayable",
      "type": "function"
    }
  ],
  "bytecode": "0x60806040526103e860045568056bc75e2d631000006009556005600a557388887ed889e776bcbe2f0f9932ecfabcdfcd1820600b60006101000a81548173ffffffffffffffffffffffffffffffffffffffff021916908373ffffffffffffffffffffffffffffffffffffffff1602179055503480156200007e57600080fd5b50604051620028533803806200285383398181016040526060811015620000a457600080fd5b81019080805190602001909291908051906020019092919080519060200190929190505050600b60009054906101000a900473ffffffffffffffffffffffffffffffffffffffff1673ffffffffffffffffffffffffffffffffffffffff166329965a1d307fb281fc8c12954d22544db45de3159a39272895b169a852b314f9cc762e44c53b60001b306040518463ffffffff1660e01b8152600401808473ffffffffffffffffffffffffffffffffffffffff1673ffffffffffffffffffffffffffffffffffffffff1681526020018381526020018273ffffffffffffffffffffffffffffffffffffffff1673ffffffffffffffffffffffffffffffffffffffff1681526020019350505050600060405180830381600087803b158015620001ca57600080fd5b505af1158015620001df573d6000803e3d6000fd5b50505050336000806101000a81548173ffffffffffffffffffffffffffffffffffffffff021916908373ffffffffffffffffffffffffffffffffffffffff16021790555082600160006101000a81548173ffffffffffffffffffffffffffffffffffffffff021916908373ffffffffffffffffffffffffffffffffffffffff16021790555081600260006101000a81548173ffffffffffffffffffffffffffffffffffffffff021916908373ffffffffffffffffffffffffffffffffffffffff16021790555080600360006101000a81548173ffffffffffffffffffffffffffffffffffffffff021916908373ffffffffffffffffffffffffffffffffffffffff16021790555033600860006101000a81548173ffffffffffffffffffffffffffffffffffffffff021916908373ffffffffffffffffffffffffffffffffffffffff160217905550606060016040519080825280602002602001820160405280156200035a5781602001602082028038833980820191505090505b5090506000816000815181106200036d57fe5b602002602001019073ffffffffffffffffffffffffffffffffffffffff16908173ffffffffffffffffffffffffffffffffffffffff168152505073088800000000000000000000000000000000000173ffffffffffffffffffffffffffffffffffffffff166310128d3e826040518263ffffffff1660e01b81526004018080602001828103825283818151815260200191508051906020019060200280838360005b838110156200042c5780820151818401526020810190506200040f565b5050505090500192505050600060405180830381600087803b1580156200045257600080fd5b505af115801562000467573d6000803e3d6000fd5b50505050505050506123d4806200047f6000396000f3fe6080604052600436106101145760003560e01c806365e17540116100a0578063bc197c8111610064578063bc197c81146105b4578063e0ca908f14610776578063e65387fc146107a4578063edca914c146107df578063f23a6e61146107e957610114565b806365e175401461042e578063980a0f2a1461049a578063a7263665146104eb578063ac5941d91461053a578063b8a283361461058957610114565b80634bde38c8116100e75780634bde38c81461021b5780634d2388fa146102725780635785bca4146102ad57806357f86e4b1461033e5780635adf5119146103f357610114565b80631209b1f6146101195780631d073a7a146101445780632282f4da1461019b578063378bef8a146101e0575b600080fd5b34801561012557600080fd5b5061012e610915565b6040518082815260200191505060405180910390f35b34801561015057600080fd5b5061015961091b565b604051808273ffffffffffffffffffffffffffffffffffffffff1673ffffffffffffffffffffffffffffffffffffffff16815260200191505060405180910390f35b3480156101a757600080fd5b506101de600480360360408110156101be57600080fd5b810190808035906020019092919080359060200190929190505050610933565b005b3480156101ec57600080fd5b506102196004803603602081101561020357600080fd5b8101908080359060200190929190505050610afe565b005b34801561022757600080fd5b50610230610c15565b604051808273ffffffffffffffffffffffffffffffffffffffff1673ffffffffffffffffffffffffffffffffffffffff16815260200191505060405180910390f35b34801561027e57600080fd5b506102ab6004803603602081101561029557600080fd5b8101908080359060200190929190505050610c3b565b005b3480156102b957600080fd5b5061033c600480360360608110156102d057600080fd5b81019080803573ffffffffffffffffffffffffffffffffffffffff169060200190929190803573ffffffffffffffffffffffffffffffffffffffff169060200190929190803573ffffffffffffffffffffffffffffffffffffffff169060200190929190505050610d07565b005b34801561034a57600080fd5b506103776004803603602081101561036157600080fd5b8101908080359060200190929190505050610e91565b604051808473ffffffffffffffffffffffffffffffffffffffff1673ffffffffffffffffffffffffffffffffffffffff1681526020018381526020018273ffffffffffffffffffffffffffffffffffffffff1673ffffffffffffffffffffffffffffffffffffffff168152602001935050505060405180910390f35b3480156103ff57600080fd5b5061042c6004803603602081101561041657600080fd5b8101908080359060200190929190505050610efb565b005b34801561043a57600080fd5b5061044361108a565b6040518080602001828103825283818151815260200191508051906020019060200280838360005b8381101561048657808201518184015260208101905061046b565b505050509050019250505060405180910390f35b3480156104a657600080fd5b506104e9600480360360208110156104bd57600080fd5b81019080803573ffffffffffffffffffffffffffffffffffffffff1690602001909291905050506110e2565b005b3480156104f757600080fd5b506105246004803603602081101561050e57600080fd5b81019080803590602001909291905050506111e8565b6040518082815260200191505060405180910390f35b34801561054657600080fd5b506105736004803603602081101561055d57600080fd5b8101908080359060200190929190505050611200565b6040518082815260200191505060405180910390f35b34801561059557600080fd5b5061059e611221565b6040518082815260200191505060405180910390f35b3480156105c057600080fd5b50610722600480360360a08110156105d757600080fd5b81019080803573ffffffffffffffffffffffffffffffffffffffff169060200190929190803573ffffffffffffffffffffffffffffffffffffffff1690602001909291908035906020019064010000000081111561063457600080fd5b82018360208201111561064657600080fd5b8035906020019184602083028401116401000000008311171561066857600080fd5b90919293919293908035906020019064010000000081111561068957600080fd5b82018360208201111561069b57600080fd5b803590602001918460208302840111640100000000831117156106bd57600080fd5b9091929391929390803590602001906401000000008111156106de57600080fd5b8201836020820111156106f057600080fd5b8035906020019184600183028401116401000000008311171561071257600080fd5b9091929391929390505050611227565b60405180827bffffffffffffffffffffffffffffffffffffffffffffffffffffffff19167bffffffffffffffffffffffffffffffffffffffffffffffffffffffff1916815260200191505060405180910390f35b6107a26004803603602081101561078c57600080fd5b8101908080359060200190929190505050611250565b005b3480156107b057600080fd5b506107dd600480360360208110156107c757600080fd5b81019080803590602001909291905050506115f7565b005b6107e76116c3565b005b3480156107f557600080fd5b506108c1600480360360a081101561080c57600080fd5b81019080803573ffffffffffffffffffffffffffffffffffffffff169060200190929190803573ffffffffffffffffffffffffffffffffffffffff16906020019092919080359060200190929190803590602001909291908035906020019064010000000081111561087d57600080fd5b82018360208201111561088f57600080fd5b803590602001918460018302840111640100000000831117156108b157600080fd5b9091929391929390505050611cd5565b60405180827bffffffffffffffffffffffffffffffffffffffffffffffffffffffff19167bffffffffffffffffffffffffffffffffffffffffffffffffffffffff1916815260200191505060405180910390f35b60095481565b73088800000000000000000000000000000000000181565b60095481101561098e576040517f08c379a00000000000000000000000000000000000000000000000000000000081526004018080602001828103825260238152602001806123446023913960400191505060405180910390fd5b6000600660008481526020019081526020016000209050338160000160006101000a81548173ffffffffffffffffffffffffffffffffffffffff021916908373ffffffffffffffffffffffffffffffffffffffff16021790555060008160020160006101000a81548173ffffffffffffffffffffffffffffffffffffffff021916908373ffffffffffffffffffffffffffffffffffffffff16021790555081816001018190555060058054905060076000858152602001908152602001600020819055506005839080600181540180825580915050600190039060005260206000200160009091909190915055610a86333085611cfc565b7fa4ded55a220657ad8f98e413fb82d16439b38daa30959f3fbd310e04e604bffe338484604051808473ffffffffffffffffffffffffffffffffffffffff1673ffffffffffffffffffffffffffffffffffffffff168152602001838152602001828152602001935050505060405180910390a1505050565b6000809054906101000a900473ffffffffffffffffffffffffffffffffffffffff1673ffffffffffffffffffffffffffffffffffffffff163373ffffffffffffffffffffffffffffffffffffffff1614610bc0576040517f08c379a00000000000000000000000000000000000000000000000000000000081526004018080602001828103825260098152602001807f4e6f74206f776e6572000000000000000000000000000000000000000000000081525060200191505060405180910390fd5b610bd581600454611e1390919063ffffffff16565b6004819055507fa4eff77179922291edeec8715f3ec9e4c9057833c1e7844d5df8234b2107df4c816040518082815260200191505060405180910390a150565b600860009054906101000a900473ffffffffffffffffffffffffffffffffffffffff1681565b6000809054906101000a900473ffffffffffffffffffffffffffffffffffffffff1673ffffffffffffffffffffffffffffffffffffffff163373ffffffffffffffffffffffffffffffffffffffff1614610cfd576040517f08c379a00000000000000000000000000000000000000000000000000000000081526004018080602001828103825260098152602001807f4e6f74206f776e6572000000000000000000000000000000000000000000000081525060200191505060405180910390fd5b8060098190555050565b6000809054906101000a900473ffffffffffffffffffffffffffffffffffffffff1673ffffffffffffffffffffffffffffffffffffffff163373ffffffffffffffffffffffffffffffffffffffff1614610dc9576040517f08c379a00000000000000000000000000000000000000000000000000000000081526004018080602001828103825260098152602001807f4e6f74206f776e6572000000000000000000000000000000000000000000000081525060200191505060405180910390fd5b82600160006101000a81548173ffffffffffffffffffffffffffffffffffffffff021916908373ffffffffffffffffffffffffffffffffffffffff16021790555081600260006101000a81548173ffffffffffffffffffffffffffffffffffffffff021916908373ffffffffffffffffffffffffffffffffffffffff16021790555080600360006101000a81548173ffffffffffffffffffffffffffffffffffffffff021916908373ffffffffffffffffffffffffffffffffffffffff160217905550505050565b60066020528060005260406000206000915090508060000160009054906101000a900473ffffffffffffffffffffffffffffffffffffffff16908060010154908060020160009054906101000a900473ffffffffffffffffffffffffffffffffffffffff16905083565b60006006600083815260200190815260200160002090503373ffffffffffffffffffffffffffffffffffffffff168160000160009054906101000a900473ffffffffffffffffffffffffffffffffffffffff1673ffffffffffffffffffffffffffffffffffffffff1614610fd7576040517f08c379a000000000000000000000000000000000000000000000000000000000815260040180806020018281038252600b8152602001807f4f6e6c792073656c6c657200000000000000000000000000000000000000000081525060200191505060405180910390fd5b610fe2303384611cfc565b7fb4b6149c5d2229d797c190c1fea7a8af2d8f5ae3e0f5b0506a185896fc8eb4de8160000160009054906101000a900473ffffffffffffffffffffffffffffffffffffffff16838360010154604051808473ffffffffffffffffffffffffffffffffffffffff1673ffffffffffffffffffffffffffffffffffffffff168152602001838152602001828152602001935050505060405180910390a161108682611e9b565b5050565b606060058054806020026020016040519081016040528092919081815260200182805480156110d857602002820191906000526020600020905b8154815260200190600101908083116110c4575b5050505050905090565b6000809054906101000a900473ffffffffffffffffffffffffffffffffffffffff1673ffffffffffffffffffffffffffffffffffffffff163373ffffffffffffffffffffffffffffffffffffffff16146111a4576040517f08c379a00000000000000000000000000000000000000000000000000000000081526004018080602001828103825260098152602001807f4e6f74206f776e6572000000000000000000000000000000000000000000000081525060200191505060405180910390fd5b80600860006101000a81548173ffffffffffffffffffffffffffffffffffffffff021916908373ffffffffffffffffffffffffffffffffffffffff16021790555050565b60076020528060005260406000206000915090505481565b6005818154811061120d57fe5b906000526020600020016000915090505481565b60045481565b600060405180806123036041913960410190506040518091039020905098975050505050505050565b600060066000838152602001908152602001600020905060003490503373ffffffffffffffffffffffffffffffffffffffff168260000160009054906101000a900473ffffffffffffffffffffffffffffffffffffffff1673ffffffffffffffffffffffffffffffffffffffff161415611332576040517f08c379a00000000000000000000000000000000000000000000000000000000081526004018080602001828103825260108152602001807f43616e206e6f74206275792073656c660000000000000000000000000000000081525060200191505060405180910390fd5b816001015481146113ab576040517f08c379a000000000000000000000000000000000000000000000000000000000815260040180806020018281038252600b8152602001807f50726963652077726f6e6700000000000000000000000000000000000000000081525060200191505060405180910390fd5b600860009054906101000a900473ffffffffffffffffffffffffffffffffffffffff1673ffffffffffffffffffffffffffffffffffffffff166108fc61140f6064611401600a5486611f6090919063ffffffff16565b611fe690919063ffffffff16565b9081150290604051600060405180830381858888f1935050505015801561143a573d6000803e3d6000fd5b508160000160009054906101000a900473ffffffffffffffffffffffffffffffffffffffff1673ffffffffffffffffffffffffffffffffffffffff166108fc6114a46064611496600a5460640386611f6090919063ffffffff16565b611fe690919063ffffffff16565b9081150290604051600060405180830381858888f193505050501580156114cf573d6000803e3d6000fd5b506114db303385611cfc565b7fd45c773652144cb1eb58e95e7dee7b2f8a115622f3ea23fd488856cda28e2a6b8260000160009054906101000a900473ffffffffffffffffffffffffffffffffffffffff16338584604051808573ffffffffffffffffffffffffffffffffffffffff1673ffffffffffffffffffffffffffffffffffffffff1681526020018473ffffffffffffffffffffffffffffffffffffffff1673ffffffffffffffffffffffffffffffffffffffff16815260200183815260200182815260200194505050505060405180910390a1338260020160006101000a81548173ffffffffffffffffffffffffffffffffffffffff021916908373ffffffffffffffffffffffffffffffffffffffff1602179055506115f283611e9b565b505050565b6000809054906101000a900473ffffffffffffffffffffffffffffffffffffffff1673ffffffffffffffffffffffffffffffffffffffff163373ffffffffffffffffffffffffffffffffffffffff16146116b9576040517f08c379a00000000000000000000000000000000000000000000000000000000081526004018080602001828103825260098152602001807f4e6f74206f776e6572000000000000000000000000000000000000000000000081525060200191505060405180910390fd5b80600a8190555050565b60006004541161173b576040517f08c379a00000000000000000000000000000000000000000000000000000000081526004018080602001828103825260138152602001807f4e6f207469636b65742c2073656c6c206f75740000000000000000000000000081525060200191505060405180910390fd5b60095434146117b2576040517f08c379a00000000000000000000000000000000000000000000000000000000081526004018080602001828103825260138152602001807f4e6f207469636b65742c2073656c6c206f75740000000000000000000000000081525060200191505060405180910390fd5b6000600160009054906101000a900473ffffffffffffffffffffffffffffffffffffffff1673ffffffffffffffffffffffffffffffffffffffff16636a627842336040518263ffffffff1660e01b8152600401808273ffffffffffffffffffffffffffffffffffffffff1673ffffffffffffffffffffffffffffffffffffffff168152602001915050602060405180830381600087803b15801561185557600080fd5b505af1158015611869573d6000803e3d6000fd5b505050506040513d602081101561187f57600080fd5b810190808051906020019092919050505090506118a8600160045461203090919063ffffffff16565b60048190555060008090506000600260009054906101000a900473ffffffffffffffffffffffffffffffffffffffff1673ffffffffffffffffffffffffffffffffffffffff1663732cfca0336040518263ffffffff1660e01b8152600401808273ffffffffffffffffffffffffffffffffffffffff1673ffffffffffffffffffffffffffffffffffffffff16815260200191505060206040518083038186803b15801561195457600080fd5b505afa158015611968573d6000803e3d6000fd5b505050506040513d602081101561197e57600080fd5b81019080805190602001909291905050509050600073ffffffffffffffffffffffffffffffffffffffff168173ffffffffffffffffffffffffffffffffffffffff1614611b46576119f7816119f260646119e46006600954611f6090919063ffffffff16565b611fe690919063ffffffff16565b61207a565b6000600260009054906101000a900473ffffffffffffffffffffffffffffffffffffffff1673ffffffffffffffffffffffffffffffffffffffff1663732cfca0836040518263ffffffff1660e01b8152600401808273ffffffffffffffffffffffffffffffffffffffff1673ffffffffffffffffffffffffffffffffffffffff16815260200191505060206040518083038186803b158015611a9857600080fd5b505afa158015611aac573d6000803e3d6000fd5b505050506040513d6020811015611ac257600080fd5b8101908080519060200190929190505050905060069250600073ffffffffffffffffffffffffffffffffffffffff168273ffffffffffffffffffffffffffffffffffffffff1614611b4457611b3f81611b3a6064611b2c6004600954611f6090919063ffffffff16565b611fe690919063ffffffff16565b61207a565b600a92505b505b611b9c600860009054906101000a900473ffffffffffffffffffffffffffffffffffffffff16611b976064611b8986606403600954611f6090919063ffffffff16565b611fe690919063ffffffff16565b61207a565b600360009054906101000a900473ffffffffffffffffffffffffffffffffffffffff1673ffffffffffffffffffffffffffffffffffffffff16636039fbdb33674563918244f400006040518363ffffffff1660e01b8152600401808373ffffffffffffffffffffffffffffffffffffffff1673ffffffffffffffffffffffffffffffffffffffff16815260200182815260200192505050600060405180830381600087803b158015611c4d57600080fd5b505af1158015611c61573d6000803e3d6000fd5b505050507f2a3164428cba5dad15f5ffe47e10cbefdcbbe9e269fd482753982ee8b2648c3e3384604051808373ffffffffffffffffffffffffffffffffffffffff1673ffffffffffffffffffffffffffffffffffffffff1681526020018281526020019250505060405180910390a1505050565b60006040518080612367603891396038019050604051809103902090509695505050505050565b600160009054906101000a900473ffffffffffffffffffffffffffffffffffffffff1673ffffffffffffffffffffffffffffffffffffffff1663f242432a84848460016040518563ffffffff1660e01b8152600401808573ffffffffffffffffffffffffffffffffffffffff1673ffffffffffffffffffffffffffffffffffffffff1681526020018473ffffffffffffffffffffffffffffffffffffffff1673ffffffffffffffffffffffffffffffffffffffff1681526020018381526020018281526020018060200182810382526000815260200160200195505050505050600060405180830381600087803b158015611df657600080fd5b505af1158015611e0a573d6000803e3d6000fd5b50505050505050565b600080828401905083811015611e91576040517f08c379a000000000000000000000000000000000000000000000000000000000815260040180806020018281038252601b8152602001807f536166654d6174683a206164646974696f6e206f766572666c6f77000000000081525060200191505060405180910390fd5b8091505092915050565b6000611eb6600160058054905061203090919063ffffffff16565b9050600060076000848152602001908152602001600020549050600060058381548110611edf57fe5b906000526020600020015490508060058381548110611efa57fe5b90600052602060002001819055508160076000838152602001908152602001600020819055506005805480611f2b57fe5b600190038181906000526020600020016000905590556000600760008681526020019081526020016000208190555050505050565b600080831415611f735760009050611fe0565b6000828402905082848281611f8457fe5b0414611fdb576040517f08c379a00000000000000000000000000000000000000000000000000000000081526004018080602001828103825260218152602001806122e26021913960400191505060405180910390fd5b809150505b92915050565b600061202883836040518060400160405280601a81526020017f536166654d6174683a206469766973696f6e206279207a65726f00000000000081525061215b565b905092915050565b600061207283836040518060400160405280601e81526020017f536166654d6174683a207375627472616374696f6e206f766572666c6f770000815250612221565b905092915050565b60008273ffffffffffffffffffffffffffffffffffffffff168260405180600001905060006040518083038185875af1925050503d80600081146120da576040519150601f19603f3d011682016040523d82523d6000602084013e6120df565b606091505b5050905080612156576040517f08c379a00000000000000000000000000000000000000000000000000000000081526004018080602001828103825260128152602001807f5452414e5346455220455448204552524f52000000000000000000000000000081525060200191505060405180910390fd5b505050565b60008083118290612207576040517f08c379a00000000000000000000000000000000000000000000000000000000081526004018080602001828103825283818151815260200191508051906020019080838360005b838110156121cc5780820151818401526020810190506121b1565b50505050905090810190601f1680156121f95780820380516001836020036101000a031916815260200191505b509250505060405180910390fd5b50600083858161221357fe5b049050809150509392505050565b60008383111582906122ce576040517f08c379a00000000000000000000000000000000000000000000000000000000081526004018080602001828103825283818151815260200191508051906020019080838360005b83811015612293578082015181840152602081019050612278565b50505050905090810190601f1680156122c05780820380516001836020036101000a031916815260200191505b509250505060405180910390fd5b506000838503905080915050939250505056fe536166654d6174683a206d756c7469706c69636174696f6e206f766572666c6f776f6e455243313135354261746368526563656976656428616464726573732c616464726573732c75696e743235365b5d2c75696e743235365b5d2c6279746573295072696365206d757374206c6172676572207468616e207469636b65742070726963656f6e45524331313535526563656976656428616464726573732c616464726573732c75696e743235362c75696e743235362c627974657329a2646970667358221220892f6cd55558aa65a1439c9a1d7be1bc2f5c1a5e088d799d1907f02856629bd764736f6c63430006020033",
  "source": "pragma solidity 0.6.2;\n\nimport \"@openzeppelin/contracts/math/SafeMath.sol\";\n\nimport \"@openzeppelin/contracts/token/ERC777/IERC777Recipient.sol\";\nimport \"@openzeppelin/contracts/token/ERC777/IERC777.sol\";\nimport \"@openzeppelin/contracts/introspection/IERC1820Registry.sol\";\nimport \"./SponsorWhitelistControl.sol\";\n\n\ninterface TicketNft{\n    function mint(address player) external returns (uint256);\n    function safeTransferFrom(\n        address from,\n        address to,\n        uint256 tokenId,\n        uint256 amount,\n        bytes calldata data\n    ) external;\n}\n\ninterface Chicken20 is IERC777{\n    function addTokens(address _address,uint256 _amount) external;\n}\n\ninterface Invite{\n    function getUserSimpleInfo(address _address) view external returns(address referrer);\n}\n\ncontract TicketShop{\n\n    event BuyTicket(address buyer, uint256 tokenId);\n    event CancelShell(address seller, uint256 tokenId, uint256 price);\n    event AddTicketCount(uint256 count);\n    event BuySellerTicket(address seller,address buyer,uint256 tokenId,uint256 price);\n    event SellTicker(address seller,uint256 tokenId,uint256 price);\n\n    using SafeMath for uint256;\n\n    address ticketShopOwner;\n\n    TicketNft ticketNft;\n\n    Invite invite;\n\n    Chicken20 chicken20;\n\n    uint256 public totalTicket = 1000;\n\n    uint256[] public shopIds;\n\n    mapping(uint256 => Shop) public shopMap;\n    mapping(uint256 => uint256) public _allTokensIndex;\n\n    address public platform;\n\n    uint256 public ticketPrice = 100e18;\n\n    uint256 rate = 5;\n\n    struct Shop{\n        address seller;\n        uint256 price;\n        address buyer;\n    }\n\n    modifier onlyOwner(){\n        require(msg.sender == ticketShopOwner,\"Not owner\");\n        _;\n    }\n\n    IERC1820Registry private _erc1820 = IERC1820Registry(0x88887eD889e776bCBe2f0f9932EcFaBcDfCd1820);\n\n    // keccak256(\"ERC777TokensRecipient\")\n    bytes32 constant private TOKENS_RECIPIENT_INTERFACE_HASH =\n        0xb281fc8c12954d22544db45de3159a39272895b169a852b314f9cc762e44c53b;\n\n    SponsorWhitelistControl public constant SPONSOR = SponsorWhitelistControl(\n        address(0x0888000000000000000000000000000000000001)\n    );\n\n    constructor(address _ticketNft, Invite _invite, Chicken20 _chicken20) public{\n        _erc1820.setInterfaceImplementer(address(this), TOKENS_RECIPIENT_INTERFACE_HASH, address(this));\n        ticketShopOwner = msg.sender;\n        ticketNft = TicketNft(_ticketNft);\n        invite = _invite;\n        chicken20 = _chicken20;\n        platform = msg.sender;\n\n        // register all users as sponsees\n        address[] memory users = new address[](1);\n        users[0] = address(0);\n        SPONSOR.addPrivilege(users);\n    }\n\n    function getShopItems() view public returns(uint256[] memory _shopIds){\n        return shopIds;\n    }\n\n    function setTokenParam(TicketNft _ticketNft, Invite _invite, Chicken20 _chicken20) public onlyOwner(){\n        ticketNft = TicketNft(_ticketNft);\n        invite = _invite;\n        chicken20 = _chicken20;\n    }\n\n    function setTickPrice(uint256 _ticketPrice) public onlyOwner(){\n        ticketPrice = _ticketPrice;\n    }\n\n    function setPlatForm(address _platform) public onlyOwner(){\n        platform = _platform;\n    }\n\n    function setPlatFormRate(uint256 _rate) public onlyOwner(){\n        rate = _rate;\n    }\n\n    function sellTicker(uint256 _tokenId,uint256 _price) public{\n        require(_price >= ticketPrice,\"Price must larger than ticket price\");\n        Shop storage shop = shopMap[_tokenId];\n        shop.seller = msg.sender;\n        shop.buyer = address(0);\n        shop.price = _price;\n        _allTokensIndex[_tokenId] = shopIds.length;\n        shopIds.push(_tokenId);\n        transfer1155(msg.sender,address(this),_tokenId);\n        emit SellTicker(msg.sender, _tokenId, _price);\n    }\n\n    function buySellerTicket(uint256 _tokenId) payable public{\n        Shop storage shop=shopMap[_tokenId];\n        uint256 _price = msg.value;\n        require(shop.seller!=msg.sender,\"Can not buy self\");\n        require(_price==shop.price,\"Price wrong\");\n        address(uint160(platform)).transfer(_price.mul(rate).div(100));\n        address(uint160(shop.seller)).transfer(_price.mul(100-rate).div(100));\n        //721\n        // ticketNft.transferFrom(address(this), msg.sender, _tokenId);\n        //1155\n        transfer1155(address(this),msg.sender,_tokenId);\n        emit BuySellerTicket(shop.seller, msg.sender, _tokenId, _price);\n        shop.buyer = msg.sender;\n        _removeTokenFromShop(_tokenId);\n    }\n\n    function buyTicket() payable public{\n        require(totalTicket > 0,\"No ticket, sell out\");\n        require(msg.value == ticketPrice,\"No ticket, sell out\");\n        // nft 1155\n        uint256 _tokenId = ticketNft.mint(msg.sender);\n        totalTicket = totalTicket.sub(1);\n        uint256 am = 0;\n        address parent = invite.getUserSimpleInfo(msg.sender);\n        if(parent!=address(0)){\n            transferEth(parent,ticketPrice.mul(6).div(100));\n            address grandparent = invite.getUserSimpleInfo(parent);\n            am = 6;\n            if(parent!=address(0)){\n                transferEth(grandparent,ticketPrice.mul(4).div(100));\n                am = 10;\n            }\n        }\n        transferEth(platform,ticketPrice.mul(100-am).div(100));\n        chicken20.addTokens(msg.sender,5e18);\n        emit BuyTicket(msg.sender,_tokenId);\n    }\n\n    function cancelShell(uint256 _tokenId) public{\n        Shop storage shop=shopMap[_tokenId];\n        require(shop.seller == msg.sender,\"Only seller\");\n        transfer1155(address(this),msg.sender,_tokenId);\n        emit CancelShell(shop.seller,_tokenId,shop.price);\n        _removeTokenFromShop(_tokenId);\n    }\n\n    function addTicketCount(uint256 _count) public onlyOwner{\n        totalTicket= totalTicket.add(_count);\n        emit AddTicketCount(_count);\n    }\n\n    function _removeTokenFromShop(uint256 _tokenId) private {\n        uint256 lastTokenIndex = shopIds.length.sub(1);\n        uint256 tokenIndex = _allTokensIndex[_tokenId];\n\n        uint256 lastTokenId = shopIds[lastTokenIndex];\n\n        shopIds[tokenIndex] = lastTokenId;\n        _allTokensIndex[lastTokenId] = tokenIndex;\n\n        shopIds.pop();\n        _allTokensIndex[_tokenId] = 0;\n    }\n\n    function transferEth(address _address, uint256 _value) internal{\n        (bool res, ) = address(uint160(_address)).call{value:_value}(\"\");\n        require(res,\"TRANSFER ETH ERROR\");\n    }\n\n    function transfer1155(address _from,address _to,uint256 _tokenId) internal{\n        ticketNft.safeTransferFrom(_from,_to,_tokenId,1,\"\");\n    }\n\n     //-----------\n    function onERC1155Received(\n        address operator,\n        address from,\n        uint256 id,\n        uint256 value,\n        bytes calldata data\n    )external returns(bytes4){\n       return bytes4(keccak256(\"onERC1155Received(address,address,uint256,uint256,bytes)\"));\n    }\n\n    function onERC1155BatchReceived(\n        address operator,\n        address from,\n        uint256[] calldata ids,\n        uint256[] calldata values,\n        bytes calldata data\n    )external returns(bytes4){\n        return bytes4(keccak256(\"onERC1155BatchReceived(address,address,uint256[],uint256[],bytes)\"));\n    }\n}\n",
  "sourcePath": "/Users/wangban/Downloads/money/coin/chk/chksol/contracts/TicketShop.sol",
  "compiler": {
    "name": "solc",
    "version": "0.6.2+commit.bacdbe57.Emscripten.clang"
  },
  "schemaVersion": "3.2.0",
  "updatedAt": "2021-01-17T02:05:08.998Z",
  "devdoc": {
    "methods": {}
  },
  "userdoc": {
    "methods": {}
  }
}