{
  "contractName": "Ticket1155Nft",
  "abi": [
    {
      "inputs": [],
      "stateMutability": "nonpayable",
      "type": "constructor"
    },
    {
      "anonymous": false,
      "inputs": [
        {
          "indexed": true,
          "internalType": "address",
          "name": "account",
          "type": "address"
        },
        {
          "indexed": true,
          "internalType": "address",
          "name": "operator",
          "type": "address"
        },
        {
          "indexed": false,
          "internalType": "bool",
          "name": "approved",
          "type": "bool"
        }
      ],
      "name": "ApprovalForAll",
      "type": "event"
    },
    {
      "anonymous": false,
      "inputs": [
        {
          "indexed": true,
          "internalType": "address",
          "name": "operator",
          "type": "address"
        },
        {
          "indexed": true,
          "internalType": "address",
          "name": "from",
          "type": "address"
        },
        {
          "indexed": true,
          "internalType": "address",
          "name": "to",
          "type": "address"
        },
        {
          "indexed": false,
          "internalType": "uint256[]",
          "name": "ids",
          "type": "uint256[]"
        },
        {
          "indexed": false,
          "internalType": "uint256[]",
          "name": "values",
          "type": "uint256[]"
        }
      ],
      "name": "TransferBatch",
      "type": "event"
    },
    {
      "anonymous": false,
      "inputs": [
        {
          "indexed": true,
          "internalType": "address",
          "name": "operator",
          "type": "address"
        },
        {
          "indexed": true,
          "internalType": "address",
          "name": "from",
          "type": "address"
        },
        {
          "indexed": true,
          "internalType": "address",
          "name": "to",
          "type": "address"
        },
        {
          "indexed": false,
          "internalType": "uint256",
          "name": "id",
          "type": "uint256"
        },
        {
          "indexed": false,
          "internalType": "uint256",
          "name": "value",
          "type": "uint256"
        }
      ],
      "name": "TransferSingle",
      "type": "event"
    },
    {
      "anonymous": false,
      "inputs": [
        {
          "indexed": false,
          "internalType": "string",
          "name": "value",
          "type": "string"
        },
        {
          "indexed": true,
          "internalType": "uint256",
          "name": "id",
          "type": "uint256"
        }
      ],
      "name": "URI",
      "type": "event"
    },
    {
      "inputs": [],
      "name": "SPONSOR",
      "outputs": [
        {
          "internalType": "contract SponsorWhitelistControl",
          "name": "",
          "type": "address"
        }
      ],
      "stateMutability": "view",
      "type": "function"
    },
    {
      "inputs": [
        {
          "internalType": "address",
          "name": "account",
          "type": "address"
        },
        {
          "internalType": "uint256",
          "name": "id",
          "type": "uint256"
        }
      ],
      "name": "balanceOf",
      "outputs": [
        {
          "internalType": "uint256",
          "name": "",
          "type": "uint256"
        }
      ],
      "stateMutability": "view",
      "type": "function"
    },
    {
      "inputs": [
        {
          "internalType": "address[]",
          "name": "accounts",
          "type": "address[]"
        },
        {
          "internalType": "uint256[]",
          "name": "ids",
          "type": "uint256[]"
        }
      ],
      "name": "balanceOfBatch",
      "outputs": [
        {
          "internalType": "uint256[]",
          "name": "",
          "type": "uint256[]"
        }
      ],
      "stateMutability": "view",
      "type": "function"
    },
    {
      "inputs": [
        {
          "internalType": "address",
          "name": "account",
          "type": "address"
        },
        {
          "internalType": "address",
          "name": "operator",
          "type": "address"
        }
      ],
      "name": "isApprovedForAll",
      "outputs": [
        {
          "internalType": "bool",
          "name": "",
          "type": "bool"
        }
      ],
      "stateMutability": "view",
      "type": "function"
    },
    {
      "inputs": [
        {
          "internalType": "address",
          "name": "",
          "type": "address"
        }
      ],
      "name": "miners",
      "outputs": [
        {
          "internalType": "bool",
          "name": "",
          "type": "bool"
        }
      ],
      "stateMutability": "view",
      "type": "function"
    },
    {
      "inputs": [],
      "name": "name",
      "outputs": [
        {
          "internalType": "string",
          "name": "",
          "type": "string"
        }
      ],
      "stateMutability": "view",
      "type": "function"
    },
    {
      "inputs": [
        {
          "internalType": "address",
          "name": "operator",
          "type": "address"
        },
        {
          "internalType": "bool",
          "name": "approved",
          "type": "bool"
        }
      ],
      "name": "setApprovalForAll",
      "outputs": [],
      "stateMutability": "nonpayable",
      "type": "function"
    },
    {
      "inputs": [
        {
          "internalType": "bytes4",
          "name": "interfaceId",
          "type": "bytes4"
        }
      ],
      "name": "supportsInterface",
      "outputs": [
        {
          "internalType": "bool",
          "name": "",
          "type": "bool"
        }
      ],
      "stateMutability": "view",
      "type": "function"
    },
    {
      "inputs": [],
      "name": "symbol",
      "outputs": [
        {
          "internalType": "string",
          "name": "",
          "type": "string"
        }
      ],
      "stateMutability": "view",
      "type": "function"
    },
    {
      "inputs": [
        {
          "internalType": "address",
          "name": "_miner",
          "type": "address"
        }
      ],
      "name": "addMiner",
      "outputs": [],
      "stateMutability": "nonpayable",
      "type": "function"
    },
    {
      "inputs": [
        {
          "internalType": "address",
          "name": "_miner",
          "type": "address"
        }
      ],
      "name": "removeMiner",
      "outputs": [],
      "stateMutability": "nonpayable",
      "type": "function"
    },
    {
      "inputs": [
        {
          "internalType": "string",
          "name": "_baseUri",
          "type": "string"
        }
      ],
      "name": "setBaseUri",
      "outputs": [],
      "stateMutability": "nonpayable",
      "type": "function"
    },
    {
      "inputs": [
        {
          "internalType": "address",
          "name": "_owner",
          "type": "address"
        }
      ],
      "name": "tokensOf",
      "outputs": [
        {
          "internalType": "uint256[]",
          "name": "_tokens",
          "type": "uint256[]"
        }
      ],
      "stateMutability": "view",
      "type": "function"
    },
    {
      "inputs": [
        {
          "internalType": "uint256",
          "name": "_id",
          "type": "uint256"
        }
      ],
      "name": "uri",
      "outputs": [
        {
          "internalType": "string",
          "name": "",
          "type": "string"
        }
      ],
      "stateMutability": "view",
      "type": "function"
    },
    {
      "inputs": [],
      "name": "totalSupply",
      "outputs": [
        {
          "internalType": "uint256",
          "name": "",
          "type": "uint256"
        }
      ],
      "stateMutability": "view",
      "type": "function"
    },
    {
      "inputs": [
        {
          "internalType": "address",
          "name": "from",
          "type": "address"
        },
        {
          "internalType": "address",
          "name": "to",
          "type": "address"
        },
        {
          "internalType": "uint256",
          "name": "tokenId",
          "type": "uint256"
        },
        {
          "internalType": "uint256",
          "name": "amount",
          "type": "uint256"
        },
        {
          "internalType": "bytes",
          "name": "data",
          "type": "bytes"
        }
      ],
      "name": "safeTransferFrom",
      "outputs": [],
      "stateMutability": "nonpayable",
      "type": "function"
    },
    {
      "inputs": [
        {
          "internalType": "address",
          "name": "from",
          "type": "address"
        },
        {
          "internalType": "address",
          "name": "to",
          "type": "address"
        },
        {
          "internalType": "uint256[]",
          "name": "ids",
          "type": "uint256[]"
        },
        {
          "internalType": "uint256[]",
          "name": "amounts",
          "type": "uint256[]"
        },
        {
          "internalType": "bytes",
          "name": "data",
          "type": "bytes"
        }
      ],
      "name": "safeBatchTransferFrom",
      "outputs": [],
      "stateMutability": "nonpayable",
      "type": "function"
    },
    {
      "inputs": [
        {
          "internalType": "address",
          "name": "_to",
          "type": "address"
        }
      ],
      "name": "mint",
      "outputs": [
        {
          "internalType": "uint256",
          "name": "",
          "type": "uint256"
        }
      ],
      "stateMutability": "nonpayable",
      "type": "function"
    },
    {
      "inputs": [
        {
          "internalType": "address",
          "name": "owner",
          "type": "address"
        },
        {
          "internalType": "uint256",
          "name": "tokenId",
          "type": "uint256"
        }
      ],
      "name": "burn",
      "outputs": [],
      "stateMutability": "nonpayable",
      "type": "function"
    }
  ],
  "bytecode": "0x60806040526040518060400160405280600b81526020017f545454545420546f6b656e000000000000000000000000000000000000000000815250600690805190602001906200005192919062000405565b506040518060400160405280600481526020017f5454545400000000000000000000000000000000000000000000000000000000815250600790805190602001906200009f92919062000405565b50348015620000ad57600080fd5b506040518060600160405280602881526020016200435760289139620000e06301ffc9a760e01b620002e060201b60201c565b620000f181620003e960201b60201c565b6200010963d9b67a2660e01b620002e060201b60201c565b62000121630e89341c60e01b620002e060201b60201c565b5033600560006101000a81548173ffffffffffffffffffffffffffffffffffffffff021916908373ffffffffffffffffffffffffffffffffffffffff1602179055506040518060600160405280602881526020016200435760289139600c90805190602001906200019492919062000405565b5060606001604051908082528060200260200182016040528015620001c85781602001602082028038833980820191505090505b509050600081600081518110620001db57fe5b602002602001019073ffffffffffffffffffffffffffffffffffffffff16908173ffffffffffffffffffffffffffffffffffffffff168152505073088800000000000000000000000000000000000173ffffffffffffffffffffffffffffffffffffffff166310128d3e826040518263ffffffff1660e01b81526004018080602001828103825283818151815260200191508051906020019060200280838360005b838110156200029a5780820151818401526020810190506200027d565b5050505090500192505050600060405180830381600087803b158015620002c057600080fd5b505af1158015620002d5573d6000803e3d6000fd5b5050505050620004b4565b63ffffffff60e01b817bffffffffffffffffffffffffffffffffffffffffffffffffffffffff191614156200037d576040517f08c379a000000000000000000000000000000000000000000000000000000000815260040180806020018281038252601c8152602001807f4552433136353a20696e76616c696420696e746572666163652069640000000081525060200191505060405180910390fd5b6001600080837bffffffffffffffffffffffffffffffffffffffffffffffffffffffff19167bffffffffffffffffffffffffffffffffffffffffffffffffffffffff1916815260200190815260200160002060006101000a81548160ff02191690831515021790555050565b80600390805190602001906200040192919062000405565b5050565b828054600181600116156101000203166002900490600052602060002090601f016020900481019282601f106200044857805160ff191683800117855562000479565b8280016001018555821562000479579182015b82811115620004785782518255916020019190600101906200045b565b5b5090506200048891906200048c565b5090565b620004b191905b80821115620004ad57600081600090555060010162000493565b5090565b90565b613e9380620004c46000396000f3fe608060405234801561001057600080fd5b50600436106101205760003560e01c80635a3f2672116100ad578063a0bcfc7f11610071578063a0bcfc7f146109a4578063a22cb46514610a5f578063e985e9c514610aaf578063f242432a14610b2b578063f3982e5e14610c3a57610120565b80635a3f267214610786578063648ec7b91461081f5780636a6278421461087b57806395d89b41146108d35780639dc29fac1461095657610120565b806310242590116100f4578063102425901461031657806318160ddd1461035a5780631d073a7a146103785780632eb2c2d6146103c25780634e1273f4146105e557610120565b8062fdd58e1461012557806301ffc9a71461018757806306fdde03146101ec5780630e89341c1461026f575b600080fd5b6101716004803603604081101561013b57600080fd5b81019080803573ffffffffffffffffffffffffffffffffffffffff16906020019092919080359060200190929190505050610c7e565b6040518082815260200191505060405180910390f35b6101d26004803603602081101561019d57600080fd5b8101908080357bffffffffffffffffffffffffffffffffffffffffffffffffffffffff19169060200190929190505050610d5e565b604051808215151515815260200191505060405180910390f35b6101f4610dc5565b6040518080602001828103825283818151815260200191508051906020019080838360005b83811015610234578082015181840152602081019050610219565b50505050905090810190601f1680156102615780820380516001836020036101000a031916815260200191505b509250505060405180910390f35b61029b6004803603602081101561028557600080fd5b8101908080359060200190929190505050610e63565b6040518080602001828103825283818151815260200191508051906020019080838360005b838110156102db5780820151818401526020810190506102c0565b50505050905090810190601f1680156103085780820380516001836020036101000a031916815260200191505b509250505060405180910390f35b6103586004803603602081101561032c57600080fd5b81019080803573ffffffffffffffffffffffffffffffffffffffff169060200190929190505050610f4e565b005b61036261106c565b6040518082815260200191505060405180910390f35b610380611079565b604051808273ffffffffffffffffffffffffffffffffffffffff1673ffffffffffffffffffffffffffffffffffffffff16815260200191505060405180910390f35b6105e3600480360360a08110156103d857600080fd5b81019080803573ffffffffffffffffffffffffffffffffffffffff169060200190929190803573ffffffffffffffffffffffffffffffffffffffff1690602001909291908035906020019064010000000081111561043557600080fd5b82018360208201111561044757600080fd5b8035906020019184602083028401116401000000008311171561046957600080fd5b919080806020026020016040519081016040528093929190818152602001838360200280828437600081840152601f19601f820116905080830192505050505050509192919290803590602001906401000000008111156104c957600080fd5b8201836020820111156104db57600080fd5b803590602001918460208302840111640100000000831117156104fd57600080fd5b919080806020026020016040519081016040528093929190818152602001838360200280828437600081840152601f19601f8201169050808301925050505050505091929192908035906020019064010000000081111561055d57600080fd5b82018360208201111561056f57600080fd5b8035906020019184600183028401116401000000008311171561059157600080fd5b91908080601f016020809104026020016040519081016040528093929190818152602001838380828437600081840152601f19601f820116905080830192505050505050509192919290505050611091565b005b61072f600480360360408110156105fb57600080fd5b810190808035906020019064010000000081111561061857600080fd5b82018360208201111561062a57600080fd5b8035906020019184602083028401116401000000008311171561064c57600080fd5b919080806020026020016040519081016040528093929190818152602001838360200280828437600081840152601f19601f820116905080830192505050505050509192919290803590602001906401000000008111156106ac57600080fd5b8201836020820111156106be57600080fd5b803590602001918460208302840111640100000000831117156106e057600080fd5b919080806020026020016040519081016040528093929190818152602001838360200280828437600081840152601f19601f820116905080830192505050505050509192919290505050611106565b6040518080602001828103825283818151815260200191508051906020019060200280838360005b83811015610772578082015181840152602081019050610757565b505050509050019250505060405180910390f35b6107c86004803603602081101561079c57600080fd5b81019080803573ffffffffffffffffffffffffffffffffffffffff1690602001909291905050506112e4565b6040518080602001828103825283818151815260200191508051906020019060200280838360005b8381101561080b5780820151818401526020810190506107f0565b505050509050019250505060405180910390f35b6108616004803603602081101561083557600080fd5b81019080803573ffffffffffffffffffffffffffffffffffffffff16906020019092919050505061137b565b604051808215151515815260200191505060405180910390f35b6108bd6004803603602081101561089157600080fd5b81019080803573ffffffffffffffffffffffffffffffffffffffff16906020019092919050505061139b565b6040518082815260200191505060405180910390f35b6108db61157e565b6040518080602001828103825283818151815260200191508051906020019080838360005b8381101561091b578082015181840152602081019050610900565b50505050905090810190601f1680156109485780820380516001836020036101000a031916815260200191505b509250505060405180910390f35b6109a26004803603604081101561096c57600080fd5b81019080803573ffffffffffffffffffffffffffffffffffffffff1690602001909291908035906020019092919050505061161c565b005b610a5d600480360360208110156109ba57600080fd5b81019080803590602001906401000000008111156109d757600080fd5b8201836020820111156109e957600080fd5b80359060200191846001830284011164010000000083111715610a0b57600080fd5b91908080601f016020809104026020016040519081016040528093929190818152602001838380828437600081840152601f19601f820116905080830192505050505050509192919290505050611658565b005b610aad60048036036040811015610a7557600080fd5b81019080803573ffffffffffffffffffffffffffffffffffffffff16906020019092919080351515906020019092919050505061173e565b005b610b1160048036036040811015610ac557600080fd5b81019080803573ffffffffffffffffffffffffffffffffffffffff169060200190929190803573ffffffffffffffffffffffffffffffffffffffff1690602001909291905050506118d9565b604051808215151515815260200191505060405180910390f35b610c38600480360360a0811015610b4157600080fd5b81019080803573ffffffffffffffffffffffffffffffffffffffff169060200190929190803573ffffffffffffffffffffffffffffffffffffffff169060200190929190803590602001909291908035906020019092919080359060200190640100000000811115610bb257600080fd5b820183602082011115610bc457600080fd5b80359060200191846001830284011164010000000083111715610be657600080fd5b91908080601f016020809104026020016040519081016040528093929190818152602001838380828437600081840152601f19601f82011690508083019250505050505050919291929050505061196d565b005b610c7c60048036036020811015610c5057600080fd5b81019080803573ffffffffffffffffffffffffffffffffffffffff169060200190929190505050611995565b005b60008073ffffffffffffffffffffffffffffffffffffffff168373ffffffffffffffffffffffffffffffffffffffff161415610d05576040517f08c379a000000000000000000000000000000000000000000000000000000000815260040180806020018281038252602b815260200180613c76602b913960400191505060405180910390fd5b6001600083815260200190815260200160002060008473ffffffffffffffffffffffffffffffffffffffff1673ffffffffffffffffffffffffffffffffffffffff16815260200190815260200160002054905092915050565b6000806000837bffffffffffffffffffffffffffffffffffffffffffffffffffffffff19167bffffffffffffffffffffffffffffffffffffffffffffffffffffffff1916815260200190815260200160002060009054906101000a900460ff169050919050565b60068054600181600116156101000203166002900480601f016020809104026020016040519081016040528092919081815260200182805460018160011615610100020316600290048015610e5b5780601f10610e3057610100808354040283529160200191610e5b565b820191906000526020600020905b815481529060010190602001808311610e3e57829003601f168201915b505050505081565b6060610f47600c8054600181600116156101000203166002900480601f016020809104026020016040519081016040528092919081815260200182805460018160011615610100020316600290048015610efe5780601f10610ed357610100808354040283529160200191610efe565b820191906000526020600020905b815481529060010190602001808311610ee157829003601f168201915b5050505050610f0c84611ab3565b6040518060400160405280600581526020017f2e6a736f6e000000000000000000000000000000000000000000000000000000815250611be0565b9050919050565b3373ffffffffffffffffffffffffffffffffffffffff16600560009054906101000a900473ffffffffffffffffffffffffffffffffffffffff1673ffffffffffffffffffffffffffffffffffffffff1614611011576040517f08c379a00000000000000000000000000000000000000000000000000000000081526004018080602001828103825260098152602001807f4e6f74206f776e6572000000000000000000000000000000000000000000000081525060200191505060405180910390fd5b6000600d60008373ffffffffffffffffffffffffffffffffffffffff1673ffffffffffffffffffffffffffffffffffffffff16815260200190815260200160002060006101000a81548160ff02191690831515021790555050565b6000600a80549050905090565b73088800000000000000000000000000000000000181565b61109e8585858585611c16565b60008090505b83518110156110fe5760008482815181106110bb57fe5b6020026020010151905060008483815181106110d357fe5b602002602001015190506110e788836120a4565b6110f1878361224d565b50508060010190506110a4565b505050505050565b60608151835114611162576040517f08c379a0000000000000000000000000000000000000000000000000000000008152600401808060200182810382526029815260200180613dec6029913960400191505060405180910390fd5b606083516040519080825280602002602001820160405280156111945781602001602082028038833980820191505090505b50905060008090505b84518110156112d957600073ffffffffffffffffffffffffffffffffffffffff168582815181106111ca57fe5b602002602001015173ffffffffffffffffffffffffffffffffffffffff16141561123f576040517f08c379a0000000000000000000000000000000000000000000000000000000008152600401808060200182810382526031815260200180613ca16031913960400191505060405180910390fd5b6001600085838151811061124f57fe5b60200260200101518152602001908152602001600020600086838151811061127357fe5b602002602001015173ffffffffffffffffffffffffffffffffffffffff1673ffffffffffffffffffffffffffffffffffffffff168152602001908152602001600020548282815181106112c257fe5b60200260200101818152505080600101905061119d565b508091505092915050565b6060600860008373ffffffffffffffffffffffffffffffffffffffff1673ffffffffffffffffffffffffffffffffffffffff16815260200190815260200160002080548060200260200160405190810160405280929190818152602001828054801561136f57602002820191906000526020600020905b81548152602001906001019080831161135b575b50505050509050919050565b600d6020528060005260406000206000915054906101000a900460ff1681565b6000600d60003373ffffffffffffffffffffffffffffffffffffffff1673ffffffffffffffffffffffffffffffffffffffff16815260200190815260200160002060009054906101000a900460ff1661145c576040517f08c379a00000000000000000000000000000000000000000000000000000000081526004018080602001828103825260098152602001807f4e6f74206d696e6572000000000000000000000000000000000000000000000081525060200191505060405180910390fd5b6114666004612311565b60006114726004612327565b90506115628382600161155d600c8054600181600116156101000203166002900480601f0160208091040260200160405190810160405280929190818152602001828054600181600116156101000203166002900480156115145780601f106114e957610100808354040283529160200191611514565b820191906000526020600020905b8154815290600101906020018083116114f757829003601f168201915b505050505061152230612335565b6040518060400160405280600181526020017f2f00000000000000000000000000000000000000000000000000000000000000815250611be0565b612576565b61156b81612779565b611575838261224d565b80915050919050565b60078054600181600116156101000203166002900480601f0160208091040260200160405190810160405280929190818152602001828054600181600116156101000203166002900480156116145780601f106115e957610100808354040283529160200191611614565b820191906000526020600020905b8154815290600101906020018083116115f757829003601f168201915b505050505081565b611628828260016127c2565b61163282826120a4565b60006009600083815260200190815260200160002081905550611654816129de565b5050565b3373ffffffffffffffffffffffffffffffffffffffff16600560009054906101000a900473ffffffffffffffffffffffffffffffffffffffff1673ffffffffffffffffffffffffffffffffffffffff161461171b576040517f08c379a00000000000000000000000000000000000000000000000000000000081526004018080602001828103825260098152602001807f4e6f74206f776e6572000000000000000000000000000000000000000000000081525060200191505060405180910390fd5b61172481612aa3565b80600c908051906020019061173a929190613b74565b5050565b8173ffffffffffffffffffffffffffffffffffffffff1661175d612abd565b73ffffffffffffffffffffffffffffffffffffffff1614156117ca576040517f08c379a0000000000000000000000000000000000000000000000000000000008152600401808060200182810382526029815260200180613dc36029913960400191505060405180910390fd5b80600260006117d7612abd565b73ffffffffffffffffffffffffffffffffffffffff1673ffffffffffffffffffffffffffffffffffffffff16815260200190815260200160002060008473ffffffffffffffffffffffffffffffffffffffff1673ffffffffffffffffffffffffffffffffffffffff16815260200190815260200160002060006101000a81548160ff0219169083151502179055508173ffffffffffffffffffffffffffffffffffffffff16611884612abd565b73ffffffffffffffffffffffffffffffffffffffff167f17307eab39ab6107e8899845ad3d59bd9653f200f220920489ca2b5937696c3183604051808215151515815260200191505060405180910390a35050565b6000600260008473ffffffffffffffffffffffffffffffffffffffff1673ffffffffffffffffffffffffffffffffffffffff16815260200190815260200160002060008373ffffffffffffffffffffffffffffffffffffffff1673ffffffffffffffffffffffffffffffffffffffff16815260200190815260200160002060009054906101000a900460ff16905092915050565b61197a8585858585612ac5565b61198485846120a4565b61198e848461224d565b5050505050565b3373ffffffffffffffffffffffffffffffffffffffff16600560009054906101000a900473ffffffffffffffffffffffffffffffffffffffff1673ffffffffffffffffffffffffffffffffffffffff1614611a58576040517f08c379a00000000000000000000000000000000000000000000000000000000081526004018080602001828103825260098152602001807f4e6f74206f776e6572000000000000000000000000000000000000000000000081525060200191505060405180910390fd5b6001600d60008373ffffffffffffffffffffffffffffffffffffffff1673ffffffffffffffffffffffffffffffffffffffff16815260200190815260200160002060006101000a81548160ff02191690831515021790555050565b60606000821415611afb576040518060400160405280600181526020017f30000000000000000000000000000000000000000000000000000000000000008152509050611bdb565b600082905060005b60008214611b25578080600101915050600a8281611b1d57fe5b049150611b03565b6060816040519080825280601f01601f191660200182016040528015611b5a5781602001600182028038833980820191505090505b50905060006001830390505b60008614611bd357600a8681611b7857fe5b0660300160f81b82828060019003935081518110611b9257fe5b60200101907effffffffffffffffffffffffffffffffffffffffffffffffffffffffffffff1916908160001a905350600a8681611bcb57fe5b049550611b66565b819450505050505b919050565b6060611c0d8484846040518060200160405280600081525060405180602001604052806000815250612e3a565b90509392505050565b8151835114611c70576040517f08c379a0000000000000000000000000000000000000000000000000000000008152600401808060200182810382526028815260200180613e156028913960400191505060405180910390fd5b600073ffffffffffffffffffffffffffffffffffffffff168473ffffffffffffffffffffffffffffffffffffffff161415611cf6576040517f08c379a0000000000000000000000000000000000000000000000000000000008152600401808060200182810382526025815260200180613d1f6025913960400191505060405180910390fd5b611cfe612abd565b73ffffffffffffffffffffffffffffffffffffffff168573ffffffffffffffffffffffffffffffffffffffff161480611d445750611d4385611d3e612abd565b6118d9565b5b611d99576040517f08c379a0000000000000000000000000000000000000000000000000000000008152600401808060200182810382526032815260200180613d446032913960400191505060405180910390fd5b6000611da3612abd565b9050611db3818787878787613100565b60008090505b8451811015611f87576000858281518110611dd057fe5b602002602001015190506000858381518110611de857fe5b60200260200101519050611e6f816040518060600160405280602a8152602001613d99602a91396001600086815260200190815260200160002060008d73ffffffffffffffffffffffffffffffffffffffff1673ffffffffffffffffffffffffffffffffffffffff168152602001908152602001600020546131089092919063ffffffff16565b6001600084815260200190815260200160002060008b73ffffffffffffffffffffffffffffffffffffffff1673ffffffffffffffffffffffffffffffffffffffff16815260200190815260200160002081905550611f26816001600085815260200190815260200160002060008b73ffffffffffffffffffffffffffffffffffffffff1673ffffffffffffffffffffffffffffffffffffffff168152602001908152602001600020546131c890919063ffffffff16565b6001600084815260200190815260200160002060008a73ffffffffffffffffffffffffffffffffffffffff1673ffffffffffffffffffffffffffffffffffffffff168152602001908152602001600020819055505050806001019050611db9565b508473ffffffffffffffffffffffffffffffffffffffff168673ffffffffffffffffffffffffffffffffffffffff168273ffffffffffffffffffffffffffffffffffffffff167f4a39dc06d4c0dbc64b70af90fd698a233a518aa5d07e595d983b8c0526c8f7fb8787604051808060200180602001838103835285818151815260200191508051906020019060200280838360005b8381101561203757808201518184015260208101905061201c565b50505050905001838103825284818151815260200191508051906020019060200280838360005b8381101561207957808201518184015260208101905061205e565b5050505090500194505050505060405180910390a461209c818787878787613250565b505050505050565b60006120fc6001600860008673ffffffffffffffffffffffffffffffffffffffff1673ffffffffffffffffffffffffffffffffffffffff168152602001908152602001600020805490506136c890919063ffffffff16565b90506000600960008481526020019081526020016000205490508181146121e9576000600860008673ffffffffffffffffffffffffffffffffffffffff1673ffffffffffffffffffffffffffffffffffffffff168152602001908152602001600020838154811061216957fe5b9060005260206000200154905080600860008773ffffffffffffffffffffffffffffffffffffffff1673ffffffffffffffffffffffffffffffffffffffff16815260200190815260200160002083815481106121c157fe5b9060005260206000200181905550816009600083815260200190815260200160002081905550505b600860008573ffffffffffffffffffffffffffffffffffffffff1673ffffffffffffffffffffffffffffffffffffffff16815260200190815260200160002080548061223157fe5b6001900381819060005260206000200160009055905550505050565b600860008373ffffffffffffffffffffffffffffffffffffffff1673ffffffffffffffffffffffffffffffffffffffff168152602001908152602001600020805490506009600083815260200190815260200160002081905550600860008373ffffffffffffffffffffffffffffffffffffffff1673ffffffffffffffffffffffffffffffffffffffff1681526020019081526020016000208190806001815401808255809150506001900390600052602060002001600090919091909150555050565b6001816000016000828254019250508190555050565b600081600001549050919050565b606060008260601b905060007f303132333435363738396162636465660000000000000000000000000000000090506060602a6040519080825280601f01601f19166020018201604052801561239a5781602001600182028038833980820191505090505b5090507f3000000000000000000000000000000000000000000000000000000000000000816000815181106123cb57fe5b60200101907effffffffffffffffffffffffffffffffffffffffffffffffffffffffffffff1916908160001a9053507f78000000000000000000000000000000000000000000000000000000000000008160018151811061242857fe5b60200101907effffffffffffffffffffffffffffffffffffffffffffffffffffffffffffff1916908160001a90535060008090505b601481101561256a5782600485836014811061247557fe5b1a60f81b7effffffffffffffffffffffffffffffffffffffffffffffffffffffffffffff1916901c60f81c60ff16601081106124ad57fe5b1a60f81b82600280840201815181106124c257fe5b60200101907effffffffffffffffffffffffffffffffffffffffffffffffffffffffffffff1916908160001a90535082600f60f81b85836014811061250357fe5b1a60f81b1660f81c60ff166010811061251857fe5b1a60f81b82600360028402018151811061252e57fe5b60200101907effffffffffffffffffffffffffffffffffffffffffffffffffffffffffffff1916908160001a905350808060010191505061245d565b50809350505050919050565b600073ffffffffffffffffffffffffffffffffffffffff168473ffffffffffffffffffffffffffffffffffffffff1614156125fc576040517f08c379a0000000000000000000000000000000000000000000000000000000008152600401808060200182810382526021815260200180613e3d6021913960400191505060405180910390fd5b6000612606612abd565b90506126278160008761261888613712565b61262188613712565b87613100565b61268a836001600087815260200190815260200160002060008873ffffffffffffffffffffffffffffffffffffffff1673ffffffffffffffffffffffffffffffffffffffff168152602001908152602001600020546131c890919063ffffffff16565b6001600086815260200190815260200160002060008773ffffffffffffffffffffffffffffffffffffffff1673ffffffffffffffffffffffffffffffffffffffff168152602001908152602001600020819055508473ffffffffffffffffffffffffffffffffffffffff16600073ffffffffffffffffffffffffffffffffffffffff168273ffffffffffffffffffffffffffffffffffffffff167fc3d58168c5ae7397731d063d5bbf3d657854427343f4c083240f7aacaa2d0f628787604051808381526020018281526020019250505060405180910390a46127728160008787878761376b565b5050505050565b600a80549050600b600083815260200190815260200160002081905550600a81908060018154018082558091505060019003906000526020600020016000909190919091505550565b600073ffffffffffffffffffffffffffffffffffffffff168373ffffffffffffffffffffffffffffffffffffffff161415612848576040517f08c379a0000000000000000000000000000000000000000000000000000000008152600401808060200182810382526023815260200180613d766023913960400191505060405180910390fd5b6000612852612abd565b90506128828185600061286487613712565b61286d87613712565b60405180602001604052806000815250613100565b6128ff82604051806060016040528060248152602001613cd2602491396001600087815260200190815260200160002060008873ffffffffffffffffffffffffffffffffffffffff1673ffffffffffffffffffffffffffffffffffffffff168152602001908152602001600020546131089092919063ffffffff16565b6001600085815260200190815260200160002060008673ffffffffffffffffffffffffffffffffffffffff1673ffffffffffffffffffffffffffffffffffffffff16815260200190815260200160002081905550600073ffffffffffffffffffffffffffffffffffffffff168473ffffffffffffffffffffffffffffffffffffffff168273ffffffffffffffffffffffffffffffffffffffff167fc3d58168c5ae7397731d063d5bbf3d657854427343f4c083240f7aacaa2d0f628686604051808381526020018281526020019250505060405180910390a450505050565b60006129f96001600a805490506136c890919063ffffffff16565b90506000600b60008481526020019081526020016000205490506000600a8381548110612a2257fe5b9060005260206000200154905080600a8381548110612a3d57fe5b906000526020600020018190555081600b600083815260200190815260200160002081905550600a805480612a6e57fe5b600190038181906000526020600020016000905590556000600b60008681526020019081526020016000208190555050505050565b8060039080519060200190612ab9929190613b74565b5050565b600033905090565b600073ffffffffffffffffffffffffffffffffffffffff168473ffffffffffffffffffffffffffffffffffffffff161415612b4b576040517f08c379a0000000000000000000000000000000000000000000000000000000008152600401808060200182810382526025815260200180613d1f6025913960400191505060405180910390fd5b612b53612abd565b73ffffffffffffffffffffffffffffffffffffffff168573ffffffffffffffffffffffffffffffffffffffff161480612b995750612b9885612b93612abd565b6118d9565b5b612bee576040517f08c379a0000000000000000000000000000000000000000000000000000000008152600401808060200182810382526029815260200180613cf66029913960400191505060405180910390fd5b6000612bf8612abd565b9050612c18818787612c0988613712565b612c1288613712565b87613100565b612c95836040518060600160405280602a8152602001613d99602a91396001600088815260200190815260200160002060008a73ffffffffffffffffffffffffffffffffffffffff1673ffffffffffffffffffffffffffffffffffffffff168152602001908152602001600020546131089092919063ffffffff16565b6001600086815260200190815260200160002060008873ffffffffffffffffffffffffffffffffffffffff1673ffffffffffffffffffffffffffffffffffffffff16815260200190815260200160002081905550612d4c836001600087815260200190815260200160002060008873ffffffffffffffffffffffffffffffffffffffff1673ffffffffffffffffffffffffffffffffffffffff168152602001908152602001600020546131c890919063ffffffff16565b6001600086815260200190815260200160002060008773ffffffffffffffffffffffffffffffffffffffff1673ffffffffffffffffffffffffffffffffffffffff168152602001908152602001600020819055508473ffffffffffffffffffffffffffffffffffffffff168673ffffffffffffffffffffffffffffffffffffffff168273ffffffffffffffffffffffffffffffffffffffff167fc3d58168c5ae7397731d063d5bbf3d657854427343f4c083240f7aacaa2d0f628787604051808381526020018281526020019250505060405180910390a4612e3281878787878761376b565b505050505050565b6060808690506060869050606086905060608690506060869050606081518351855187518951010101016040519080825280601f01601f191660200182016040528015612e965781602001600182028038833980820191505090505b5090506060819050600080905060008090505b8851811015612f1757888181518110612ebe57fe5b602001015160f81c60f81b838380600101945081518110612edb57fe5b60200101907effffffffffffffffffffffffffffffffffffffffffffffffffffffffffffff1916908160001a9053508080600101915050612ea9565b5060008090505b8751811015612f8c57878181518110612f3357fe5b602001015160f81c60f81b838380600101945081518110612f5057fe5b60200101907effffffffffffffffffffffffffffffffffffffffffffffffffffffffffffff1916908160001a9053508080600101915050612f1e565b5060008090505b865181101561300157868181518110612fa857fe5b602001015160f81c60f81b838380600101945081518110612fc557fe5b60200101907effffffffffffffffffffffffffffffffffffffffffffffffffffffffffffff1916908160001a9053508080600101915050612f93565b5060008090505b85518110156130765785818151811061301d57fe5b602001015160f81c60f81b83838060010194508151811061303a57fe5b60200101907effffffffffffffffffffffffffffffffffffffffffffffffffffffffffffff1916908160001a9053508080600101915050613008565b5060008090505b84518110156130eb5784818151811061309257fe5b602001015160f81c60f81b8383806001019450815181106130af57fe5b60200101907effffffffffffffffffffffffffffffffffffffffffffffffffffffffffffff1916908160001a905350808060010191505061307d565b50819850505050505050505095945050505050565b505050505050565b60008383111582906131b5576040517f08c379a00000000000000000000000000000000000000000000000000000000081526004018080602001828103825283818151815260200191508051906020019080838360005b8381101561317a57808201518184015260208101905061315f565b50505050905090810190601f1680156131a75780820380516001836020036101000a031916815260200191505b509250505060405180910390fd5b5060008385039050809150509392505050565b600080828401905083811015613246576040517f08c379a000000000000000000000000000000000000000000000000000000000815260040180806020018281038252601b8152602001807f536166654d6174683a206164646974696f6e206f766572666c6f77000000000081525060200191505060405180910390fd5b8091505092915050565b61326f8473ffffffffffffffffffffffffffffffffffffffff16613b61565b156136c0578373ffffffffffffffffffffffffffffffffffffffff1663bc197c8187878686866040518663ffffffff1660e01b8152600401808673ffffffffffffffffffffffffffffffffffffffff1673ffffffffffffffffffffffffffffffffffffffff1681526020018573ffffffffffffffffffffffffffffffffffffffff1673ffffffffffffffffffffffffffffffffffffffff168152602001806020018060200180602001848103845287818151815260200191508051906020019060200280838360005b83811015613353578082015181840152602081019050613338565b50505050905001848103835286818151815260200191508051906020019060200280838360005b8381101561339557808201518184015260208101905061337a565b50505050905001848103825285818151815260200191508051906020019080838360005b838110156133d45780820151818401526020810190506133b9565b50505050905090810190601f1680156134015780820380516001836020036101000a031916815260200191505b5098505050505050505050602060405180830381600087803b15801561342657600080fd5b505af192505050801561345a57506040513d602081101561344657600080fd5b810190808051906020019092919050505060015b6136215760006040519050600081526001156135235760443d10156134825760009050613523565b60046000803e60005160e01c6308c379a081146134a3576000915050613523565b60043d036004833e81513d602482011167ffffffffffffffff821117156134cf57600092505050613523565b808301805167ffffffffffffffff8111156134f1576000945050505050613523565b8060208301013d860181111561350f57600095505050505050613523565b601f19601f82011660405282955050505050505b8061352e57506135d0565b806040517f08c379a00000000000000000000000000000000000000000000000000000000081526004018080602001828103825283818151815260200191508051906020019080838360005b8381101561359557808201518184015260208101905061357a565b50505050905090810190601f1680156135c25780820380516001836020036101000a031916815260200191505b509250505060405180910390fd5b6040517f08c379a0000000000000000000000000000000000000000000000000000000008152600401808060200182810382526034815260200180613c1a6034913960400191505060405180910390fd5b63bc197c8160e01b7bffffffffffffffffffffffffffffffffffffffffffffffffffffffff1916817bffffffffffffffffffffffffffffffffffffffffffffffffffffffff1916146136be576040517f08c379a0000000000000000000000000000000000000000000000000000000008152600401808060200182810382526028815260200180613c4e6028913960400191505060405180910390fd5b505b505050505050565b600061370a83836040518060400160405280601e81526020017f536166654d6174683a207375627472616374696f6e206f766572666c6f770000815250613108565b905092915050565b60608060016040519080825280602002602001820160405280156137455781602001602082028038833980820191505090505b509050828160008151811061375657fe5b60200260200101818152505080915050919050565b61378a8473ffffffffffffffffffffffffffffffffffffffff16613b61565b15613b59578373ffffffffffffffffffffffffffffffffffffffff1663f23a6e6187878686866040518663ffffffff1660e01b8152600401808673ffffffffffffffffffffffffffffffffffffffff1673ffffffffffffffffffffffffffffffffffffffff1681526020018573ffffffffffffffffffffffffffffffffffffffff1673ffffffffffffffffffffffffffffffffffffffff16815260200184815260200183815260200180602001828103825283818151815260200191508051906020019080838360005b8381101561386f578082015181840152602081019050613854565b50505050905090810190601f16801561389c5780820380516001836020036101000a031916815260200191505b509650505050505050602060405180830381600087803b1580156138bf57600080fd5b505af19250505080156138f357506040513d60208110156138df57600080fd5b810190808051906020019092919050505060015b613aba5760006040519050600081526001156139bc5760443d101561391b57600090506139bc565b60046000803e60005160e01c6308c379a0811461393c5760009150506139bc565b60043d036004833e81513d602482011167ffffffffffffffff82111715613968576000925050506139bc565b808301805167ffffffffffffffff81111561398a5760009450505050506139bc565b8060208301013d86018111156139a8576000955050505050506139bc565b601f19601f82011660405282955050505050505b806139c75750613a69565b806040517f08c379a00000000000000000000000000000000000000000000000000000000081526004018080602001828103825283818151815260200191508051906020019080838360005b83811015613a2e578082015181840152602081019050613a13565b50505050905090810190601f168015613a5b5780820380516001836020036101000a031916815260200191505b509250505060405180910390fd5b6040517f08c379a0000000000000000000000000000000000000000000000000000000008152600401808060200182810382526034815260200180613c1a6034913960400191505060405180910390fd5b63f23a6e6160e01b7bffffffffffffffffffffffffffffffffffffffffffffffffffffffff1916817bffffffffffffffffffffffffffffffffffffffffffffffffffffffff191614613b57576040517f08c379a0000000000000000000000000000000000000000000000000000000008152600401808060200182810382526028815260200180613c4e6028913960400191505060405180910390fd5b505b505050505050565b600080823b905060008111915050919050565b828054600181600116156101000203166002900490600052602060002090601f016020900481019282601f10613bb557805160ff1916838001178555613be3565b82800160010185558215613be3579182015b82811115613be2578251825591602001919060010190613bc7565b5b509050613bf09190613bf4565b5090565b613c1691905b80821115613c12576000816000905550600101613bfa565b5090565b9056fe455243313135353a207472616e7366657220746f206e6f6e2045524331313535526563656976657220696d706c656d656e746572455243313135353a204552433131353552656365697665722072656a656374656420746f6b656e73455243313135353a2062616c616e636520717565727920666f7220746865207a65726f2061646472657373455243313135353a2062617463682062616c616e636520717565727920666f7220746865207a65726f2061646472657373455243313135353a206275726e20616d6f756e7420657863656564732062616c616e6365455243313135353a2063616c6c6572206973206e6f74206f776e6572206e6f7220617070726f766564455243313135353a207472616e7366657220746f20746865207a65726f2061646472657373455243313135353a207472616e736665722063616c6c6572206973206e6f74206f776e6572206e6f7220617070726f766564455243313135353a206275726e2066726f6d20746865207a65726f2061646472657373455243313135353a20696e73756666696369656e742062616c616e636520666f72207472616e73666572455243313135353a2073657474696e6720617070726f76616c2073746174757320666f722073656c66455243313135353a206163636f756e747320616e6420696473206c656e677468206d69736d61746368455243313135353a2069647320616e6420616d6f756e7473206c656e677468206d69736d61746368455243313135353a206d696e7420746f20746865207a65726f2061646472657373a2646970667358221220b0c6727dc5029d4d9f0c73edbaa7be443f4a945c9a2acac01bab11dec4d89afe64736f6c63430006020033687474703a2f2f3138302e37362e3131362e3139313a31383735362f76312f6e66742f627262722f",
  "source": "\npragma solidity ^0.6.2;\n\nimport \"@openzeppelin/contracts/token/ERC1155/ERC1155.sol\";\nimport \"@openzeppelin/contracts/utils/Counters.sol\";\nimport \"./SponsorWhitelistControl.sol\";\n\nlibrary Strings {\n  // via https://github.com/oraclize/ethereum-api/blob/master/oraclizeAPI_0.5.sol\n  function strConcat(string memory _a, string memory _b, string memory _c, string memory _d, string memory _e) internal pure returns (string memory) {\n    bytes memory _ba = bytes(_a);\n    bytes memory _bb = bytes(_b);\n    bytes memory _bc = bytes(_c);\n    bytes memory _bd = bytes(_d);\n    bytes memory _be = bytes(_e);\n    string memory abcde = new string(_ba.length + _bb.length + _bc.length + _bd.length + _be.length);\n    bytes memory babcde = bytes(abcde);\n    uint k = 0;\n    for (uint i = 0; i < _ba.length; i++) babcde[k++] = _ba[i];\n    for (uint i = 0; i < _bb.length; i++) babcde[k++] = _bb[i];\n    for (uint i = 0; i < _bc.length; i++) babcde[k++] = _bc[i];\n    for (uint i = 0; i < _bd.length; i++) babcde[k++] = _bd[i];\n    for (uint i = 0; i < _be.length; i++) babcde[k++] = _be[i];\n    return string(babcde);\n  }\n\n//   function strConcat(string memory _a, string memory _b, string memory _c, string memory _d) internal pure returns (string memory) {\n//     return strConcat(_a, _b, _c, _d, \"\");\n//   }\n\n  function strConcat(string memory _a, string memory _b, string memory _c) internal pure returns (string memory) {\n    return strConcat(_a, _b, _c, \"\", \"\");\n  }\n\n  function strConcat(string memory _a, string memory _b) internal pure returns (string memory) {\n    return strConcat(_a, _b, \"\", \"\", \"\");\n  }\n\n  function uint2str(uint _i) internal pure returns (string memory _uintAsString) {\n    if (_i == 0) {\n      return \"0\";\n    }\n    uint j = _i;\n    uint len;\n    while (j != 0) {\n      len++;\n      j /= 10;\n    }\n    bytes memory bstr = new bytes(len);\n    uint k = len - 1;\n    while (_i != 0) {\n      bstr[k--] = byte(uint8(48 + _i % 10));\n      _i /= 10;\n    }\n    return string(bstr);\n  }\n\n  function fromAddress(address addr) internal pure returns(string memory) {\n    bytes20 addrBytes = bytes20(addr);\n    bytes16 hexAlphabet = \"0123456789abcdef\";\n    bytes memory result = new bytes(42);\n    result[0] = '0';\n    result[1] = 'x';\n    for (uint i = 0; i < 20; i++) {\n      result[i * 2 + 2] = hexAlphabet[uint8(addrBytes[i] >> 4)];\n      result[i * 2 + 3] = hexAlphabet[uint8(addrBytes[i] & 0x0f)];\n    }\n    return string(result);\n  }\n}\n\ncontract Ticket1155Nft is ERC1155 {\n\n    using Counters for Counters.Counter;\n    Counters.Counter private _tokenIds;\n\n    address owner;\n    // Contract name\n    string public name=\"TTTTT Token\";\n    // Contract symbol\n    string public symbol=\"TTTT\";\n\n    // Mapping from owner to list of owned token IDs\n    mapping(address => uint256[]) private _ownedTokens;\n\n    // Mapping from token ID to index of the owner tokens list\n    mapping(uint256 => uint256) private _ownedTokensIndex;\n\n    // Array with all token ids, used for enumeration\n    uint256[] private _allTokens;\n\n    // Mapping from token id to position in the allTokens array\n    mapping(uint256 => uint256) private _allTokensIndex;\n\n    string baseUri;\n\n    mapping(address => bool) public miners;\n\n    modifier onlyOwner(){\n        require(owner==msg.sender,\"Not owner\");\n        _;\n    }\n\n    modifier onlyMiner(){\n        require(miners[msg.sender],\"Not miner\");\n        _;\n    }\n\n    SponsorWhitelistControl public constant SPONSOR = SponsorWhitelistControl(\n        address(0x0888000000000000000000000000000000000001)\n    );\n\n    constructor() public ERC1155(\"http://180.76.116.191:18756/v1/nft/brbr/\") {\n        owner=msg.sender;\n        baseUri = \"http://180.76.116.191:18756/v1/nft/brbr/\";\n\n        // register all users as sponsees\n        address[] memory users = new address[](1);\n        users[0] = address(0);\n        SPONSOR.addPrivilege(users);\n    }\n\n    function addMiner(address _miner) public onlyOwner(){\n        miners[_miner] = true;\n    }\n\n    function removeMiner(address _miner) public onlyOwner(){\n        miners[_miner] = false;\n    }\n\n    function setBaseUri(string memory _baseUri) public onlyOwner(){\n        super._setURI(_baseUri);\n        baseUri = _baseUri;\n    }\n\n    function tokensOf(address _owner) view public returns(uint256[] memory _tokens){\n        return _ownedTokens[_owner];\n    }\n\n    function uri(uint256 _id) external view override returns (string memory) {\n        return Strings.strConcat(baseUri, Strings.uint2str(_id), \".json\");\n    }\n\n    /**\n     * @dev Gets the total amount of tokens stored by the contract.\n     * @return uint256 representing the total amount of tokens\n     */\n    function totalSupply() public view returns (uint256) {\n        return _allTokens.length;\n    }\n\n    function safeTransferFrom(\n        address from,\n        address to,\n        uint256 tokenId,\n        uint256 amount,\n        bytes memory data\n    ) public override{\n        super.safeTransferFrom(from,to,tokenId,amount,data);\n         _removeTokenFromOwnerEnumeration(from, tokenId);\n        _addTokenToOwnerEnumeration(to, tokenId);\n    }\n\n    function safeBatchTransferFrom(\n        address from,\n        address to,\n        uint256[] memory ids,\n        uint256[] memory amounts,\n        bytes memory data\n    )\n        public\n        virtual\n        override\n    {\n        super.safeBatchTransferFrom(from,to,ids,amounts,data);\n        for (uint256 i = 0; i < ids.length; ++i) {\n            uint256 tokenId = ids[i];\n            uint256 amount = amounts[i];\n\n            _removeTokenFromOwnerEnumeration(from, tokenId);\n            _addTokenToOwnerEnumeration(to, tokenId);\n        }\n        \n    }\n\n    /**\n     * @dev Private function to add a token to this extension's ownership-tracking data structures.\n     * @param to address representing the new owner of the given token ID\n     * @param tokenId uint256 ID of the token to be added to the tokens list of the given address\n     */\n    function _addTokenToOwnerEnumeration(address to, uint256 tokenId) private {\n        _ownedTokensIndex[tokenId] = _ownedTokens[to].length;\n        _ownedTokens[to].push(tokenId);\n    }\n\n    /**\n     * @dev Private function to add a token to this extension's token tracking data structures.\n     * @param tokenId uint256 ID of the token to be added to the tokens list\n     */\n    function _addTokenToAllTokensEnumeration(uint256 tokenId) private {\n        _allTokensIndex[tokenId] = _allTokens.length;\n        _allTokens.push(tokenId);\n    }\n\n    function mint(address _to) public onlyMiner() returns(uint256){\n        _tokenIds.increment();\n        uint256 newItemId = _tokenIds.current();\n        _mint(_to, newItemId, 1, bytes(Strings.strConcat(baseUri, Strings.fromAddress(address(this)), \"/\"))); \n        _addTokenToAllTokensEnumeration(newItemId);\n        _addTokenToOwnerEnumeration(_to, newItemId);\n        return newItemId;\n    }\n\n     /**\n     * @dev Internal function to burn a specific token.\n     * Reverts if the token does not exist.\n     * Deprecated, use {ERC721-_burn} instead.\n     * @param owner owner of the token to burn\n     * @param tokenId uint256 ID of the token being burned\n     */\n    function burn(address owner, uint256 tokenId) public {\n        super._burn(owner, tokenId,1);\n\n        _removeTokenFromOwnerEnumeration(owner, tokenId);\n        // Since tokenId will be deleted, we can clear its slot in _ownedTokensIndex to trigger a gas refund\n        _ownedTokensIndex[tokenId] = 0;\n\n        _removeTokenFromAllTokensEnumeration(tokenId);\n    }\n\n    /**\n     * @dev Private function to remove a token from this extension's ownership-tracking data structures. Note that\n     * while the token is not assigned a new owner, the `_ownedTokensIndex` mapping is _not_ updated: this allows for\n     * gas optimizations e.g. when performing a transfer operation (avoiding double writes).\n     * This has O(1) time complexity, but alters the order of the _ownedTokens array.\n     * @param from address representing the previous owner of the given token ID\n     * @param tokenId uint256 ID of the token to be removed from the tokens list of the given address\n     */\n    function _removeTokenFromOwnerEnumeration(address from, uint256 tokenId) private {\n        // To prevent a gap in from's tokens array, we store the last token in the index of the token to delete, and\n        // then delete the last slot (swap and pop).\n\n        uint256 lastTokenIndex = _ownedTokens[from].length.sub(1);\n        uint256 tokenIndex = _ownedTokensIndex[tokenId];\n\n        // When the token to delete is the last token, the swap operation is unnecessary\n        if (tokenIndex != lastTokenIndex) {\n            uint256 lastTokenId = _ownedTokens[from][lastTokenIndex];\n\n            _ownedTokens[from][tokenIndex] = lastTokenId; // Move the last token to the slot of the to-delete token\n            _ownedTokensIndex[lastTokenId] = tokenIndex; // Update the moved token's index\n        }\n\n        // This also deletes the contents at the last position of the array\n        _ownedTokens[from].pop();\n\n        // Note that _ownedTokensIndex[tokenId] hasn't been cleared: it still points to the old slot (now occupied by\n        // lastTokenId, or just over the end of the array if the token was the last one).\n    }\n\n     /**\n     * @dev Private function to remove a token from this extension's token tracking data structures.\n     * This has O(1) time complexity, but alters the order of the _allTokens array.\n     * @param tokenId uint256 ID of the token to be removed from the tokens list\n     */\n    function _removeTokenFromAllTokensEnumeration(uint256 tokenId) private {\n        // To prevent a gap in the tokens array, we store the last token in the index of the token to delete, and\n        // then delete the last slot (swap and pop).\n\n        uint256 lastTokenIndex = _allTokens.length.sub(1);\n        uint256 tokenIndex = _allTokensIndex[tokenId];\n\n        // When the token to delete is the last token, the swap operation is unnecessary. However, since this occurs so\n        // rarely (when the last minted token is burnt) that we still do the swap here to avoid the gas cost of adding\n        // an 'if' statement (like in _removeTokenFromOwnerEnumeration)\n        uint256 lastTokenId = _allTokens[lastTokenIndex];\n\n        _allTokens[tokenIndex] = lastTokenId; // Move the last token to the slot of the to-delete token\n        _allTokensIndex[lastTokenId] = tokenIndex; // Update the moved token's index\n\n        // This also deletes the contents at the last position of the array\n        _allTokens.pop();\n        _allTokensIndex[tokenId] = 0;\n    }\n}",
  "sourcePath": "/Users/wangban/Downloads/money/coin/chk/chksol/contracts/Ticket1155Nft.sol",
  "compiler": {
    "name": "solc",
    "version": "0.6.2+commit.bacdbe57.Emscripten.clang"
  },
  "schemaVersion": "3.2.0",
  "updatedAt": "2021-01-13T03:23:37.189Z",
  "devdoc": {
    "methods": {
      "balanceOf(address,uint256)": {
        "details": "See {IERC1155-balanceOf}.     * Requirements:     * - `account` cannot be the zero address."
      },
      "balanceOfBatch(address[],uint256[])": {
        "details": "See {IERC1155-balanceOfBatch}.     * Requirements:     * - `accounts` and `ids` must have the same length."
      },
      "burn(address,uint256)": {
        "details": "Internal function to burn a specific token. Reverts if the token does not exist. Deprecated, use {ERC721-_burn} instead.",
        "params": {
          "owner": "owner of the token to burn",
          "tokenId": "uint256 ID of the token being burned"
        }
      },
      "isApprovedForAll(address,address)": {
        "details": "See {IERC1155-isApprovedForAll}."
      },
      "setApprovalForAll(address,bool)": {
        "details": "See {IERC1155-setApprovalForAll}."
      },
      "supportsInterface(bytes4)": {
        "details": "See {IERC165-supportsInterface}.     * Time complexity O(1), guaranteed to always use less than 30 000 gas."
      },
      "totalSupply()": {
        "details": "Gets the total amount of tokens stored by the contract.",
        "returns": {
          "_0": "uint256 representing the total amount of tokens"
        }
      }
    }
  },
  "userdoc": {
    "methods": {}
  }
}